{
	"contracts/StockCoin.sol": {
		"StockCoin": {
			"abi": [
				{
					"inputs": [
						{
							"internalType": "string",
							"name": "token_name",
							"type": "string"
						},
						{
							"internalType": "string",
							"name": "short_symbol",
							"type": "string"
						},
						{
							"internalType": "uint8",
							"name": "token_decimals",
							"type": "uint8"
						},
						{
							"internalType": "uint256",
							"name": "token_totalSupply",
							"type": "uint256"
						}
					],
					"stateMutability": "nonpayable",
					"type": "constructor"
				},
				{
					"anonymous": false,
					"inputs": [
						{
							"indexed": true,
							"internalType": "address",
							"name": "owner",
							"type": "address"
						},
						{
							"indexed": true,
							"internalType": "address",
							"name": "spender",
							"type": "address"
						},
						{
							"indexed": false,
							"internalType": "uint256",
							"name": "value",
							"type": "uint256"
						}
					],
					"name": "Approval",
					"type": "event"
				},
				{
					"anonymous": false,
					"inputs": [
						{
							"indexed": true,
							"internalType": "address",
							"name": "previousOwner",
							"type": "address"
						},
						{
							"indexed": true,
							"internalType": "address",
							"name": "newOwner",
							"type": "address"
						}
					],
					"name": "OwnershipTransferred",
					"type": "event"
				},
				{
					"anonymous": false,
					"inputs": [
						{
							"indexed": true,
							"internalType": "address",
							"name": "from",
							"type": "address"
						},
						{
							"indexed": true,
							"internalType": "address",
							"name": "to",
							"type": "address"
						},
						{
							"indexed": false,
							"internalType": "uint256",
							"name": "value",
							"type": "uint256"
						}
					],
					"name": "Transfer",
					"type": "event"
				},
				{
					"inputs": [
						{
							"internalType": "address",
							"name": "account",
							"type": "address"
						}
					],
					"name": "balanceOf",
					"outputs": [
						{
							"internalType": "uint256",
							"name": "",
							"type": "uint256"
						}
					],
					"stateMutability": "view",
					"type": "function"
				},
				{
					"inputs": [
						{
							"internalType": "address",
							"name": "account",
							"type": "address"
						},
						{
							"internalType": "uint256",
							"name": "amount",
							"type": "uint256"
						}
					],
					"name": "burn",
					"outputs": [
						{
							"internalType": "bool",
							"name": "",
							"type": "bool"
						}
					],
					"stateMutability": "nonpayable",
					"type": "function"
				},
				{
					"inputs": [],
					"name": "decimals",
					"outputs": [
						{
							"internalType": "uint8",
							"name": "",
							"type": "uint8"
						}
					],
					"stateMutability": "view",
					"type": "function"
				},
				{
					"inputs": [
						{
							"internalType": "address",
							"name": "account",
							"type": "address"
						},
						{
							"internalType": "uint256",
							"name": "amount",
							"type": "uint256"
						}
					],
					"name": "mint",
					"outputs": [
						{
							"internalType": "bool",
							"name": "",
							"type": "bool"
						}
					],
					"stateMutability": "nonpayable",
					"type": "function"
				},
				{
					"inputs": [],
					"name": "name",
					"outputs": [
						{
							"internalType": "string",
							"name": "",
							"type": "string"
						}
					],
					"stateMutability": "view",
					"type": "function"
				},
				{
					"inputs": [],
					"name": "owner",
					"outputs": [
						{
							"internalType": "address",
							"name": "",
							"type": "address"
						}
					],
					"stateMutability": "view",
					"type": "function"
				},
				{
					"inputs": [],
					"name": "renounceOwnership",
					"outputs": [],
					"stateMutability": "nonpayable",
					"type": "function"
				},
				{
					"inputs": [],
					"name": "symbol",
					"outputs": [
						{
							"internalType": "string",
							"name": "",
							"type": "string"
						}
					],
					"stateMutability": "view",
					"type": "function"
				},
				{
					"inputs": [],
					"name": "totalSupply",
					"outputs": [
						{
							"internalType": "uint256",
							"name": "",
							"type": "uint256"
						}
					],
					"stateMutability": "view",
					"type": "function"
				},
				{
					"inputs": [
						{
							"internalType": "address",
							"name": "recipient",
							"type": "address"
						},
						{
							"internalType": "uint256",
							"name": "amount",
							"type": "uint256"
						}
					],
					"name": "transfer",
					"outputs": [
						{
							"internalType": "bool",
							"name": "",
							"type": "bool"
						}
					],
					"stateMutability": "nonpayable",
					"type": "function"
				},
				{
					"inputs": [
						{
							"internalType": "address",
							"name": "newOwner",
							"type": "address"
						}
					],
					"name": "transferOwnership",
					"outputs": [],
					"stateMutability": "nonpayable",
					"type": "function"
				}
			],
			"devdoc": {
				"kind": "dev",
				"methods": {},
				"version": 1
			},
			"evm": {
				"assembly": "    /* \"contracts/StockCoin.sol\":83:6584  contract StockCoin is Ownable {... */\n  mstore(0x40, 0x80)\n    /* \"contracts/StockCoin.sol\":1071:1596  constructor (string memory token_name, string memory short_symbol, uint8 token_decimals, uint256 token_totalSupply) {... */\n  callvalue\n  dup1\n  iszero\n  tag_1\n  jumpi\n  0x00\n  dup1\n  revert\ntag_1:\n  pop\n  mload(0x40)\n  sub(codesize, bytecodeSize)\n  dup1\n  bytecodeSize\n  dup4\n  codecopy\n  dup2\n  dup2\n  add\n  0x40\n  mstore\n  dup2\n  add\n  swap1\n  tag_2\n  swap2\n  swap1\n  tag_3\n  jump\t// in\ntag_2:\n    /* \"contracts/Ownable.sol\":902:912  msg.sender */\n  caller\n    /* \"contracts/Ownable.sol\":893:899  _owner */\n  0x00\n  dup1\n    /* \"contracts/Ownable.sol\":893:912  _owner = msg.sender */\n  0x0100\n  exp\n  dup2\n  sload\n  dup2\n  0xffffffffffffffffffffffffffffffffffffffff\n  mul\n  not\n  and\n  swap1\n  dup4\n  0xffffffffffffffffffffffffffffffffffffffff\n  and\n  mul\n  or\n  swap1\n  sstore\n  pop\n    /* \"contracts/Ownable.sol\":960:966  _owner */\n  0x00\n  dup1\n  sload\n  swap1\n  0x0100\n  exp\n  swap1\n  div\n  0xffffffffffffffffffffffffffffffffffffffff\n  and\n    /* \"contracts/Ownable.sol\":927:967  OwnershipTransferred(address(0), _owner) */\n  0xffffffffffffffffffffffffffffffffffffffff\n  and\n    /* \"contracts/Ownable.sol\":956:957  0 */\n  0x00\n    /* \"contracts/Ownable.sol\":927:967  OwnershipTransferred(address(0), _owner) */\n  0xffffffffffffffffffffffffffffffffffffffff\n  and\n  0x8be0079c531659141344cd1fd0a4f28419497f9722a3daafe3b4186f6b6457e0\n  mload(0x40)\n  mload(0x40)\n  dup1\n  swap2\n  sub\n  swap1\n  log3\n    /* \"contracts/StockCoin.sol\":1206:1216  token_name */\n  dup4\n    /* \"contracts/StockCoin.sol\":1198:1203  _name */\n  0x04\n    /* \"contracts/StockCoin.sol\":1198:1216  _name = token_name */\n  swap1\n  dup1\n  mload\n  swap1\n  0x20\n  add\n  swap1\n  tag_8\n  swap3\n  swap2\n  swap1\n  tag_9\n  jump\t// in\ntag_8:\n  pop\n    /* \"contracts/StockCoin.sol\":1236:1248  short_symbol */\n  dup3\n    /* \"contracts/StockCoin.sol\":1226:1233  _symbol */\n  0x03\n    /* \"contracts/StockCoin.sol\":1226:1248  _symbol = short_symbol */\n  swap1\n  dup1\n  mload\n  swap1\n  0x20\n  add\n  swap1\n  tag_10\n  swap3\n  swap2\n  swap1\n  tag_9\n  jump\t// in\ntag_10:\n  pop\n    /* \"contracts/StockCoin.sol\":1270:1284  token_decimals */\n  dup2\n    /* \"contracts/StockCoin.sol\":1258:1267  _decimals */\n  0x02\n  0x00\n    /* \"contracts/StockCoin.sol\":1258:1284  _decimals = token_decimals */\n  0x0100\n  exp\n  dup2\n  sload\n  dup2\n  0xff\n  mul\n  not\n  and\n  swap1\n  dup4\n  0xff\n  and\n  mul\n  or\n  swap1\n  sstore\n  pop\n    /* \"contracts/StockCoin.sol\":1309:1326  token_totalSupply */\n  dup1\n    /* \"contracts/StockCoin.sol\":1294:1306  _totalSupply */\n  0x01\n    /* \"contracts/StockCoin.sol\":1294:1326  _totalSupply = token_totalSupply */\n  dup2\n  swap1\n  sstore\n  pop\n    /* \"contracts/StockCoin.sol\":1427:1439  _totalSupply */\n  sload(0x01)\n    /* \"contracts/StockCoin.sol\":1403:1412  _balances */\n  0x05\n    /* \"contracts/StockCoin.sol\":1403:1424  _balances[msg.sender] */\n  0x00\n    /* \"contracts/StockCoin.sol\":1413:1423  msg.sender */\n  caller\n    /* \"contracts/StockCoin.sol\":1403:1424  _balances[msg.sender] */\n  0xffffffffffffffffffffffffffffffffffffffff\n  and\n  0xffffffffffffffffffffffffffffffffffffffff\n  and\n  dup2\n  mstore\n  0x20\n  add\n  swap1\n  dup2\n  mstore\n  0x20\n  add\n  0x00\n  keccak256\n    /* \"contracts/StockCoin.sol\":1403:1439  _balances[msg.sender] = _totalSupply */\n  dup2\n  swap1\n  sstore\n  pop\n    /* \"contracts/StockCoin.sol\":1563:1573  msg.sender */\n  caller\n    /* \"contracts/StockCoin.sol\":1542:1588  Transfer(address(0), msg.sender, _totalSupply) */\n  0xffffffffffffffffffffffffffffffffffffffff\n  and\n    /* \"contracts/StockCoin.sol\":1559:1560  0 */\n  0x00\n    /* \"contracts/StockCoin.sol\":1542:1588  Transfer(address(0), msg.sender, _totalSupply) */\n  0xffffffffffffffffffffffffffffffffffffffff\n  and\n  0xddf252ad1be2c89b69c2b068fc378daa952ba7f163c4a11628f55a4df523b3ef\n    /* \"contracts/StockCoin.sol\":1575:1587  _totalSupply */\n  sload(0x01)\n    /* \"contracts/StockCoin.sol\":1542:1588  Transfer(address(0), msg.sender, _totalSupply) */\n  mload(0x40)\n  tag_11\n  swap2\n  swap1\n  tag_12\n  jump\t// in\ntag_11:\n  mload(0x40)\n  dup1\n  swap2\n  sub\n  swap1\n  log3\n    /* \"contracts/StockCoin.sol\":1071:1596  constructor (string memory token_name, string memory short_symbol, uint8 token_decimals, uint256 token_totalSupply) {... */\n  pop\n  pop\n  pop\n  pop\n    /* \"contracts/StockCoin.sol\":83:6584  contract StockCoin is Ownable {... */\n  jump(tag_13)\ntag_9:\n  dup3\n  dup1\n  sload\n  tag_14\n  swap1\n  tag_15\n  jump\t// in\ntag_14:\n  swap1\n  0x00\n  mstore\n  keccak256(0x00, 0x20)\n  swap1\n  0x1f\n  add\n  0x20\n  swap1\n  div\n  dup2\n  add\n  swap3\n  dup3\n  tag_17\n  jumpi\n  0x00\n  dup6\n  sstore\n  jump(tag_16)\ntag_17:\n  dup3\n  0x1f\n  lt\n  tag_18\n  jumpi\n  dup1\n  mload\n  not(0xff)\n  and\n  dup4\n  dup1\n  add\n  or\n  dup6\n  sstore\n  jump(tag_16)\ntag_18:\n  dup3\n  dup1\n  add\n  0x01\n  add\n  dup6\n  sstore\n  dup3\n  iszero\n  tag_16\n  jumpi\n  swap2\n  dup3\n  add\ntag_19:\n  dup3\n  dup2\n  gt\n  iszero\n  tag_20\n  jumpi\n  dup3\n  mload\n  dup3\n  sstore\n  swap2\n  0x20\n  add\n  swap2\n  swap1\n  0x01\n  add\n  swap1\n  jump(tag_19)\ntag_20:\ntag_16:\n  pop\n  swap1\n  pop\n  tag_21\n  swap2\n  swap1\n  tag_22\n  jump\t// in\ntag_21:\n  pop\n  swap1\n  jump\t// out\ntag_22:\ntag_23:\n  dup1\n  dup3\n  gt\n  iszero\n  tag_24\n  jumpi\n  0x00\n  dup2\n  0x00\n  swap1\n  sstore\n  pop\n  0x01\n  add\n  jump(tag_23)\ntag_24:\n  pop\n  swap1\n  jump\t// out\n    /* \"#utility.yul\":7:82   */\ntag_25:\n    /* \"#utility.yul\":40:46   */\n  0x00\n    /* \"#utility.yul\":73:75   */\n  0x40\n    /* \"#utility.yul\":67:76   */\n  mload\n    /* \"#utility.yul\":57:76   */\n  swap1\n  pop\n    /* \"#utility.yul\":7:82   */\n  swap1\n  jump\t// out\n    /* \"#utility.yul\":88:205   */\ntag_26:\n    /* \"#utility.yul\":197:198   */\n  0x00\n    /* \"#utility.yul\":194:195   */\n  dup1\n    /* \"#utility.yul\":187:199   */\n  revert\n    /* \"#utility.yul\":211:328   */\ntag_27:\n    /* \"#utility.yul\":320:321   */\n  0x00\n    /* \"#utility.yul\":317:318   */\n  dup1\n    /* \"#utility.yul\":310:322   */\n  revert\n    /* \"#utility.yul\":334:451   */\ntag_28:\n    /* \"#utility.yul\":443:444   */\n  0x00\n    /* \"#utility.yul\":440:441   */\n  dup1\n    /* \"#utility.yul\":433:445   */\n  revert\n    /* \"#utility.yul\":457:574   */\ntag_29:\n    /* \"#utility.yul\":566:567   */\n  0x00\n    /* \"#utility.yul\":563:564   */\n  dup1\n    /* \"#utility.yul\":556:568   */\n  revert\n    /* \"#utility.yul\":580:682   */\ntag_30:\n    /* \"#utility.yul\":621:627   */\n  0x00\n    /* \"#utility.yul\":672:674   */\n  0x1f\n    /* \"#utility.yul\":668:675   */\n  not\n    /* \"#utility.yul\":663:665   */\n  0x1f\n    /* \"#utility.yul\":656:661   */\n  dup4\n    /* \"#utility.yul\":652:666   */\n  add\n    /* \"#utility.yul\":648:676   */\n  and\n    /* \"#utility.yul\":638:676   */\n  swap1\n  pop\n    /* \"#utility.yul\":580:682   */\n  swap2\n  swap1\n  pop\n  jump\t// out\n    /* \"#utility.yul\":688:868   */\ntag_31:\n    /* \"#utility.yul\":736:813   */\n  0x4e487b7100000000000000000000000000000000000000000000000000000000\n    /* \"#utility.yul\":733:734   */\n  0x00\n    /* \"#utility.yul\":726:814   */\n  mstore\n    /* \"#utility.yul\":833:837   */\n  0x41\n    /* \"#utility.yul\":830:831   */\n  0x04\n    /* \"#utility.yul\":823:838   */\n  mstore\n    /* \"#utility.yul\":857:861   */\n  0x24\n    /* \"#utility.yul\":854:855   */\n  0x00\n    /* \"#utility.yul\":847:862   */\n  revert\n    /* \"#utility.yul\":874:1155   */\ntag_32:\n    /* \"#utility.yul\":957:984   */\n  tag_55\n    /* \"#utility.yul\":979:983   */\n  dup3\n    /* \"#utility.yul\":957:984   */\n  tag_30\n  jump\t// in\ntag_55:\n    /* \"#utility.yul\":949:955   */\n  dup2\n    /* \"#utility.yul\":945:985   */\n  add\n    /* \"#utility.yul\":1087:1093   */\n  dup2\n    /* \"#utility.yul\":1075:1085   */\n  dup2\n    /* \"#utility.yul\":1072:1094   */\n  lt\n    /* \"#utility.yul\":1051:1069   */\n  0xffffffffffffffff\n    /* \"#utility.yul\":1039:1049   */\n  dup3\n    /* \"#utility.yul\":1036:1070   */\n  gt\n    /* \"#utility.yul\":1033:1095   */\n  or\n    /* \"#utility.yul\":1030:1118   */\n  iszero\n  tag_56\n  jumpi\n    /* \"#utility.yul\":1098:1116   */\n  tag_57\n  tag_31\n  jump\t// in\ntag_57:\n    /* \"#utility.yul\":1030:1118   */\ntag_56:\n    /* \"#utility.yul\":1138:1148   */\n  dup1\n    /* \"#utility.yul\":1134:1136   */\n  0x40\n    /* \"#utility.yul\":1127:1149   */\n  mstore\n    /* \"#utility.yul\":917:1155   */\n  pop\n    /* \"#utility.yul\":874:1155   */\n  pop\n  pop\n  jump\t// out\n    /* \"#utility.yul\":1161:1290   */\ntag_33:\n    /* \"#utility.yul\":1195:1201   */\n  0x00\n    /* \"#utility.yul\":1222:1242   */\n  tag_59\n  tag_25\n  jump\t// in\ntag_59:\n    /* \"#utility.yul\":1212:1242   */\n  swap1\n  pop\n    /* \"#utility.yul\":1251:1284   */\n  tag_60\n    /* \"#utility.yul\":1279:1283   */\n  dup3\n    /* \"#utility.yul\":1271:1277   */\n  dup3\n    /* \"#utility.yul\":1251:1284   */\n  tag_32\n  jump\t// in\ntag_60:\n    /* \"#utility.yul\":1161:1290   */\n  swap2\n  swap1\n  pop\n  jump\t// out\n    /* \"#utility.yul\":1296:1604   */\ntag_34:\n    /* \"#utility.yul\":1358:1362   */\n  0x00\n    /* \"#utility.yul\":1448:1466   */\n  0xffffffffffffffff\n    /* \"#utility.yul\":1440:1446   */\n  dup3\n    /* \"#utility.yul\":1437:1467   */\n  gt\n    /* \"#utility.yul\":1434:1490   */\n  iszero\n  tag_62\n  jumpi\n    /* \"#utility.yul\":1470:1488   */\n  tag_63\n  tag_31\n  jump\t// in\ntag_63:\n    /* \"#utility.yul\":1434:1490   */\ntag_62:\n    /* \"#utility.yul\":1508:1537   */\n  tag_64\n    /* \"#utility.yul\":1530:1536   */\n  dup3\n    /* \"#utility.yul\":1508:1537   */\n  tag_30\n  jump\t// in\ntag_64:\n    /* \"#utility.yul\":1500:1537   */\n  swap1\n  pop\n    /* \"#utility.yul\":1592:1596   */\n  0x20\n    /* \"#utility.yul\":1586:1590   */\n  dup2\n    /* \"#utility.yul\":1582:1597   */\n  add\n    /* \"#utility.yul\":1574:1597   */\n  swap1\n  pop\n    /* \"#utility.yul\":1296:1604   */\n  swap2\n  swap1\n  pop\n  jump\t// out\n    /* \"#utility.yul\":1610:1917   */\ntag_35:\n    /* \"#utility.yul\":1678:1679   */\n  0x00\n    /* \"#utility.yul\":1688:1801   */\ntag_66:\n    /* \"#utility.yul\":1702:1708   */\n  dup4\n    /* \"#utility.yul\":1699:1700   */\n  dup2\n    /* \"#utility.yul\":1696:1709   */\n  lt\n    /* \"#utility.yul\":1688:1801   */\n  iszero\n  tag_68\n  jumpi\n    /* \"#utility.yul\":1787:1788   */\n  dup1\n    /* \"#utility.yul\":1782:1785   */\n  dup3\n    /* \"#utility.yul\":1778:1789   */\n  add\n    /* \"#utility.yul\":1772:1790   */\n  mload\n    /* \"#utility.yul\":1768:1769   */\n  dup2\n    /* \"#utility.yul\":1763:1766   */\n  dup5\n    /* \"#utility.yul\":1759:1770   */\n  add\n    /* \"#utility.yul\":1752:1791   */\n  mstore\n    /* \"#utility.yul\":1724:1726   */\n  0x20\n    /* \"#utility.yul\":1721:1722   */\n  dup2\n    /* \"#utility.yul\":1717:1727   */\n  add\n    /* \"#utility.yul\":1712:1727   */\n  swap1\n  pop\n    /* \"#utility.yul\":1688:1801   */\n  jump(tag_66)\ntag_68:\n    /* \"#utility.yul\":1819:1825   */\n  dup4\n    /* \"#utility.yul\":1816:1817   */\n  dup2\n    /* \"#utility.yul\":1813:1826   */\n  gt\n    /* \"#utility.yul\":1810:1911   */\n  iszero\n  tag_69\n  jumpi\n    /* \"#utility.yul\":1899:1900   */\n  0x00\n    /* \"#utility.yul\":1890:1896   */\n  dup5\n    /* \"#utility.yul\":1885:1888   */\n  dup5\n    /* \"#utility.yul\":1881:1897   */\n  add\n    /* \"#utility.yul\":1874:1901   */\n  mstore\n    /* \"#utility.yul\":1810:1911   */\ntag_69:\n    /* \"#utility.yul\":1659:1917   */\n  pop\n    /* \"#utility.yul\":1610:1917   */\n  pop\n  pop\n  pop\n  jump\t// out\n    /* \"#utility.yul\":1923:2344   */\ntag_36:\n    /* \"#utility.yul\":2012:2017   */\n  0x00\n    /* \"#utility.yul\":2037:2103   */\n  tag_71\n    /* \"#utility.yul\":2053:2102   */\n  tag_72\n    /* \"#utility.yul\":2095:2101   */\n  dup5\n    /* \"#utility.yul\":2053:2102   */\n  tag_34\n  jump\t// in\ntag_72:\n    /* \"#utility.yul\":2037:2103   */\n  tag_33\n  jump\t// in\ntag_71:\n    /* \"#utility.yul\":2028:2103   */\n  swap1\n  pop\n    /* \"#utility.yul\":2126:2132   */\n  dup3\n    /* \"#utility.yul\":2119:2124   */\n  dup2\n    /* \"#utility.yul\":2112:2133   */\n  mstore\n    /* \"#utility.yul\":2164:2168   */\n  0x20\n    /* \"#utility.yul\":2157:2162   */\n  dup2\n    /* \"#utility.yul\":2153:2169   */\n  add\n    /* \"#utility.yul\":2202:2205   */\n  dup5\n    /* \"#utility.yul\":2193:2199   */\n  dup5\n    /* \"#utility.yul\":2188:2191   */\n  dup5\n    /* \"#utility.yul\":2184:2200   */\n  add\n    /* \"#utility.yul\":2181:2206   */\n  gt\n    /* \"#utility.yul\":2178:2290   */\n  iszero\n  tag_73\n  jumpi\n    /* \"#utility.yul\":2209:2288   */\n  tag_74\n  tag_29\n  jump\t// in\ntag_74:\n    /* \"#utility.yul\":2178:2290   */\ntag_73:\n    /* \"#utility.yul\":2299:2338   */\n  tag_75\n    /* \"#utility.yul\":2331:2337   */\n  dup5\n    /* \"#utility.yul\":2326:2329   */\n  dup3\n    /* \"#utility.yul\":2321:2324   */\n  dup6\n    /* \"#utility.yul\":2299:2338   */\n  tag_35\n  jump\t// in\ntag_75:\n    /* \"#utility.yul\":2018:2344   */\n  pop\n    /* \"#utility.yul\":1923:2344   */\n  swap4\n  swap3\n  pop\n  pop\n  pop\n  jump\t// out\n    /* \"#utility.yul\":2364:2719   */\ntag_37:\n    /* \"#utility.yul\":2431:2436   */\n  0x00\n    /* \"#utility.yul\":2480:2483   */\n  dup3\n    /* \"#utility.yul\":2473:2477   */\n  0x1f\n    /* \"#utility.yul\":2465:2471   */\n  dup4\n    /* \"#utility.yul\":2461:2478   */\n  add\n    /* \"#utility.yul\":2457:2484   */\n  slt\n    /* \"#utility.yul\":2447:2569   */\n  tag_77\n  jumpi\n    /* \"#utility.yul\":2488:2567   */\n  tag_78\n  tag_28\n  jump\t// in\ntag_78:\n    /* \"#utility.yul\":2447:2569   */\ntag_77:\n    /* \"#utility.yul\":2598:2604   */\n  dup2\n    /* \"#utility.yul\":2592:2605   */\n  mload\n    /* \"#utility.yul\":2623:2713   */\n  tag_79\n    /* \"#utility.yul\":2709:2712   */\n  dup5\n    /* \"#utility.yul\":2701:2707   */\n  dup3\n    /* \"#utility.yul\":2694:2698   */\n  0x20\n    /* \"#utility.yul\":2686:2692   */\n  dup7\n    /* \"#utility.yul\":2682:2699   */\n  add\n    /* \"#utility.yul\":2623:2713   */\n  tag_36\n  jump\t// in\ntag_79:\n    /* \"#utility.yul\":2614:2713   */\n  swap2\n  pop\n    /* \"#utility.yul\":2437:2719   */\n  pop\n    /* \"#utility.yul\":2364:2719   */\n  swap3\n  swap2\n  pop\n  pop\n  jump\t// out\n    /* \"#utility.yul\":2725:2811   */\ntag_38:\n    /* \"#utility.yul\":2760:2767   */\n  0x00\n    /* \"#utility.yul\":2800:2804   */\n  0xff\n    /* \"#utility.yul\":2793:2798   */\n  dup3\n    /* \"#utility.yul\":2789:2805   */\n  and\n    /* \"#utility.yul\":2778:2805   */\n  swap1\n  pop\n    /* \"#utility.yul\":2725:2811   */\n  swap2\n  swap1\n  pop\n  jump\t// out\n    /* \"#utility.yul\":2817:2935   */\ntag_39:\n    /* \"#utility.yul\":2888:2910   */\n  tag_82\n    /* \"#utility.yul\":2904:2909   */\n  dup2\n    /* \"#utility.yul\":2888:2910   */\n  tag_38\n  jump\t// in\ntag_82:\n    /* \"#utility.yul\":2881:2886   */\n  dup2\n    /* \"#utility.yul\":2878:2911   */\n  eq\n    /* \"#utility.yul\":2868:2929   */\n  tag_83\n  jumpi\n    /* \"#utility.yul\":2925:2926   */\n  0x00\n    /* \"#utility.yul\":2922:2923   */\n  dup1\n    /* \"#utility.yul\":2915:2927   */\n  revert\n    /* \"#utility.yul\":2868:2929   */\ntag_83:\n    /* \"#utility.yul\":2817:2935   */\n  pop\n  jump\t// out\n    /* \"#utility.yul\":2941:3080   */\ntag_40:\n    /* \"#utility.yul\":2996:3001   */\n  0x00\n    /* \"#utility.yul\":3027:3033   */\n  dup2\n    /* \"#utility.yul\":3021:3034   */\n  mload\n    /* \"#utility.yul\":3012:3034   */\n  swap1\n  pop\n    /* \"#utility.yul\":3043:3074   */\n  tag_85\n    /* \"#utility.yul\":3068:3073   */\n  dup2\n    /* \"#utility.yul\":3043:3074   */\n  tag_39\n  jump\t// in\ntag_85:\n    /* \"#utility.yul\":2941:3080   */\n  swap3\n  swap2\n  pop\n  pop\n  jump\t// out\n    /* \"#utility.yul\":3086:3163   */\ntag_41:\n    /* \"#utility.yul\":3123:3130   */\n  0x00\n    /* \"#utility.yul\":3152:3157   */\n  dup2\n    /* \"#utility.yul\":3141:3157   */\n  swap1\n  pop\n    /* \"#utility.yul\":3086:3163   */\n  swap2\n  swap1\n  pop\n  jump\t// out\n    /* \"#utility.yul\":3169:3291   */\ntag_42:\n    /* \"#utility.yul\":3242:3266   */\n  tag_88\n    /* \"#utility.yul\":3260:3265   */\n  dup2\n    /* \"#utility.yul\":3242:3266   */\n  tag_41\n  jump\t// in\ntag_88:\n    /* \"#utility.yul\":3235:3240   */\n  dup2\n    /* \"#utility.yul\":3232:3267   */\n  eq\n    /* \"#utility.yul\":3222:3285   */\n  tag_89\n  jumpi\n    /* \"#utility.yul\":3281:3282   */\n  0x00\n    /* \"#utility.yul\":3278:3279   */\n  dup1\n    /* \"#utility.yul\":3271:3283   */\n  revert\n    /* \"#utility.yul\":3222:3285   */\ntag_89:\n    /* \"#utility.yul\":3169:3291   */\n  pop\n  jump\t// out\n    /* \"#utility.yul\":3297:3440   */\ntag_43:\n    /* \"#utility.yul\":3354:3359   */\n  0x00\n    /* \"#utility.yul\":3385:3391   */\n  dup2\n    /* \"#utility.yul\":3379:3392   */\n  mload\n    /* \"#utility.yul\":3370:3392   */\n  swap1\n  pop\n    /* \"#utility.yul\":3401:3434   */\n  tag_91\n    /* \"#utility.yul\":3428:3433   */\n  dup2\n    /* \"#utility.yul\":3401:3434   */\n  tag_42\n  jump\t// in\ntag_91:\n    /* \"#utility.yul\":3297:3440   */\n  swap3\n  swap2\n  pop\n  pop\n  jump\t// out\n    /* \"#utility.yul\":3446:4608   */\ntag_3:\n    /* \"#utility.yul\":3561:3567   */\n  0x00\n    /* \"#utility.yul\":3569:3575   */\n  dup1\n    /* \"#utility.yul\":3577:3583   */\n  0x00\n    /* \"#utility.yul\":3585:3591   */\n  dup1\n    /* \"#utility.yul\":3634:3637   */\n  0x80\n    /* \"#utility.yul\":3622:3631   */\n  dup6\n    /* \"#utility.yul\":3613:3620   */\n  dup8\n    /* \"#utility.yul\":3609:3632   */\n  sub\n    /* \"#utility.yul\":3605:3638   */\n  slt\n    /* \"#utility.yul\":3602:3722   */\n  iszero\n  tag_93\n  jumpi\n    /* \"#utility.yul\":3641:3720   */\n  tag_94\n  tag_26\n  jump\t// in\ntag_94:\n    /* \"#utility.yul\":3602:3722   */\ntag_93:\n    /* \"#utility.yul\":3782:3783   */\n  0x00\n    /* \"#utility.yul\":3771:3780   */\n  dup6\n    /* \"#utility.yul\":3767:3784   */\n  add\n    /* \"#utility.yul\":3761:3785   */\n  mload\n    /* \"#utility.yul\":3812:3830   */\n  0xffffffffffffffff\n    /* \"#utility.yul\":3804:3810   */\n  dup2\n    /* \"#utility.yul\":3801:3831   */\n  gt\n    /* \"#utility.yul\":3798:3915   */\n  iszero\n  tag_95\n  jumpi\n    /* \"#utility.yul\":3834:3913   */\n  tag_96\n  tag_27\n  jump\t// in\ntag_96:\n    /* \"#utility.yul\":3798:3915   */\ntag_95:\n    /* \"#utility.yul\":3939:4013   */\n  tag_97\n    /* \"#utility.yul\":4005:4012   */\n  dup8\n    /* \"#utility.yul\":3996:4002   */\n  dup3\n    /* \"#utility.yul\":3985:3994   */\n  dup9\n    /* \"#utility.yul\":3981:4003   */\n  add\n    /* \"#utility.yul\":3939:4013   */\n  tag_37\n  jump\t// in\ntag_97:\n    /* \"#utility.yul\":3929:4013   */\n  swap5\n  pop\n    /* \"#utility.yul\":3732:4023   */\n  pop\n    /* \"#utility.yul\":4083:4085   */\n  0x20\n    /* \"#utility.yul\":4072:4081   */\n  dup6\n    /* \"#utility.yul\":4068:4086   */\n  add\n    /* \"#utility.yul\":4062:4087   */\n  mload\n    /* \"#utility.yul\":4114:4132   */\n  0xffffffffffffffff\n    /* \"#utility.yul\":4106:4112   */\n  dup2\n    /* \"#utility.yul\":4103:4133   */\n  gt\n    /* \"#utility.yul\":4100:4217   */\n  iszero\n  tag_98\n  jumpi\n    /* \"#utility.yul\":4136:4215   */\n  tag_99\n  tag_27\n  jump\t// in\ntag_99:\n    /* \"#utility.yul\":4100:4217   */\ntag_98:\n    /* \"#utility.yul\":4241:4315   */\n  tag_100\n    /* \"#utility.yul\":4307:4314   */\n  dup8\n    /* \"#utility.yul\":4298:4304   */\n  dup3\n    /* \"#utility.yul\":4287:4296   */\n  dup9\n    /* \"#utility.yul\":4283:4305   */\n  add\n    /* \"#utility.yul\":4241:4315   */\n  tag_37\n  jump\t// in\ntag_100:\n    /* \"#utility.yul\":4231:4315   */\n  swap4\n  pop\n    /* \"#utility.yul\":4033:4325   */\n  pop\n    /* \"#utility.yul\":4364:4366   */\n  0x40\n    /* \"#utility.yul\":4390:4452   */\n  tag_101\n    /* \"#utility.yul\":4444:4451   */\n  dup8\n    /* \"#utility.yul\":4435:4441   */\n  dup3\n    /* \"#utility.yul\":4424:4433   */\n  dup9\n    /* \"#utility.yul\":4420:4442   */\n  add\n    /* \"#utility.yul\":4390:4452   */\n  tag_40\n  jump\t// in\ntag_101:\n    /* \"#utility.yul\":4380:4452   */\n  swap3\n  pop\n    /* \"#utility.yul\":4335:4462   */\n  pop\n    /* \"#utility.yul\":4501:4503   */\n  0x60\n    /* \"#utility.yul\":4527:4591   */\n  tag_102\n    /* \"#utility.yul\":4583:4590   */\n  dup8\n    /* \"#utility.yul\":4574:4580   */\n  dup3\n    /* \"#utility.yul\":4563:4572   */\n  dup9\n    /* \"#utility.yul\":4559:4581   */\n  add\n    /* \"#utility.yul\":4527:4591   */\n  tag_43\n  jump\t// in\ntag_102:\n    /* \"#utility.yul\":4517:4591   */\n  swap2\n  pop\n    /* \"#utility.yul\":4472:4601   */\n  pop\n    /* \"#utility.yul\":3446:4608   */\n  swap3\n  swap6\n  swap2\n  swap5\n  pop\n  swap3\n  pop\n  jump\t// out\n    /* \"#utility.yul\":4614:4732   */\ntag_44:\n    /* \"#utility.yul\":4701:4725   */\n  tag_104\n    /* \"#utility.yul\":4719:4724   */\n  dup2\n    /* \"#utility.yul\":4701:4725   */\n  tag_41\n  jump\t// in\ntag_104:\n    /* \"#utility.yul\":4696:4699   */\n  dup3\n    /* \"#utility.yul\":4689:4726   */\n  mstore\n    /* \"#utility.yul\":4614:4732   */\n  pop\n  pop\n  jump\t// out\n    /* \"#utility.yul\":4738:4960   */\ntag_12:\n    /* \"#utility.yul\":4831:4835   */\n  0x00\n    /* \"#utility.yul\":4869:4871   */\n  0x20\n    /* \"#utility.yul\":4858:4867   */\n  dup3\n    /* \"#utility.yul\":4854:4872   */\n  add\n    /* \"#utility.yul\":4846:4872   */\n  swap1\n  pop\n    /* \"#utility.yul\":4882:4953   */\n  tag_106\n    /* \"#utility.yul\":4950:4951   */\n  0x00\n    /* \"#utility.yul\":4939:4948   */\n  dup4\n    /* \"#utility.yul\":4935:4952   */\n  add\n    /* \"#utility.yul\":4926:4932   */\n  dup5\n    /* \"#utility.yul\":4882:4953   */\n  tag_44\n  jump\t// in\ntag_106:\n    /* \"#utility.yul\":4738:4960   */\n  swap3\n  swap2\n  pop\n  pop\n  jump\t// out\n    /* \"#utility.yul\":4966:5146   */\ntag_45:\n    /* \"#utility.yul\":5014:5091   */\n  0x4e487b7100000000000000000000000000000000000000000000000000000000\n    /* \"#utility.yul\":5011:5012   */\n  0x00\n    /* \"#utility.yul\":5004:5092   */\n  mstore\n    /* \"#utility.yul\":5111:5115   */\n  0x22\n    /* \"#utility.yul\":5108:5109   */\n  0x04\n    /* \"#utility.yul\":5101:5116   */\n  mstore\n    /* \"#utility.yul\":5135:5139   */\n  0x24\n    /* \"#utility.yul\":5132:5133   */\n  0x00\n    /* \"#utility.yul\":5125:5140   */\n  revert\n    /* \"#utility.yul\":5152:5472   */\ntag_15:\n    /* \"#utility.yul\":5196:5202   */\n  0x00\n    /* \"#utility.yul\":5233:5234   */\n  0x02\n    /* \"#utility.yul\":5227:5231   */\n  dup3\n    /* \"#utility.yul\":5223:5235   */\n  div\n    /* \"#utility.yul\":5213:5235   */\n  swap1\n  pop\n    /* \"#utility.yul\":5280:5281   */\n  0x01\n    /* \"#utility.yul\":5274:5278   */\n  dup3\n    /* \"#utility.yul\":5270:5282   */\n  and\n    /* \"#utility.yul\":5301:5319   */\n  dup1\n    /* \"#utility.yul\":5291:5372   */\n  tag_109\n  jumpi\n    /* \"#utility.yul\":5357:5361   */\n  0x7f\n    /* \"#utility.yul\":5349:5355   */\n  dup3\n    /* \"#utility.yul\":5345:5362   */\n  and\n    /* \"#utility.yul\":5335:5362   */\n  swap2\n  pop\n    /* \"#utility.yul\":5291:5372   */\ntag_109:\n    /* \"#utility.yul\":5419:5421   */\n  0x20\n    /* \"#utility.yul\":5411:5417   */\n  dup3\n    /* \"#utility.yul\":5408:5422   */\n  lt\n    /* \"#utility.yul\":5388:5406   */\n  dup2\n    /* \"#utility.yul\":5385:5423   */\n  sub\n    /* \"#utility.yul\":5382:5466   */\n  tag_110\n  jumpi\n    /* \"#utility.yul\":5438:5456   */\n  tag_111\n  tag_45\n  jump\t// in\ntag_111:\n    /* \"#utility.yul\":5382:5466   */\ntag_110:\n    /* \"#utility.yul\":5203:5472   */\n  pop\n    /* \"#utility.yul\":5152:5472   */\n  swap2\n  swap1\n  pop\n  jump\t// out\n    /* \"contracts/StockCoin.sol\":83:6584  contract StockCoin is Ownable {... */\ntag_13:\n  dataSize(sub_0)\n  dup1\n  dataOffset(sub_0)\n  0x00\n  codecopy\n  0x00\n  return\nstop\n\nsub_0: assembly {\n        /* \"contracts/StockCoin.sol\":83:6584  contract StockCoin is Ownable {... */\n      mstore(0x40, 0x80)\n      callvalue\n      dup1\n      iszero\n      tag_1\n      jumpi\n      0x00\n      dup1\n      revert\n    tag_1:\n      pop\n      jumpi(tag_2, lt(calldatasize, 0x04))\n      shr(0xe0, calldataload(0x00))\n      dup1\n      0x715018a6\n      gt\n      tag_14\n      jumpi\n      dup1\n      0x715018a6\n      eq\n      tag_8\n      jumpi\n      dup1\n      0x8da5cb5b\n      eq\n      tag_9\n      jumpi\n      dup1\n      0x95d89b41\n      eq\n      tag_10\n      jumpi\n      dup1\n      0x9dc29fac\n      eq\n      tag_11\n      jumpi\n      dup1\n      0xa9059cbb\n      eq\n      tag_12\n      jumpi\n      dup1\n      0xf2fde38b\n      eq\n      tag_13\n      jumpi\n      jump(tag_2)\n    tag_14:\n      dup1\n      0x06fdde03\n      eq\n      tag_3\n      jumpi\n      dup1\n      0x18160ddd\n      eq\n      tag_4\n      jumpi\n      dup1\n      0x313ce567\n      eq\n      tag_5\n      jumpi\n      dup1\n      0x40c10f19\n      eq\n      tag_6\n      jumpi\n      dup1\n      0x70a08231\n      eq\n      tag_7\n      jumpi\n    tag_2:\n      0x00\n      dup1\n      revert\n        /* \"contracts/StockCoin.sol\":2027:2109  function name() external view returns (string memory){... */\n    tag_3:\n      tag_15\n      tag_16\n      jump\t// in\n    tag_15:\n      mload(0x40)\n      tag_17\n      swap2\n      swap1\n      tag_18\n      jump\t// in\n    tag_17:\n      mload(0x40)\n      dup1\n      swap2\n      sub\n      swap1\n      return\n        /* \"contracts/StockCoin.sol\":2202:2292  function totalSupply() external view returns (uint256){... */\n    tag_4:\n      tag_19\n      tag_20\n      jump\t// in\n    tag_19:\n      mload(0x40)\n      tag_21\n      swap2\n      swap1\n      tag_22\n      jump\t// in\n    tag_21:\n      mload(0x40)\n      dup1\n      swap2\n      sub\n      swap1\n      return\n        /* \"contracts/StockCoin.sol\":1711:1795  function decimals () external view returns (uint8) {... */\n    tag_5:\n      tag_23\n      tag_24\n      jump\t// in\n    tag_23:\n      mload(0x40)\n      tag_25\n      swap2\n      swap1\n      tag_26\n      jump\t// in\n    tag_25:\n      mload(0x40)\n      dup1\n      swap2\n      sub\n      swap1\n      return\n        /* \"contracts/StockCoin.sol\":4611:4753  function mint (address account, uint256 amount) public onlyOwner returns (bool) {... */\n    tag_6:\n      tag_27\n      0x04\n      dup1\n      calldatasize\n      sub\n      dup2\n      add\n      swap1\n      tag_28\n      swap2\n      swap1\n      tag_29\n      jump\t// in\n    tag_28:\n      tag_30\n      jump\t// in\n    tag_27:\n      mload(0x40)\n      tag_31\n      swap2\n      swap1\n      tag_32\n      jump\t// in\n    tag_31:\n      mload(0x40)\n      dup1\n      swap2\n      sub\n      swap1\n      return\n        /* \"contracts/StockCoin.sol\":2391:2503  function balanceOf(address account) external view returns (uint256) {... */\n    tag_7:\n      tag_33\n      0x04\n      dup1\n      calldatasize\n      sub\n      dup2\n      add\n      swap1\n      tag_34\n      swap2\n      swap1\n      tag_35\n      jump\t// in\n    tag_34:\n      tag_36\n      jump\t// in\n    tag_33:\n      mload(0x40)\n      tag_37\n      swap2\n      swap1\n      tag_22\n      jump\t// in\n    tag_37:\n      mload(0x40)\n      dup1\n      swap2\n      sub\n      swap1\n      return\n        /* \"contracts/Ownable.sol\":1400:1539  function renounceOwnership() public onlyOwner {... */\n    tag_8:\n      tag_38\n      tag_39\n      jump\t// in\n    tag_38:\n      stop\n        /* \"contracts/Ownable.sol\":1075:1153  function owner() public view returns(address) {... */\n    tag_9:\n      tag_40\n      tag_41\n      jump\t// in\n    tag_40:\n      mload(0x40)\n      tag_42\n      swap2\n      swap1\n      tag_43\n      jump\t// in\n    tag_42:\n      mload(0x40)\n      dup1\n      swap2\n      sub\n      swap1\n      return\n        /* \"contracts/StockCoin.sol\":1869:1955  function symbol() external view returns (string memory){... */\n    tag_10:\n      tag_44\n      tag_45\n      jump\t// in\n    tag_44:\n      mload(0x40)\n      tag_46\n      swap2\n      swap1\n      tag_18\n      jump\t// in\n    tag_46:\n      mload(0x40)\n      dup1\n      swap2\n      sub\n      swap1\n      return\n        /* \"contracts/StockCoin.sol\":4284:4425  function burn (address account, uint256 amount) public onlyOwner returns(bool) {... */\n    tag_11:\n      tag_47\n      0x04\n      dup1\n      calldatasize\n      sub\n      dup2\n      add\n      swap1\n      tag_48\n      swap2\n      swap1\n      tag_29\n      jump\t// in\n    tag_48:\n      tag_49\n      jump\t// in\n    tag_47:\n      mload(0x40)\n      tag_50\n      swap2\n      swap1\n      tag_32\n      jump\t// in\n    tag_50:\n      mload(0x40)\n      dup1\n      swap2\n      sub\n      swap1\n      return\n        /* \"contracts/StockCoin.sol\":5076:5234  function transfer(address recipient, uint256 amount) external returns (bool) {... */\n    tag_12:\n      tag_51\n      0x04\n      dup1\n      calldatasize\n      sub\n      dup2\n      add\n      swap1\n      tag_52\n      swap2\n      swap1\n      tag_29\n      jump\t// in\n    tag_52:\n      tag_53\n      jump\t// in\n    tag_51:\n      mload(0x40)\n      tag_54\n      swap2\n      swap1\n      tag_32\n      jump\t// in\n    tag_54:\n      mload(0x40)\n      dup1\n      swap2\n      sub\n      swap1\n      return\n        /* \"contracts/Ownable.sol\":1634:1744  function transferOwnership (address newOwner) public onlyOwner {... */\n    tag_13:\n      tag_55\n      0x04\n      dup1\n      calldatasize\n      sub\n      dup2\n      add\n      swap1\n      tag_56\n      swap2\n      swap1\n      tag_35\n      jump\t// in\n    tag_56:\n      tag_57\n      jump\t// in\n    tag_55:\n      stop\n        /* \"contracts/StockCoin.sol\":2027:2109  function name() external view returns (string memory){... */\n    tag_16:\n        /* \"contracts/StockCoin.sol\":2066:2079  string memory */\n      0x60\n        /* \"contracts/StockCoin.sol\":2097:2102  _name */\n      0x04\n        /* \"contracts/StockCoin.sol\":2090:2102  return _name */\n      dup1\n      sload\n      tag_59\n      swap1\n      tag_60\n      jump\t// in\n    tag_59:\n      dup1\n      0x1f\n      add\n      0x20\n      dup1\n      swap2\n      div\n      mul\n      0x20\n      add\n      mload(0x40)\n      swap1\n      dup2\n      add\n      0x40\n      mstore\n      dup1\n      swap3\n      swap2\n      swap1\n      dup2\n      dup2\n      mstore\n      0x20\n      add\n      dup3\n      dup1\n      sload\n      tag_61\n      swap1\n      tag_60\n      jump\t// in\n    tag_61:\n      dup1\n      iszero\n      tag_62\n      jumpi\n      dup1\n      0x1f\n      lt\n      tag_63\n      jumpi\n      0x0100\n      dup1\n      dup4\n      sload\n      div\n      mul\n      dup4\n      mstore\n      swap2\n      0x20\n      add\n      swap2\n      jump(tag_62)\n    tag_63:\n      dup3\n      add\n      swap2\n      swap1\n      0x00\n      mstore\n      keccak256(0x00, 0x20)\n      swap1\n    tag_64:\n      dup2\n      sload\n      dup2\n      mstore\n      swap1\n      0x01\n      add\n      swap1\n      0x20\n      add\n      dup1\n      dup4\n      gt\n      tag_64\n      jumpi\n      dup3\n      swap1\n      sub\n      0x1f\n      and\n      dup3\n      add\n      swap2\n    tag_62:\n      pop\n      pop\n      pop\n      pop\n      pop\n      swap1\n      pop\n        /* \"contracts/StockCoin.sol\":2027:2109  function name() external view returns (string memory){... */\n      swap1\n      jump\t// out\n        /* \"contracts/StockCoin.sol\":2202:2292  function totalSupply() external view returns (uint256){... */\n    tag_20:\n        /* \"contracts/StockCoin.sol\":2248:2255  uint256 */\n      0x00\n        /* \"contracts/StockCoin.sol\":2273:2285  _totalSupply */\n      sload(0x01)\n        /* \"contracts/StockCoin.sol\":2266:2285  return _totalSupply */\n      swap1\n      pop\n        /* \"contracts/StockCoin.sol\":2202:2292  function totalSupply() external view returns (uint256){... */\n      swap1\n      jump\t// out\n        /* \"contracts/StockCoin.sol\":1711:1795  function decimals () external view returns (uint8) {... */\n    tag_24:\n        /* \"contracts/StockCoin.sol\":1755:1760  uint8 */\n      0x00\n        /* \"contracts/StockCoin.sol\":1779:1788  _decimals */\n      0x02\n      0x00\n      swap1\n      sload\n      swap1\n      0x0100\n      exp\n      swap1\n      div\n      0xff\n      and\n        /* \"contracts/StockCoin.sol\":1772:1788  return _decimals */\n      swap1\n      pop\n        /* \"contracts/StockCoin.sol\":1711:1795  function decimals () external view returns (uint8) {... */\n      swap1\n      jump\t// out\n        /* \"contracts/StockCoin.sol\":4611:4753  function mint (address account, uint256 amount) public onlyOwner returns (bool) {... */\n    tag_30:\n        /* \"contracts/StockCoin.sol\":4685:4689  bool */\n      0x00\n        /* \"contracts/Ownable.sol\":785:795  msg.sender */\n      caller\n        /* \"contracts/Ownable.sol\":775:795  _owner == msg.sender */\n      0xffffffffffffffffffffffffffffffffffffffff\n      and\n        /* \"contracts/Ownable.sol\":775:781  _owner */\n      0x00\n      dup1\n      sload\n      swap1\n      0x0100\n      exp\n      swap1\n      div\n      0xffffffffffffffffffffffffffffffffffffffff\n      and\n        /* \"contracts/Ownable.sol\":775:795  _owner == msg.sender */\n      0xffffffffffffffffffffffffffffffffffffffff\n      and\n      eq\n        /* \"contracts/Ownable.sol\":767:842  require(_owner == msg.sender, \"Ownable: only owner can call this function\") */\n      tag_68\n      jumpi\n      mload(0x40)\n      0x08c379a000000000000000000000000000000000000000000000000000000000\n      dup2\n      mstore\n      0x04\n      add\n      tag_69\n      swap1\n      tag_70\n      jump\t// in\n    tag_69:\n      mload(0x40)\n      dup1\n      swap2\n      sub\n      swap1\n      revert\n    tag_68:\n        /* \"contracts/StockCoin.sol\":4702:4724  _mint(account, amount) */\n      tag_72\n        /* \"contracts/StockCoin.sol\":4708:4715  account */\n      dup4\n        /* \"contracts/StockCoin.sol\":4717:4723  amount */\n      dup4\n        /* \"contracts/StockCoin.sol\":4702:4707  _mint */\n      tag_73\n        /* \"contracts/StockCoin.sol\":4702:4724  _mint(account, amount) */\n      jump\t// in\n    tag_72:\n        /* \"contracts/StockCoin.sol\":4741:4745  true */\n      0x01\n        /* \"contracts/StockCoin.sol\":4734:4745  return true */\n      swap1\n      pop\n        /* \"contracts/StockCoin.sol\":4611:4753  function mint (address account, uint256 amount) public onlyOwner returns (bool) {... */\n      swap3\n      swap2\n      pop\n      pop\n      jump\t// out\n        /* \"contracts/StockCoin.sol\":2391:2503  function balanceOf(address account) external view returns (uint256) {... */\n    tag_36:\n        /* \"contracts/StockCoin.sol\":2450:2457  uint256 */\n      0x00\n        /* \"contracts/StockCoin.sol\":2477:2486  _balances */\n      0x05\n        /* \"contracts/StockCoin.sol\":2477:2495  _balances[account] */\n      0x00\n        /* \"contracts/StockCoin.sol\":2487:2494  account */\n      dup4\n        /* \"contracts/StockCoin.sol\":2477:2495  _balances[account] */\n      0xffffffffffffffffffffffffffffffffffffffff\n      and\n      0xffffffffffffffffffffffffffffffffffffffff\n      and\n      dup2\n      mstore\n      0x20\n      add\n      swap1\n      dup2\n      mstore\n      0x20\n      add\n      0x00\n      keccak256\n      sload\n        /* \"contracts/StockCoin.sol\":2470:2495  return _balances[account] */\n      swap1\n      pop\n        /* \"contracts/StockCoin.sol\":2391:2503  function balanceOf(address account) external view returns (uint256) {... */\n      swap2\n      swap1\n      pop\n      jump\t// out\n        /* \"contracts/Ownable.sol\":1400:1539  function renounceOwnership() public onlyOwner {... */\n    tag_39:\n        /* \"contracts/Ownable.sol\":785:795  msg.sender */\n      caller\n        /* \"contracts/Ownable.sol\":775:795  _owner == msg.sender */\n      0xffffffffffffffffffffffffffffffffffffffff\n      and\n        /* \"contracts/Ownable.sol\":775:781  _owner */\n      0x00\n      dup1\n      sload\n      swap1\n      0x0100\n      exp\n      swap1\n      div\n      0xffffffffffffffffffffffffffffffffffffffff\n      and\n        /* \"contracts/Ownable.sol\":775:795  _owner == msg.sender */\n      0xffffffffffffffffffffffffffffffffffffffff\n      and\n      eq\n        /* \"contracts/Ownable.sol\":767:842  require(_owner == msg.sender, \"Ownable: only owner can call this function\") */\n      tag_76\n      jumpi\n      mload(0x40)\n      0x08c379a000000000000000000000000000000000000000000000000000000000\n      dup2\n      mstore\n      0x04\n      add\n      tag_77\n      swap1\n      tag_70\n      jump\t// in\n    tag_77:\n      mload(0x40)\n      dup1\n      swap2\n      sub\n      swap1\n      revert\n    tag_76:\n        /* \"contracts/Ownable.sol\":1499:1500  0 */\n      0x00\n        /* \"contracts/Ownable.sol\":1462:1502  OwnershipTransferred(_owner, address(0)) */\n      0xffffffffffffffffffffffffffffffffffffffff\n      and\n        /* \"contracts/Ownable.sol\":1483:1489  _owner */\n      0x00\n      dup1\n      sload\n      swap1\n      0x0100\n      exp\n      swap1\n      div\n      0xffffffffffffffffffffffffffffffffffffffff\n      and\n        /* \"contracts/Ownable.sol\":1462:1502  OwnershipTransferred(_owner, address(0)) */\n      0xffffffffffffffffffffffffffffffffffffffff\n      and\n      0x8be0079c531659141344cd1fd0a4f28419497f9722a3daafe3b4186f6b6457e0\n      mload(0x40)\n      mload(0x40)\n      dup1\n      swap2\n      sub\n      swap1\n      log3\n        /* \"contracts/Ownable.sol\":1529:1530  0 */\n      0x00\n        /* \"contracts/Ownable.sol\":1512:1518  _owner */\n      dup1\n      0x00\n        /* \"contracts/Ownable.sol\":1512:1531  _owner = address(0) */\n      0x0100\n      exp\n      dup2\n      sload\n      dup2\n      0xffffffffffffffffffffffffffffffffffffffff\n      mul\n      not\n      and\n      swap1\n      dup4\n      0xffffffffffffffffffffffffffffffffffffffff\n      and\n      mul\n      or\n      swap1\n      sstore\n      pop\n        /* \"contracts/Ownable.sol\":1400:1539  function renounceOwnership() public onlyOwner {... */\n      jump\t// out\n        /* \"contracts/Ownable.sol\":1075:1153  function owner() public view returns(address) {... */\n    tag_41:\n        /* \"contracts/Ownable.sol\":1112:1119  address */\n      0x00\n        /* \"contracts/Ownable.sol\":1139:1145  _owner */\n      dup1\n      0x00\n      swap1\n      sload\n      swap1\n      0x0100\n      exp\n      swap1\n      div\n      0xffffffffffffffffffffffffffffffffffffffff\n      and\n        /* \"contracts/Ownable.sol\":1132:1145  return _owner */\n      swap1\n      pop\n        /* \"contracts/Ownable.sol\":1075:1153  function owner() public view returns(address) {... */\n      swap1\n      jump\t// out\n        /* \"contracts/StockCoin.sol\":1869:1955  function symbol() external view returns (string memory){... */\n    tag_45:\n        /* \"contracts/StockCoin.sol\":1910:1923  string memory */\n      0x60\n        /* \"contracts/StockCoin.sol\":1941:1948  _symbol */\n      0x03\n        /* \"contracts/StockCoin.sol\":1934:1948  return _symbol */\n      dup1\n      sload\n      tag_81\n      swap1\n      tag_60\n      jump\t// in\n    tag_81:\n      dup1\n      0x1f\n      add\n      0x20\n      dup1\n      swap2\n      div\n      mul\n      0x20\n      add\n      mload(0x40)\n      swap1\n      dup2\n      add\n      0x40\n      mstore\n      dup1\n      swap3\n      swap2\n      swap1\n      dup2\n      dup2\n      mstore\n      0x20\n      add\n      dup3\n      dup1\n      sload\n      tag_82\n      swap1\n      tag_60\n      jump\t// in\n    tag_82:\n      dup1\n      iszero\n      tag_83\n      jumpi\n      dup1\n      0x1f\n      lt\n      tag_84\n      jumpi\n      0x0100\n      dup1\n      dup4\n      sload\n      div\n      mul\n      dup4\n      mstore\n      swap2\n      0x20\n      add\n      swap2\n      jump(tag_83)\n    tag_84:\n      dup3\n      add\n      swap2\n      swap1\n      0x00\n      mstore\n      keccak256(0x00, 0x20)\n      swap1\n    tag_85:\n      dup2\n      sload\n      dup2\n      mstore\n      swap1\n      0x01\n      add\n      swap1\n      0x20\n      add\n      dup1\n      dup4\n      gt\n      tag_85\n      jumpi\n      dup3\n      swap1\n      sub\n      0x1f\n      and\n      dup3\n      add\n      swap2\n    tag_83:\n      pop\n      pop\n      pop\n      pop\n      pop\n      swap1\n      pop\n        /* \"contracts/StockCoin.sol\":1869:1955  function symbol() external view returns (string memory){... */\n      swap1\n      jump\t// out\n        /* \"contracts/StockCoin.sol\":4284:4425  function burn (address account, uint256 amount) public onlyOwner returns(bool) {... */\n    tag_49:\n        /* \"contracts/StockCoin.sol\":4357:4361  bool */\n      0x00\n        /* \"contracts/Ownable.sol\":785:795  msg.sender */\n      caller\n        /* \"contracts/Ownable.sol\":775:795  _owner == msg.sender */\n      0xffffffffffffffffffffffffffffffffffffffff\n      and\n        /* \"contracts/Ownable.sol\":775:781  _owner */\n      0x00\n      dup1\n      sload\n      swap1\n      0x0100\n      exp\n      swap1\n      div\n      0xffffffffffffffffffffffffffffffffffffffff\n      and\n        /* \"contracts/Ownable.sol\":775:795  _owner == msg.sender */\n      0xffffffffffffffffffffffffffffffffffffffff\n      and\n      eq\n        /* \"contracts/Ownable.sol\":767:842  require(_owner == msg.sender, \"Ownable: only owner can call this function\") */\n      tag_87\n      jumpi\n      mload(0x40)\n      0x08c379a000000000000000000000000000000000000000000000000000000000\n      dup2\n      mstore\n      0x04\n      add\n      tag_88\n      swap1\n      tag_70\n      jump\t// in\n    tag_88:\n      mload(0x40)\n      dup1\n      swap2\n      sub\n      swap1\n      revert\n    tag_87:\n        /* \"contracts/StockCoin.sol\":4374:4396  _burn(account, amount) */\n      tag_90\n        /* \"contracts/StockCoin.sol\":4380:4387  account */\n      dup4\n        /* \"contracts/StockCoin.sol\":4389:4395  amount */\n      dup4\n        /* \"contracts/StockCoin.sol\":4374:4379  _burn */\n      tag_91\n        /* \"contracts/StockCoin.sol\":4374:4396  _burn(account, amount) */\n      jump\t// in\n    tag_90:\n        /* \"contracts/StockCoin.sol\":4413:4417  true */\n      0x01\n        /* \"contracts/StockCoin.sol\":4406:4417  return true */\n      swap1\n      pop\n        /* \"contracts/StockCoin.sol\":4284:4425  function burn (address account, uint256 amount) public onlyOwner returns(bool) {... */\n      swap3\n      swap2\n      pop\n      pop\n      jump\t// out\n        /* \"contracts/StockCoin.sol\":5076:5234  function transfer(address recipient, uint256 amount) external returns (bool) {... */\n    tag_53:\n        /* \"contracts/StockCoin.sol\":5147:5151  bool */\n      0x00\n        /* \"contracts/StockCoin.sol\":5164:5205  _transfer (msg.sender, recipient, amount) */\n      tag_93\n        /* \"contracts/StockCoin.sol\":5175:5185  msg.sender */\n      caller\n        /* \"contracts/StockCoin.sol\":5187:5196  recipient */\n      dup5\n        /* \"contracts/StockCoin.sol\":5198:5204  amount */\n      dup5\n        /* \"contracts/StockCoin.sol\":5164:5173  _transfer */\n      tag_94\n        /* \"contracts/StockCoin.sol\":5164:5205  _transfer (msg.sender, recipient, amount) */\n      jump\t// in\n    tag_93:\n        /* \"contracts/StockCoin.sol\":5222:5226  true */\n      0x01\n        /* \"contracts/StockCoin.sol\":5215:5226  return true */\n      swap1\n      pop\n        /* \"contracts/StockCoin.sol\":5076:5234  function transfer(address recipient, uint256 amount) external returns (bool) {... */\n      swap3\n      swap2\n      pop\n      pop\n      jump\t// out\n        /* \"contracts/Ownable.sol\":1634:1744  function transferOwnership (address newOwner) public onlyOwner {... */\n    tag_57:\n        /* \"contracts/Ownable.sol\":785:795  msg.sender */\n      caller\n        /* \"contracts/Ownable.sol\":775:795  _owner == msg.sender */\n      0xffffffffffffffffffffffffffffffffffffffff\n      and\n        /* \"contracts/Ownable.sol\":775:781  _owner */\n      0x00\n      dup1\n      sload\n      swap1\n      0x0100\n      exp\n      swap1\n      div\n      0xffffffffffffffffffffffffffffffffffffffff\n      and\n        /* \"contracts/Ownable.sol\":775:795  _owner == msg.sender */\n      0xffffffffffffffffffffffffffffffffffffffff\n      and\n      eq\n        /* \"contracts/Ownable.sol\":767:842  require(_owner == msg.sender, \"Ownable: only owner can call this function\") */\n      tag_96\n      jumpi\n      mload(0x40)\n      0x08c379a000000000000000000000000000000000000000000000000000000000\n      dup2\n      mstore\n      0x04\n      add\n      tag_97\n      swap1\n      tag_70\n      jump\t// in\n    tag_97:\n      mload(0x40)\n      dup1\n      swap2\n      sub\n      swap1\n      revert\n    tag_96:\n        /* \"contracts/Ownable.sol\":1708:1736  _transferOwnership(newOwner) */\n      tag_99\n        /* \"contracts/Ownable.sol\":1727:1735  newOwner */\n      dup2\n        /* \"contracts/Ownable.sol\":1708:1726  _transferOwnership */\n      tag_100\n        /* \"contracts/Ownable.sol\":1708:1736  _transferOwnership(newOwner) */\n      jump\t// in\n    tag_99:\n        /* \"contracts/Ownable.sol\":1634:1744  function transferOwnership (address newOwner) public onlyOwner {... */\n      pop\n      jump\t// out\n        /* \"contracts/StockCoin.sol\":2804:3260  function _mint (address account, uint256 amount) internal {... */\n    tag_73:\n        /* \"contracts/StockCoin.sol\":2900:2901  0 */\n      0x00\n        /* \"contracts/StockCoin.sol\":2881:2902  account != address(0) */\n      0xffffffffffffffffffffffffffffffffffffffff\n      and\n        /* \"contracts/StockCoin.sol\":2881:2888  account */\n      dup3\n        /* \"contracts/StockCoin.sol\":2881:2902  account != address(0) */\n      0xffffffffffffffffffffffffffffffffffffffff\n      and\n      sub\n        /* \"contracts/StockCoin.sol\":2873:2945  require(account != address(0), \"StockCoin: cannot mint to zero address\") */\n      tag_102\n      jumpi\n      mload(0x40)\n      0x08c379a000000000000000000000000000000000000000000000000000000000\n      dup2\n      mstore\n      0x04\n      add\n      tag_103\n      swap1\n      tag_104\n      jump\t// in\n    tag_103:\n      mload(0x40)\n      dup1\n      swap2\n      sub\n      swap1\n      revert\n    tag_102:\n        /* \"contracts/StockCoin.sol\":3019:3025  amount */\n      dup1\n        /* \"contracts/StockCoin.sol\":3004:3016  _totalSupply */\n      sload(0x01)\n        /* \"contracts/StockCoin.sol\":3004:3025  _totalSupply + amount */\n      tag_105\n      swap2\n      swap1\n      tag_106\n      jump\t// in\n    tag_105:\n        /* \"contracts/StockCoin.sol\":2989:3001  _totalSupply */\n      0x01\n        /* \"contracts/StockCoin.sol\":2989:3025  _totalSupply = _totalSupply + amount */\n      dup2\n      swap1\n      sstore\n      pop\n        /* \"contracts/StockCoin.sol\":3149:3155  amount */\n      dup1\n        /* \"contracts/StockCoin.sol\":3128:3137  _balances */\n      0x05\n        /* \"contracts/StockCoin.sol\":3128:3146  _balances[account] */\n      0x00\n        /* \"contracts/StockCoin.sol\":3138:3145  account */\n      dup5\n        /* \"contracts/StockCoin.sol\":3128:3146  _balances[account] */\n      0xffffffffffffffffffffffffffffffffffffffff\n      and\n      0xffffffffffffffffffffffffffffffffffffffff\n      and\n      dup2\n      mstore\n      0x20\n      add\n      swap1\n      dup2\n      mstore\n      0x20\n      add\n      0x00\n      keccak256\n      sload\n        /* \"contracts/StockCoin.sol\":3128:3155  _balances[account] + amount */\n      tag_107\n      swap2\n      swap1\n      tag_106\n      jump\t// in\n    tag_107:\n        /* \"contracts/StockCoin.sol\":3107:3116  _balances */\n      0x05\n        /* \"contracts/StockCoin.sol\":3107:3125  _balances[account] */\n      0x00\n        /* \"contracts/StockCoin.sol\":3117:3124  account */\n      dup5\n        /* \"contracts/StockCoin.sol\":3107:3125  _balances[account] */\n      0xffffffffffffffffffffffffffffffffffffffff\n      and\n      0xffffffffffffffffffffffffffffffffffffffff\n      and\n      dup2\n      mstore\n      0x20\n      add\n      swap1\n      dup2\n      mstore\n      0x20\n      add\n      0x00\n      keccak256\n        /* \"contracts/StockCoin.sol\":3107:3155  _balances[account] = _balances[account] + amount */\n      dup2\n      swap1\n      sstore\n      pop\n        /* \"contracts/StockCoin.sol\":3236:3243  account */\n      dup2\n        /* \"contracts/StockCoin.sol\":3215:3252  Transfer(address(0), account, amount) */\n      0xffffffffffffffffffffffffffffffffffffffff\n      and\n        /* \"contracts/StockCoin.sol\":3232:3233  0 */\n      0x00\n        /* \"contracts/StockCoin.sol\":3215:3252  Transfer(address(0), account, amount) */\n      0xffffffffffffffffffffffffffffffffffffffff\n      and\n      0xddf252ad1be2c89b69c2b068fc378daa952ba7f163c4a11628f55a4df523b3ef\n        /* \"contracts/StockCoin.sol\":3245:3251  amount */\n      dup4\n        /* \"contracts/StockCoin.sol\":3215:3252  Transfer(address(0), account, amount) */\n      mload(0x40)\n      tag_108\n      swap2\n      swap1\n      tag_22\n      jump\t// in\n    tag_108:\n      mload(0x40)\n      dup1\n      swap2\n      sub\n      swap1\n      log3\n        /* \"contracts/StockCoin.sol\":2804:3260  function _mint (address account, uint256 amount) internal {... */\n      pop\n      pop\n      jump\t// out\n        /* \"contracts/StockCoin.sol\":3560:4112  function _burn (address account, uint256 amount) internal {... */\n    tag_91:\n        /* \"contracts/StockCoin.sol\":3657:3658  0 */\n      0x00\n        /* \"contracts/StockCoin.sol\":3638:3659  account != address(0) */\n      0xffffffffffffffffffffffffffffffffffffffff\n      and\n        /* \"contracts/StockCoin.sol\":3638:3645  account */\n      dup3\n        /* \"contracts/StockCoin.sol\":3638:3659  account != address(0) */\n      0xffffffffffffffffffffffffffffffffffffffff\n      and\n      sub\n        /* \"contracts/StockCoin.sol\":3629:3704  require (account != address(0), \"StockCoin: cannot burn from zero address\") */\n      tag_110\n      jumpi\n      mload(0x40)\n      0x08c379a000000000000000000000000000000000000000000000000000000000\n      dup2\n      mstore\n      0x04\n      add\n      tag_111\n      swap1\n      tag_112\n      jump\t// in\n    tag_111:\n      mload(0x40)\n      dup1\n      swap2\n      sub\n      swap1\n      revert\n    tag_110:\n        /* \"contracts/StockCoin.sol\":3745:3751  amount */\n      dup1\n        /* \"contracts/StockCoin.sol\":3723:3732  _balances */\n      0x05\n        /* \"contracts/StockCoin.sol\":3723:3741  _balances[account] */\n      0x00\n        /* \"contracts/StockCoin.sol\":3733:3740  account */\n      dup5\n        /* \"contracts/StockCoin.sol\":3723:3741  _balances[account] */\n      0xffffffffffffffffffffffffffffffffffffffff\n      and\n      0xffffffffffffffffffffffffffffffffffffffff\n      and\n      dup2\n      mstore\n      0x20\n      add\n      swap1\n      dup2\n      mstore\n      0x20\n      add\n      0x00\n      keccak256\n      sload\n        /* \"contracts/StockCoin.sol\":3723:3751  _balances[account] >= amount */\n      lt\n      iszero\n        /* \"contracts/StockCoin.sol\":3714:3805  require (_balances[account] >= amount, \"StockCoin: cannot burn more than the account owns\") */\n      tag_113\n      jumpi\n      mload(0x40)\n      0x08c379a000000000000000000000000000000000000000000000000000000000\n      dup2\n      mstore\n      0x04\n      add\n      tag_114\n      swap1\n      tag_115\n      jump\t// in\n    tag_114:\n      mload(0x40)\n      dup1\n      swap2\n      sub\n      swap1\n      revert\n    tag_113:\n        /* \"contracts/StockCoin.sol\":3912:3918  amount */\n      dup1\n        /* \"contracts/StockCoin.sol\":3891:3900  _balances */\n      0x05\n        /* \"contracts/StockCoin.sol\":3891:3909  _balances[account] */\n      0x00\n        /* \"contracts/StockCoin.sol\":3901:3908  account */\n      dup5\n        /* \"contracts/StockCoin.sol\":3891:3909  _balances[account] */\n      0xffffffffffffffffffffffffffffffffffffffff\n      and\n      0xffffffffffffffffffffffffffffffffffffffff\n      and\n      dup2\n      mstore\n      0x20\n      add\n      swap1\n      dup2\n      mstore\n      0x20\n      add\n      0x00\n      keccak256\n      sload\n        /* \"contracts/StockCoin.sol\":3891:3918  _balances[account] - amount */\n      tag_116\n      swap2\n      swap1\n      tag_117\n      jump\t// in\n    tag_116:\n        /* \"contracts/StockCoin.sol\":3870:3879  _balances */\n      0x05\n        /* \"contracts/StockCoin.sol\":3870:3888  _balances[account] */\n      0x00\n        /* \"contracts/StockCoin.sol\":3880:3887  account */\n      dup5\n        /* \"contracts/StockCoin.sol\":3870:3888  _balances[account] */\n      0xffffffffffffffffffffffffffffffffffffffff\n      and\n      0xffffffffffffffffffffffffffffffffffffffff\n      and\n      dup2\n      mstore\n      0x20\n      add\n      swap1\n      dup2\n      mstore\n      0x20\n      add\n      0x00\n      keccak256\n        /* \"contracts/StockCoin.sol\":3870:3918  _balances[account] = _balances[account] - amount */\n      dup2\n      swap1\n      sstore\n      pop\n        /* \"contracts/StockCoin.sol\":3991:3997  amount */\n      dup1\n        /* \"contracts/StockCoin.sol\":3976:3988  _totalSupply */\n      sload(0x01)\n        /* \"contracts/StockCoin.sol\":3976:3997  _totalSupply - amount */\n      tag_118\n      swap2\n      swap1\n      tag_117\n      jump\t// in\n    tag_118:\n        /* \"contracts/StockCoin.sol\":3961:3973  _totalSupply */\n      0x01\n        /* \"contracts/StockCoin.sol\":3961:3997  _totalSupply = _totalSupply - amount */\n      dup2\n      swap1\n      sstore\n      pop\n        /* \"contracts/StockCoin.sol\":4093:4094  0 */\n      0x00\n        /* \"contracts/StockCoin.sol\":4066:4104  Transfer (account, address(0), amount) */\n      0xffffffffffffffffffffffffffffffffffffffff\n      and\n        /* \"contracts/StockCoin.sol\":4076:4083  account */\n      dup3\n        /* \"contracts/StockCoin.sol\":4066:4104  Transfer (account, address(0), amount) */\n      0xffffffffffffffffffffffffffffffffffffffff\n      and\n      0xddf252ad1be2c89b69c2b068fc378daa952ba7f163c4a11628f55a4df523b3ef\n        /* \"contracts/StockCoin.sol\":4097:4103  amount */\n      dup4\n        /* \"contracts/StockCoin.sol\":4066:4104  Transfer (account, address(0), amount) */\n      mload(0x40)\n      tag_119\n      swap2\n      swap1\n      tag_22\n      jump\t// in\n    tag_119:\n      mload(0x40)\n      dup1\n      swap2\n      sub\n      swap1\n      log3\n        /* \"contracts/StockCoin.sol\":3560:4112  function _burn (address account, uint256 amount) internal {... */\n      pop\n      pop\n      jump\t// out\n        /* \"contracts/StockCoin.sol\":5491:6015  function _transfer(address sender, address recipient, uint256 amount) internal {... */\n    tag_94:\n        /* \"contracts/StockCoin.sol\":5607:5608  0 */\n      0x00\n        /* \"contracts/StockCoin.sol\":5589:5609  sender != address(0) */\n      0xffffffffffffffffffffffffffffffffffffffff\n      and\n        /* \"contracts/StockCoin.sol\":5589:5595  sender */\n      dup4\n        /* \"contracts/StockCoin.sol\":5589:5609  sender != address(0) */\n      0xffffffffffffffffffffffffffffffffffffffff\n      and\n      sub\n        /* \"contracts/StockCoin.sol\":5581:5651  require(sender != address(0), \"StockCoin: transfer from zero address\") */\n      tag_121\n      jumpi\n      mload(0x40)\n      0x08c379a000000000000000000000000000000000000000000000000000000000\n      dup2\n      mstore\n      0x04\n      add\n      tag_122\n      swap1\n      tag_123\n      jump\t// in\n    tag_122:\n      mload(0x40)\n      dup1\n      swap2\n      sub\n      swap1\n      revert\n    tag_121:\n        /* \"contracts/StockCoin.sol\":5690:5691  0 */\n      0x00\n        /* \"contracts/StockCoin.sol\":5669:5692  recipient != address(0) */\n      0xffffffffffffffffffffffffffffffffffffffff\n      and\n        /* \"contracts/StockCoin.sol\":5669:5678  recipient */\n      dup3\n        /* \"contracts/StockCoin.sol\":5669:5692  recipient != address(0) */\n      0xffffffffffffffffffffffffffffffffffffffff\n      and\n      sub\n        /* \"contracts/StockCoin.sol\":5661:5734  require(recipient != address(0), \"StockCoin: transfer from zero address\") */\n      tag_124\n      jumpi\n      mload(0x40)\n      0x08c379a000000000000000000000000000000000000000000000000000000000\n      dup2\n      mstore\n      0x04\n      add\n      tag_125\n      swap1\n      tag_123\n      jump\t// in\n    tag_125:\n      mload(0x40)\n      dup1\n      swap2\n      sub\n      swap1\n      revert\n    tag_124:\n        /* \"contracts/StockCoin.sol\":5773:5779  amount */\n      dup1\n        /* \"contracts/StockCoin.sol\":5752:5761  _balances */\n      0x05\n        /* \"contracts/StockCoin.sol\":5752:5769  _balances[sender] */\n      0x00\n        /* \"contracts/StockCoin.sol\":5762:5768  sender */\n      dup6\n        /* \"contracts/StockCoin.sol\":5752:5769  _balances[sender] */\n      0xffffffffffffffffffffffffffffffffffffffff\n      and\n      0xffffffffffffffffffffffffffffffffffffffff\n      and\n      dup2\n      mstore\n      0x20\n      add\n      swap1\n      dup2\n      mstore\n      0x20\n      add\n      0x00\n      keccak256\n      sload\n        /* \"contracts/StockCoin.sol\":5752:5779  _balances[sender] >= amount */\n      lt\n      iszero\n        /* \"contracts/StockCoin.sol\":5744:5837  require(_balances[sender] >= amount, \"StockCoin: cant transfer more than your account holds\") */\n      tag_126\n      jumpi\n      mload(0x40)\n      0x08c379a000000000000000000000000000000000000000000000000000000000\n      dup2\n      mstore\n      0x04\n      add\n      tag_127\n      swap1\n      tag_128\n      jump\t// in\n    tag_127:\n      mload(0x40)\n      dup1\n      swap2\n      sub\n      swap1\n      revert\n    tag_126:\n        /* \"contracts/StockCoin.sol\":5888:5894  amount */\n      dup1\n        /* \"contracts/StockCoin.sol\":5868:5877  _balances */\n      0x05\n        /* \"contracts/StockCoin.sol\":5868:5885  _balances[sender] */\n      0x00\n        /* \"contracts/StockCoin.sol\":5878:5884  sender */\n      dup6\n        /* \"contracts/StockCoin.sol\":5868:5885  _balances[sender] */\n      0xffffffffffffffffffffffffffffffffffffffff\n      and\n      0xffffffffffffffffffffffffffffffffffffffff\n      and\n      dup2\n      mstore\n      0x20\n      add\n      swap1\n      dup2\n      mstore\n      0x20\n      add\n      0x00\n      keccak256\n      sload\n        /* \"contracts/StockCoin.sol\":5868:5894  _balances[sender] - amount */\n      tag_129\n      swap2\n      swap1\n      tag_117\n      jump\t// in\n    tag_129:\n        /* \"contracts/StockCoin.sol\":5848:5857  _balances */\n      0x05\n        /* \"contracts/StockCoin.sol\":5848:5865  _balances[sender] */\n      0x00\n        /* \"contracts/StockCoin.sol\":5858:5864  sender */\n      dup6\n        /* \"contracts/StockCoin.sol\":5848:5865  _balances[sender] */\n      0xffffffffffffffffffffffffffffffffffffffff\n      and\n      0xffffffffffffffffffffffffffffffffffffffff\n      and\n      dup2\n      mstore\n      0x20\n      add\n      swap1\n      dup2\n      mstore\n      0x20\n      add\n      0x00\n      keccak256\n        /* \"contracts/StockCoin.sol\":5848:5894  _balances[sender] = _balances[sender] - amount */\n      dup2\n      swap1\n      sstore\n      pop\n        /* \"contracts/StockCoin.sol\":5950:5956  amount */\n      dup1\n        /* \"contracts/StockCoin.sol\":5927:5936  _balances */\n      0x05\n        /* \"contracts/StockCoin.sol\":5927:5947  _balances[recipient] */\n      0x00\n        /* \"contracts/StockCoin.sol\":5937:5946  recipient */\n      dup5\n        /* \"contracts/StockCoin.sol\":5927:5947  _balances[recipient] */\n      0xffffffffffffffffffffffffffffffffffffffff\n      and\n      0xffffffffffffffffffffffffffffffffffffffff\n      and\n      dup2\n      mstore\n      0x20\n      add\n      swap1\n      dup2\n      mstore\n      0x20\n      add\n      0x00\n      keccak256\n      sload\n        /* \"contracts/StockCoin.sol\":5927:5956  _balances[recipient] + amount */\n      tag_130\n      swap2\n      swap1\n      tag_106\n      jump\t// in\n    tag_130:\n        /* \"contracts/StockCoin.sol\":5904:5913  _balances */\n      0x05\n        /* \"contracts/StockCoin.sol\":5904:5924  _balances[recipient] */\n      0x00\n        /* \"contracts/StockCoin.sol\":5914:5923  recipient */\n      dup5\n        /* \"contracts/StockCoin.sol\":5904:5924  _balances[recipient] */\n      0xffffffffffffffffffffffffffffffffffffffff\n      and\n      0xffffffffffffffffffffffffffffffffffffffff\n      and\n      dup2\n      mstore\n      0x20\n      add\n      swap1\n      dup2\n      mstore\n      0x20\n      add\n      0x00\n      keccak256\n        /* \"contracts/StockCoin.sol\":5904:5956  _balances[recipient] = _balances[recipient] + amount */\n      dup2\n      swap1\n      sstore\n      pop\n        /* \"contracts/StockCoin.sol\":5989:5998  recipient */\n      dup2\n        /* \"contracts/StockCoin.sol\":5972:6007  Transfer(sender, recipient, amount) */\n      0xffffffffffffffffffffffffffffffffffffffff\n      and\n        /* \"contracts/StockCoin.sol\":5981:5987  sender */\n      dup4\n        /* \"contracts/StockCoin.sol\":5972:6007  Transfer(sender, recipient, amount) */\n      0xffffffffffffffffffffffffffffffffffffffff\n      and\n      0xddf252ad1be2c89b69c2b068fc378daa952ba7f163c4a11628f55a4df523b3ef\n        /* \"contracts/StockCoin.sol\":6000:6006  amount */\n      dup4\n        /* \"contracts/StockCoin.sol\":5972:6007  Transfer(sender, recipient, amount) */\n      mload(0x40)\n      tag_131\n      swap2\n      swap1\n      tag_22\n      jump\t// in\n    tag_131:\n      mload(0x40)\n      dup1\n      swap2\n      sub\n      swap1\n      log3\n        /* \"contracts/StockCoin.sol\":5491:6015  function _transfer(address sender, address recipient, uint256 amount) internal {... */\n      pop\n      pop\n      pop\n      jump\t// out\n        /* \"contracts/Ownable.sol\":1840:2066  function _transferOwnership (address newOwner) internal {... */\n    tag_100:\n        /* \"contracts/Ownable.sol\":1936:1937  0 */\n      0x00\n        /* \"contracts/Ownable.sol\":1916:1938  newOwner != address(0) */\n      0xffffffffffffffffffffffffffffffffffffffff\n      and\n        /* \"contracts/Ownable.sol\":1916:1924  newOwner */\n      dup2\n        /* \"contracts/Ownable.sol\":1916:1938  newOwner != address(0) */\n      0xffffffffffffffffffffffffffffffffffffffff\n      and\n      sub\n        /* \"contracts/Ownable.sol\":1907:1977  require (newOwner != address(0), \"Ownable: new owner is zero address\") */\n      tag_133\n      jumpi\n      mload(0x40)\n      0x08c379a000000000000000000000000000000000000000000000000000000000\n      dup2\n      mstore\n      0x04\n      add\n      tag_134\n      swap1\n      tag_135\n      jump\t// in\n    tag_134:\n      mload(0x40)\n      dup1\n      swap2\n      sub\n      swap1\n      revert\n    tag_133:\n        /* \"contracts/Ownable.sol\":2022:2030  newOwner */\n      dup1\n        /* \"contracts/Ownable.sol\":1992:2031  OwnershipTransferred (_owner, newOwner) */\n      0xffffffffffffffffffffffffffffffffffffffff\n      and\n        /* \"contracts/Ownable.sol\":2014:2020  _owner */\n      0x00\n      dup1\n      sload\n      swap1\n      0x0100\n      exp\n      swap1\n      div\n      0xffffffffffffffffffffffffffffffffffffffff\n      and\n        /* \"contracts/Ownable.sol\":1992:2031  OwnershipTransferred (_owner, newOwner) */\n      0xffffffffffffffffffffffffffffffffffffffff\n      and\n      0x8be0079c531659141344cd1fd0a4f28419497f9722a3daafe3b4186f6b6457e0\n      mload(0x40)\n      mload(0x40)\n      dup1\n      swap2\n      sub\n      swap1\n      log3\n        /* \"contracts/Ownable.sol\":2050:2058  newOwner */\n      dup1\n        /* \"contracts/Ownable.sol\":2041:2047  _owner */\n      0x00\n      dup1\n        /* \"contracts/Ownable.sol\":2041:2058  _owner = newOwner */\n      0x0100\n      exp\n      dup2\n      sload\n      dup2\n      0xffffffffffffffffffffffffffffffffffffffff\n      mul\n      not\n      and\n      swap1\n      dup4\n      0xffffffffffffffffffffffffffffffffffffffff\n      and\n      mul\n      or\n      swap1\n      sstore\n      pop\n        /* \"contracts/Ownable.sol\":1840:2066  function _transferOwnership (address newOwner) internal {... */\n      pop\n      jump\t// out\n        /* \"#utility.yul\":7:106   */\n    tag_136:\n        /* \"#utility.yul\":59:65   */\n      0x00\n        /* \"#utility.yul\":93:98   */\n      dup2\n        /* \"#utility.yul\":87:99   */\n      mload\n        /* \"#utility.yul\":77:99   */\n      swap1\n      pop\n        /* \"#utility.yul\":7:106   */\n      swap2\n      swap1\n      pop\n      jump\t// out\n        /* \"#utility.yul\":112:281   */\n    tag_137:\n        /* \"#utility.yul\":196:207   */\n      0x00\n        /* \"#utility.yul\":230:236   */\n      dup3\n        /* \"#utility.yul\":225:228   */\n      dup3\n        /* \"#utility.yul\":218:237   */\n      mstore\n        /* \"#utility.yul\":270:274   */\n      0x20\n        /* \"#utility.yul\":265:268   */\n      dup3\n        /* \"#utility.yul\":261:275   */\n      add\n        /* \"#utility.yul\":246:275   */\n      swap1\n      pop\n        /* \"#utility.yul\":112:281   */\n      swap3\n      swap2\n      pop\n      pop\n      jump\t// out\n        /* \"#utility.yul\":287:594   */\n    tag_138:\n        /* \"#utility.yul\":355:356   */\n      0x00\n        /* \"#utility.yul\":365:478   */\n    tag_177:\n        /* \"#utility.yul\":379:385   */\n      dup4\n        /* \"#utility.yul\":376:377   */\n      dup2\n        /* \"#utility.yul\":373:386   */\n      lt\n        /* \"#utility.yul\":365:478   */\n      iszero\n      tag_179\n      jumpi\n        /* \"#utility.yul\":464:465   */\n      dup1\n        /* \"#utility.yul\":459:462   */\n      dup3\n        /* \"#utility.yul\":455:466   */\n      add\n        /* \"#utility.yul\":449:467   */\n      mload\n        /* \"#utility.yul\":445:446   */\n      dup2\n        /* \"#utility.yul\":440:443   */\n      dup5\n        /* \"#utility.yul\":436:447   */\n      add\n        /* \"#utility.yul\":429:468   */\n      mstore\n        /* \"#utility.yul\":401:403   */\n      0x20\n        /* \"#utility.yul\":398:399   */\n      dup2\n        /* \"#utility.yul\":394:404   */\n      add\n        /* \"#utility.yul\":389:404   */\n      swap1\n      pop\n        /* \"#utility.yul\":365:478   */\n      jump(tag_177)\n    tag_179:\n        /* \"#utility.yul\":496:502   */\n      dup4\n        /* \"#utility.yul\":493:494   */\n      dup2\n        /* \"#utility.yul\":490:503   */\n      gt\n        /* \"#utility.yul\":487:588   */\n      iszero\n      tag_180\n      jumpi\n        /* \"#utility.yul\":576:577   */\n      0x00\n        /* \"#utility.yul\":567:573   */\n      dup5\n        /* \"#utility.yul\":562:565   */\n      dup5\n        /* \"#utility.yul\":558:574   */\n      add\n        /* \"#utility.yul\":551:578   */\n      mstore\n        /* \"#utility.yul\":487:588   */\n    tag_180:\n        /* \"#utility.yul\":336:594   */\n      pop\n        /* \"#utility.yul\":287:594   */\n      pop\n      pop\n      pop\n      jump\t// out\n        /* \"#utility.yul\":600:702   */\n    tag_139:\n        /* \"#utility.yul\":641:647   */\n      0x00\n        /* \"#utility.yul\":692:694   */\n      0x1f\n        /* \"#utility.yul\":688:695   */\n      not\n        /* \"#utility.yul\":683:685   */\n      0x1f\n        /* \"#utility.yul\":676:681   */\n      dup4\n        /* \"#utility.yul\":672:686   */\n      add\n        /* \"#utility.yul\":668:696   */\n      and\n        /* \"#utility.yul\":658:696   */\n      swap1\n      pop\n        /* \"#utility.yul\":600:702   */\n      swap2\n      swap1\n      pop\n      jump\t// out\n        /* \"#utility.yul\":708:1072   */\n    tag_140:\n        /* \"#utility.yul\":796:799   */\n      0x00\n        /* \"#utility.yul\":824:863   */\n      tag_183\n        /* \"#utility.yul\":857:862   */\n      dup3\n        /* \"#utility.yul\":824:863   */\n      tag_136\n      jump\t// in\n    tag_183:\n        /* \"#utility.yul\":879:950   */\n      tag_184\n        /* \"#utility.yul\":943:949   */\n      dup2\n        /* \"#utility.yul\":938:941   */\n      dup6\n        /* \"#utility.yul\":879:950   */\n      tag_137\n      jump\t// in\n    tag_184:\n        /* \"#utility.yul\":872:950   */\n      swap4\n      pop\n        /* \"#utility.yul\":959:1011   */\n      tag_185\n        /* \"#utility.yul\":1004:1010   */\n      dup2\n        /* \"#utility.yul\":999:1002   */\n      dup6\n        /* \"#utility.yul\":992:996   */\n      0x20\n        /* \"#utility.yul\":985:990   */\n      dup7\n        /* \"#utility.yul\":981:997   */\n      add\n        /* \"#utility.yul\":959:1011   */\n      tag_138\n      jump\t// in\n    tag_185:\n        /* \"#utility.yul\":1036:1065   */\n      tag_186\n        /* \"#utility.yul\":1058:1064   */\n      dup2\n        /* \"#utility.yul\":1036:1065   */\n      tag_139\n      jump\t// in\n    tag_186:\n        /* \"#utility.yul\":1031:1034   */\n      dup5\n        /* \"#utility.yul\":1027:1066   */\n      add\n        /* \"#utility.yul\":1020:1066   */\n      swap2\n      pop\n        /* \"#utility.yul\":800:1072   */\n      pop\n        /* \"#utility.yul\":708:1072   */\n      swap3\n      swap2\n      pop\n      pop\n      jump\t// out\n        /* \"#utility.yul\":1078:1391   */\n    tag_18:\n        /* \"#utility.yul\":1191:1195   */\n      0x00\n        /* \"#utility.yul\":1229:1231   */\n      0x20\n        /* \"#utility.yul\":1218:1227   */\n      dup3\n        /* \"#utility.yul\":1214:1232   */\n      add\n        /* \"#utility.yul\":1206:1232   */\n      swap1\n      pop\n        /* \"#utility.yul\":1278:1287   */\n      dup2\n        /* \"#utility.yul\":1272:1276   */\n      dup2\n        /* \"#utility.yul\":1268:1288   */\n      sub\n        /* \"#utility.yul\":1264:1265   */\n      0x00\n        /* \"#utility.yul\":1253:1262   */\n      dup4\n        /* \"#utility.yul\":1249:1266   */\n      add\n        /* \"#utility.yul\":1242:1289   */\n      mstore\n        /* \"#utility.yul\":1306:1384   */\n      tag_188\n        /* \"#utility.yul\":1379:1383   */\n      dup2\n        /* \"#utility.yul\":1370:1376   */\n      dup5\n        /* \"#utility.yul\":1306:1384   */\n      tag_140\n      jump\t// in\n    tag_188:\n        /* \"#utility.yul\":1298:1384   */\n      swap1\n      pop\n        /* \"#utility.yul\":1078:1391   */\n      swap3\n      swap2\n      pop\n      pop\n      jump\t// out\n        /* \"#utility.yul\":1397:1474   */\n    tag_141:\n        /* \"#utility.yul\":1434:1441   */\n      0x00\n        /* \"#utility.yul\":1463:1468   */\n      dup2\n        /* \"#utility.yul\":1452:1468   */\n      swap1\n      pop\n        /* \"#utility.yul\":1397:1474   */\n      swap2\n      swap1\n      pop\n      jump\t// out\n        /* \"#utility.yul\":1480:1598   */\n    tag_142:\n        /* \"#utility.yul\":1567:1591   */\n      tag_191\n        /* \"#utility.yul\":1585:1590   */\n      dup2\n        /* \"#utility.yul\":1567:1591   */\n      tag_141\n      jump\t// in\n    tag_191:\n        /* \"#utility.yul\":1562:1565   */\n      dup3\n        /* \"#utility.yul\":1555:1592   */\n      mstore\n        /* \"#utility.yul\":1480:1598   */\n      pop\n      pop\n      jump\t// out\n        /* \"#utility.yul\":1604:1826   */\n    tag_22:\n        /* \"#utility.yul\":1697:1701   */\n      0x00\n        /* \"#utility.yul\":1735:1737   */\n      0x20\n        /* \"#utility.yul\":1724:1733   */\n      dup3\n        /* \"#utility.yul\":1720:1738   */\n      add\n        /* \"#utility.yul\":1712:1738   */\n      swap1\n      pop\n        /* \"#utility.yul\":1748:1819   */\n      tag_193\n        /* \"#utility.yul\":1816:1817   */\n      0x00\n        /* \"#utility.yul\":1805:1814   */\n      dup4\n        /* \"#utility.yul\":1801:1818   */\n      add\n        /* \"#utility.yul\":1792:1798   */\n      dup5\n        /* \"#utility.yul\":1748:1819   */\n      tag_142\n      jump\t// in\n    tag_193:\n        /* \"#utility.yul\":1604:1826   */\n      swap3\n      swap2\n      pop\n      pop\n      jump\t// out\n        /* \"#utility.yul\":1832:1918   */\n    tag_143:\n        /* \"#utility.yul\":1867:1874   */\n      0x00\n        /* \"#utility.yul\":1907:1911   */\n      0xff\n        /* \"#utility.yul\":1900:1905   */\n      dup3\n        /* \"#utility.yul\":1896:1912   */\n      and\n        /* \"#utility.yul\":1885:1912   */\n      swap1\n      pop\n        /* \"#utility.yul\":1832:1918   */\n      swap2\n      swap1\n      pop\n      jump\t// out\n        /* \"#utility.yul\":1924:2036   */\n    tag_144:\n        /* \"#utility.yul\":2007:2029   */\n      tag_196\n        /* \"#utility.yul\":2023:2028   */\n      dup2\n        /* \"#utility.yul\":2007:2029   */\n      tag_143\n      jump\t// in\n    tag_196:\n        /* \"#utility.yul\":2002:2005   */\n      dup3\n        /* \"#utility.yul\":1995:2030   */\n      mstore\n        /* \"#utility.yul\":1924:2036   */\n      pop\n      pop\n      jump\t// out\n        /* \"#utility.yul\":2042:2256   */\n    tag_26:\n        /* \"#utility.yul\":2131:2135   */\n      0x00\n        /* \"#utility.yul\":2169:2171   */\n      0x20\n        /* \"#utility.yul\":2158:2167   */\n      dup3\n        /* \"#utility.yul\":2154:2172   */\n      add\n        /* \"#utility.yul\":2146:2172   */\n      swap1\n      pop\n        /* \"#utility.yul\":2182:2249   */\n      tag_198\n        /* \"#utility.yul\":2246:2247   */\n      0x00\n        /* \"#utility.yul\":2235:2244   */\n      dup4\n        /* \"#utility.yul\":2231:2248   */\n      add\n        /* \"#utility.yul\":2222:2228   */\n      dup5\n        /* \"#utility.yul\":2182:2249   */\n      tag_144\n      jump\t// in\n    tag_198:\n        /* \"#utility.yul\":2042:2256   */\n      swap3\n      swap2\n      pop\n      pop\n      jump\t// out\n        /* \"#utility.yul\":2343:2460   */\n    tag_146:\n        /* \"#utility.yul\":2452:2453   */\n      0x00\n        /* \"#utility.yul\":2449:2450   */\n      dup1\n        /* \"#utility.yul\":2442:2454   */\n      revert\n        /* \"#utility.yul\":2589:2715   */\n    tag_148:\n        /* \"#utility.yul\":2626:2633   */\n      0x00\n        /* \"#utility.yul\":2666:2708   */\n      0xffffffffffffffffffffffffffffffffffffffff\n        /* \"#utility.yul\":2659:2664   */\n      dup3\n        /* \"#utility.yul\":2655:2709   */\n      and\n        /* \"#utility.yul\":2644:2709   */\n      swap1\n      pop\n        /* \"#utility.yul\":2589:2715   */\n      swap2\n      swap1\n      pop\n      jump\t// out\n        /* \"#utility.yul\":2721:2817   */\n    tag_149:\n        /* \"#utility.yul\":2758:2765   */\n      0x00\n        /* \"#utility.yul\":2787:2811   */\n      tag_204\n        /* \"#utility.yul\":2805:2810   */\n      dup3\n        /* \"#utility.yul\":2787:2811   */\n      tag_148\n      jump\t// in\n    tag_204:\n        /* \"#utility.yul\":2776:2811   */\n      swap1\n      pop\n        /* \"#utility.yul\":2721:2817   */\n      swap2\n      swap1\n      pop\n      jump\t// out\n        /* \"#utility.yul\":2823:2945   */\n    tag_150:\n        /* \"#utility.yul\":2896:2920   */\n      tag_206\n        /* \"#utility.yul\":2914:2919   */\n      dup2\n        /* \"#utility.yul\":2896:2920   */\n      tag_149\n      jump\t// in\n    tag_206:\n        /* \"#utility.yul\":2889:2894   */\n      dup2\n        /* \"#utility.yul\":2886:2921   */\n      eq\n        /* \"#utility.yul\":2876:2939   */\n      tag_207\n      jumpi\n        /* \"#utility.yul\":2935:2936   */\n      0x00\n        /* \"#utility.yul\":2932:2933   */\n      dup1\n        /* \"#utility.yul\":2925:2937   */\n      revert\n        /* \"#utility.yul\":2876:2939   */\n    tag_207:\n        /* \"#utility.yul\":2823:2945   */\n      pop\n      jump\t// out\n        /* \"#utility.yul\":2951:3090   */\n    tag_151:\n        /* \"#utility.yul\":2997:3002   */\n      0x00\n        /* \"#utility.yul\":3035:3041   */\n      dup2\n        /* \"#utility.yul\":3022:3042   */\n      calldataload\n        /* \"#utility.yul\":3013:3042   */\n      swap1\n      pop\n        /* \"#utility.yul\":3051:3084   */\n      tag_209\n        /* \"#utility.yul\":3078:3083   */\n      dup2\n        /* \"#utility.yul\":3051:3084   */\n      tag_150\n      jump\t// in\n    tag_209:\n        /* \"#utility.yul\":2951:3090   */\n      swap3\n      swap2\n      pop\n      pop\n      jump\t// out\n        /* \"#utility.yul\":3096:3218   */\n    tag_152:\n        /* \"#utility.yul\":3169:3193   */\n      tag_211\n        /* \"#utility.yul\":3187:3192   */\n      dup2\n        /* \"#utility.yul\":3169:3193   */\n      tag_141\n      jump\t// in\n    tag_211:\n        /* \"#utility.yul\":3162:3167   */\n      dup2\n        /* \"#utility.yul\":3159:3194   */\n      eq\n        /* \"#utility.yul\":3149:3212   */\n      tag_212\n      jumpi\n        /* \"#utility.yul\":3208:3209   */\n      0x00\n        /* \"#utility.yul\":3205:3206   */\n      dup1\n        /* \"#utility.yul\":3198:3210   */\n      revert\n        /* \"#utility.yul\":3149:3212   */\n    tag_212:\n        /* \"#utility.yul\":3096:3218   */\n      pop\n      jump\t// out\n        /* \"#utility.yul\":3224:3363   */\n    tag_153:\n        /* \"#utility.yul\":3270:3275   */\n      0x00\n        /* \"#utility.yul\":3308:3314   */\n      dup2\n        /* \"#utility.yul\":3295:3315   */\n      calldataload\n        /* \"#utility.yul\":3286:3315   */\n      swap1\n      pop\n        /* \"#utility.yul\":3324:3357   */\n      tag_214\n        /* \"#utility.yul\":3351:3356   */\n      dup2\n        /* \"#utility.yul\":3324:3357   */\n      tag_152\n      jump\t// in\n    tag_214:\n        /* \"#utility.yul\":3224:3363   */\n      swap3\n      swap2\n      pop\n      pop\n      jump\t// out\n        /* \"#utility.yul\":3369:3843   */\n    tag_29:\n        /* \"#utility.yul\":3437:3443   */\n      0x00\n        /* \"#utility.yul\":3445:3451   */\n      dup1\n        /* \"#utility.yul\":3494:3496   */\n      0x40\n        /* \"#utility.yul\":3482:3491   */\n      dup4\n        /* \"#utility.yul\":3473:3480   */\n      dup6\n        /* \"#utility.yul\":3469:3492   */\n      sub\n        /* \"#utility.yul\":3465:3497   */\n      slt\n        /* \"#utility.yul\":3462:3581   */\n      iszero\n      tag_216\n      jumpi\n        /* \"#utility.yul\":3500:3579   */\n      tag_217\n      tag_146\n      jump\t// in\n    tag_217:\n        /* \"#utility.yul\":3462:3581   */\n    tag_216:\n        /* \"#utility.yul\":3620:3621   */\n      0x00\n        /* \"#utility.yul\":3645:3698   */\n      tag_218\n        /* \"#utility.yul\":3690:3697   */\n      dup6\n        /* \"#utility.yul\":3681:3687   */\n      dup3\n        /* \"#utility.yul\":3670:3679   */\n      dup7\n        /* \"#utility.yul\":3666:3688   */\n      add\n        /* \"#utility.yul\":3645:3698   */\n      tag_151\n      jump\t// in\n    tag_218:\n        /* \"#utility.yul\":3635:3698   */\n      swap3\n      pop\n        /* \"#utility.yul\":3591:3708   */\n      pop\n        /* \"#utility.yul\":3747:3749   */\n      0x20\n        /* \"#utility.yul\":3773:3826   */\n      tag_219\n        /* \"#utility.yul\":3818:3825   */\n      dup6\n        /* \"#utility.yul\":3809:3815   */\n      dup3\n        /* \"#utility.yul\":3798:3807   */\n      dup7\n        /* \"#utility.yul\":3794:3816   */\n      add\n        /* \"#utility.yul\":3773:3826   */\n      tag_153\n      jump\t// in\n    tag_219:\n        /* \"#utility.yul\":3763:3826   */\n      swap2\n      pop\n        /* \"#utility.yul\":3718:3836   */\n      pop\n        /* \"#utility.yul\":3369:3843   */\n      swap3\n      pop\n      swap3\n      swap1\n      pop\n      jump\t// out\n        /* \"#utility.yul\":3849:3939   */\n    tag_154:\n        /* \"#utility.yul\":3883:3890   */\n      0x00\n        /* \"#utility.yul\":3926:3931   */\n      dup2\n        /* \"#utility.yul\":3919:3932   */\n      iszero\n        /* \"#utility.yul\":3912:3933   */\n      iszero\n        /* \"#utility.yul\":3901:3933   */\n      swap1\n      pop\n        /* \"#utility.yul\":3849:3939   */\n      swap2\n      swap1\n      pop\n      jump\t// out\n        /* \"#utility.yul\":3945:4054   */\n    tag_155:\n        /* \"#utility.yul\":4026:4047   */\n      tag_222\n        /* \"#utility.yul\":4041:4046   */\n      dup2\n        /* \"#utility.yul\":4026:4047   */\n      tag_154\n      jump\t// in\n    tag_222:\n        /* \"#utility.yul\":4021:4024   */\n      dup3\n        /* \"#utility.yul\":4014:4048   */\n      mstore\n        /* \"#utility.yul\":3945:4054   */\n      pop\n      pop\n      jump\t// out\n        /* \"#utility.yul\":4060:4270   */\n    tag_32:\n        /* \"#utility.yul\":4147:4151   */\n      0x00\n        /* \"#utility.yul\":4185:4187   */\n      0x20\n        /* \"#utility.yul\":4174:4183   */\n      dup3\n        /* \"#utility.yul\":4170:4188   */\n      add\n        /* \"#utility.yul\":4162:4188   */\n      swap1\n      pop\n        /* \"#utility.yul\":4198:4263   */\n      tag_224\n        /* \"#utility.yul\":4260:4261   */\n      0x00\n        /* \"#utility.yul\":4249:4258   */\n      dup4\n        /* \"#utility.yul\":4245:4262   */\n      add\n        /* \"#utility.yul\":4236:4242   */\n      dup5\n        /* \"#utility.yul\":4198:4263   */\n      tag_155\n      jump\t// in\n    tag_224:\n        /* \"#utility.yul\":4060:4270   */\n      swap3\n      swap2\n      pop\n      pop\n      jump\t// out\n        /* \"#utility.yul\":4276:4605   */\n    tag_35:\n        /* \"#utility.yul\":4335:4341   */\n      0x00\n        /* \"#utility.yul\":4384:4386   */\n      0x20\n        /* \"#utility.yul\":4372:4381   */\n      dup3\n        /* \"#utility.yul\":4363:4370   */\n      dup5\n        /* \"#utility.yul\":4359:4382   */\n      sub\n        /* \"#utility.yul\":4355:4387   */\n      slt\n        /* \"#utility.yul\":4352:4471   */\n      iszero\n      tag_226\n      jumpi\n        /* \"#utility.yul\":4390:4469   */\n      tag_227\n      tag_146\n      jump\t// in\n    tag_227:\n        /* \"#utility.yul\":4352:4471   */\n    tag_226:\n        /* \"#utility.yul\":4510:4511   */\n      0x00\n        /* \"#utility.yul\":4535:4588   */\n      tag_228\n        /* \"#utility.yul\":4580:4587   */\n      dup5\n        /* \"#utility.yul\":4571:4577   */\n      dup3\n        /* \"#utility.yul\":4560:4569   */\n      dup6\n        /* \"#utility.yul\":4556:4578   */\n      add\n        /* \"#utility.yul\":4535:4588   */\n      tag_151\n      jump\t// in\n    tag_228:\n        /* \"#utility.yul\":4525:4588   */\n      swap2\n      pop\n        /* \"#utility.yul\":4481:4598   */\n      pop\n        /* \"#utility.yul\":4276:4605   */\n      swap3\n      swap2\n      pop\n      pop\n      jump\t// out\n        /* \"#utility.yul\":4611:4729   */\n    tag_156:\n        /* \"#utility.yul\":4698:4722   */\n      tag_230\n        /* \"#utility.yul\":4716:4721   */\n      dup2\n        /* \"#utility.yul\":4698:4722   */\n      tag_149\n      jump\t// in\n    tag_230:\n        /* \"#utility.yul\":4693:4696   */\n      dup3\n        /* \"#utility.yul\":4686:4723   */\n      mstore\n        /* \"#utility.yul\":4611:4729   */\n      pop\n      pop\n      jump\t// out\n        /* \"#utility.yul\":4735:4957   */\n    tag_43:\n        /* \"#utility.yul\":4828:4832   */\n      0x00\n        /* \"#utility.yul\":4866:4868   */\n      0x20\n        /* \"#utility.yul\":4855:4864   */\n      dup3\n        /* \"#utility.yul\":4851:4869   */\n      add\n        /* \"#utility.yul\":4843:4869   */\n      swap1\n      pop\n        /* \"#utility.yul\":4879:4950   */\n      tag_232\n        /* \"#utility.yul\":4947:4948   */\n      0x00\n        /* \"#utility.yul\":4936:4945   */\n      dup4\n        /* \"#utility.yul\":4932:4949   */\n      add\n        /* \"#utility.yul\":4923:4929   */\n      dup5\n        /* \"#utility.yul\":4879:4950   */\n      tag_156\n      jump\t// in\n    tag_232:\n        /* \"#utility.yul\":4735:4957   */\n      swap3\n      swap2\n      pop\n      pop\n      jump\t// out\n        /* \"#utility.yul\":4963:5143   */\n    tag_157:\n        /* \"#utility.yul\":5011:5088   */\n      0x4e487b7100000000000000000000000000000000000000000000000000000000\n        /* \"#utility.yul\":5008:5009   */\n      0x00\n        /* \"#utility.yul\":5001:5089   */\n      mstore\n        /* \"#utility.yul\":5108:5112   */\n      0x22\n        /* \"#utility.yul\":5105:5106   */\n      0x04\n        /* \"#utility.yul\":5098:5113   */\n      mstore\n        /* \"#utility.yul\":5132:5136   */\n      0x24\n        /* \"#utility.yul\":5129:5130   */\n      0x00\n        /* \"#utility.yul\":5122:5137   */\n      revert\n        /* \"#utility.yul\":5149:5469   */\n    tag_60:\n        /* \"#utility.yul\":5193:5199   */\n      0x00\n        /* \"#utility.yul\":5230:5231   */\n      0x02\n        /* \"#utility.yul\":5224:5228   */\n      dup3\n        /* \"#utility.yul\":5220:5232   */\n      div\n        /* \"#utility.yul\":5210:5232   */\n      swap1\n      pop\n        /* \"#utility.yul\":5277:5278   */\n      0x01\n        /* \"#utility.yul\":5271:5275   */\n      dup3\n        /* \"#utility.yul\":5267:5279   */\n      and\n        /* \"#utility.yul\":5298:5316   */\n      dup1\n        /* \"#utility.yul\":5288:5369   */\n      tag_235\n      jumpi\n        /* \"#utility.yul\":5354:5358   */\n      0x7f\n        /* \"#utility.yul\":5346:5352   */\n      dup3\n        /* \"#utility.yul\":5342:5359   */\n      and\n        /* \"#utility.yul\":5332:5359   */\n      swap2\n      pop\n        /* \"#utility.yul\":5288:5369   */\n    tag_235:\n        /* \"#utility.yul\":5416:5418   */\n      0x20\n        /* \"#utility.yul\":5408:5414   */\n      dup3\n        /* \"#utility.yul\":5405:5419   */\n      lt\n        /* \"#utility.yul\":5385:5403   */\n      dup2\n        /* \"#utility.yul\":5382:5420   */\n      sub\n        /* \"#utility.yul\":5379:5463   */\n      tag_236\n      jumpi\n        /* \"#utility.yul\":5435:5453   */\n      tag_237\n      tag_157\n      jump\t// in\n    tag_237:\n        /* \"#utility.yul\":5379:5463   */\n    tag_236:\n        /* \"#utility.yul\":5200:5469   */\n      pop\n        /* \"#utility.yul\":5149:5469   */\n      swap2\n      swap1\n      pop\n      jump\t// out\n        /* \"#utility.yul\":5475:5704   */\n    tag_158:\n        /* \"#utility.yul\":5615:5649   */\n      0x4f776e61626c653a206f6e6c79206f776e65722063616e2063616c6c20746869\n        /* \"#utility.yul\":5611:5612   */\n      0x00\n        /* \"#utility.yul\":5603:5609   */\n      dup3\n        /* \"#utility.yul\":5599:5613   */\n      add\n        /* \"#utility.yul\":5592:5650   */\n      mstore\n        /* \"#utility.yul\":5684:5696   */\n      0x732066756e6374696f6e00000000000000000000000000000000000000000000\n        /* \"#utility.yul\":5679:5681   */\n      0x20\n        /* \"#utility.yul\":5671:5677   */\n      dup3\n        /* \"#utility.yul\":5667:5682   */\n      add\n        /* \"#utility.yul\":5660:5697   */\n      mstore\n        /* \"#utility.yul\":5475:5704   */\n      pop\n      jump\t// out\n        /* \"#utility.yul\":5710:6076   */\n    tag_159:\n        /* \"#utility.yul\":5852:5855   */\n      0x00\n        /* \"#utility.yul\":5873:5940   */\n      tag_240\n        /* \"#utility.yul\":5937:5939   */\n      0x2a\n        /* \"#utility.yul\":5932:5935   */\n      dup4\n        /* \"#utility.yul\":5873:5940   */\n      tag_137\n      jump\t// in\n    tag_240:\n        /* \"#utility.yul\":5866:5940   */\n      swap2\n      pop\n        /* \"#utility.yul\":5949:6042   */\n      tag_241\n        /* \"#utility.yul\":6038:6041   */\n      dup3\n        /* \"#utility.yul\":5949:6042   */\n      tag_158\n      jump\t// in\n    tag_241:\n        /* \"#utility.yul\":6067:6069   */\n      0x40\n        /* \"#utility.yul\":6062:6065   */\n      dup3\n        /* \"#utility.yul\":6058:6070   */\n      add\n        /* \"#utility.yul\":6051:6070   */\n      swap1\n      pop\n        /* \"#utility.yul\":5710:6076   */\n      swap2\n      swap1\n      pop\n      jump\t// out\n        /* \"#utility.yul\":6082:6501   */\n    tag_70:\n        /* \"#utility.yul\":6248:6252   */\n      0x00\n        /* \"#utility.yul\":6286:6288   */\n      0x20\n        /* \"#utility.yul\":6275:6284   */\n      dup3\n        /* \"#utility.yul\":6271:6289   */\n      add\n        /* \"#utility.yul\":6263:6289   */\n      swap1\n      pop\n        /* \"#utility.yul\":6335:6344   */\n      dup2\n        /* \"#utility.yul\":6329:6333   */\n      dup2\n        /* \"#utility.yul\":6325:6345   */\n      sub\n        /* \"#utility.yul\":6321:6322   */\n      0x00\n        /* \"#utility.yul\":6310:6319   */\n      dup4\n        /* \"#utility.yul\":6306:6323   */\n      add\n        /* \"#utility.yul\":6299:6346   */\n      mstore\n        /* \"#utility.yul\":6363:6494   */\n      tag_243\n        /* \"#utility.yul\":6489:6493   */\n      dup2\n        /* \"#utility.yul\":6363:6494   */\n      tag_159\n      jump\t// in\n    tag_243:\n        /* \"#utility.yul\":6355:6494   */\n      swap1\n      pop\n        /* \"#utility.yul\":6082:6501   */\n      swap2\n      swap1\n      pop\n      jump\t// out\n        /* \"#utility.yul\":6507:6732   */\n    tag_160:\n        /* \"#utility.yul\":6647:6681   */\n      0x53746f636b436f696e3a2063616e6e6f74206d696e7420746f207a65726f2061\n        /* \"#utility.yul\":6643:6644   */\n      0x00\n        /* \"#utility.yul\":6635:6641   */\n      dup3\n        /* \"#utility.yul\":6631:6645   */\n      add\n        /* \"#utility.yul\":6624:6682   */\n      mstore\n        /* \"#utility.yul\":6716:6724   */\n      0x6464726573730000000000000000000000000000000000000000000000000000\n        /* \"#utility.yul\":6711:6713   */\n      0x20\n        /* \"#utility.yul\":6703:6709   */\n      dup3\n        /* \"#utility.yul\":6699:6714   */\n      add\n        /* \"#utility.yul\":6692:6725   */\n      mstore\n        /* \"#utility.yul\":6507:6732   */\n      pop\n      jump\t// out\n        /* \"#utility.yul\":6738:7104   */\n    tag_161:\n        /* \"#utility.yul\":6880:6883   */\n      0x00\n        /* \"#utility.yul\":6901:6968   */\n      tag_246\n        /* \"#utility.yul\":6965:6967   */\n      0x26\n        /* \"#utility.yul\":6960:6963   */\n      dup4\n        /* \"#utility.yul\":6901:6968   */\n      tag_137\n      jump\t// in\n    tag_246:\n        /* \"#utility.yul\":6894:6968   */\n      swap2\n      pop\n        /* \"#utility.yul\":6977:7070   */\n      tag_247\n        /* \"#utility.yul\":7066:7069   */\n      dup3\n        /* \"#utility.yul\":6977:7070   */\n      tag_160\n      jump\t// in\n    tag_247:\n        /* \"#utility.yul\":7095:7097   */\n      0x40\n        /* \"#utility.yul\":7090:7093   */\n      dup3\n        /* \"#utility.yul\":7086:7098   */\n      add\n        /* \"#utility.yul\":7079:7098   */\n      swap1\n      pop\n        /* \"#utility.yul\":6738:7104   */\n      swap2\n      swap1\n      pop\n      jump\t// out\n        /* \"#utility.yul\":7110:7529   */\n    tag_104:\n        /* \"#utility.yul\":7276:7280   */\n      0x00\n        /* \"#utility.yul\":7314:7316   */\n      0x20\n        /* \"#utility.yul\":7303:7312   */\n      dup3\n        /* \"#utility.yul\":7299:7317   */\n      add\n        /* \"#utility.yul\":7291:7317   */\n      swap1\n      pop\n        /* \"#utility.yul\":7363:7372   */\n      dup2\n        /* \"#utility.yul\":7357:7361   */\n      dup2\n        /* \"#utility.yul\":7353:7373   */\n      sub\n        /* \"#utility.yul\":7349:7350   */\n      0x00\n        /* \"#utility.yul\":7338:7347   */\n      dup4\n        /* \"#utility.yul\":7334:7351   */\n      add\n        /* \"#utility.yul\":7327:7374   */\n      mstore\n        /* \"#utility.yul\":7391:7522   */\n      tag_249\n        /* \"#utility.yul\":7517:7521   */\n      dup2\n        /* \"#utility.yul\":7391:7522   */\n      tag_161\n      jump\t// in\n    tag_249:\n        /* \"#utility.yul\":7383:7522   */\n      swap1\n      pop\n        /* \"#utility.yul\":7110:7529   */\n      swap2\n      swap1\n      pop\n      jump\t// out\n        /* \"#utility.yul\":7535:7715   */\n    tag_162:\n        /* \"#utility.yul\":7583:7660   */\n      0x4e487b7100000000000000000000000000000000000000000000000000000000\n        /* \"#utility.yul\":7580:7581   */\n      0x00\n        /* \"#utility.yul\":7573:7661   */\n      mstore\n        /* \"#utility.yul\":7680:7684   */\n      0x11\n        /* \"#utility.yul\":7677:7678   */\n      0x04\n        /* \"#utility.yul\":7670:7685   */\n      mstore\n        /* \"#utility.yul\":7704:7708   */\n      0x24\n        /* \"#utility.yul\":7701:7702   */\n      0x00\n        /* \"#utility.yul\":7694:7709   */\n      revert\n        /* \"#utility.yul\":7721:8026   */\n    tag_106:\n        /* \"#utility.yul\":7761:7764   */\n      0x00\n        /* \"#utility.yul\":7780:7800   */\n      tag_252\n        /* \"#utility.yul\":7798:7799   */\n      dup3\n        /* \"#utility.yul\":7780:7800   */\n      tag_141\n      jump\t// in\n    tag_252:\n        /* \"#utility.yul\":7775:7800   */\n      swap2\n      pop\n        /* \"#utility.yul\":7814:7834   */\n      tag_253\n        /* \"#utility.yul\":7832:7833   */\n      dup4\n        /* \"#utility.yul\":7814:7834   */\n      tag_141\n      jump\t// in\n    tag_253:\n        /* \"#utility.yul\":7809:7834   */\n      swap3\n      pop\n        /* \"#utility.yul\":7968:7969   */\n      dup3\n        /* \"#utility.yul\":7900:7966   */\n      0xffffffffffffffffffffffffffffffffffffffffffffffffffffffffffffffff\n        /* \"#utility.yul\":7896:7970   */\n      sub\n        /* \"#utility.yul\":7893:7894   */\n      dup3\n        /* \"#utility.yul\":7890:7971   */\n      gt\n        /* \"#utility.yul\":7887:7994   */\n      iszero\n      tag_254\n      jumpi\n        /* \"#utility.yul\":7974:7992   */\n      tag_255\n      tag_162\n      jump\t// in\n    tag_255:\n        /* \"#utility.yul\":7887:7994   */\n    tag_254:\n        /* \"#utility.yul\":8018:8019   */\n      dup3\n        /* \"#utility.yul\":8015:8016   */\n      dup3\n        /* \"#utility.yul\":8011:8020   */\n      add\n        /* \"#utility.yul\":8004:8020   */\n      swap1\n      pop\n        /* \"#utility.yul\":7721:8026   */\n      swap3\n      swap2\n      pop\n      pop\n      jump\t// out\n        /* \"#utility.yul\":8032:8259   */\n    tag_163:\n        /* \"#utility.yul\":8172:8206   */\n      0x53746f636b436f696e3a2063616e6e6f74206275726e2066726f6d207a65726f\n        /* \"#utility.yul\":8168:8169   */\n      0x00\n        /* \"#utility.yul\":8160:8166   */\n      dup3\n        /* \"#utility.yul\":8156:8170   */\n      add\n        /* \"#utility.yul\":8149:8207   */\n      mstore\n        /* \"#utility.yul\":8241:8251   */\n      0x2061646472657373000000000000000000000000000000000000000000000000\n        /* \"#utility.yul\":8236:8238   */\n      0x20\n        /* \"#utility.yul\":8228:8234   */\n      dup3\n        /* \"#utility.yul\":8224:8239   */\n      add\n        /* \"#utility.yul\":8217:8252   */\n      mstore\n        /* \"#utility.yul\":8032:8259   */\n      pop\n      jump\t// out\n        /* \"#utility.yul\":8265:8631   */\n    tag_164:\n        /* \"#utility.yul\":8407:8410   */\n      0x00\n        /* \"#utility.yul\":8428:8495   */\n      tag_258\n        /* \"#utility.yul\":8492:8494   */\n      0x28\n        /* \"#utility.yul\":8487:8490   */\n      dup4\n        /* \"#utility.yul\":8428:8495   */\n      tag_137\n      jump\t// in\n    tag_258:\n        /* \"#utility.yul\":8421:8495   */\n      swap2\n      pop\n        /* \"#utility.yul\":8504:8597   */\n      tag_259\n        /* \"#utility.yul\":8593:8596   */\n      dup3\n        /* \"#utility.yul\":8504:8597   */\n      tag_163\n      jump\t// in\n    tag_259:\n        /* \"#utility.yul\":8622:8624   */\n      0x40\n        /* \"#utility.yul\":8617:8620   */\n      dup3\n        /* \"#utility.yul\":8613:8625   */\n      add\n        /* \"#utility.yul\":8606:8625   */\n      swap1\n      pop\n        /* \"#utility.yul\":8265:8631   */\n      swap2\n      swap1\n      pop\n      jump\t// out\n        /* \"#utility.yul\":8637:9056   */\n    tag_112:\n        /* \"#utility.yul\":8803:8807   */\n      0x00\n        /* \"#utility.yul\":8841:8843   */\n      0x20\n        /* \"#utility.yul\":8830:8839   */\n      dup3\n        /* \"#utility.yul\":8826:8844   */\n      add\n        /* \"#utility.yul\":8818:8844   */\n      swap1\n      pop\n        /* \"#utility.yul\":8890:8899   */\n      dup2\n        /* \"#utility.yul\":8884:8888   */\n      dup2\n        /* \"#utility.yul\":8880:8900   */\n      sub\n        /* \"#utility.yul\":8876:8877   */\n      0x00\n        /* \"#utility.yul\":8865:8874   */\n      dup4\n        /* \"#utility.yul\":8861:8878   */\n      add\n        /* \"#utility.yul\":8854:8901   */\n      mstore\n        /* \"#utility.yul\":8918:9049   */\n      tag_261\n        /* \"#utility.yul\":9044:9048   */\n      dup2\n        /* \"#utility.yul\":8918:9049   */\n      tag_164\n      jump\t// in\n    tag_261:\n        /* \"#utility.yul\":8910:9049   */\n      swap1\n      pop\n        /* \"#utility.yul\":8637:9056   */\n      swap2\n      swap1\n      pop\n      jump\t// out\n        /* \"#utility.yul\":9062:9298   */\n    tag_165:\n        /* \"#utility.yul\":9202:9236   */\n      0x53746f636b436f696e3a2063616e6e6f74206275726e206d6f7265207468616e\n        /* \"#utility.yul\":9198:9199   */\n      0x00\n        /* \"#utility.yul\":9190:9196   */\n      dup3\n        /* \"#utility.yul\":9186:9200   */\n      add\n        /* \"#utility.yul\":9179:9237   */\n      mstore\n        /* \"#utility.yul\":9271:9290   */\n      0x20746865206163636f756e74206f776e73000000000000000000000000000000\n        /* \"#utility.yul\":9266:9268   */\n      0x20\n        /* \"#utility.yul\":9258:9264   */\n      dup3\n        /* \"#utility.yul\":9254:9269   */\n      add\n        /* \"#utility.yul\":9247:9291   */\n      mstore\n        /* \"#utility.yul\":9062:9298   */\n      pop\n      jump\t// out\n        /* \"#utility.yul\":9304:9670   */\n    tag_166:\n        /* \"#utility.yul\":9446:9449   */\n      0x00\n        /* \"#utility.yul\":9467:9534   */\n      tag_264\n        /* \"#utility.yul\":9531:9533   */\n      0x31\n        /* \"#utility.yul\":9526:9529   */\n      dup4\n        /* \"#utility.yul\":9467:9534   */\n      tag_137\n      jump\t// in\n    tag_264:\n        /* \"#utility.yul\":9460:9534   */\n      swap2\n      pop\n        /* \"#utility.yul\":9543:9636   */\n      tag_265\n        /* \"#utility.yul\":9632:9635   */\n      dup3\n        /* \"#utility.yul\":9543:9636   */\n      tag_165\n      jump\t// in\n    tag_265:\n        /* \"#utility.yul\":9661:9663   */\n      0x40\n        /* \"#utility.yul\":9656:9659   */\n      dup3\n        /* \"#utility.yul\":9652:9664   */\n      add\n        /* \"#utility.yul\":9645:9664   */\n      swap1\n      pop\n        /* \"#utility.yul\":9304:9670   */\n      swap2\n      swap1\n      pop\n      jump\t// out\n        /* \"#utility.yul\":9676:10095   */\n    tag_115:\n        /* \"#utility.yul\":9842:9846   */\n      0x00\n        /* \"#utility.yul\":9880:9882   */\n      0x20\n        /* \"#utility.yul\":9869:9878   */\n      dup3\n        /* \"#utility.yul\":9865:9883   */\n      add\n        /* \"#utility.yul\":9857:9883   */\n      swap1\n      pop\n        /* \"#utility.yul\":9929:9938   */\n      dup2\n        /* \"#utility.yul\":9923:9927   */\n      dup2\n        /* \"#utility.yul\":9919:9939   */\n      sub\n        /* \"#utility.yul\":9915:9916   */\n      0x00\n        /* \"#utility.yul\":9904:9913   */\n      dup4\n        /* \"#utility.yul\":9900:9917   */\n      add\n        /* \"#utility.yul\":9893:9940   */\n      mstore\n        /* \"#utility.yul\":9957:10088   */\n      tag_267\n        /* \"#utility.yul\":10083:10087   */\n      dup2\n        /* \"#utility.yul\":9957:10088   */\n      tag_166\n      jump\t// in\n    tag_267:\n        /* \"#utility.yul\":9949:10088   */\n      swap1\n      pop\n        /* \"#utility.yul\":9676:10095   */\n      swap2\n      swap1\n      pop\n      jump\t// out\n        /* \"#utility.yul\":10101:10292   */\n    tag_117:\n        /* \"#utility.yul\":10141:10145   */\n      0x00\n        /* \"#utility.yul\":10161:10181   */\n      tag_269\n        /* \"#utility.yul\":10179:10180   */\n      dup3\n        /* \"#utility.yul\":10161:10181   */\n      tag_141\n      jump\t// in\n    tag_269:\n        /* \"#utility.yul\":10156:10181   */\n      swap2\n      pop\n        /* \"#utility.yul\":10195:10215   */\n      tag_270\n        /* \"#utility.yul\":10213:10214   */\n      dup4\n        /* \"#utility.yul\":10195:10215   */\n      tag_141\n      jump\t// in\n    tag_270:\n        /* \"#utility.yul\":10190:10215   */\n      swap3\n      pop\n        /* \"#utility.yul\":10234:10235   */\n      dup3\n        /* \"#utility.yul\":10231:10232   */\n      dup3\n        /* \"#utility.yul\":10228:10236   */\n      lt\n        /* \"#utility.yul\":10225:10259   */\n      iszero\n      tag_271\n      jumpi\n        /* \"#utility.yul\":10239:10257   */\n      tag_272\n      tag_162\n      jump\t// in\n    tag_272:\n        /* \"#utility.yul\":10225:10259   */\n    tag_271:\n        /* \"#utility.yul\":10284:10285   */\n      dup3\n        /* \"#utility.yul\":10281:10282   */\n      dup3\n        /* \"#utility.yul\":10277:10286   */\n      sub\n        /* \"#utility.yul\":10269:10286   */\n      swap1\n      pop\n        /* \"#utility.yul\":10101:10292   */\n      swap3\n      swap2\n      pop\n      pop\n      jump\t// out\n        /* \"#utility.yul\":10298:10522   */\n    tag_167:\n        /* \"#utility.yul\":10438:10472   */\n      0x53746f636b436f696e3a207472616e736665722066726f6d207a65726f206164\n        /* \"#utility.yul\":10434:10435   */\n      0x00\n        /* \"#utility.yul\":10426:10432   */\n      dup3\n        /* \"#utility.yul\":10422:10436   */\n      add\n        /* \"#utility.yul\":10415:10473   */\n      mstore\n        /* \"#utility.yul\":10507:10514   */\n      0x6472657373000000000000000000000000000000000000000000000000000000\n        /* \"#utility.yul\":10502:10504   */\n      0x20\n        /* \"#utility.yul\":10494:10500   */\n      dup3\n        /* \"#utility.yul\":10490:10505   */\n      add\n        /* \"#utility.yul\":10483:10515   */\n      mstore\n        /* \"#utility.yul\":10298:10522   */\n      pop\n      jump\t// out\n        /* \"#utility.yul\":10528:10894   */\n    tag_168:\n        /* \"#utility.yul\":10670:10673   */\n      0x00\n        /* \"#utility.yul\":10691:10758   */\n      tag_275\n        /* \"#utility.yul\":10755:10757   */\n      0x25\n        /* \"#utility.yul\":10750:10753   */\n      dup4\n        /* \"#utility.yul\":10691:10758   */\n      tag_137\n      jump\t// in\n    tag_275:\n        /* \"#utility.yul\":10684:10758   */\n      swap2\n      pop\n        /* \"#utility.yul\":10767:10860   */\n      tag_276\n        /* \"#utility.yul\":10856:10859   */\n      dup3\n        /* \"#utility.yul\":10767:10860   */\n      tag_167\n      jump\t// in\n    tag_276:\n        /* \"#utility.yul\":10885:10887   */\n      0x40\n        /* \"#utility.yul\":10880:10883   */\n      dup3\n        /* \"#utility.yul\":10876:10888   */\n      add\n        /* \"#utility.yul\":10869:10888   */\n      swap1\n      pop\n        /* \"#utility.yul\":10528:10894   */\n      swap2\n      swap1\n      pop\n      jump\t// out\n        /* \"#utility.yul\":10900:11319   */\n    tag_123:\n        /* \"#utility.yul\":11066:11070   */\n      0x00\n        /* \"#utility.yul\":11104:11106   */\n      0x20\n        /* \"#utility.yul\":11093:11102   */\n      dup3\n        /* \"#utility.yul\":11089:11107   */\n      add\n        /* \"#utility.yul\":11081:11107   */\n      swap1\n      pop\n        /* \"#utility.yul\":11153:11162   */\n      dup2\n        /* \"#utility.yul\":11147:11151   */\n      dup2\n        /* \"#utility.yul\":11143:11163   */\n      sub\n        /* \"#utility.yul\":11139:11140   */\n      0x00\n        /* \"#utility.yul\":11128:11137   */\n      dup4\n        /* \"#utility.yul\":11124:11141   */\n      add\n        /* \"#utility.yul\":11117:11164   */\n      mstore\n        /* \"#utility.yul\":11181:11312   */\n      tag_278\n        /* \"#utility.yul\":11307:11311   */\n      dup2\n        /* \"#utility.yul\":11181:11312   */\n      tag_168\n      jump\t// in\n    tag_278:\n        /* \"#utility.yul\":11173:11312   */\n      swap1\n      pop\n        /* \"#utility.yul\":10900:11319   */\n      swap2\n      swap1\n      pop\n      jump\t// out\n        /* \"#utility.yul\":11325:11565   */\n    tag_169:\n        /* \"#utility.yul\":11465:11499   */\n      0x53746f636b436f696e3a2063616e74207472616e73666572206d6f7265207468\n        /* \"#utility.yul\":11461:11462   */\n      0x00\n        /* \"#utility.yul\":11453:11459   */\n      dup3\n        /* \"#utility.yul\":11449:11463   */\n      add\n        /* \"#utility.yul\":11442:11500   */\n      mstore\n        /* \"#utility.yul\":11534:11557   */\n      0x616e20796f7572206163636f756e7420686f6c64730000000000000000000000\n        /* \"#utility.yul\":11529:11531   */\n      0x20\n        /* \"#utility.yul\":11521:11527   */\n      dup3\n        /* \"#utility.yul\":11517:11532   */\n      add\n        /* \"#utility.yul\":11510:11558   */\n      mstore\n        /* \"#utility.yul\":11325:11565   */\n      pop\n      jump\t// out\n        /* \"#utility.yul\":11571:11937   */\n    tag_170:\n        /* \"#utility.yul\":11713:11716   */\n      0x00\n        /* \"#utility.yul\":11734:11801   */\n      tag_281\n        /* \"#utility.yul\":11798:11800   */\n      0x35\n        /* \"#utility.yul\":11793:11796   */\n      dup4\n        /* \"#utility.yul\":11734:11801   */\n      tag_137\n      jump\t// in\n    tag_281:\n        /* \"#utility.yul\":11727:11801   */\n      swap2\n      pop\n        /* \"#utility.yul\":11810:11903   */\n      tag_282\n        /* \"#utility.yul\":11899:11902   */\n      dup3\n        /* \"#utility.yul\":11810:11903   */\n      tag_169\n      jump\t// in\n    tag_282:\n        /* \"#utility.yul\":11928:11930   */\n      0x40\n        /* \"#utility.yul\":11923:11926   */\n      dup3\n        /* \"#utility.yul\":11919:11931   */\n      add\n        /* \"#utility.yul\":11912:11931   */\n      swap1\n      pop\n        /* \"#utility.yul\":11571:11937   */\n      swap2\n      swap1\n      pop\n      jump\t// out\n        /* \"#utility.yul\":11943:12362   */\n    tag_128:\n        /* \"#utility.yul\":12109:12113   */\n      0x00\n        /* \"#utility.yul\":12147:12149   */\n      0x20\n        /* \"#utility.yul\":12136:12145   */\n      dup3\n        /* \"#utility.yul\":12132:12150   */\n      add\n        /* \"#utility.yul\":12124:12150   */\n      swap1\n      pop\n        /* \"#utility.yul\":12196:12205   */\n      dup2\n        /* \"#utility.yul\":12190:12194   */\n      dup2\n        /* \"#utility.yul\":12186:12206   */\n      sub\n        /* \"#utility.yul\":12182:12183   */\n      0x00\n        /* \"#utility.yul\":12171:12180   */\n      dup4\n        /* \"#utility.yul\":12167:12184   */\n      add\n        /* \"#utility.yul\":12160:12207   */\n      mstore\n        /* \"#utility.yul\":12224:12355   */\n      tag_284\n        /* \"#utility.yul\":12350:12354   */\n      dup2\n        /* \"#utility.yul\":12224:12355   */\n      tag_170\n      jump\t// in\n    tag_284:\n        /* \"#utility.yul\":12216:12355   */\n      swap1\n      pop\n        /* \"#utility.yul\":11943:12362   */\n      swap2\n      swap1\n      pop\n      jump\t// out\n        /* \"#utility.yul\":12368:12589   */\n    tag_171:\n        /* \"#utility.yul\":12508:12542   */\n      0x4f776e61626c653a206e6577206f776e6572206973207a65726f206164647265\n        /* \"#utility.yul\":12504:12505   */\n      0x00\n        /* \"#utility.yul\":12496:12502   */\n      dup3\n        /* \"#utility.yul\":12492:12506   */\n      add\n        /* \"#utility.yul\":12485:12543   */\n      mstore\n        /* \"#utility.yul\":12577:12581   */\n      0x7373000000000000000000000000000000000000000000000000000000000000\n        /* \"#utility.yul\":12572:12574   */\n      0x20\n        /* \"#utility.yul\":12564:12570   */\n      dup3\n        /* \"#utility.yul\":12560:12575   */\n      add\n        /* \"#utility.yul\":12553:12582   */\n      mstore\n        /* \"#utility.yul\":12368:12589   */\n      pop\n      jump\t// out\n        /* \"#utility.yul\":12595:12961   */\n    tag_172:\n        /* \"#utility.yul\":12737:12740   */\n      0x00\n        /* \"#utility.yul\":12758:12825   */\n      tag_287\n        /* \"#utility.yul\":12822:12824   */\n      0x22\n        /* \"#utility.yul\":12817:12820   */\n      dup4\n        /* \"#utility.yul\":12758:12825   */\n      tag_137\n      jump\t// in\n    tag_287:\n        /* \"#utility.yul\":12751:12825   */\n      swap2\n      pop\n        /* \"#utility.yul\":12834:12927   */\n      tag_288\n        /* \"#utility.yul\":12923:12926   */\n      dup3\n        /* \"#utility.yul\":12834:12927   */\n      tag_171\n      jump\t// in\n    tag_288:\n        /* \"#utility.yul\":12952:12954   */\n      0x40\n        /* \"#utility.yul\":12947:12950   */\n      dup3\n        /* \"#utility.yul\":12943:12955   */\n      add\n        /* \"#utility.yul\":12936:12955   */\n      swap1\n      pop\n        /* \"#utility.yul\":12595:12961   */\n      swap2\n      swap1\n      pop\n      jump\t// out\n        /* \"#utility.yul\":12967:13386   */\n    tag_135:\n        /* \"#utility.yul\":13133:13137   */\n      0x00\n        /* \"#utility.yul\":13171:13173   */\n      0x20\n        /* \"#utility.yul\":13160:13169   */\n      dup3\n        /* \"#utility.yul\":13156:13174   */\n      add\n        /* \"#utility.yul\":13148:13174   */\n      swap1\n      pop\n        /* \"#utility.yul\":13220:13229   */\n      dup2\n        /* \"#utility.yul\":13214:13218   */\n      dup2\n        /* \"#utility.yul\":13210:13230   */\n      sub\n        /* \"#utility.yul\":13206:13207   */\n      0x00\n        /* \"#utility.yul\":13195:13204   */\n      dup4\n        /* \"#utility.yul\":13191:13208   */\n      add\n        /* \"#utility.yul\":13184:13231   */\n      mstore\n        /* \"#utility.yul\":13248:13379   */\n      tag_290\n        /* \"#utility.yul\":13374:13378   */\n      dup2\n        /* \"#utility.yul\":13248:13379   */\n      tag_172\n      jump\t// in\n    tag_290:\n        /* \"#utility.yul\":13240:13379   */\n      swap1\n      pop\n        /* \"#utility.yul\":12967:13386   */\n      swap2\n      swap1\n      pop\n      jump\t// out\n\n    auxdata: 0xa26469706673582212208c859128d6510408d8415dbdaa3a7d1d0bad902a4ccf6d25d08af8c629cf4ae864736f6c634300080d0033\n}\n",
				"bytecode": {
					"linkReferences": {},
					"object": "60806040523480156200001157600080fd5b5060405162001c9738038062001c978339818101604052810190620000379190620004c6565b336000806101000a81548173ffffffffffffffffffffffffffffffffffffffff021916908373ffffffffffffffffffffffffffffffffffffffff16021790555060008054906101000a900473ffffffffffffffffffffffffffffffffffffffff1673ffffffffffffffffffffffffffffffffffffffff16600073ffffffffffffffffffffffffffffffffffffffff167f8be0079c531659141344cd1fd0a4f28419497f9722a3daafe3b4186f6b6457e060405160405180910390a383600490805190602001906200010a92919062000200565b5082600390805190602001906200012392919062000200565b5081600260006101000a81548160ff021916908360ff16021790555080600181905550600154600560003373ffffffffffffffffffffffffffffffffffffffff1673ffffffffffffffffffffffffffffffffffffffff168152602001908152602001600020819055503373ffffffffffffffffffffffffffffffffffffffff16600073ffffffffffffffffffffffffffffffffffffffff167fddf252ad1be2c89b69c2b068fc378daa952ba7f163c4a11628f55a4df523b3ef600154604051620001ee919062000587565b60405180910390a35050505062000608565b8280546200020e90620005d3565b90600052602060002090601f0160209004810192826200023257600085556200027e565b82601f106200024d57805160ff19168380011785556200027e565b828001600101855582156200027e579182015b828111156200027d57825182559160200191906001019062000260565b5b5090506200028d919062000291565b5090565b5b80821115620002ac57600081600090555060010162000292565b5090565b6000604051905090565b600080fd5b600080fd5b600080fd5b600080fd5b6000601f19601f8301169050919050565b7f4e487b7100000000000000000000000000000000000000000000000000000000600052604160045260246000fd5b6200031982620002ce565b810181811067ffffffffffffffff821117156200033b576200033a620002df565b5b80604052505050565b600062000350620002b0565b90506200035e82826200030e565b919050565b600067ffffffffffffffff821115620003815762000380620002df565b5b6200038c82620002ce565b9050602081019050919050565b60005b83811015620003b95780820151818401526020810190506200039c565b83811115620003c9576000848401525b50505050565b6000620003e6620003e08462000363565b62000344565b905082815260208101848484011115620004055762000404620002c9565b5b6200041284828562000399565b509392505050565b600082601f830112620004325762000431620002c4565b5b815162000444848260208601620003cf565b91505092915050565b600060ff82169050919050565b62000465816200044d565b81146200047157600080fd5b50565b60008151905062000485816200045a565b92915050565b6000819050919050565b620004a0816200048b565b8114620004ac57600080fd5b50565b600081519050620004c08162000495565b92915050565b60008060008060808587031215620004e357620004e2620002ba565b5b600085015167ffffffffffffffff811115620005045762000503620002bf565b5b62000512878288016200041a565b945050602085015167ffffffffffffffff811115620005365762000535620002bf565b5b62000544878288016200041a565b9350506040620005578782880162000474565b92505060606200056a87828801620004af565b91505092959194509250565b62000581816200048b565b82525050565b60006020820190506200059e600083018462000576565b92915050565b7f4e487b7100000000000000000000000000000000000000000000000000000000600052602260045260246000fd5b60006002820490506001821680620005ec57607f821691505b602082108103620006025762000601620005a4565b5b50919050565b61167f80620006186000396000f3fe608060405234801561001057600080fd5b50600436106100a95760003560e01c8063715018a611610071578063715018a6146101685780638da5cb5b1461017257806395d89b41146101905780639dc29fac146101ae578063a9059cbb146101de578063f2fde38b1461020e576100a9565b806306fdde03146100ae57806318160ddd146100cc578063313ce567146100ea57806340c10f191461010857806370a0823114610138575b600080fd5b6100b661022a565b6040516100c39190610f49565b60405180910390f35b6100d46102bc565b6040516100e19190610f84565b60405180910390f35b6100f26102c6565b6040516100ff9190610fbb565b60405180910390f35b610122600480360381019061011d9190611065565b6102dd565b60405161012f91906110c0565b60405180910390f35b610152600480360381019061014d91906110db565b610381565b60405161015f9190610f84565b60405180910390f35b6101706103ca565b005b61017a610516565b6040516101879190611117565b60405180910390f35b61019861053f565b6040516101a59190610f49565b60405180910390f35b6101c860048036038101906101c39190611065565b6105d1565b6040516101d591906110c0565b60405180910390f35b6101f860048036038101906101f39190611065565b610675565b60405161020591906110c0565b60405180910390f35b610228600480360381019061022391906110db565b61068c565b005b60606004805461023990611161565b80601f016020809104026020016040519081016040528092919081815260200182805461026590611161565b80156102b25780601f10610287576101008083540402835291602001916102b2565b820191906000526020600020905b81548152906001019060200180831161029557829003601f168201915b5050505050905090565b6000600154905090565b6000600260009054906101000a900460ff16905090565b60003373ffffffffffffffffffffffffffffffffffffffff1660008054906101000a900473ffffffffffffffffffffffffffffffffffffffff1673ffffffffffffffffffffffffffffffffffffffff161461036d576040517f08c379a000000000000000000000000000000000000000000000000000000000815260040161036490611204565b60405180910390fd5b6103778383610726565b6001905092915050565b6000600560008373ffffffffffffffffffffffffffffffffffffffff1673ffffffffffffffffffffffffffffffffffffffff168152602001908152602001600020549050919050565b3373ffffffffffffffffffffffffffffffffffffffff1660008054906101000a900473ffffffffffffffffffffffffffffffffffffffff1673ffffffffffffffffffffffffffffffffffffffff1614610458576040517f08c379a000000000000000000000000000000000000000000000000000000000815260040161044f90611204565b60405180910390fd5b600073ffffffffffffffffffffffffffffffffffffffff1660008054906101000a900473ffffffffffffffffffffffffffffffffffffffff1673ffffffffffffffffffffffffffffffffffffffff167f8be0079c531659141344cd1fd0a4f28419497f9722a3daafe3b4186f6b6457e060405160405180910390a360008060006101000a81548173ffffffffffffffffffffffffffffffffffffffff021916908373ffffffffffffffffffffffffffffffffffffffff160217905550565b60008060009054906101000a900473ffffffffffffffffffffffffffffffffffffffff16905090565b60606003805461054e90611161565b80601f016020809104026020016040519081016040528092919081815260200182805461057a90611161565b80156105c75780601f1061059c576101008083540402835291602001916105c7565b820191906000526020600020905b8154815290600101906020018083116105aa57829003601f168201915b5050505050905090565b60003373ffffffffffffffffffffffffffffffffffffffff1660008054906101000a900473ffffffffffffffffffffffffffffffffffffffff1673ffffffffffffffffffffffffffffffffffffffff1614610661576040517f08c379a000000000000000000000000000000000000000000000000000000000815260040161065890611204565b60405180910390fd5b61066b83836108a1565b6001905092915050565b6000610682338484610a9e565b6001905092915050565b3373ffffffffffffffffffffffffffffffffffffffff1660008054906101000a900473ffffffffffffffffffffffffffffffffffffffff1673ffffffffffffffffffffffffffffffffffffffff161461071a576040517f08c379a000000000000000000000000000000000000000000000000000000000815260040161071190611204565b60405180910390fd5b61072381610d84565b50565b600073ffffffffffffffffffffffffffffffffffffffff168273ffffffffffffffffffffffffffffffffffffffff1603610795576040517f08c379a000000000000000000000000000000000000000000000000000000000815260040161078c90611296565b60405180910390fd5b806001546107a391906112e5565b60018190555080600560008473ffffffffffffffffffffffffffffffffffffffff1673ffffffffffffffffffffffffffffffffffffffff168152602001908152602001600020546107f491906112e5565b600560008473ffffffffffffffffffffffffffffffffffffffff1673ffffffffffffffffffffffffffffffffffffffff168152602001908152602001600020819055508173ffffffffffffffffffffffffffffffffffffffff16600073ffffffffffffffffffffffffffffffffffffffff167fddf252ad1be2c89b69c2b068fc378daa952ba7f163c4a11628f55a4df523b3ef836040516108959190610f84565b60405180910390a35050565b600073ffffffffffffffffffffffffffffffffffffffff168273ffffffffffffffffffffffffffffffffffffffff1603610910576040517f08c379a0000000000000000000000000000000000000000000000000000000008152600401610907906113ad565b60405180910390fd5b80600560008473ffffffffffffffffffffffffffffffffffffffff1673ffffffffffffffffffffffffffffffffffffffff168152602001908152602001600020541015610992576040517f08c379a00000000000000000000000000000000000000000000000000000000081526004016109899061143f565b60405180910390fd5b80600560008473ffffffffffffffffffffffffffffffffffffffff1673ffffffffffffffffffffffffffffffffffffffff168152602001908152602001600020546109dd919061145f565b600560008473ffffffffffffffffffffffffffffffffffffffff1673ffffffffffffffffffffffffffffffffffffffff1681526020019081526020016000208190555080600154610a2e919061145f565b600181905550600073ffffffffffffffffffffffffffffffffffffffff168273ffffffffffffffffffffffffffffffffffffffff167fddf252ad1be2c89b69c2b068fc378daa952ba7f163c4a11628f55a4df523b3ef83604051610a929190610f84565b60405180910390a35050565b600073ffffffffffffffffffffffffffffffffffffffff168373ffffffffffffffffffffffffffffffffffffffff1603610b0d576040517f08c379a0000000000000000000000000000000000000000000000000000000008152600401610b0490611505565b60405180910390fd5b600073ffffffffffffffffffffffffffffffffffffffff168273ffffffffffffffffffffffffffffffffffffffff1603610b7c576040517f08c379a0000000000000000000000000000000000000000000000000000000008152600401610b7390611505565b60405180910390fd5b80600560008573ffffffffffffffffffffffffffffffffffffffff1673ffffffffffffffffffffffffffffffffffffffff168152602001908152602001600020541015610bfe576040517f08c379a0000000000000000000000000000000000000000000000000000000008152600401610bf590611597565b60405180910390fd5b80600560008573ffffffffffffffffffffffffffffffffffffffff1673ffffffffffffffffffffffffffffffffffffffff16815260200190815260200160002054610c49919061145f565b600560008573ffffffffffffffffffffffffffffffffffffffff1673ffffffffffffffffffffffffffffffffffffffff1681526020019081526020016000208190555080600560008473ffffffffffffffffffffffffffffffffffffffff1673ffffffffffffffffffffffffffffffffffffffff16815260200190815260200160002054610cd791906112e5565b600560008473ffffffffffffffffffffffffffffffffffffffff1673ffffffffffffffffffffffffffffffffffffffff168152602001908152602001600020819055508173ffffffffffffffffffffffffffffffffffffffff168373ffffffffffffffffffffffffffffffffffffffff167fddf252ad1be2c89b69c2b068fc378daa952ba7f163c4a11628f55a4df523b3ef83604051610d779190610f84565b60405180910390a3505050565b600073ffffffffffffffffffffffffffffffffffffffff168173ffffffffffffffffffffffffffffffffffffffff1603610df3576040517f08c379a0000000000000000000000000000000000000000000000000000000008152600401610dea90611629565b60405180910390fd5b8073ffffffffffffffffffffffffffffffffffffffff1660008054906101000a900473ffffffffffffffffffffffffffffffffffffffff1673ffffffffffffffffffffffffffffffffffffffff167f8be0079c531659141344cd1fd0a4f28419497f9722a3daafe3b4186f6b6457e060405160405180910390a3806000806101000a81548173ffffffffffffffffffffffffffffffffffffffff021916908373ffffffffffffffffffffffffffffffffffffffff16021790555050565b600081519050919050565b600082825260208201905092915050565b60005b83811015610eea578082015181840152602081019050610ecf565b83811115610ef9576000848401525b50505050565b6000601f19601f8301169050919050565b6000610f1b82610eb0565b610f258185610ebb565b9350610f35818560208601610ecc565b610f3e81610eff565b840191505092915050565b60006020820190508181036000830152610f638184610f10565b905092915050565b6000819050919050565b610f7e81610f6b565b82525050565b6000602082019050610f996000830184610f75565b92915050565b600060ff82169050919050565b610fb581610f9f565b82525050565b6000602082019050610fd06000830184610fac565b92915050565b600080fd5b600073ffffffffffffffffffffffffffffffffffffffff82169050919050565b600061100682610fdb565b9050919050565b61101681610ffb565b811461102157600080fd5b50565b6000813590506110338161100d565b92915050565b61104281610f6b565b811461104d57600080fd5b50565b60008135905061105f81611039565b92915050565b6000806040838503121561107c5761107b610fd6565b5b600061108a85828601611024565b925050602061109b85828601611050565b9150509250929050565b60008115159050919050565b6110ba816110a5565b82525050565b60006020820190506110d560008301846110b1565b92915050565b6000602082840312156110f1576110f0610fd6565b5b60006110ff84828501611024565b91505092915050565b61111181610ffb565b82525050565b600060208201905061112c6000830184611108565b92915050565b7f4e487b7100000000000000000000000000000000000000000000000000000000600052602260045260246000fd5b6000600282049050600182168061117957607f821691505b60208210810361118c5761118b611132565b5b50919050565b7f4f776e61626c653a206f6e6c79206f776e65722063616e2063616c6c2074686960008201527f732066756e6374696f6e00000000000000000000000000000000000000000000602082015250565b60006111ee602a83610ebb565b91506111f982611192565b604082019050919050565b6000602082019050818103600083015261121d816111e1565b9050919050565b7f53746f636b436f696e3a2063616e6e6f74206d696e7420746f207a65726f206160008201527f6464726573730000000000000000000000000000000000000000000000000000602082015250565b6000611280602683610ebb565b915061128b82611224565b604082019050919050565b600060208201905081810360008301526112af81611273565b9050919050565b7f4e487b7100000000000000000000000000000000000000000000000000000000600052601160045260246000fd5b60006112f082610f6b565b91506112fb83610f6b565b9250827fffffffffffffffffffffffffffffffffffffffffffffffffffffffffffffffff038211156113305761132f6112b6565b5b828201905092915050565b7f53746f636b436f696e3a2063616e6e6f74206275726e2066726f6d207a65726f60008201527f2061646472657373000000000000000000000000000000000000000000000000602082015250565b6000611397602883610ebb565b91506113a28261133b565b604082019050919050565b600060208201905081810360008301526113c68161138a565b9050919050565b7f53746f636b436f696e3a2063616e6e6f74206275726e206d6f7265207468616e60008201527f20746865206163636f756e74206f776e73000000000000000000000000000000602082015250565b6000611429603183610ebb565b9150611434826113cd565b604082019050919050565b600060208201905081810360008301526114588161141c565b9050919050565b600061146a82610f6b565b915061147583610f6b565b925082821015611488576114876112b6565b5b828203905092915050565b7f53746f636b436f696e3a207472616e736665722066726f6d207a65726f20616460008201527f6472657373000000000000000000000000000000000000000000000000000000602082015250565b60006114ef602583610ebb565b91506114fa82611493565b604082019050919050565b6000602082019050818103600083015261151e816114e2565b9050919050565b7f53746f636b436f696e3a2063616e74207472616e73666572206d6f726520746860008201527f616e20796f7572206163636f756e7420686f6c64730000000000000000000000602082015250565b6000611581603583610ebb565b915061158c82611525565b604082019050919050565b600060208201905081810360008301526115b081611574565b9050919050565b7f4f776e61626c653a206e6577206f776e6572206973207a65726f20616464726560008201527f7373000000000000000000000000000000000000000000000000000000000000602082015250565b6000611613602283610ebb565b915061161e826115b7565b604082019050919050565b6000602082019050818103600083015261164281611606565b905091905056fea26469706673582212208c859128d6510408d8415dbdaa3a7d1d0bad902a4ccf6d25d08af8c629cf4ae864736f6c634300080d0033",
					"opcodes": "PUSH1 0x80 PUSH1 0x40 MSTORE CALLVALUE DUP1 ISZERO PUSH3 0x11 JUMPI PUSH1 0x0 DUP1 REVERT JUMPDEST POP PUSH1 0x40 MLOAD PUSH3 0x1C97 CODESIZE SUB DUP1 PUSH3 0x1C97 DUP4 CODECOPY DUP2 DUP2 ADD PUSH1 0x40 MSTORE DUP2 ADD SWAP1 PUSH3 0x37 SWAP2 SWAP1 PUSH3 0x4C6 JUMP JUMPDEST CALLER PUSH1 0x0 DUP1 PUSH2 0x100 EXP DUP2 SLOAD DUP2 PUSH20 0xFFFFFFFFFFFFFFFFFFFFFFFFFFFFFFFFFFFFFFFF MUL NOT AND SWAP1 DUP4 PUSH20 0xFFFFFFFFFFFFFFFFFFFFFFFFFFFFFFFFFFFFFFFF AND MUL OR SWAP1 SSTORE POP PUSH1 0x0 DUP1 SLOAD SWAP1 PUSH2 0x100 EXP SWAP1 DIV PUSH20 0xFFFFFFFFFFFFFFFFFFFFFFFFFFFFFFFFFFFFFFFF AND PUSH20 0xFFFFFFFFFFFFFFFFFFFFFFFFFFFFFFFFFFFFFFFF AND PUSH1 0x0 PUSH20 0xFFFFFFFFFFFFFFFFFFFFFFFFFFFFFFFFFFFFFFFF AND PUSH32 0x8BE0079C531659141344CD1FD0A4F28419497F9722A3DAAFE3B4186F6B6457E0 PUSH1 0x40 MLOAD PUSH1 0x40 MLOAD DUP1 SWAP2 SUB SWAP1 LOG3 DUP4 PUSH1 0x4 SWAP1 DUP1 MLOAD SWAP1 PUSH1 0x20 ADD SWAP1 PUSH3 0x10A SWAP3 SWAP2 SWAP1 PUSH3 0x200 JUMP JUMPDEST POP DUP3 PUSH1 0x3 SWAP1 DUP1 MLOAD SWAP1 PUSH1 0x20 ADD SWAP1 PUSH3 0x123 SWAP3 SWAP2 SWAP1 PUSH3 0x200 JUMP JUMPDEST POP DUP2 PUSH1 0x2 PUSH1 0x0 PUSH2 0x100 EXP DUP2 SLOAD DUP2 PUSH1 0xFF MUL NOT AND SWAP1 DUP4 PUSH1 0xFF AND MUL OR SWAP1 SSTORE POP DUP1 PUSH1 0x1 DUP2 SWAP1 SSTORE POP PUSH1 0x1 SLOAD PUSH1 0x5 PUSH1 0x0 CALLER PUSH20 0xFFFFFFFFFFFFFFFFFFFFFFFFFFFFFFFFFFFFFFFF AND PUSH20 0xFFFFFFFFFFFFFFFFFFFFFFFFFFFFFFFFFFFFFFFF AND DUP2 MSTORE PUSH1 0x20 ADD SWAP1 DUP2 MSTORE PUSH1 0x20 ADD PUSH1 0x0 KECCAK256 DUP2 SWAP1 SSTORE POP CALLER PUSH20 0xFFFFFFFFFFFFFFFFFFFFFFFFFFFFFFFFFFFFFFFF AND PUSH1 0x0 PUSH20 0xFFFFFFFFFFFFFFFFFFFFFFFFFFFFFFFFFFFFFFFF AND PUSH32 0xDDF252AD1BE2C89B69C2B068FC378DAA952BA7F163C4A11628F55A4DF523B3EF PUSH1 0x1 SLOAD PUSH1 0x40 MLOAD PUSH3 0x1EE SWAP2 SWAP1 PUSH3 0x587 JUMP JUMPDEST PUSH1 0x40 MLOAD DUP1 SWAP2 SUB SWAP1 LOG3 POP POP POP POP PUSH3 0x608 JUMP JUMPDEST DUP3 DUP1 SLOAD PUSH3 0x20E SWAP1 PUSH3 0x5D3 JUMP JUMPDEST SWAP1 PUSH1 0x0 MSTORE PUSH1 0x20 PUSH1 0x0 KECCAK256 SWAP1 PUSH1 0x1F ADD PUSH1 0x20 SWAP1 DIV DUP2 ADD SWAP3 DUP3 PUSH3 0x232 JUMPI PUSH1 0x0 DUP6 SSTORE PUSH3 0x27E JUMP JUMPDEST DUP3 PUSH1 0x1F LT PUSH3 0x24D JUMPI DUP1 MLOAD PUSH1 0xFF NOT AND DUP4 DUP1 ADD OR DUP6 SSTORE PUSH3 0x27E JUMP JUMPDEST DUP3 DUP1 ADD PUSH1 0x1 ADD DUP6 SSTORE DUP3 ISZERO PUSH3 0x27E JUMPI SWAP2 DUP3 ADD JUMPDEST DUP3 DUP2 GT ISZERO PUSH3 0x27D JUMPI DUP3 MLOAD DUP3 SSTORE SWAP2 PUSH1 0x20 ADD SWAP2 SWAP1 PUSH1 0x1 ADD SWAP1 PUSH3 0x260 JUMP JUMPDEST JUMPDEST POP SWAP1 POP PUSH3 0x28D SWAP2 SWAP1 PUSH3 0x291 JUMP JUMPDEST POP SWAP1 JUMP JUMPDEST JUMPDEST DUP1 DUP3 GT ISZERO PUSH3 0x2AC JUMPI PUSH1 0x0 DUP2 PUSH1 0x0 SWAP1 SSTORE POP PUSH1 0x1 ADD PUSH3 0x292 JUMP JUMPDEST POP SWAP1 JUMP JUMPDEST PUSH1 0x0 PUSH1 0x40 MLOAD SWAP1 POP SWAP1 JUMP JUMPDEST PUSH1 0x0 DUP1 REVERT JUMPDEST PUSH1 0x0 DUP1 REVERT JUMPDEST PUSH1 0x0 DUP1 REVERT JUMPDEST PUSH1 0x0 DUP1 REVERT JUMPDEST PUSH1 0x0 PUSH1 0x1F NOT PUSH1 0x1F DUP4 ADD AND SWAP1 POP SWAP2 SWAP1 POP JUMP JUMPDEST PUSH32 0x4E487B7100000000000000000000000000000000000000000000000000000000 PUSH1 0x0 MSTORE PUSH1 0x41 PUSH1 0x4 MSTORE PUSH1 0x24 PUSH1 0x0 REVERT JUMPDEST PUSH3 0x319 DUP3 PUSH3 0x2CE JUMP JUMPDEST DUP2 ADD DUP2 DUP2 LT PUSH8 0xFFFFFFFFFFFFFFFF DUP3 GT OR ISZERO PUSH3 0x33B JUMPI PUSH3 0x33A PUSH3 0x2DF JUMP JUMPDEST JUMPDEST DUP1 PUSH1 0x40 MSTORE POP POP POP JUMP JUMPDEST PUSH1 0x0 PUSH3 0x350 PUSH3 0x2B0 JUMP JUMPDEST SWAP1 POP PUSH3 0x35E DUP3 DUP3 PUSH3 0x30E JUMP JUMPDEST SWAP2 SWAP1 POP JUMP JUMPDEST PUSH1 0x0 PUSH8 0xFFFFFFFFFFFFFFFF DUP3 GT ISZERO PUSH3 0x381 JUMPI PUSH3 0x380 PUSH3 0x2DF JUMP JUMPDEST JUMPDEST PUSH3 0x38C DUP3 PUSH3 0x2CE JUMP JUMPDEST SWAP1 POP PUSH1 0x20 DUP2 ADD SWAP1 POP SWAP2 SWAP1 POP JUMP JUMPDEST PUSH1 0x0 JUMPDEST DUP4 DUP2 LT ISZERO PUSH3 0x3B9 JUMPI DUP1 DUP3 ADD MLOAD DUP2 DUP5 ADD MSTORE PUSH1 0x20 DUP2 ADD SWAP1 POP PUSH3 0x39C JUMP JUMPDEST DUP4 DUP2 GT ISZERO PUSH3 0x3C9 JUMPI PUSH1 0x0 DUP5 DUP5 ADD MSTORE JUMPDEST POP POP POP POP JUMP JUMPDEST PUSH1 0x0 PUSH3 0x3E6 PUSH3 0x3E0 DUP5 PUSH3 0x363 JUMP JUMPDEST PUSH3 0x344 JUMP JUMPDEST SWAP1 POP DUP3 DUP2 MSTORE PUSH1 0x20 DUP2 ADD DUP5 DUP5 DUP5 ADD GT ISZERO PUSH3 0x405 JUMPI PUSH3 0x404 PUSH3 0x2C9 JUMP JUMPDEST JUMPDEST PUSH3 0x412 DUP5 DUP3 DUP6 PUSH3 0x399 JUMP JUMPDEST POP SWAP4 SWAP3 POP POP POP JUMP JUMPDEST PUSH1 0x0 DUP3 PUSH1 0x1F DUP4 ADD SLT PUSH3 0x432 JUMPI PUSH3 0x431 PUSH3 0x2C4 JUMP JUMPDEST JUMPDEST DUP2 MLOAD PUSH3 0x444 DUP5 DUP3 PUSH1 0x20 DUP7 ADD PUSH3 0x3CF JUMP JUMPDEST SWAP2 POP POP SWAP3 SWAP2 POP POP JUMP JUMPDEST PUSH1 0x0 PUSH1 0xFF DUP3 AND SWAP1 POP SWAP2 SWAP1 POP JUMP JUMPDEST PUSH3 0x465 DUP2 PUSH3 0x44D JUMP JUMPDEST DUP2 EQ PUSH3 0x471 JUMPI PUSH1 0x0 DUP1 REVERT JUMPDEST POP JUMP JUMPDEST PUSH1 0x0 DUP2 MLOAD SWAP1 POP PUSH3 0x485 DUP2 PUSH3 0x45A JUMP JUMPDEST SWAP3 SWAP2 POP POP JUMP JUMPDEST PUSH1 0x0 DUP2 SWAP1 POP SWAP2 SWAP1 POP JUMP JUMPDEST PUSH3 0x4A0 DUP2 PUSH3 0x48B JUMP JUMPDEST DUP2 EQ PUSH3 0x4AC JUMPI PUSH1 0x0 DUP1 REVERT JUMPDEST POP JUMP JUMPDEST PUSH1 0x0 DUP2 MLOAD SWAP1 POP PUSH3 0x4C0 DUP2 PUSH3 0x495 JUMP JUMPDEST SWAP3 SWAP2 POP POP JUMP JUMPDEST PUSH1 0x0 DUP1 PUSH1 0x0 DUP1 PUSH1 0x80 DUP6 DUP8 SUB SLT ISZERO PUSH3 0x4E3 JUMPI PUSH3 0x4E2 PUSH3 0x2BA JUMP JUMPDEST JUMPDEST PUSH1 0x0 DUP6 ADD MLOAD PUSH8 0xFFFFFFFFFFFFFFFF DUP2 GT ISZERO PUSH3 0x504 JUMPI PUSH3 0x503 PUSH3 0x2BF JUMP JUMPDEST JUMPDEST PUSH3 0x512 DUP8 DUP3 DUP9 ADD PUSH3 0x41A JUMP JUMPDEST SWAP5 POP POP PUSH1 0x20 DUP6 ADD MLOAD PUSH8 0xFFFFFFFFFFFFFFFF DUP2 GT ISZERO PUSH3 0x536 JUMPI PUSH3 0x535 PUSH3 0x2BF JUMP JUMPDEST JUMPDEST PUSH3 0x544 DUP8 DUP3 DUP9 ADD PUSH3 0x41A JUMP JUMPDEST SWAP4 POP POP PUSH1 0x40 PUSH3 0x557 DUP8 DUP3 DUP9 ADD PUSH3 0x474 JUMP JUMPDEST SWAP3 POP POP PUSH1 0x60 PUSH3 0x56A DUP8 DUP3 DUP9 ADD PUSH3 0x4AF JUMP JUMPDEST SWAP2 POP POP SWAP3 SWAP6 SWAP2 SWAP5 POP SWAP3 POP JUMP JUMPDEST PUSH3 0x581 DUP2 PUSH3 0x48B JUMP JUMPDEST DUP3 MSTORE POP POP JUMP JUMPDEST PUSH1 0x0 PUSH1 0x20 DUP3 ADD SWAP1 POP PUSH3 0x59E PUSH1 0x0 DUP4 ADD DUP5 PUSH3 0x576 JUMP JUMPDEST SWAP3 SWAP2 POP POP JUMP JUMPDEST PUSH32 0x4E487B7100000000000000000000000000000000000000000000000000000000 PUSH1 0x0 MSTORE PUSH1 0x22 PUSH1 0x4 MSTORE PUSH1 0x24 PUSH1 0x0 REVERT JUMPDEST PUSH1 0x0 PUSH1 0x2 DUP3 DIV SWAP1 POP PUSH1 0x1 DUP3 AND DUP1 PUSH3 0x5EC JUMPI PUSH1 0x7F DUP3 AND SWAP2 POP JUMPDEST PUSH1 0x20 DUP3 LT DUP2 SUB PUSH3 0x602 JUMPI PUSH3 0x601 PUSH3 0x5A4 JUMP JUMPDEST JUMPDEST POP SWAP2 SWAP1 POP JUMP JUMPDEST PUSH2 0x167F DUP1 PUSH3 0x618 PUSH1 0x0 CODECOPY PUSH1 0x0 RETURN INVALID PUSH1 0x80 PUSH1 0x40 MSTORE CALLVALUE DUP1 ISZERO PUSH2 0x10 JUMPI PUSH1 0x0 DUP1 REVERT JUMPDEST POP PUSH1 0x4 CALLDATASIZE LT PUSH2 0xA9 JUMPI PUSH1 0x0 CALLDATALOAD PUSH1 0xE0 SHR DUP1 PUSH4 0x715018A6 GT PUSH2 0x71 JUMPI DUP1 PUSH4 0x715018A6 EQ PUSH2 0x168 JUMPI DUP1 PUSH4 0x8DA5CB5B EQ PUSH2 0x172 JUMPI DUP1 PUSH4 0x95D89B41 EQ PUSH2 0x190 JUMPI DUP1 PUSH4 0x9DC29FAC EQ PUSH2 0x1AE JUMPI DUP1 PUSH4 0xA9059CBB EQ PUSH2 0x1DE JUMPI DUP1 PUSH4 0xF2FDE38B EQ PUSH2 0x20E JUMPI PUSH2 0xA9 JUMP JUMPDEST DUP1 PUSH4 0x6FDDE03 EQ PUSH2 0xAE JUMPI DUP1 PUSH4 0x18160DDD EQ PUSH2 0xCC JUMPI DUP1 PUSH4 0x313CE567 EQ PUSH2 0xEA JUMPI DUP1 PUSH4 0x40C10F19 EQ PUSH2 0x108 JUMPI DUP1 PUSH4 0x70A08231 EQ PUSH2 0x138 JUMPI JUMPDEST PUSH1 0x0 DUP1 REVERT JUMPDEST PUSH2 0xB6 PUSH2 0x22A JUMP JUMPDEST PUSH1 0x40 MLOAD PUSH2 0xC3 SWAP2 SWAP1 PUSH2 0xF49 JUMP JUMPDEST PUSH1 0x40 MLOAD DUP1 SWAP2 SUB SWAP1 RETURN JUMPDEST PUSH2 0xD4 PUSH2 0x2BC JUMP JUMPDEST PUSH1 0x40 MLOAD PUSH2 0xE1 SWAP2 SWAP1 PUSH2 0xF84 JUMP JUMPDEST PUSH1 0x40 MLOAD DUP1 SWAP2 SUB SWAP1 RETURN JUMPDEST PUSH2 0xF2 PUSH2 0x2C6 JUMP JUMPDEST PUSH1 0x40 MLOAD PUSH2 0xFF SWAP2 SWAP1 PUSH2 0xFBB JUMP JUMPDEST PUSH1 0x40 MLOAD DUP1 SWAP2 SUB SWAP1 RETURN JUMPDEST PUSH2 0x122 PUSH1 0x4 DUP1 CALLDATASIZE SUB DUP2 ADD SWAP1 PUSH2 0x11D SWAP2 SWAP1 PUSH2 0x1065 JUMP JUMPDEST PUSH2 0x2DD JUMP JUMPDEST PUSH1 0x40 MLOAD PUSH2 0x12F SWAP2 SWAP1 PUSH2 0x10C0 JUMP JUMPDEST PUSH1 0x40 MLOAD DUP1 SWAP2 SUB SWAP1 RETURN JUMPDEST PUSH2 0x152 PUSH1 0x4 DUP1 CALLDATASIZE SUB DUP2 ADD SWAP1 PUSH2 0x14D SWAP2 SWAP1 PUSH2 0x10DB JUMP JUMPDEST PUSH2 0x381 JUMP JUMPDEST PUSH1 0x40 MLOAD PUSH2 0x15F SWAP2 SWAP1 PUSH2 0xF84 JUMP JUMPDEST PUSH1 0x40 MLOAD DUP1 SWAP2 SUB SWAP1 RETURN JUMPDEST PUSH2 0x170 PUSH2 0x3CA JUMP JUMPDEST STOP JUMPDEST PUSH2 0x17A PUSH2 0x516 JUMP JUMPDEST PUSH1 0x40 MLOAD PUSH2 0x187 SWAP2 SWAP1 PUSH2 0x1117 JUMP JUMPDEST PUSH1 0x40 MLOAD DUP1 SWAP2 SUB SWAP1 RETURN JUMPDEST PUSH2 0x198 PUSH2 0x53F JUMP JUMPDEST PUSH1 0x40 MLOAD PUSH2 0x1A5 SWAP2 SWAP1 PUSH2 0xF49 JUMP JUMPDEST PUSH1 0x40 MLOAD DUP1 SWAP2 SUB SWAP1 RETURN JUMPDEST PUSH2 0x1C8 PUSH1 0x4 DUP1 CALLDATASIZE SUB DUP2 ADD SWAP1 PUSH2 0x1C3 SWAP2 SWAP1 PUSH2 0x1065 JUMP JUMPDEST PUSH2 0x5D1 JUMP JUMPDEST PUSH1 0x40 MLOAD PUSH2 0x1D5 SWAP2 SWAP1 PUSH2 0x10C0 JUMP JUMPDEST PUSH1 0x40 MLOAD DUP1 SWAP2 SUB SWAP1 RETURN JUMPDEST PUSH2 0x1F8 PUSH1 0x4 DUP1 CALLDATASIZE SUB DUP2 ADD SWAP1 PUSH2 0x1F3 SWAP2 SWAP1 PUSH2 0x1065 JUMP JUMPDEST PUSH2 0x675 JUMP JUMPDEST PUSH1 0x40 MLOAD PUSH2 0x205 SWAP2 SWAP1 PUSH2 0x10C0 JUMP JUMPDEST PUSH1 0x40 MLOAD DUP1 SWAP2 SUB SWAP1 RETURN JUMPDEST PUSH2 0x228 PUSH1 0x4 DUP1 CALLDATASIZE SUB DUP2 ADD SWAP1 PUSH2 0x223 SWAP2 SWAP1 PUSH2 0x10DB JUMP JUMPDEST PUSH2 0x68C JUMP JUMPDEST STOP JUMPDEST PUSH1 0x60 PUSH1 0x4 DUP1 SLOAD PUSH2 0x239 SWAP1 PUSH2 0x1161 JUMP JUMPDEST DUP1 PUSH1 0x1F ADD PUSH1 0x20 DUP1 SWAP2 DIV MUL PUSH1 0x20 ADD PUSH1 0x40 MLOAD SWAP1 DUP2 ADD PUSH1 0x40 MSTORE DUP1 SWAP3 SWAP2 SWAP1 DUP2 DUP2 MSTORE PUSH1 0x20 ADD DUP3 DUP1 SLOAD PUSH2 0x265 SWAP1 PUSH2 0x1161 JUMP JUMPDEST DUP1 ISZERO PUSH2 0x2B2 JUMPI DUP1 PUSH1 0x1F LT PUSH2 0x287 JUMPI PUSH2 0x100 DUP1 DUP4 SLOAD DIV MUL DUP4 MSTORE SWAP2 PUSH1 0x20 ADD SWAP2 PUSH2 0x2B2 JUMP JUMPDEST DUP3 ADD SWAP2 SWAP1 PUSH1 0x0 MSTORE PUSH1 0x20 PUSH1 0x0 KECCAK256 SWAP1 JUMPDEST DUP2 SLOAD DUP2 MSTORE SWAP1 PUSH1 0x1 ADD SWAP1 PUSH1 0x20 ADD DUP1 DUP4 GT PUSH2 0x295 JUMPI DUP3 SWAP1 SUB PUSH1 0x1F AND DUP3 ADD SWAP2 JUMPDEST POP POP POP POP POP SWAP1 POP SWAP1 JUMP JUMPDEST PUSH1 0x0 PUSH1 0x1 SLOAD SWAP1 POP SWAP1 JUMP JUMPDEST PUSH1 0x0 PUSH1 0x2 PUSH1 0x0 SWAP1 SLOAD SWAP1 PUSH2 0x100 EXP SWAP1 DIV PUSH1 0xFF AND SWAP1 POP SWAP1 JUMP JUMPDEST PUSH1 0x0 CALLER PUSH20 0xFFFFFFFFFFFFFFFFFFFFFFFFFFFFFFFFFFFFFFFF AND PUSH1 0x0 DUP1 SLOAD SWAP1 PUSH2 0x100 EXP SWAP1 DIV PUSH20 0xFFFFFFFFFFFFFFFFFFFFFFFFFFFFFFFFFFFFFFFF AND PUSH20 0xFFFFFFFFFFFFFFFFFFFFFFFFFFFFFFFFFFFFFFFF AND EQ PUSH2 0x36D JUMPI PUSH1 0x40 MLOAD PUSH32 0x8C379A000000000000000000000000000000000000000000000000000000000 DUP2 MSTORE PUSH1 0x4 ADD PUSH2 0x364 SWAP1 PUSH2 0x1204 JUMP JUMPDEST PUSH1 0x40 MLOAD DUP1 SWAP2 SUB SWAP1 REVERT JUMPDEST PUSH2 0x377 DUP4 DUP4 PUSH2 0x726 JUMP JUMPDEST PUSH1 0x1 SWAP1 POP SWAP3 SWAP2 POP POP JUMP JUMPDEST PUSH1 0x0 PUSH1 0x5 PUSH1 0x0 DUP4 PUSH20 0xFFFFFFFFFFFFFFFFFFFFFFFFFFFFFFFFFFFFFFFF AND PUSH20 0xFFFFFFFFFFFFFFFFFFFFFFFFFFFFFFFFFFFFFFFF AND DUP2 MSTORE PUSH1 0x20 ADD SWAP1 DUP2 MSTORE PUSH1 0x20 ADD PUSH1 0x0 KECCAK256 SLOAD SWAP1 POP SWAP2 SWAP1 POP JUMP JUMPDEST CALLER PUSH20 0xFFFFFFFFFFFFFFFFFFFFFFFFFFFFFFFFFFFFFFFF AND PUSH1 0x0 DUP1 SLOAD SWAP1 PUSH2 0x100 EXP SWAP1 DIV PUSH20 0xFFFFFFFFFFFFFFFFFFFFFFFFFFFFFFFFFFFFFFFF AND PUSH20 0xFFFFFFFFFFFFFFFFFFFFFFFFFFFFFFFFFFFFFFFF AND EQ PUSH2 0x458 JUMPI PUSH1 0x40 MLOAD PUSH32 0x8C379A000000000000000000000000000000000000000000000000000000000 DUP2 MSTORE PUSH1 0x4 ADD PUSH2 0x44F SWAP1 PUSH2 0x1204 JUMP JUMPDEST PUSH1 0x40 MLOAD DUP1 SWAP2 SUB SWAP1 REVERT JUMPDEST PUSH1 0x0 PUSH20 0xFFFFFFFFFFFFFFFFFFFFFFFFFFFFFFFFFFFFFFFF AND PUSH1 0x0 DUP1 SLOAD SWAP1 PUSH2 0x100 EXP SWAP1 DIV PUSH20 0xFFFFFFFFFFFFFFFFFFFFFFFFFFFFFFFFFFFFFFFF AND PUSH20 0xFFFFFFFFFFFFFFFFFFFFFFFFFFFFFFFFFFFFFFFF AND PUSH32 0x8BE0079C531659141344CD1FD0A4F28419497F9722A3DAAFE3B4186F6B6457E0 PUSH1 0x40 MLOAD PUSH1 0x40 MLOAD DUP1 SWAP2 SUB SWAP1 LOG3 PUSH1 0x0 DUP1 PUSH1 0x0 PUSH2 0x100 EXP DUP2 SLOAD DUP2 PUSH20 0xFFFFFFFFFFFFFFFFFFFFFFFFFFFFFFFFFFFFFFFF MUL NOT AND SWAP1 DUP4 PUSH20 0xFFFFFFFFFFFFFFFFFFFFFFFFFFFFFFFFFFFFFFFF AND MUL OR SWAP1 SSTORE POP JUMP JUMPDEST PUSH1 0x0 DUP1 PUSH1 0x0 SWAP1 SLOAD SWAP1 PUSH2 0x100 EXP SWAP1 DIV PUSH20 0xFFFFFFFFFFFFFFFFFFFFFFFFFFFFFFFFFFFFFFFF AND SWAP1 POP SWAP1 JUMP JUMPDEST PUSH1 0x60 PUSH1 0x3 DUP1 SLOAD PUSH2 0x54E SWAP1 PUSH2 0x1161 JUMP JUMPDEST DUP1 PUSH1 0x1F ADD PUSH1 0x20 DUP1 SWAP2 DIV MUL PUSH1 0x20 ADD PUSH1 0x40 MLOAD SWAP1 DUP2 ADD PUSH1 0x40 MSTORE DUP1 SWAP3 SWAP2 SWAP1 DUP2 DUP2 MSTORE PUSH1 0x20 ADD DUP3 DUP1 SLOAD PUSH2 0x57A SWAP1 PUSH2 0x1161 JUMP JUMPDEST DUP1 ISZERO PUSH2 0x5C7 JUMPI DUP1 PUSH1 0x1F LT PUSH2 0x59C JUMPI PUSH2 0x100 DUP1 DUP4 SLOAD DIV MUL DUP4 MSTORE SWAP2 PUSH1 0x20 ADD SWAP2 PUSH2 0x5C7 JUMP JUMPDEST DUP3 ADD SWAP2 SWAP1 PUSH1 0x0 MSTORE PUSH1 0x20 PUSH1 0x0 KECCAK256 SWAP1 JUMPDEST DUP2 SLOAD DUP2 MSTORE SWAP1 PUSH1 0x1 ADD SWAP1 PUSH1 0x20 ADD DUP1 DUP4 GT PUSH2 0x5AA JUMPI DUP3 SWAP1 SUB PUSH1 0x1F AND DUP3 ADD SWAP2 JUMPDEST POP POP POP POP POP SWAP1 POP SWAP1 JUMP JUMPDEST PUSH1 0x0 CALLER PUSH20 0xFFFFFFFFFFFFFFFFFFFFFFFFFFFFFFFFFFFFFFFF AND PUSH1 0x0 DUP1 SLOAD SWAP1 PUSH2 0x100 EXP SWAP1 DIV PUSH20 0xFFFFFFFFFFFFFFFFFFFFFFFFFFFFFFFFFFFFFFFF AND PUSH20 0xFFFFFFFFFFFFFFFFFFFFFFFFFFFFFFFFFFFFFFFF AND EQ PUSH2 0x661 JUMPI PUSH1 0x40 MLOAD PUSH32 0x8C379A000000000000000000000000000000000000000000000000000000000 DUP2 MSTORE PUSH1 0x4 ADD PUSH2 0x658 SWAP1 PUSH2 0x1204 JUMP JUMPDEST PUSH1 0x40 MLOAD DUP1 SWAP2 SUB SWAP1 REVERT JUMPDEST PUSH2 0x66B DUP4 DUP4 PUSH2 0x8A1 JUMP JUMPDEST PUSH1 0x1 SWAP1 POP SWAP3 SWAP2 POP POP JUMP JUMPDEST PUSH1 0x0 PUSH2 0x682 CALLER DUP5 DUP5 PUSH2 0xA9E JUMP JUMPDEST PUSH1 0x1 SWAP1 POP SWAP3 SWAP2 POP POP JUMP JUMPDEST CALLER PUSH20 0xFFFFFFFFFFFFFFFFFFFFFFFFFFFFFFFFFFFFFFFF AND PUSH1 0x0 DUP1 SLOAD SWAP1 PUSH2 0x100 EXP SWAP1 DIV PUSH20 0xFFFFFFFFFFFFFFFFFFFFFFFFFFFFFFFFFFFFFFFF AND PUSH20 0xFFFFFFFFFFFFFFFFFFFFFFFFFFFFFFFFFFFFFFFF AND EQ PUSH2 0x71A JUMPI PUSH1 0x40 MLOAD PUSH32 0x8C379A000000000000000000000000000000000000000000000000000000000 DUP2 MSTORE PUSH1 0x4 ADD PUSH2 0x711 SWAP1 PUSH2 0x1204 JUMP JUMPDEST PUSH1 0x40 MLOAD DUP1 SWAP2 SUB SWAP1 REVERT JUMPDEST PUSH2 0x723 DUP2 PUSH2 0xD84 JUMP JUMPDEST POP JUMP JUMPDEST PUSH1 0x0 PUSH20 0xFFFFFFFFFFFFFFFFFFFFFFFFFFFFFFFFFFFFFFFF AND DUP3 PUSH20 0xFFFFFFFFFFFFFFFFFFFFFFFFFFFFFFFFFFFFFFFF AND SUB PUSH2 0x795 JUMPI PUSH1 0x40 MLOAD PUSH32 0x8C379A000000000000000000000000000000000000000000000000000000000 DUP2 MSTORE PUSH1 0x4 ADD PUSH2 0x78C SWAP1 PUSH2 0x1296 JUMP JUMPDEST PUSH1 0x40 MLOAD DUP1 SWAP2 SUB SWAP1 REVERT JUMPDEST DUP1 PUSH1 0x1 SLOAD PUSH2 0x7A3 SWAP2 SWAP1 PUSH2 0x12E5 JUMP JUMPDEST PUSH1 0x1 DUP2 SWAP1 SSTORE POP DUP1 PUSH1 0x5 PUSH1 0x0 DUP5 PUSH20 0xFFFFFFFFFFFFFFFFFFFFFFFFFFFFFFFFFFFFFFFF AND PUSH20 0xFFFFFFFFFFFFFFFFFFFFFFFFFFFFFFFFFFFFFFFF AND DUP2 MSTORE PUSH1 0x20 ADD SWAP1 DUP2 MSTORE PUSH1 0x20 ADD PUSH1 0x0 KECCAK256 SLOAD PUSH2 0x7F4 SWAP2 SWAP1 PUSH2 0x12E5 JUMP JUMPDEST PUSH1 0x5 PUSH1 0x0 DUP5 PUSH20 0xFFFFFFFFFFFFFFFFFFFFFFFFFFFFFFFFFFFFFFFF AND PUSH20 0xFFFFFFFFFFFFFFFFFFFFFFFFFFFFFFFFFFFFFFFF AND DUP2 MSTORE PUSH1 0x20 ADD SWAP1 DUP2 MSTORE PUSH1 0x20 ADD PUSH1 0x0 KECCAK256 DUP2 SWAP1 SSTORE POP DUP2 PUSH20 0xFFFFFFFFFFFFFFFFFFFFFFFFFFFFFFFFFFFFFFFF AND PUSH1 0x0 PUSH20 0xFFFFFFFFFFFFFFFFFFFFFFFFFFFFFFFFFFFFFFFF AND PUSH32 0xDDF252AD1BE2C89B69C2B068FC378DAA952BA7F163C4A11628F55A4DF523B3EF DUP4 PUSH1 0x40 MLOAD PUSH2 0x895 SWAP2 SWAP1 PUSH2 0xF84 JUMP JUMPDEST PUSH1 0x40 MLOAD DUP1 SWAP2 SUB SWAP1 LOG3 POP POP JUMP JUMPDEST PUSH1 0x0 PUSH20 0xFFFFFFFFFFFFFFFFFFFFFFFFFFFFFFFFFFFFFFFF AND DUP3 PUSH20 0xFFFFFFFFFFFFFFFFFFFFFFFFFFFFFFFFFFFFFFFF AND SUB PUSH2 0x910 JUMPI PUSH1 0x40 MLOAD PUSH32 0x8C379A000000000000000000000000000000000000000000000000000000000 DUP2 MSTORE PUSH1 0x4 ADD PUSH2 0x907 SWAP1 PUSH2 0x13AD JUMP JUMPDEST PUSH1 0x40 MLOAD DUP1 SWAP2 SUB SWAP1 REVERT JUMPDEST DUP1 PUSH1 0x5 PUSH1 0x0 DUP5 PUSH20 0xFFFFFFFFFFFFFFFFFFFFFFFFFFFFFFFFFFFFFFFF AND PUSH20 0xFFFFFFFFFFFFFFFFFFFFFFFFFFFFFFFFFFFFFFFF AND DUP2 MSTORE PUSH1 0x20 ADD SWAP1 DUP2 MSTORE PUSH1 0x20 ADD PUSH1 0x0 KECCAK256 SLOAD LT ISZERO PUSH2 0x992 JUMPI PUSH1 0x40 MLOAD PUSH32 0x8C379A000000000000000000000000000000000000000000000000000000000 DUP2 MSTORE PUSH1 0x4 ADD PUSH2 0x989 SWAP1 PUSH2 0x143F JUMP JUMPDEST PUSH1 0x40 MLOAD DUP1 SWAP2 SUB SWAP1 REVERT JUMPDEST DUP1 PUSH1 0x5 PUSH1 0x0 DUP5 PUSH20 0xFFFFFFFFFFFFFFFFFFFFFFFFFFFFFFFFFFFFFFFF AND PUSH20 0xFFFFFFFFFFFFFFFFFFFFFFFFFFFFFFFFFFFFFFFF AND DUP2 MSTORE PUSH1 0x20 ADD SWAP1 DUP2 MSTORE PUSH1 0x20 ADD PUSH1 0x0 KECCAK256 SLOAD PUSH2 0x9DD SWAP2 SWAP1 PUSH2 0x145F JUMP JUMPDEST PUSH1 0x5 PUSH1 0x0 DUP5 PUSH20 0xFFFFFFFFFFFFFFFFFFFFFFFFFFFFFFFFFFFFFFFF AND PUSH20 0xFFFFFFFFFFFFFFFFFFFFFFFFFFFFFFFFFFFFFFFF AND DUP2 MSTORE PUSH1 0x20 ADD SWAP1 DUP2 MSTORE PUSH1 0x20 ADD PUSH1 0x0 KECCAK256 DUP2 SWAP1 SSTORE POP DUP1 PUSH1 0x1 SLOAD PUSH2 0xA2E SWAP2 SWAP1 PUSH2 0x145F JUMP JUMPDEST PUSH1 0x1 DUP2 SWAP1 SSTORE POP PUSH1 0x0 PUSH20 0xFFFFFFFFFFFFFFFFFFFFFFFFFFFFFFFFFFFFFFFF AND DUP3 PUSH20 0xFFFFFFFFFFFFFFFFFFFFFFFFFFFFFFFFFFFFFFFF AND PUSH32 0xDDF252AD1BE2C89B69C2B068FC378DAA952BA7F163C4A11628F55A4DF523B3EF DUP4 PUSH1 0x40 MLOAD PUSH2 0xA92 SWAP2 SWAP1 PUSH2 0xF84 JUMP JUMPDEST PUSH1 0x40 MLOAD DUP1 SWAP2 SUB SWAP1 LOG3 POP POP JUMP JUMPDEST PUSH1 0x0 PUSH20 0xFFFFFFFFFFFFFFFFFFFFFFFFFFFFFFFFFFFFFFFF AND DUP4 PUSH20 0xFFFFFFFFFFFFFFFFFFFFFFFFFFFFFFFFFFFFFFFF AND SUB PUSH2 0xB0D JUMPI PUSH1 0x40 MLOAD PUSH32 0x8C379A000000000000000000000000000000000000000000000000000000000 DUP2 MSTORE PUSH1 0x4 ADD PUSH2 0xB04 SWAP1 PUSH2 0x1505 JUMP JUMPDEST PUSH1 0x40 MLOAD DUP1 SWAP2 SUB SWAP1 REVERT JUMPDEST PUSH1 0x0 PUSH20 0xFFFFFFFFFFFFFFFFFFFFFFFFFFFFFFFFFFFFFFFF AND DUP3 PUSH20 0xFFFFFFFFFFFFFFFFFFFFFFFFFFFFFFFFFFFFFFFF AND SUB PUSH2 0xB7C JUMPI PUSH1 0x40 MLOAD PUSH32 0x8C379A000000000000000000000000000000000000000000000000000000000 DUP2 MSTORE PUSH1 0x4 ADD PUSH2 0xB73 SWAP1 PUSH2 0x1505 JUMP JUMPDEST PUSH1 0x40 MLOAD DUP1 SWAP2 SUB SWAP1 REVERT JUMPDEST DUP1 PUSH1 0x5 PUSH1 0x0 DUP6 PUSH20 0xFFFFFFFFFFFFFFFFFFFFFFFFFFFFFFFFFFFFFFFF AND PUSH20 0xFFFFFFFFFFFFFFFFFFFFFFFFFFFFFFFFFFFFFFFF AND DUP2 MSTORE PUSH1 0x20 ADD SWAP1 DUP2 MSTORE PUSH1 0x20 ADD PUSH1 0x0 KECCAK256 SLOAD LT ISZERO PUSH2 0xBFE JUMPI PUSH1 0x40 MLOAD PUSH32 0x8C379A000000000000000000000000000000000000000000000000000000000 DUP2 MSTORE PUSH1 0x4 ADD PUSH2 0xBF5 SWAP1 PUSH2 0x1597 JUMP JUMPDEST PUSH1 0x40 MLOAD DUP1 SWAP2 SUB SWAP1 REVERT JUMPDEST DUP1 PUSH1 0x5 PUSH1 0x0 DUP6 PUSH20 0xFFFFFFFFFFFFFFFFFFFFFFFFFFFFFFFFFFFFFFFF AND PUSH20 0xFFFFFFFFFFFFFFFFFFFFFFFFFFFFFFFFFFFFFFFF AND DUP2 MSTORE PUSH1 0x20 ADD SWAP1 DUP2 MSTORE PUSH1 0x20 ADD PUSH1 0x0 KECCAK256 SLOAD PUSH2 0xC49 SWAP2 SWAP1 PUSH2 0x145F JUMP JUMPDEST PUSH1 0x5 PUSH1 0x0 DUP6 PUSH20 0xFFFFFFFFFFFFFFFFFFFFFFFFFFFFFFFFFFFFFFFF AND PUSH20 0xFFFFFFFFFFFFFFFFFFFFFFFFFFFFFFFFFFFFFFFF AND DUP2 MSTORE PUSH1 0x20 ADD SWAP1 DUP2 MSTORE PUSH1 0x20 ADD PUSH1 0x0 KECCAK256 DUP2 SWAP1 SSTORE POP DUP1 PUSH1 0x5 PUSH1 0x0 DUP5 PUSH20 0xFFFFFFFFFFFFFFFFFFFFFFFFFFFFFFFFFFFFFFFF AND PUSH20 0xFFFFFFFFFFFFFFFFFFFFFFFFFFFFFFFFFFFFFFFF AND DUP2 MSTORE PUSH1 0x20 ADD SWAP1 DUP2 MSTORE PUSH1 0x20 ADD PUSH1 0x0 KECCAK256 SLOAD PUSH2 0xCD7 SWAP2 SWAP1 PUSH2 0x12E5 JUMP JUMPDEST PUSH1 0x5 PUSH1 0x0 DUP5 PUSH20 0xFFFFFFFFFFFFFFFFFFFFFFFFFFFFFFFFFFFFFFFF AND PUSH20 0xFFFFFFFFFFFFFFFFFFFFFFFFFFFFFFFFFFFFFFFF AND DUP2 MSTORE PUSH1 0x20 ADD SWAP1 DUP2 MSTORE PUSH1 0x20 ADD PUSH1 0x0 KECCAK256 DUP2 SWAP1 SSTORE POP DUP2 PUSH20 0xFFFFFFFFFFFFFFFFFFFFFFFFFFFFFFFFFFFFFFFF AND DUP4 PUSH20 0xFFFFFFFFFFFFFFFFFFFFFFFFFFFFFFFFFFFFFFFF AND PUSH32 0xDDF252AD1BE2C89B69C2B068FC378DAA952BA7F163C4A11628F55A4DF523B3EF DUP4 PUSH1 0x40 MLOAD PUSH2 0xD77 SWAP2 SWAP1 PUSH2 0xF84 JUMP JUMPDEST PUSH1 0x40 MLOAD DUP1 SWAP2 SUB SWAP1 LOG3 POP POP POP JUMP JUMPDEST PUSH1 0x0 PUSH20 0xFFFFFFFFFFFFFFFFFFFFFFFFFFFFFFFFFFFFFFFF AND DUP2 PUSH20 0xFFFFFFFFFFFFFFFFFFFFFFFFFFFFFFFFFFFFFFFF AND SUB PUSH2 0xDF3 JUMPI PUSH1 0x40 MLOAD PUSH32 0x8C379A000000000000000000000000000000000000000000000000000000000 DUP2 MSTORE PUSH1 0x4 ADD PUSH2 0xDEA SWAP1 PUSH2 0x1629 JUMP JUMPDEST PUSH1 0x40 MLOAD DUP1 SWAP2 SUB SWAP1 REVERT JUMPDEST DUP1 PUSH20 0xFFFFFFFFFFFFFFFFFFFFFFFFFFFFFFFFFFFFFFFF AND PUSH1 0x0 DUP1 SLOAD SWAP1 PUSH2 0x100 EXP SWAP1 DIV PUSH20 0xFFFFFFFFFFFFFFFFFFFFFFFFFFFFFFFFFFFFFFFF AND PUSH20 0xFFFFFFFFFFFFFFFFFFFFFFFFFFFFFFFFFFFFFFFF AND PUSH32 0x8BE0079C531659141344CD1FD0A4F28419497F9722A3DAAFE3B4186F6B6457E0 PUSH1 0x40 MLOAD PUSH1 0x40 MLOAD DUP1 SWAP2 SUB SWAP1 LOG3 DUP1 PUSH1 0x0 DUP1 PUSH2 0x100 EXP DUP2 SLOAD DUP2 PUSH20 0xFFFFFFFFFFFFFFFFFFFFFFFFFFFFFFFFFFFFFFFF MUL NOT AND SWAP1 DUP4 PUSH20 0xFFFFFFFFFFFFFFFFFFFFFFFFFFFFFFFFFFFFFFFF AND MUL OR SWAP1 SSTORE POP POP JUMP JUMPDEST PUSH1 0x0 DUP2 MLOAD SWAP1 POP SWAP2 SWAP1 POP JUMP JUMPDEST PUSH1 0x0 DUP3 DUP3 MSTORE PUSH1 0x20 DUP3 ADD SWAP1 POP SWAP3 SWAP2 POP POP JUMP JUMPDEST PUSH1 0x0 JUMPDEST DUP4 DUP2 LT ISZERO PUSH2 0xEEA JUMPI DUP1 DUP3 ADD MLOAD DUP2 DUP5 ADD MSTORE PUSH1 0x20 DUP2 ADD SWAP1 POP PUSH2 0xECF JUMP JUMPDEST DUP4 DUP2 GT ISZERO PUSH2 0xEF9 JUMPI PUSH1 0x0 DUP5 DUP5 ADD MSTORE JUMPDEST POP POP POP POP JUMP JUMPDEST PUSH1 0x0 PUSH1 0x1F NOT PUSH1 0x1F DUP4 ADD AND SWAP1 POP SWAP2 SWAP1 POP JUMP JUMPDEST PUSH1 0x0 PUSH2 0xF1B DUP3 PUSH2 0xEB0 JUMP JUMPDEST PUSH2 0xF25 DUP2 DUP6 PUSH2 0xEBB JUMP JUMPDEST SWAP4 POP PUSH2 0xF35 DUP2 DUP6 PUSH1 0x20 DUP7 ADD PUSH2 0xECC JUMP JUMPDEST PUSH2 0xF3E DUP2 PUSH2 0xEFF JUMP JUMPDEST DUP5 ADD SWAP2 POP POP SWAP3 SWAP2 POP POP JUMP JUMPDEST PUSH1 0x0 PUSH1 0x20 DUP3 ADD SWAP1 POP DUP2 DUP2 SUB PUSH1 0x0 DUP4 ADD MSTORE PUSH2 0xF63 DUP2 DUP5 PUSH2 0xF10 JUMP JUMPDEST SWAP1 POP SWAP3 SWAP2 POP POP JUMP JUMPDEST PUSH1 0x0 DUP2 SWAP1 POP SWAP2 SWAP1 POP JUMP JUMPDEST PUSH2 0xF7E DUP2 PUSH2 0xF6B JUMP JUMPDEST DUP3 MSTORE POP POP JUMP JUMPDEST PUSH1 0x0 PUSH1 0x20 DUP3 ADD SWAP1 POP PUSH2 0xF99 PUSH1 0x0 DUP4 ADD DUP5 PUSH2 0xF75 JUMP JUMPDEST SWAP3 SWAP2 POP POP JUMP JUMPDEST PUSH1 0x0 PUSH1 0xFF DUP3 AND SWAP1 POP SWAP2 SWAP1 POP JUMP JUMPDEST PUSH2 0xFB5 DUP2 PUSH2 0xF9F JUMP JUMPDEST DUP3 MSTORE POP POP JUMP JUMPDEST PUSH1 0x0 PUSH1 0x20 DUP3 ADD SWAP1 POP PUSH2 0xFD0 PUSH1 0x0 DUP4 ADD DUP5 PUSH2 0xFAC JUMP JUMPDEST SWAP3 SWAP2 POP POP JUMP JUMPDEST PUSH1 0x0 DUP1 REVERT JUMPDEST PUSH1 0x0 PUSH20 0xFFFFFFFFFFFFFFFFFFFFFFFFFFFFFFFFFFFFFFFF DUP3 AND SWAP1 POP SWAP2 SWAP1 POP JUMP JUMPDEST PUSH1 0x0 PUSH2 0x1006 DUP3 PUSH2 0xFDB JUMP JUMPDEST SWAP1 POP SWAP2 SWAP1 POP JUMP JUMPDEST PUSH2 0x1016 DUP2 PUSH2 0xFFB JUMP JUMPDEST DUP2 EQ PUSH2 0x1021 JUMPI PUSH1 0x0 DUP1 REVERT JUMPDEST POP JUMP JUMPDEST PUSH1 0x0 DUP2 CALLDATALOAD SWAP1 POP PUSH2 0x1033 DUP2 PUSH2 0x100D JUMP JUMPDEST SWAP3 SWAP2 POP POP JUMP JUMPDEST PUSH2 0x1042 DUP2 PUSH2 0xF6B JUMP JUMPDEST DUP2 EQ PUSH2 0x104D JUMPI PUSH1 0x0 DUP1 REVERT JUMPDEST POP JUMP JUMPDEST PUSH1 0x0 DUP2 CALLDATALOAD SWAP1 POP PUSH2 0x105F DUP2 PUSH2 0x1039 JUMP JUMPDEST SWAP3 SWAP2 POP POP JUMP JUMPDEST PUSH1 0x0 DUP1 PUSH1 0x40 DUP4 DUP6 SUB SLT ISZERO PUSH2 0x107C JUMPI PUSH2 0x107B PUSH2 0xFD6 JUMP JUMPDEST JUMPDEST PUSH1 0x0 PUSH2 0x108A DUP6 DUP3 DUP7 ADD PUSH2 0x1024 JUMP JUMPDEST SWAP3 POP POP PUSH1 0x20 PUSH2 0x109B DUP6 DUP3 DUP7 ADD PUSH2 0x1050 JUMP JUMPDEST SWAP2 POP POP SWAP3 POP SWAP3 SWAP1 POP JUMP JUMPDEST PUSH1 0x0 DUP2 ISZERO ISZERO SWAP1 POP SWAP2 SWAP1 POP JUMP JUMPDEST PUSH2 0x10BA DUP2 PUSH2 0x10A5 JUMP JUMPDEST DUP3 MSTORE POP POP JUMP JUMPDEST PUSH1 0x0 PUSH1 0x20 DUP3 ADD SWAP1 POP PUSH2 0x10D5 PUSH1 0x0 DUP4 ADD DUP5 PUSH2 0x10B1 JUMP JUMPDEST SWAP3 SWAP2 POP POP JUMP JUMPDEST PUSH1 0x0 PUSH1 0x20 DUP3 DUP5 SUB SLT ISZERO PUSH2 0x10F1 JUMPI PUSH2 0x10F0 PUSH2 0xFD6 JUMP JUMPDEST JUMPDEST PUSH1 0x0 PUSH2 0x10FF DUP5 DUP3 DUP6 ADD PUSH2 0x1024 JUMP JUMPDEST SWAP2 POP POP SWAP3 SWAP2 POP POP JUMP JUMPDEST PUSH2 0x1111 DUP2 PUSH2 0xFFB JUMP JUMPDEST DUP3 MSTORE POP POP JUMP JUMPDEST PUSH1 0x0 PUSH1 0x20 DUP3 ADD SWAP1 POP PUSH2 0x112C PUSH1 0x0 DUP4 ADD DUP5 PUSH2 0x1108 JUMP JUMPDEST SWAP3 SWAP2 POP POP JUMP JUMPDEST PUSH32 0x4E487B7100000000000000000000000000000000000000000000000000000000 PUSH1 0x0 MSTORE PUSH1 0x22 PUSH1 0x4 MSTORE PUSH1 0x24 PUSH1 0x0 REVERT JUMPDEST PUSH1 0x0 PUSH1 0x2 DUP3 DIV SWAP1 POP PUSH1 0x1 DUP3 AND DUP1 PUSH2 0x1179 JUMPI PUSH1 0x7F DUP3 AND SWAP2 POP JUMPDEST PUSH1 0x20 DUP3 LT DUP2 SUB PUSH2 0x118C JUMPI PUSH2 0x118B PUSH2 0x1132 JUMP JUMPDEST JUMPDEST POP SWAP2 SWAP1 POP JUMP JUMPDEST PUSH32 0x4F776E61626C653A206F6E6C79206F776E65722063616E2063616C6C20746869 PUSH1 0x0 DUP3 ADD MSTORE PUSH32 0x732066756E6374696F6E00000000000000000000000000000000000000000000 PUSH1 0x20 DUP3 ADD MSTORE POP JUMP JUMPDEST PUSH1 0x0 PUSH2 0x11EE PUSH1 0x2A DUP4 PUSH2 0xEBB JUMP JUMPDEST SWAP2 POP PUSH2 0x11F9 DUP3 PUSH2 0x1192 JUMP JUMPDEST PUSH1 0x40 DUP3 ADD SWAP1 POP SWAP2 SWAP1 POP JUMP JUMPDEST PUSH1 0x0 PUSH1 0x20 DUP3 ADD SWAP1 POP DUP2 DUP2 SUB PUSH1 0x0 DUP4 ADD MSTORE PUSH2 0x121D DUP2 PUSH2 0x11E1 JUMP JUMPDEST SWAP1 POP SWAP2 SWAP1 POP JUMP JUMPDEST PUSH32 0x53746F636B436F696E3A2063616E6E6F74206D696E7420746F207A65726F2061 PUSH1 0x0 DUP3 ADD MSTORE PUSH32 0x6464726573730000000000000000000000000000000000000000000000000000 PUSH1 0x20 DUP3 ADD MSTORE POP JUMP JUMPDEST PUSH1 0x0 PUSH2 0x1280 PUSH1 0x26 DUP4 PUSH2 0xEBB JUMP JUMPDEST SWAP2 POP PUSH2 0x128B DUP3 PUSH2 0x1224 JUMP JUMPDEST PUSH1 0x40 DUP3 ADD SWAP1 POP SWAP2 SWAP1 POP JUMP JUMPDEST PUSH1 0x0 PUSH1 0x20 DUP3 ADD SWAP1 POP DUP2 DUP2 SUB PUSH1 0x0 DUP4 ADD MSTORE PUSH2 0x12AF DUP2 PUSH2 0x1273 JUMP JUMPDEST SWAP1 POP SWAP2 SWAP1 POP JUMP JUMPDEST PUSH32 0x4E487B7100000000000000000000000000000000000000000000000000000000 PUSH1 0x0 MSTORE PUSH1 0x11 PUSH1 0x4 MSTORE PUSH1 0x24 PUSH1 0x0 REVERT JUMPDEST PUSH1 0x0 PUSH2 0x12F0 DUP3 PUSH2 0xF6B JUMP JUMPDEST SWAP2 POP PUSH2 0x12FB DUP4 PUSH2 0xF6B JUMP JUMPDEST SWAP3 POP DUP3 PUSH32 0xFFFFFFFFFFFFFFFFFFFFFFFFFFFFFFFFFFFFFFFFFFFFFFFFFFFFFFFFFFFFFFFF SUB DUP3 GT ISZERO PUSH2 0x1330 JUMPI PUSH2 0x132F PUSH2 0x12B6 JUMP JUMPDEST JUMPDEST DUP3 DUP3 ADD SWAP1 POP SWAP3 SWAP2 POP POP JUMP JUMPDEST PUSH32 0x53746F636B436F696E3A2063616E6E6F74206275726E2066726F6D207A65726F PUSH1 0x0 DUP3 ADD MSTORE PUSH32 0x2061646472657373000000000000000000000000000000000000000000000000 PUSH1 0x20 DUP3 ADD MSTORE POP JUMP JUMPDEST PUSH1 0x0 PUSH2 0x1397 PUSH1 0x28 DUP4 PUSH2 0xEBB JUMP JUMPDEST SWAP2 POP PUSH2 0x13A2 DUP3 PUSH2 0x133B JUMP JUMPDEST PUSH1 0x40 DUP3 ADD SWAP1 POP SWAP2 SWAP1 POP JUMP JUMPDEST PUSH1 0x0 PUSH1 0x20 DUP3 ADD SWAP1 POP DUP2 DUP2 SUB PUSH1 0x0 DUP4 ADD MSTORE PUSH2 0x13C6 DUP2 PUSH2 0x138A JUMP JUMPDEST SWAP1 POP SWAP2 SWAP1 POP JUMP JUMPDEST PUSH32 0x53746F636B436F696E3A2063616E6E6F74206275726E206D6F7265207468616E PUSH1 0x0 DUP3 ADD MSTORE PUSH32 0x20746865206163636F756E74206F776E73000000000000000000000000000000 PUSH1 0x20 DUP3 ADD MSTORE POP JUMP JUMPDEST PUSH1 0x0 PUSH2 0x1429 PUSH1 0x31 DUP4 PUSH2 0xEBB JUMP JUMPDEST SWAP2 POP PUSH2 0x1434 DUP3 PUSH2 0x13CD JUMP JUMPDEST PUSH1 0x40 DUP3 ADD SWAP1 POP SWAP2 SWAP1 POP JUMP JUMPDEST PUSH1 0x0 PUSH1 0x20 DUP3 ADD SWAP1 POP DUP2 DUP2 SUB PUSH1 0x0 DUP4 ADD MSTORE PUSH2 0x1458 DUP2 PUSH2 0x141C JUMP JUMPDEST SWAP1 POP SWAP2 SWAP1 POP JUMP JUMPDEST PUSH1 0x0 PUSH2 0x146A DUP3 PUSH2 0xF6B JUMP JUMPDEST SWAP2 POP PUSH2 0x1475 DUP4 PUSH2 0xF6B JUMP JUMPDEST SWAP3 POP DUP3 DUP3 LT ISZERO PUSH2 0x1488 JUMPI PUSH2 0x1487 PUSH2 0x12B6 JUMP JUMPDEST JUMPDEST DUP3 DUP3 SUB SWAP1 POP SWAP3 SWAP2 POP POP JUMP JUMPDEST PUSH32 0x53746F636B436F696E3A207472616E736665722066726F6D207A65726F206164 PUSH1 0x0 DUP3 ADD MSTORE PUSH32 0x6472657373000000000000000000000000000000000000000000000000000000 PUSH1 0x20 DUP3 ADD MSTORE POP JUMP JUMPDEST PUSH1 0x0 PUSH2 0x14EF PUSH1 0x25 DUP4 PUSH2 0xEBB JUMP JUMPDEST SWAP2 POP PUSH2 0x14FA DUP3 PUSH2 0x1493 JUMP JUMPDEST PUSH1 0x40 DUP3 ADD SWAP1 POP SWAP2 SWAP1 POP JUMP JUMPDEST PUSH1 0x0 PUSH1 0x20 DUP3 ADD SWAP1 POP DUP2 DUP2 SUB PUSH1 0x0 DUP4 ADD MSTORE PUSH2 0x151E DUP2 PUSH2 0x14E2 JUMP JUMPDEST SWAP1 POP SWAP2 SWAP1 POP JUMP JUMPDEST PUSH32 0x53746F636B436F696E3A2063616E74207472616E73666572206D6F7265207468 PUSH1 0x0 DUP3 ADD MSTORE PUSH32 0x616E20796F7572206163636F756E7420686F6C64730000000000000000000000 PUSH1 0x20 DUP3 ADD MSTORE POP JUMP JUMPDEST PUSH1 0x0 PUSH2 0x1581 PUSH1 0x35 DUP4 PUSH2 0xEBB JUMP JUMPDEST SWAP2 POP PUSH2 0x158C DUP3 PUSH2 0x1525 JUMP JUMPDEST PUSH1 0x40 DUP3 ADD SWAP1 POP SWAP2 SWAP1 POP JUMP JUMPDEST PUSH1 0x0 PUSH1 0x20 DUP3 ADD SWAP1 POP DUP2 DUP2 SUB PUSH1 0x0 DUP4 ADD MSTORE PUSH2 0x15B0 DUP2 PUSH2 0x1574 JUMP JUMPDEST SWAP1 POP SWAP2 SWAP1 POP JUMP JUMPDEST PUSH32 0x4F776E61626C653A206E6577206F776E6572206973207A65726F206164647265 PUSH1 0x0 DUP3 ADD MSTORE PUSH32 0x7373000000000000000000000000000000000000000000000000000000000000 PUSH1 0x20 DUP3 ADD MSTORE POP JUMP JUMPDEST PUSH1 0x0 PUSH2 0x1613 PUSH1 0x22 DUP4 PUSH2 0xEBB JUMP JUMPDEST SWAP2 POP PUSH2 0x161E DUP3 PUSH2 0x15B7 JUMP JUMPDEST PUSH1 0x40 DUP3 ADD SWAP1 POP SWAP2 SWAP1 POP JUMP JUMPDEST PUSH1 0x0 PUSH1 0x20 DUP3 ADD SWAP1 POP DUP2 DUP2 SUB PUSH1 0x0 DUP4 ADD MSTORE PUSH2 0x1642 DUP2 PUSH2 0x1606 JUMP JUMPDEST SWAP1 POP SWAP2 SWAP1 POP JUMP INVALID LOG2 PUSH5 0x6970667358 0x22 SLT KECCAK256 DUP13 DUP6 SWAP2 0x28 0xD6 MLOAD DIV ADDMOD 0xD8 COINBASE 0x5D 0xBD 0xAA GASPRICE PUSH30 0x1D0BAD902A4CCF6D25D08AF8C629CF4AE864736F6C634300080D00330000 "
				},
				"gasEstimates": {
					"creation": {
						"codeDepositCost": "1151800",
						"executionCost": "infinite",
						"totalCost": "infinite"
					},
					"external": {
						"balanceOf(address)": "2930",
						"burn(address,uint256)": "infinite",
						"decimals()": "2524",
						"mint(address,uint256)": "infinite",
						"name()": "infinite",
						"owner()": "2544",
						"renounceOwnership()": "30256",
						"symbol()": "infinite",
						"totalSupply()": "2460",
						"transfer(address,uint256)": "infinite",
						"transferOwnership(address)": "30741"
					},
					"internal": {
						"_burn(address,uint256)": "infinite",
						"_mint(address,uint256)": "infinite",
						"_transfer(address,address,uint256)": "infinite"
					}
				},
				"methodIdentifiers": {
					"balanceOf(address)": "70a08231",
					"burn(address,uint256)": "9dc29fac",
					"decimals()": "313ce567",
					"mint(address,uint256)": "40c10f19",
					"name()": "06fdde03",
					"owner()": "8da5cb5b",
					"renounceOwnership()": "715018a6",
					"symbol()": "95d89b41",
					"totalSupply()": "18160ddd",
					"transfer(address,uint256)": "a9059cbb",
					"transferOwnership(address)": "f2fde38b"
				}
			},
			"userdoc": {
				"events": {
					"Approval(address,address,uint256)": {
						"notice": "Approval is emitted when a new Spender is approved to spend Tokens on the Owners account"
					},
					"OwnershipTransferred(address,address)": {
						"notice": "Event OwnershipTransferred is used to log that a ownership change of the token has occured"
					},
					"Transfer(address,address,uint256)": {
						"notice": "Events are created below. Transfer event is a event that notify the blockchain that a transfer of assets has taken place"
					}
				},
				"kind": "user",
				"methods": {
					"balanceOf(address)": {
						"notice": "balanceOf will return the account balance for the given account"
					},
					"burn(address,uint256)": {
						"notice": "burn is used to destroy tokens on an address  See {_burn} Requires   - msg.sender must be the token owner"
					},
					"constructor": {
						"notice": "constructor will be triggered when we create the Smart contract _name = name of the token _short_symbol = Short Symbol name for the token token_decimals = The decimal precision of the Token, defaults 18 _totalSupply is how much Tokens there are totally "
					},
					"decimals()": {
						"notice": "decimals will return the number of decimal precision the Token is deployed with"
					},
					"mint(address,uint256)": {
						"notice": "mint is used to create tokens and assign them to msg.sender  See {_mint} Requires   - msg.sender must be the token owner"
					},
					"name()": {
						"notice": "name will return the Token's symbol "
					},
					"owner()": {
						"notice": "owner() returns the currently assigned owner of the Token "
					},
					"renounceOwnership()": {
						"notice": "renounceOwnership will set the owner to zero address This will make the contract owner less, It will make ALL functions with onlyOwner no longer callable. There is no way of restoring the owner"
					},
					"symbol()": {
						"notice": "symbol will return the Token's symbol "
					},
					"totalSupply()": {
						"notice": "totalSupply will return the tokens total supply of tokens"
					},
					"transfer(address,uint256)": {
						"notice": "transfer is used to transfer funds from the sender to the recipient This function is only callable from outside the contract. For internal usage see  _transfer Requires - Caller cannot be zero - Caller must have a balance = or bigger than amount"
					},
					"transferOwnership(address)": {
						"notice": "transferOwnership will assign the {newOwner} as owner"
					}
				},
				"version": 1
			}
		}
	}
}