{
	"contracts/StockCoin.sol": {
		"StockCoin": {
			"abi": [
				{
					"inputs": [
						{
							"internalType": "string",
							"name": "token_name",
							"type": "string"
						},
						{
							"internalType": "string",
							"name": "short_symbol",
							"type": "string"
						},
						{
							"internalType": "uint8",
							"name": "token_decimals",
							"type": "uint8"
						},
						{
							"internalType": "uint256",
							"name": "token_totalSupply",
							"type": "uint256"
						}
					],
					"stateMutability": "nonpayable",
					"type": "constructor"
				},
				{
					"anonymous": false,
					"inputs": [
						{
							"indexed": true,
							"internalType": "address",
							"name": "owner",
							"type": "address"
						},
						{
							"indexed": true,
							"internalType": "address",
							"name": "spender",
							"type": "address"
						},
						{
							"indexed": false,
							"internalType": "uint256",
							"name": "value",
							"type": "uint256"
						}
					],
					"name": "Approval",
					"type": "event"
				},
				{
					"anonymous": false,
					"inputs": [
						{
							"indexed": true,
							"internalType": "address",
							"name": "previousOwner",
							"type": "address"
						},
						{
							"indexed": true,
							"internalType": "address",
							"name": "newOwner",
							"type": "address"
						}
					],
					"name": "OwnershipTransferred",
					"type": "event"
				},
				{
					"anonymous": false,
					"inputs": [
						{
							"indexed": true,
							"internalType": "address",
							"name": "from",
							"type": "address"
						},
						{
							"indexed": true,
							"internalType": "address",
							"name": "to",
							"type": "address"
						},
						{
							"indexed": false,
							"internalType": "uint256",
							"name": "value",
							"type": "uint256"
						}
					],
					"name": "Transfer",
					"type": "event"
				},
				{
					"inputs": [
						{
							"internalType": "address",
							"name": "owner",
							"type": "address"
						},
						{
							"internalType": "address",
							"name": "spender",
							"type": "address"
						}
					],
					"name": "allowance",
					"outputs": [
						{
							"internalType": "uint256",
							"name": "",
							"type": "uint256"
						}
					],
					"stateMutability": "view",
					"type": "function"
				},
				{
					"inputs": [
						{
							"internalType": "address",
							"name": "spender",
							"type": "address"
						},
						{
							"internalType": "uint256",
							"name": "amount",
							"type": "uint256"
						}
					],
					"name": "approve",
					"outputs": [
						{
							"internalType": "bool",
							"name": "",
							"type": "bool"
						}
					],
					"stateMutability": "nonpayable",
					"type": "function"
				},
				{
					"inputs": [
						{
							"internalType": "address",
							"name": "account",
							"type": "address"
						}
					],
					"name": "balanceOf",
					"outputs": [
						{
							"internalType": "uint256",
							"name": "",
							"type": "uint256"
						}
					],
					"stateMutability": "view",
					"type": "function"
				},
				{
					"inputs": [
						{
							"internalType": "address",
							"name": "account",
							"type": "address"
						},
						{
							"internalType": "uint256",
							"name": "amount",
							"type": "uint256"
						}
					],
					"name": "burn",
					"outputs": [
						{
							"internalType": "bool",
							"name": "",
							"type": "bool"
						}
					],
					"stateMutability": "nonpayable",
					"type": "function"
				},
				{
					"inputs": [],
					"name": "decimals",
					"outputs": [
						{
							"internalType": "uint8",
							"name": "",
							"type": "uint8"
						}
					],
					"stateMutability": "view",
					"type": "function"
				},
				{
					"inputs": [],
					"name": "getOwner",
					"outputs": [
						{
							"internalType": "address",
							"name": "",
							"type": "address"
						}
					],
					"stateMutability": "view",
					"type": "function"
				},
				{
					"inputs": [
						{
							"internalType": "address",
							"name": "spender",
							"type": "address"
						},
						{
							"internalType": "uint256",
							"name": "amount",
							"type": "uint256"
						}
					],
					"name": "increaseAllowance",
					"outputs": [
						{
							"internalType": "bool",
							"name": "",
							"type": "bool"
						}
					],
					"stateMutability": "nonpayable",
					"type": "function"
				},
				{
					"inputs": [
						{
							"internalType": "address",
							"name": "account",
							"type": "address"
						},
						{
							"internalType": "uint256",
							"name": "amount",
							"type": "uint256"
						}
					],
					"name": "mint",
					"outputs": [
						{
							"internalType": "bool",
							"name": "",
							"type": "bool"
						}
					],
					"stateMutability": "nonpayable",
					"type": "function"
				},
				{
					"inputs": [],
					"name": "name",
					"outputs": [
						{
							"internalType": "string",
							"name": "",
							"type": "string"
						}
					],
					"stateMutability": "view",
					"type": "function"
				},
				{
					"inputs": [],
					"name": "owner",
					"outputs": [
						{
							"internalType": "address",
							"name": "",
							"type": "address"
						}
					],
					"stateMutability": "view",
					"type": "function"
				},
				{
					"inputs": [],
					"name": "renounceOwnership",
					"outputs": [],
					"stateMutability": "nonpayable",
					"type": "function"
				},
				{
					"inputs": [],
					"name": "symbol",
					"outputs": [
						{
							"internalType": "string",
							"name": "",
							"type": "string"
						}
					],
					"stateMutability": "view",
					"type": "function"
				},
				{
					"inputs": [],
					"name": "totalSupply",
					"outputs": [
						{
							"internalType": "uint256",
							"name": "",
							"type": "uint256"
						}
					],
					"stateMutability": "view",
					"type": "function"
				},
				{
					"inputs": [
						{
							"internalType": "address",
							"name": "recipient",
							"type": "address"
						},
						{
							"internalType": "uint256",
							"name": "amount",
							"type": "uint256"
						}
					],
					"name": "transfer",
					"outputs": [
						{
							"internalType": "bool",
							"name": "",
							"type": "bool"
						}
					],
					"stateMutability": "nonpayable",
					"type": "function"
				},
				{
					"inputs": [
						{
							"internalType": "address",
							"name": "spender",
							"type": "address"
						},
						{
							"internalType": "address",
							"name": "recipient",
							"type": "address"
						},
						{
							"internalType": "uint256",
							"name": "amount",
							"type": "uint256"
						}
					],
					"name": "transferFrom",
					"outputs": [
						{
							"internalType": "bool",
							"name": "",
							"type": "bool"
						}
					],
					"stateMutability": "nonpayable",
					"type": "function"
				},
				{
					"inputs": [
						{
							"internalType": "address",
							"name": "newOwner",
							"type": "address"
						}
					],
					"name": "transferOwnership",
					"outputs": [],
					"stateMutability": "nonpayable",
					"type": "function"
				}
			],
			"devdoc": {
				"kind": "dev",
				"methods": {},
				"version": 1
			},
			"evm": {
				"assembly": "    /* \"contracts/StockCoin.sol\":83:8841  contract StockCoin is Ownable {... */\n  mstore(0x40, 0x80)\n    /* \"contracts/StockCoin.sol\":1071:1596  constructor (string memory token_name, string memory short_symbol, uint8 token_decimals, uint256 token_totalSupply) {... */\n  callvalue\n  dup1\n  iszero\n  tag_1\n  jumpi\n  0x00\n  dup1\n  revert\ntag_1:\n  pop\n  mload(0x40)\n  sub(codesize, bytecodeSize)\n  dup1\n  bytecodeSize\n  dup4\n  codecopy\n  dup2\n  dup2\n  add\n  0x40\n  mstore\n  dup2\n  add\n  swap1\n  tag_2\n  swap2\n  swap1\n  tag_3\n  jump\t// in\ntag_2:\n    /* \"contracts/Ownable.sol\":902:912  msg.sender */\n  caller\n    /* \"contracts/Ownable.sol\":893:899  _owner */\n  0x00\n  dup1\n    /* \"contracts/Ownable.sol\":893:912  _owner = msg.sender */\n  0x0100\n  exp\n  dup2\n  sload\n  dup2\n  0xffffffffffffffffffffffffffffffffffffffff\n  mul\n  not\n  and\n  swap1\n  dup4\n  0xffffffffffffffffffffffffffffffffffffffff\n  and\n  mul\n  or\n  swap1\n  sstore\n  pop\n    /* \"contracts/Ownable.sol\":960:966  _owner */\n  0x00\n  dup1\n  sload\n  swap1\n  0x0100\n  exp\n  swap1\n  div\n  0xffffffffffffffffffffffffffffffffffffffff\n  and\n    /* \"contracts/Ownable.sol\":927:967  OwnershipTransferred(address(0), _owner) */\n  0xffffffffffffffffffffffffffffffffffffffff\n  and\n    /* \"contracts/Ownable.sol\":956:957  0 */\n  0x00\n    /* \"contracts/Ownable.sol\":927:967  OwnershipTransferred(address(0), _owner) */\n  0xffffffffffffffffffffffffffffffffffffffff\n  and\n  0x8be0079c531659141344cd1fd0a4f28419497f9722a3daafe3b4186f6b6457e0\n  mload(0x40)\n  mload(0x40)\n  dup1\n  swap2\n  sub\n  swap1\n  log3\n    /* \"contracts/StockCoin.sol\":1206:1216  token_name */\n  dup4\n    /* \"contracts/StockCoin.sol\":1198:1203  _name */\n  0x04\n    /* \"contracts/StockCoin.sol\":1198:1216  _name = token_name */\n  swap1\n  dup1\n  mload\n  swap1\n  0x20\n  add\n  swap1\n  tag_8\n  swap3\n  swap2\n  swap1\n  tag_9\n  jump\t// in\ntag_8:\n  pop\n    /* \"contracts/StockCoin.sol\":1236:1248  short_symbol */\n  dup3\n    /* \"contracts/StockCoin.sol\":1226:1233  _symbol */\n  0x03\n    /* \"contracts/StockCoin.sol\":1226:1248  _symbol = short_symbol */\n  swap1\n  dup1\n  mload\n  swap1\n  0x20\n  add\n  swap1\n  tag_10\n  swap3\n  swap2\n  swap1\n  tag_9\n  jump\t// in\ntag_10:\n  pop\n    /* \"contracts/StockCoin.sol\":1270:1284  token_decimals */\n  dup2\n    /* \"contracts/StockCoin.sol\":1258:1267  _decimals */\n  0x02\n  0x00\n    /* \"contracts/StockCoin.sol\":1258:1284  _decimals = token_decimals */\n  0x0100\n  exp\n  dup2\n  sload\n  dup2\n  0xff\n  mul\n  not\n  and\n  swap1\n  dup4\n  0xff\n  and\n  mul\n  or\n  swap1\n  sstore\n  pop\n    /* \"contracts/StockCoin.sol\":1309:1326  token_totalSupply */\n  dup1\n    /* \"contracts/StockCoin.sol\":1294:1306  _totalSupply */\n  0x01\n    /* \"contracts/StockCoin.sol\":1294:1326  _totalSupply = token_totalSupply */\n  dup2\n  swap1\n  sstore\n  pop\n    /* \"contracts/StockCoin.sol\":1427:1439  _totalSupply */\n  sload(0x01)\n    /* \"contracts/StockCoin.sol\":1403:1412  _balances */\n  0x05\n    /* \"contracts/StockCoin.sol\":1403:1424  _balances[msg.sender] */\n  0x00\n    /* \"contracts/StockCoin.sol\":1413:1423  msg.sender */\n  caller\n    /* \"contracts/StockCoin.sol\":1403:1424  _balances[msg.sender] */\n  0xffffffffffffffffffffffffffffffffffffffff\n  and\n  0xffffffffffffffffffffffffffffffffffffffff\n  and\n  dup2\n  mstore\n  0x20\n  add\n  swap1\n  dup2\n  mstore\n  0x20\n  add\n  0x00\n  keccak256\n    /* \"contracts/StockCoin.sol\":1403:1439  _balances[msg.sender] = _totalSupply */\n  dup2\n  swap1\n  sstore\n  pop\n    /* \"contracts/StockCoin.sol\":1563:1573  msg.sender */\n  caller\n    /* \"contracts/StockCoin.sol\":1542:1588  Transfer(address(0), msg.sender, _totalSupply) */\n  0xffffffffffffffffffffffffffffffffffffffff\n  and\n    /* \"contracts/StockCoin.sol\":1559:1560  0 */\n  0x00\n    /* \"contracts/StockCoin.sol\":1542:1588  Transfer(address(0), msg.sender, _totalSupply) */\n  0xffffffffffffffffffffffffffffffffffffffff\n  and\n  0xddf252ad1be2c89b69c2b068fc378daa952ba7f163c4a11628f55a4df523b3ef\n    /* \"contracts/StockCoin.sol\":1575:1587  _totalSupply */\n  sload(0x01)\n    /* \"contracts/StockCoin.sol\":1542:1588  Transfer(address(0), msg.sender, _totalSupply) */\n  mload(0x40)\n  tag_11\n  swap2\n  swap1\n  tag_12\n  jump\t// in\ntag_11:\n  mload(0x40)\n  dup1\n  swap2\n  sub\n  swap1\n  log3\n    /* \"contracts/StockCoin.sol\":1071:1596  constructor (string memory token_name, string memory short_symbol, uint8 token_decimals, uint256 token_totalSupply) {... */\n  pop\n  pop\n  pop\n  pop\n    /* \"contracts/StockCoin.sol\":83:8841  contract StockCoin is Ownable {... */\n  jump(tag_13)\ntag_9:\n  dup3\n  dup1\n  sload\n  tag_14\n  swap1\n  tag_15\n  jump\t// in\ntag_14:\n  swap1\n  0x00\n  mstore\n  keccak256(0x00, 0x20)\n  swap1\n  0x1f\n  add\n  0x20\n  swap1\n  div\n  dup2\n  add\n  swap3\n  dup3\n  tag_17\n  jumpi\n  0x00\n  dup6\n  sstore\n  jump(tag_16)\ntag_17:\n  dup3\n  0x1f\n  lt\n  tag_18\n  jumpi\n  dup1\n  mload\n  not(0xff)\n  and\n  dup4\n  dup1\n  add\n  or\n  dup6\n  sstore\n  jump(tag_16)\ntag_18:\n  dup3\n  dup1\n  add\n  0x01\n  add\n  dup6\n  sstore\n  dup3\n  iszero\n  tag_16\n  jumpi\n  swap2\n  dup3\n  add\ntag_19:\n  dup3\n  dup2\n  gt\n  iszero\n  tag_20\n  jumpi\n  dup3\n  mload\n  dup3\n  sstore\n  swap2\n  0x20\n  add\n  swap2\n  swap1\n  0x01\n  add\n  swap1\n  jump(tag_19)\ntag_20:\ntag_16:\n  pop\n  swap1\n  pop\n  tag_21\n  swap2\n  swap1\n  tag_22\n  jump\t// in\ntag_21:\n  pop\n  swap1\n  jump\t// out\ntag_22:\ntag_23:\n  dup1\n  dup3\n  gt\n  iszero\n  tag_24\n  jumpi\n  0x00\n  dup2\n  0x00\n  swap1\n  sstore\n  pop\n  0x01\n  add\n  jump(tag_23)\ntag_24:\n  pop\n  swap1\n  jump\t// out\n    /* \"#utility.yul\":7:82   */\ntag_25:\n    /* \"#utility.yul\":40:46   */\n  0x00\n    /* \"#utility.yul\":73:75   */\n  0x40\n    /* \"#utility.yul\":67:76   */\n  mload\n    /* \"#utility.yul\":57:76   */\n  swap1\n  pop\n    /* \"#utility.yul\":7:82   */\n  swap1\n  jump\t// out\n    /* \"#utility.yul\":88:205   */\ntag_26:\n    /* \"#utility.yul\":197:198   */\n  0x00\n    /* \"#utility.yul\":194:195   */\n  dup1\n    /* \"#utility.yul\":187:199   */\n  revert\n    /* \"#utility.yul\":211:328   */\ntag_27:\n    /* \"#utility.yul\":320:321   */\n  0x00\n    /* \"#utility.yul\":317:318   */\n  dup1\n    /* \"#utility.yul\":310:322   */\n  revert\n    /* \"#utility.yul\":334:451   */\ntag_28:\n    /* \"#utility.yul\":443:444   */\n  0x00\n    /* \"#utility.yul\":440:441   */\n  dup1\n    /* \"#utility.yul\":433:445   */\n  revert\n    /* \"#utility.yul\":457:574   */\ntag_29:\n    /* \"#utility.yul\":566:567   */\n  0x00\n    /* \"#utility.yul\":563:564   */\n  dup1\n    /* \"#utility.yul\":556:568   */\n  revert\n    /* \"#utility.yul\":580:682   */\ntag_30:\n    /* \"#utility.yul\":621:627   */\n  0x00\n    /* \"#utility.yul\":672:674   */\n  0x1f\n    /* \"#utility.yul\":668:675   */\n  not\n    /* \"#utility.yul\":663:665   */\n  0x1f\n    /* \"#utility.yul\":656:661   */\n  dup4\n    /* \"#utility.yul\":652:666   */\n  add\n    /* \"#utility.yul\":648:676   */\n  and\n    /* \"#utility.yul\":638:676   */\n  swap1\n  pop\n    /* \"#utility.yul\":580:682   */\n  swap2\n  swap1\n  pop\n  jump\t// out\n    /* \"#utility.yul\":688:868   */\ntag_31:\n    /* \"#utility.yul\":736:813   */\n  0x4e487b7100000000000000000000000000000000000000000000000000000000\n    /* \"#utility.yul\":733:734   */\n  0x00\n    /* \"#utility.yul\":726:814   */\n  mstore\n    /* \"#utility.yul\":833:837   */\n  0x41\n    /* \"#utility.yul\":830:831   */\n  0x04\n    /* \"#utility.yul\":823:838   */\n  mstore\n    /* \"#utility.yul\":857:861   */\n  0x24\n    /* \"#utility.yul\":854:855   */\n  0x00\n    /* \"#utility.yul\":847:862   */\n  revert\n    /* \"#utility.yul\":874:1155   */\ntag_32:\n    /* \"#utility.yul\":957:984   */\n  tag_55\n    /* \"#utility.yul\":979:983   */\n  dup3\n    /* \"#utility.yul\":957:984   */\n  tag_30\n  jump\t// in\ntag_55:\n    /* \"#utility.yul\":949:955   */\n  dup2\n    /* \"#utility.yul\":945:985   */\n  add\n    /* \"#utility.yul\":1087:1093   */\n  dup2\n    /* \"#utility.yul\":1075:1085   */\n  dup2\n    /* \"#utility.yul\":1072:1094   */\n  lt\n    /* \"#utility.yul\":1051:1069   */\n  0xffffffffffffffff\n    /* \"#utility.yul\":1039:1049   */\n  dup3\n    /* \"#utility.yul\":1036:1070   */\n  gt\n    /* \"#utility.yul\":1033:1095   */\n  or\n    /* \"#utility.yul\":1030:1118   */\n  iszero\n  tag_56\n  jumpi\n    /* \"#utility.yul\":1098:1116   */\n  tag_57\n  tag_31\n  jump\t// in\ntag_57:\n    /* \"#utility.yul\":1030:1118   */\ntag_56:\n    /* \"#utility.yul\":1138:1148   */\n  dup1\n    /* \"#utility.yul\":1134:1136   */\n  0x40\n    /* \"#utility.yul\":1127:1149   */\n  mstore\n    /* \"#utility.yul\":917:1155   */\n  pop\n    /* \"#utility.yul\":874:1155   */\n  pop\n  pop\n  jump\t// out\n    /* \"#utility.yul\":1161:1290   */\ntag_33:\n    /* \"#utility.yul\":1195:1201   */\n  0x00\n    /* \"#utility.yul\":1222:1242   */\n  tag_59\n  tag_25\n  jump\t// in\ntag_59:\n    /* \"#utility.yul\":1212:1242   */\n  swap1\n  pop\n    /* \"#utility.yul\":1251:1284   */\n  tag_60\n    /* \"#utility.yul\":1279:1283   */\n  dup3\n    /* \"#utility.yul\":1271:1277   */\n  dup3\n    /* \"#utility.yul\":1251:1284   */\n  tag_32\n  jump\t// in\ntag_60:\n    /* \"#utility.yul\":1161:1290   */\n  swap2\n  swap1\n  pop\n  jump\t// out\n    /* \"#utility.yul\":1296:1604   */\ntag_34:\n    /* \"#utility.yul\":1358:1362   */\n  0x00\n    /* \"#utility.yul\":1448:1466   */\n  0xffffffffffffffff\n    /* \"#utility.yul\":1440:1446   */\n  dup3\n    /* \"#utility.yul\":1437:1467   */\n  gt\n    /* \"#utility.yul\":1434:1490   */\n  iszero\n  tag_62\n  jumpi\n    /* \"#utility.yul\":1470:1488   */\n  tag_63\n  tag_31\n  jump\t// in\ntag_63:\n    /* \"#utility.yul\":1434:1490   */\ntag_62:\n    /* \"#utility.yul\":1508:1537   */\n  tag_64\n    /* \"#utility.yul\":1530:1536   */\n  dup3\n    /* \"#utility.yul\":1508:1537   */\n  tag_30\n  jump\t// in\ntag_64:\n    /* \"#utility.yul\":1500:1537   */\n  swap1\n  pop\n    /* \"#utility.yul\":1592:1596   */\n  0x20\n    /* \"#utility.yul\":1586:1590   */\n  dup2\n    /* \"#utility.yul\":1582:1597   */\n  add\n    /* \"#utility.yul\":1574:1597   */\n  swap1\n  pop\n    /* \"#utility.yul\":1296:1604   */\n  swap2\n  swap1\n  pop\n  jump\t// out\n    /* \"#utility.yul\":1610:1917   */\ntag_35:\n    /* \"#utility.yul\":1678:1679   */\n  0x00\n    /* \"#utility.yul\":1688:1801   */\ntag_66:\n    /* \"#utility.yul\":1702:1708   */\n  dup4\n    /* \"#utility.yul\":1699:1700   */\n  dup2\n    /* \"#utility.yul\":1696:1709   */\n  lt\n    /* \"#utility.yul\":1688:1801   */\n  iszero\n  tag_68\n  jumpi\n    /* \"#utility.yul\":1787:1788   */\n  dup1\n    /* \"#utility.yul\":1782:1785   */\n  dup3\n    /* \"#utility.yul\":1778:1789   */\n  add\n    /* \"#utility.yul\":1772:1790   */\n  mload\n    /* \"#utility.yul\":1768:1769   */\n  dup2\n    /* \"#utility.yul\":1763:1766   */\n  dup5\n    /* \"#utility.yul\":1759:1770   */\n  add\n    /* \"#utility.yul\":1752:1791   */\n  mstore\n    /* \"#utility.yul\":1724:1726   */\n  0x20\n    /* \"#utility.yul\":1721:1722   */\n  dup2\n    /* \"#utility.yul\":1717:1727   */\n  add\n    /* \"#utility.yul\":1712:1727   */\n  swap1\n  pop\n    /* \"#utility.yul\":1688:1801   */\n  jump(tag_66)\ntag_68:\n    /* \"#utility.yul\":1819:1825   */\n  dup4\n    /* \"#utility.yul\":1816:1817   */\n  dup2\n    /* \"#utility.yul\":1813:1826   */\n  gt\n    /* \"#utility.yul\":1810:1911   */\n  iszero\n  tag_69\n  jumpi\n    /* \"#utility.yul\":1899:1900   */\n  0x00\n    /* \"#utility.yul\":1890:1896   */\n  dup5\n    /* \"#utility.yul\":1885:1888   */\n  dup5\n    /* \"#utility.yul\":1881:1897   */\n  add\n    /* \"#utility.yul\":1874:1901   */\n  mstore\n    /* \"#utility.yul\":1810:1911   */\ntag_69:\n    /* \"#utility.yul\":1659:1917   */\n  pop\n    /* \"#utility.yul\":1610:1917   */\n  pop\n  pop\n  pop\n  jump\t// out\n    /* \"#utility.yul\":1923:2344   */\ntag_36:\n    /* \"#utility.yul\":2012:2017   */\n  0x00\n    /* \"#utility.yul\":2037:2103   */\n  tag_71\n    /* \"#utility.yul\":2053:2102   */\n  tag_72\n    /* \"#utility.yul\":2095:2101   */\n  dup5\n    /* \"#utility.yul\":2053:2102   */\n  tag_34\n  jump\t// in\ntag_72:\n    /* \"#utility.yul\":2037:2103   */\n  tag_33\n  jump\t// in\ntag_71:\n    /* \"#utility.yul\":2028:2103   */\n  swap1\n  pop\n    /* \"#utility.yul\":2126:2132   */\n  dup3\n    /* \"#utility.yul\":2119:2124   */\n  dup2\n    /* \"#utility.yul\":2112:2133   */\n  mstore\n    /* \"#utility.yul\":2164:2168   */\n  0x20\n    /* \"#utility.yul\":2157:2162   */\n  dup2\n    /* \"#utility.yul\":2153:2169   */\n  add\n    /* \"#utility.yul\":2202:2205   */\n  dup5\n    /* \"#utility.yul\":2193:2199   */\n  dup5\n    /* \"#utility.yul\":2188:2191   */\n  dup5\n    /* \"#utility.yul\":2184:2200   */\n  add\n    /* \"#utility.yul\":2181:2206   */\n  gt\n    /* \"#utility.yul\":2178:2290   */\n  iszero\n  tag_73\n  jumpi\n    /* \"#utility.yul\":2209:2288   */\n  tag_74\n  tag_29\n  jump\t// in\ntag_74:\n    /* \"#utility.yul\":2178:2290   */\ntag_73:\n    /* \"#utility.yul\":2299:2338   */\n  tag_75\n    /* \"#utility.yul\":2331:2337   */\n  dup5\n    /* \"#utility.yul\":2326:2329   */\n  dup3\n    /* \"#utility.yul\":2321:2324   */\n  dup6\n    /* \"#utility.yul\":2299:2338   */\n  tag_35\n  jump\t// in\ntag_75:\n    /* \"#utility.yul\":2018:2344   */\n  pop\n    /* \"#utility.yul\":1923:2344   */\n  swap4\n  swap3\n  pop\n  pop\n  pop\n  jump\t// out\n    /* \"#utility.yul\":2364:2719   */\ntag_37:\n    /* \"#utility.yul\":2431:2436   */\n  0x00\n    /* \"#utility.yul\":2480:2483   */\n  dup3\n    /* \"#utility.yul\":2473:2477   */\n  0x1f\n    /* \"#utility.yul\":2465:2471   */\n  dup4\n    /* \"#utility.yul\":2461:2478   */\n  add\n    /* \"#utility.yul\":2457:2484   */\n  slt\n    /* \"#utility.yul\":2447:2569   */\n  tag_77\n  jumpi\n    /* \"#utility.yul\":2488:2567   */\n  tag_78\n  tag_28\n  jump\t// in\ntag_78:\n    /* \"#utility.yul\":2447:2569   */\ntag_77:\n    /* \"#utility.yul\":2598:2604   */\n  dup2\n    /* \"#utility.yul\":2592:2605   */\n  mload\n    /* \"#utility.yul\":2623:2713   */\n  tag_79\n    /* \"#utility.yul\":2709:2712   */\n  dup5\n    /* \"#utility.yul\":2701:2707   */\n  dup3\n    /* \"#utility.yul\":2694:2698   */\n  0x20\n    /* \"#utility.yul\":2686:2692   */\n  dup7\n    /* \"#utility.yul\":2682:2699   */\n  add\n    /* \"#utility.yul\":2623:2713   */\n  tag_36\n  jump\t// in\ntag_79:\n    /* \"#utility.yul\":2614:2713   */\n  swap2\n  pop\n    /* \"#utility.yul\":2437:2719   */\n  pop\n    /* \"#utility.yul\":2364:2719   */\n  swap3\n  swap2\n  pop\n  pop\n  jump\t// out\n    /* \"#utility.yul\":2725:2811   */\ntag_38:\n    /* \"#utility.yul\":2760:2767   */\n  0x00\n    /* \"#utility.yul\":2800:2804   */\n  0xff\n    /* \"#utility.yul\":2793:2798   */\n  dup3\n    /* \"#utility.yul\":2789:2805   */\n  and\n    /* \"#utility.yul\":2778:2805   */\n  swap1\n  pop\n    /* \"#utility.yul\":2725:2811   */\n  swap2\n  swap1\n  pop\n  jump\t// out\n    /* \"#utility.yul\":2817:2935   */\ntag_39:\n    /* \"#utility.yul\":2888:2910   */\n  tag_82\n    /* \"#utility.yul\":2904:2909   */\n  dup2\n    /* \"#utility.yul\":2888:2910   */\n  tag_38\n  jump\t// in\ntag_82:\n    /* \"#utility.yul\":2881:2886   */\n  dup2\n    /* \"#utility.yul\":2878:2911   */\n  eq\n    /* \"#utility.yul\":2868:2929   */\n  tag_83\n  jumpi\n    /* \"#utility.yul\":2925:2926   */\n  0x00\n    /* \"#utility.yul\":2922:2923   */\n  dup1\n    /* \"#utility.yul\":2915:2927   */\n  revert\n    /* \"#utility.yul\":2868:2929   */\ntag_83:\n    /* \"#utility.yul\":2817:2935   */\n  pop\n  jump\t// out\n    /* \"#utility.yul\":2941:3080   */\ntag_40:\n    /* \"#utility.yul\":2996:3001   */\n  0x00\n    /* \"#utility.yul\":3027:3033   */\n  dup2\n    /* \"#utility.yul\":3021:3034   */\n  mload\n    /* \"#utility.yul\":3012:3034   */\n  swap1\n  pop\n    /* \"#utility.yul\":3043:3074   */\n  tag_85\n    /* \"#utility.yul\":3068:3073   */\n  dup2\n    /* \"#utility.yul\":3043:3074   */\n  tag_39\n  jump\t// in\ntag_85:\n    /* \"#utility.yul\":2941:3080   */\n  swap3\n  swap2\n  pop\n  pop\n  jump\t// out\n    /* \"#utility.yul\":3086:3163   */\ntag_41:\n    /* \"#utility.yul\":3123:3130   */\n  0x00\n    /* \"#utility.yul\":3152:3157   */\n  dup2\n    /* \"#utility.yul\":3141:3157   */\n  swap1\n  pop\n    /* \"#utility.yul\":3086:3163   */\n  swap2\n  swap1\n  pop\n  jump\t// out\n    /* \"#utility.yul\":3169:3291   */\ntag_42:\n    /* \"#utility.yul\":3242:3266   */\n  tag_88\n    /* \"#utility.yul\":3260:3265   */\n  dup2\n    /* \"#utility.yul\":3242:3266   */\n  tag_41\n  jump\t// in\ntag_88:\n    /* \"#utility.yul\":3235:3240   */\n  dup2\n    /* \"#utility.yul\":3232:3267   */\n  eq\n    /* \"#utility.yul\":3222:3285   */\n  tag_89\n  jumpi\n    /* \"#utility.yul\":3281:3282   */\n  0x00\n    /* \"#utility.yul\":3278:3279   */\n  dup1\n    /* \"#utility.yul\":3271:3283   */\n  revert\n    /* \"#utility.yul\":3222:3285   */\ntag_89:\n    /* \"#utility.yul\":3169:3291   */\n  pop\n  jump\t// out\n    /* \"#utility.yul\":3297:3440   */\ntag_43:\n    /* \"#utility.yul\":3354:3359   */\n  0x00\n    /* \"#utility.yul\":3385:3391   */\n  dup2\n    /* \"#utility.yul\":3379:3392   */\n  mload\n    /* \"#utility.yul\":3370:3392   */\n  swap1\n  pop\n    /* \"#utility.yul\":3401:3434   */\n  tag_91\n    /* \"#utility.yul\":3428:3433   */\n  dup2\n    /* \"#utility.yul\":3401:3434   */\n  tag_42\n  jump\t// in\ntag_91:\n    /* \"#utility.yul\":3297:3440   */\n  swap3\n  swap2\n  pop\n  pop\n  jump\t// out\n    /* \"#utility.yul\":3446:4608   */\ntag_3:\n    /* \"#utility.yul\":3561:3567   */\n  0x00\n    /* \"#utility.yul\":3569:3575   */\n  dup1\n    /* \"#utility.yul\":3577:3583   */\n  0x00\n    /* \"#utility.yul\":3585:3591   */\n  dup1\n    /* \"#utility.yul\":3634:3637   */\n  0x80\n    /* \"#utility.yul\":3622:3631   */\n  dup6\n    /* \"#utility.yul\":3613:3620   */\n  dup8\n    /* \"#utility.yul\":3609:3632   */\n  sub\n    /* \"#utility.yul\":3605:3638   */\n  slt\n    /* \"#utility.yul\":3602:3722   */\n  iszero\n  tag_93\n  jumpi\n    /* \"#utility.yul\":3641:3720   */\n  tag_94\n  tag_26\n  jump\t// in\ntag_94:\n    /* \"#utility.yul\":3602:3722   */\ntag_93:\n    /* \"#utility.yul\":3782:3783   */\n  0x00\n    /* \"#utility.yul\":3771:3780   */\n  dup6\n    /* \"#utility.yul\":3767:3784   */\n  add\n    /* \"#utility.yul\":3761:3785   */\n  mload\n    /* \"#utility.yul\":3812:3830   */\n  0xffffffffffffffff\n    /* \"#utility.yul\":3804:3810   */\n  dup2\n    /* \"#utility.yul\":3801:3831   */\n  gt\n    /* \"#utility.yul\":3798:3915   */\n  iszero\n  tag_95\n  jumpi\n    /* \"#utility.yul\":3834:3913   */\n  tag_96\n  tag_27\n  jump\t// in\ntag_96:\n    /* \"#utility.yul\":3798:3915   */\ntag_95:\n    /* \"#utility.yul\":3939:4013   */\n  tag_97\n    /* \"#utility.yul\":4005:4012   */\n  dup8\n    /* \"#utility.yul\":3996:4002   */\n  dup3\n    /* \"#utility.yul\":3985:3994   */\n  dup9\n    /* \"#utility.yul\":3981:4003   */\n  add\n    /* \"#utility.yul\":3939:4013   */\n  tag_37\n  jump\t// in\ntag_97:\n    /* \"#utility.yul\":3929:4013   */\n  swap5\n  pop\n    /* \"#utility.yul\":3732:4023   */\n  pop\n    /* \"#utility.yul\":4083:4085   */\n  0x20\n    /* \"#utility.yul\":4072:4081   */\n  dup6\n    /* \"#utility.yul\":4068:4086   */\n  add\n    /* \"#utility.yul\":4062:4087   */\n  mload\n    /* \"#utility.yul\":4114:4132   */\n  0xffffffffffffffff\n    /* \"#utility.yul\":4106:4112   */\n  dup2\n    /* \"#utility.yul\":4103:4133   */\n  gt\n    /* \"#utility.yul\":4100:4217   */\n  iszero\n  tag_98\n  jumpi\n    /* \"#utility.yul\":4136:4215   */\n  tag_99\n  tag_27\n  jump\t// in\ntag_99:\n    /* \"#utility.yul\":4100:4217   */\ntag_98:\n    /* \"#utility.yul\":4241:4315   */\n  tag_100\n    /* \"#utility.yul\":4307:4314   */\n  dup8\n    /* \"#utility.yul\":4298:4304   */\n  dup3\n    /* \"#utility.yul\":4287:4296   */\n  dup9\n    /* \"#utility.yul\":4283:4305   */\n  add\n    /* \"#utility.yul\":4241:4315   */\n  tag_37\n  jump\t// in\ntag_100:\n    /* \"#utility.yul\":4231:4315   */\n  swap4\n  pop\n    /* \"#utility.yul\":4033:4325   */\n  pop\n    /* \"#utility.yul\":4364:4366   */\n  0x40\n    /* \"#utility.yul\":4390:4452   */\n  tag_101\n    /* \"#utility.yul\":4444:4451   */\n  dup8\n    /* \"#utility.yul\":4435:4441   */\n  dup3\n    /* \"#utility.yul\":4424:4433   */\n  dup9\n    /* \"#utility.yul\":4420:4442   */\n  add\n    /* \"#utility.yul\":4390:4452   */\n  tag_40\n  jump\t// in\ntag_101:\n    /* \"#utility.yul\":4380:4452   */\n  swap3\n  pop\n    /* \"#utility.yul\":4335:4462   */\n  pop\n    /* \"#utility.yul\":4501:4503   */\n  0x60\n    /* \"#utility.yul\":4527:4591   */\n  tag_102\n    /* \"#utility.yul\":4583:4590   */\n  dup8\n    /* \"#utility.yul\":4574:4580   */\n  dup3\n    /* \"#utility.yul\":4563:4572   */\n  dup9\n    /* \"#utility.yul\":4559:4581   */\n  add\n    /* \"#utility.yul\":4527:4591   */\n  tag_43\n  jump\t// in\ntag_102:\n    /* \"#utility.yul\":4517:4591   */\n  swap2\n  pop\n    /* \"#utility.yul\":4472:4601   */\n  pop\n    /* \"#utility.yul\":3446:4608   */\n  swap3\n  swap6\n  swap2\n  swap5\n  pop\n  swap3\n  pop\n  jump\t// out\n    /* \"#utility.yul\":4614:4732   */\ntag_44:\n    /* \"#utility.yul\":4701:4725   */\n  tag_104\n    /* \"#utility.yul\":4719:4724   */\n  dup2\n    /* \"#utility.yul\":4701:4725   */\n  tag_41\n  jump\t// in\ntag_104:\n    /* \"#utility.yul\":4696:4699   */\n  dup3\n    /* \"#utility.yul\":4689:4726   */\n  mstore\n    /* \"#utility.yul\":4614:4732   */\n  pop\n  pop\n  jump\t// out\n    /* \"#utility.yul\":4738:4960   */\ntag_12:\n    /* \"#utility.yul\":4831:4835   */\n  0x00\n    /* \"#utility.yul\":4869:4871   */\n  0x20\n    /* \"#utility.yul\":4858:4867   */\n  dup3\n    /* \"#utility.yul\":4854:4872   */\n  add\n    /* \"#utility.yul\":4846:4872   */\n  swap1\n  pop\n    /* \"#utility.yul\":4882:4953   */\n  tag_106\n    /* \"#utility.yul\":4950:4951   */\n  0x00\n    /* \"#utility.yul\":4939:4948   */\n  dup4\n    /* \"#utility.yul\":4935:4952   */\n  add\n    /* \"#utility.yul\":4926:4932   */\n  dup5\n    /* \"#utility.yul\":4882:4953   */\n  tag_44\n  jump\t// in\ntag_106:\n    /* \"#utility.yul\":4738:4960   */\n  swap3\n  swap2\n  pop\n  pop\n  jump\t// out\n    /* \"#utility.yul\":4966:5146   */\ntag_45:\n    /* \"#utility.yul\":5014:5091   */\n  0x4e487b7100000000000000000000000000000000000000000000000000000000\n    /* \"#utility.yul\":5011:5012   */\n  0x00\n    /* \"#utility.yul\":5004:5092   */\n  mstore\n    /* \"#utility.yul\":5111:5115   */\n  0x22\n    /* \"#utility.yul\":5108:5109   */\n  0x04\n    /* \"#utility.yul\":5101:5116   */\n  mstore\n    /* \"#utility.yul\":5135:5139   */\n  0x24\n    /* \"#utility.yul\":5132:5133   */\n  0x00\n    /* \"#utility.yul\":5125:5140   */\n  revert\n    /* \"#utility.yul\":5152:5472   */\ntag_15:\n    /* \"#utility.yul\":5196:5202   */\n  0x00\n    /* \"#utility.yul\":5233:5234   */\n  0x02\n    /* \"#utility.yul\":5227:5231   */\n  dup3\n    /* \"#utility.yul\":5223:5235   */\n  div\n    /* \"#utility.yul\":5213:5235   */\n  swap1\n  pop\n    /* \"#utility.yul\":5280:5281   */\n  0x01\n    /* \"#utility.yul\":5274:5278   */\n  dup3\n    /* \"#utility.yul\":5270:5282   */\n  and\n    /* \"#utility.yul\":5301:5319   */\n  dup1\n    /* \"#utility.yul\":5291:5372   */\n  tag_109\n  jumpi\n    /* \"#utility.yul\":5357:5361   */\n  0x7f\n    /* \"#utility.yul\":5349:5355   */\n  dup3\n    /* \"#utility.yul\":5345:5362   */\n  and\n    /* \"#utility.yul\":5335:5362   */\n  swap2\n  pop\n    /* \"#utility.yul\":5291:5372   */\ntag_109:\n    /* \"#utility.yul\":5419:5421   */\n  0x20\n    /* \"#utility.yul\":5411:5417   */\n  dup3\n    /* \"#utility.yul\":5408:5422   */\n  lt\n    /* \"#utility.yul\":5388:5406   */\n  dup2\n    /* \"#utility.yul\":5385:5423   */\n  sub\n    /* \"#utility.yul\":5382:5466   */\n  tag_110\n  jumpi\n    /* \"#utility.yul\":5438:5456   */\n  tag_111\n  tag_45\n  jump\t// in\ntag_111:\n    /* \"#utility.yul\":5382:5466   */\ntag_110:\n    /* \"#utility.yul\":5203:5472   */\n  pop\n    /* \"#utility.yul\":5152:5472   */\n  swap2\n  swap1\n  pop\n  jump\t// out\n    /* \"contracts/StockCoin.sol\":83:8841  contract StockCoin is Ownable {... */\ntag_13:\n  dataSize(sub_0)\n  dup1\n  dataOffset(sub_0)\n  0x00\n  codecopy\n  0x00\n  return\nstop\n\nsub_0: assembly {\n        /* \"contracts/StockCoin.sol\":83:8841  contract StockCoin is Ownable {... */\n      mstore(0x40, 0x80)\n      callvalue\n      dup1\n      iszero\n      tag_1\n      jumpi\n      0x00\n      dup1\n      revert\n    tag_1:\n      pop\n      jumpi(tag_2, lt(calldatasize, 0x04))\n      shr(0xe0, calldataload(0x00))\n      dup1\n      0x715018a6\n      gt\n      tag_19\n      jumpi\n      dup1\n      0x9dc29fac\n      gt\n      tag_20\n      jumpi\n      dup1\n      0x9dc29fac\n      eq\n      tag_15\n      jumpi\n      dup1\n      0xa9059cbb\n      eq\n      tag_16\n      jumpi\n      dup1\n      0xdd62ed3e\n      eq\n      tag_17\n      jumpi\n      dup1\n      0xf2fde38b\n      eq\n      tag_18\n      jumpi\n      jump(tag_2)\n    tag_20:\n      dup1\n      0x715018a6\n      eq\n      tag_11\n      jumpi\n      dup1\n      0x893d20e8\n      eq\n      tag_12\n      jumpi\n      dup1\n      0x8da5cb5b\n      eq\n      tag_13\n      jumpi\n      dup1\n      0x95d89b41\n      eq\n      tag_14\n      jumpi\n      jump(tag_2)\n    tag_19:\n      dup1\n      0x313ce567\n      gt\n      tag_21\n      jumpi\n      dup1\n      0x313ce567\n      eq\n      tag_7\n      jumpi\n      dup1\n      0x39509351\n      eq\n      tag_8\n      jumpi\n      dup1\n      0x40c10f19\n      eq\n      tag_9\n      jumpi\n      dup1\n      0x70a08231\n      eq\n      tag_10\n      jumpi\n      jump(tag_2)\n    tag_21:\n      dup1\n      0x06fdde03\n      eq\n      tag_3\n      jumpi\n      dup1\n      0x095ea7b3\n      eq\n      tag_4\n      jumpi\n      dup1\n      0x18160ddd\n      eq\n      tag_5\n      jumpi\n      dup1\n      0x23b872dd\n      eq\n      tag_6\n      jumpi\n    tag_2:\n      0x00\n      dup1\n      revert\n        /* \"contracts/StockCoin.sol\":2027:2109  function name() external view returns (string memory){... */\n    tag_3:\n      tag_22\n      tag_23\n      jump\t// in\n    tag_22:\n      mload(0x40)\n      tag_24\n      swap2\n      swap1\n      tag_25\n      jump\t// in\n    tag_24:\n      mload(0x40)\n      dup1\n      swap2\n      sub\n      swap1\n      return\n        /* \"contracts/StockCoin.sol\":7029:7181  function approve (address spender, uint256 amount) external returns (bool) {... */\n    tag_4:\n      tag_26\n      0x04\n      dup1\n      calldatasize\n      sub\n      dup2\n      add\n      swap1\n      tag_27\n      swap2\n      swap1\n      tag_28\n      jump\t// in\n    tag_27:\n      tag_29\n      jump\t// in\n    tag_26:\n      mload(0x40)\n      tag_30\n      swap2\n      swap1\n      tag_31\n      jump\t// in\n    tag_30:\n      mload(0x40)\n      dup1\n      swap2\n      sub\n      swap1\n      return\n        /* \"contracts/StockCoin.sol\":2202:2292  function totalSupply() external view returns (uint256){... */\n    tag_5:\n      tag_32\n      tag_33\n      jump\t// in\n    tag_32:\n      mload(0x40)\n      tag_34\n      swap2\n      swap1\n      tag_35\n      jump\t// in\n    tag_34:\n      mload(0x40)\n      dup1\n      swap2\n      sub\n      swap1\n      return\n        /* \"contracts/StockCoin.sol\":8093:8618  function transferFrom (address spender, address recipient, uint256 amount) external returns (bool) {... */\n    tag_6:\n      tag_36\n      0x04\n      dup1\n      calldatasize\n      sub\n      dup2\n      add\n      swap1\n      tag_37\n      swap2\n      swap1\n      tag_38\n      jump\t// in\n    tag_37:\n      tag_39\n      jump\t// in\n    tag_36:\n      mload(0x40)\n      tag_40\n      swap2\n      swap1\n      tag_31\n      jump\t// in\n    tag_40:\n      mload(0x40)\n      dup1\n      swap2\n      sub\n      swap1\n      return\n        /* \"contracts/StockCoin.sol\":1711:1795  function decimals () external view returns (uint8) {... */\n    tag_7:\n      tag_41\n      tag_42\n      jump\t// in\n    tag_41:\n      mload(0x40)\n      tag_43\n      swap2\n      swap1\n      tag_44\n      jump\t// in\n    tag_43:\n      mload(0x40)\n      dup1\n      swap2\n      sub\n      swap1\n      return\n        /* \"contracts/StockCoin.sol\":8738:8838  function increaseAllowance(address spender, uint256 amount) public returns (bool) {... */\n    tag_8:\n      tag_45\n      0x04\n      dup1\n      calldatasize\n      sub\n      dup2\n      add\n      swap1\n      tag_46\n      swap2\n      swap1\n      tag_28\n      jump\t// in\n    tag_46:\n      tag_47\n      jump\t// in\n    tag_45:\n      mload(0x40)\n      tag_48\n      swap2\n      swap1\n      tag_31\n      jump\t// in\n    tag_48:\n      mload(0x40)\n      dup1\n      swap2\n      sub\n      swap1\n      return\n        /* \"contracts/StockCoin.sol\":4611:4753  function mint (address account, uint256 amount) public onlyOwner returns (bool) {... */\n    tag_9:\n      tag_49\n      0x04\n      dup1\n      calldatasize\n      sub\n      dup2\n      add\n      swap1\n      tag_50\n      swap2\n      swap1\n      tag_28\n      jump\t// in\n    tag_50:\n      tag_51\n      jump\t// in\n    tag_49:\n      mload(0x40)\n      tag_52\n      swap2\n      swap1\n      tag_31\n      jump\t// in\n    tag_52:\n      mload(0x40)\n      dup1\n      swap2\n      sub\n      swap1\n      return\n        /* \"contracts/StockCoin.sol\":2391:2503  function balanceOf(address account) external view returns (uint256) {... */\n    tag_10:\n      tag_53\n      0x04\n      dup1\n      calldatasize\n      sub\n      dup2\n      add\n      swap1\n      tag_54\n      swap2\n      swap1\n      tag_55\n      jump\t// in\n    tag_54:\n      tag_56\n      jump\t// in\n    tag_53:\n      mload(0x40)\n      tag_57\n      swap2\n      swap1\n      tag_35\n      jump\t// in\n    tag_57:\n      mload(0x40)\n      dup1\n      swap2\n      sub\n      swap1\n      return\n        /* \"contracts/Ownable.sol\":1400:1539  function renounceOwnership() public onlyOwner {... */\n    tag_11:\n      tag_58\n      tag_59\n      jump\t// in\n    tag_58:\n      stop\n        /* \"contracts/StockCoin.sol\":6581:6666  function getOwner() external view returns (address) {... */\n    tag_12:\n      tag_60\n      tag_61\n      jump\t// in\n    tag_60:\n      mload(0x40)\n      tag_62\n      swap2\n      swap1\n      tag_63\n      jump\t// in\n    tag_62:\n      mload(0x40)\n      dup1\n      swap2\n      sub\n      swap1\n      return\n        /* \"contracts/Ownable.sol\":1075:1153  function owner() public view returns(address) {... */\n    tag_13:\n      tag_64\n      tag_65\n      jump\t// in\n    tag_64:\n      mload(0x40)\n      tag_66\n      swap2\n      swap1\n      tag_63\n      jump\t// in\n    tag_66:\n      mload(0x40)\n      dup1\n      swap2\n      sub\n      swap1\n      return\n        /* \"contracts/StockCoin.sol\":1869:1955  function symbol() external view returns (string memory){... */\n    tag_14:\n      tag_67\n      tag_68\n      jump\t// in\n    tag_67:\n      mload(0x40)\n      tag_69\n      swap2\n      swap1\n      tag_25\n      jump\t// in\n    tag_69:\n      mload(0x40)\n      dup1\n      swap2\n      sub\n      swap1\n      return\n        /* \"contracts/StockCoin.sol\":4284:4425  function burn (address account, uint256 amount) public onlyOwner returns(bool) {... */\n    tag_15:\n      tag_70\n      0x04\n      dup1\n      calldatasize\n      sub\n      dup2\n      add\n      swap1\n      tag_71\n      swap2\n      swap1\n      tag_28\n      jump\t// in\n    tag_71:\n      tag_72\n      jump\t// in\n    tag_70:\n      mload(0x40)\n      tag_73\n      swap2\n      swap1\n      tag_31\n      jump\t// in\n    tag_73:\n      mload(0x40)\n      dup1\n      swap2\n      sub\n      swap1\n      return\n        /* \"contracts/StockCoin.sol\":5076:5234  function transfer(address recipient, uint256 amount) external returns (bool) {... */\n    tag_16:\n      tag_74\n      0x04\n      dup1\n      calldatasize\n      sub\n      dup2\n      add\n      swap1\n      tag_75\n      swap2\n      swap1\n      tag_28\n      jump\t// in\n    tag_75:\n      tag_76\n      jump\t// in\n    tag_74:\n      mload(0x40)\n      tag_77\n      swap2\n      swap1\n      tag_31\n      jump\t// in\n    tag_77:\n      mload(0x40)\n      dup1\n      swap2\n      sub\n      swap1\n      return\n        /* \"contracts/StockCoin.sol\":6758:6895  function allowance (address owner, address spender) external view returns (uint256) {... */\n    tag_17:\n      tag_78\n      0x04\n      dup1\n      calldatasize\n      sub\n      dup2\n      add\n      swap1\n      tag_79\n      swap2\n      swap1\n      tag_80\n      jump\t// in\n    tag_79:\n      tag_81\n      jump\t// in\n    tag_78:\n      mload(0x40)\n      tag_82\n      swap2\n      swap1\n      tag_35\n      jump\t// in\n    tag_82:\n      mload(0x40)\n      dup1\n      swap2\n      sub\n      swap1\n      return\n        /* \"contracts/Ownable.sol\":1634:1744  function transferOwnership (address newOwner) public onlyOwner {... */\n    tag_18:\n      tag_83\n      0x04\n      dup1\n      calldatasize\n      sub\n      dup2\n      add\n      swap1\n      tag_84\n      swap2\n      swap1\n      tag_55\n      jump\t// in\n    tag_84:\n      tag_85\n      jump\t// in\n    tag_83:\n      stop\n        /* \"contracts/StockCoin.sol\":2027:2109  function name() external view returns (string memory){... */\n    tag_23:\n        /* \"contracts/StockCoin.sol\":2066:2079  string memory */\n      0x60\n        /* \"contracts/StockCoin.sol\":2097:2102  _name */\n      0x04\n        /* \"contracts/StockCoin.sol\":2090:2102  return _name */\n      dup1\n      sload\n      tag_87\n      swap1\n      tag_88\n      jump\t// in\n    tag_87:\n      dup1\n      0x1f\n      add\n      0x20\n      dup1\n      swap2\n      div\n      mul\n      0x20\n      add\n      mload(0x40)\n      swap1\n      dup2\n      add\n      0x40\n      mstore\n      dup1\n      swap3\n      swap2\n      swap1\n      dup2\n      dup2\n      mstore\n      0x20\n      add\n      dup3\n      dup1\n      sload\n      tag_89\n      swap1\n      tag_88\n      jump\t// in\n    tag_89:\n      dup1\n      iszero\n      tag_90\n      jumpi\n      dup1\n      0x1f\n      lt\n      tag_91\n      jumpi\n      0x0100\n      dup1\n      dup4\n      sload\n      div\n      mul\n      dup4\n      mstore\n      swap2\n      0x20\n      add\n      swap2\n      jump(tag_90)\n    tag_91:\n      dup3\n      add\n      swap2\n      swap1\n      0x00\n      mstore\n      keccak256(0x00, 0x20)\n      swap1\n    tag_92:\n      dup2\n      sload\n      dup2\n      mstore\n      swap1\n      0x01\n      add\n      swap1\n      0x20\n      add\n      dup1\n      dup4\n      gt\n      tag_92\n      jumpi\n      dup3\n      swap1\n      sub\n      0x1f\n      and\n      dup3\n      add\n      swap2\n    tag_90:\n      pop\n      pop\n      pop\n      pop\n      pop\n      swap1\n      pop\n        /* \"contracts/StockCoin.sol\":2027:2109  function name() external view returns (string memory){... */\n      swap1\n      jump\t// out\n        /* \"contracts/StockCoin.sol\":7029:7181  function approve (address spender, uint256 amount) external returns (bool) {... */\n    tag_29:\n        /* \"contracts/StockCoin.sol\":7098:7102  bool */\n      0x00\n        /* \"contracts/StockCoin.sol\":7115:7152  _approve(msg.sender, spender, amount) */\n      tag_94\n        /* \"contracts/StockCoin.sol\":7124:7134  msg.sender */\n      caller\n        /* \"contracts/StockCoin.sol\":7136:7143  spender */\n      dup5\n        /* \"contracts/StockCoin.sol\":7145:7151  amount */\n      dup5\n        /* \"contracts/StockCoin.sol\":7115:7123  _approve */\n      tag_95\n        /* \"contracts/StockCoin.sol\":7115:7152  _approve(msg.sender, spender, amount) */\n      jump\t// in\n    tag_94:\n        /* \"contracts/StockCoin.sol\":7169:7173  true */\n      0x01\n        /* \"contracts/StockCoin.sol\":7162:7173  return true */\n      swap1\n      pop\n        /* \"contracts/StockCoin.sol\":7029:7181  function approve (address spender, uint256 amount) external returns (bool) {... */\n      swap3\n      swap2\n      pop\n      pop\n      jump\t// out\n        /* \"contracts/StockCoin.sol\":2202:2292  function totalSupply() external view returns (uint256){... */\n    tag_33:\n        /* \"contracts/StockCoin.sol\":2248:2255  uint256 */\n      0x00\n        /* \"contracts/StockCoin.sol\":2273:2285  _totalSupply */\n      sload(0x01)\n        /* \"contracts/StockCoin.sol\":2266:2285  return _totalSupply */\n      swap1\n      pop\n        /* \"contracts/StockCoin.sol\":2202:2292  function totalSupply() external view returns (uint256){... */\n      swap1\n      jump\t// out\n        /* \"contracts/StockCoin.sol\":8093:8618  function transferFrom (address spender, address recipient, uint256 amount) external returns (bool) {... */\n    tag_39:\n        /* \"contracts/StockCoin.sol\":8186:8190  bool */\n      0x00\n        /* \"contracts/StockCoin.sol\":8298:8304  amount */\n      dup2\n        /* \"contracts/StockCoin.sol\":8262:8273  _allowances */\n      0x06\n        /* \"contracts/StockCoin.sol\":8262:8282  _allowances[spender] */\n      0x00\n        /* \"contracts/StockCoin.sol\":8274:8281  spender */\n      dup7\n        /* \"contracts/StockCoin.sol\":8262:8282  _allowances[spender] */\n      0xffffffffffffffffffffffffffffffffffffffff\n      and\n      0xffffffffffffffffffffffffffffffffffffffff\n      and\n      dup2\n      mstore\n      0x20\n      add\n      swap1\n      dup2\n      mstore\n      0x20\n      add\n      0x00\n      keccak256\n        /* \"contracts/StockCoin.sol\":8262:8294  _allowances[spender][msg.sender] */\n      0x00\n        /* \"contracts/StockCoin.sol\":8283:8293  msg.sender */\n      caller\n        /* \"contracts/StockCoin.sol\":8262:8294  _allowances[spender][msg.sender] */\n      0xffffffffffffffffffffffffffffffffffffffff\n      and\n      0xffffffffffffffffffffffffffffffffffffffff\n      and\n      dup2\n      mstore\n      0x20\n      add\n      swap1\n      dup2\n      mstore\n      0x20\n      add\n      0x00\n      keccak256\n      sload\n        /* \"contracts/StockCoin.sol\":8262:8304  _allowances[spender][msg.sender] >= amount */\n      lt\n      iszero\n        /* \"contracts/StockCoin.sol\":8254:8362  require(_allowances[spender][msg.sender] >= amount, \"StockCoin: You cannot spend that much on this account\") */\n      tag_98\n      jumpi\n      mload(0x40)\n      0x08c379a000000000000000000000000000000000000000000000000000000000\n      dup2\n      mstore\n      0x04\n      add\n      tag_99\n      swap1\n      tag_100\n      jump\t// in\n    tag_99:\n      mload(0x40)\n      dup1\n      swap2\n      sub\n      swap1\n      revert\n    tag_98:\n        /* \"contracts/StockCoin.sol\":8399:8436  _transfer(spender, recipient, amount) */\n      tag_101\n        /* \"contracts/StockCoin.sol\":8409:8416  spender */\n      dup5\n        /* \"contracts/StockCoin.sol\":8418:8427  recipient */\n      dup5\n        /* \"contracts/StockCoin.sol\":8429:8435  amount */\n      dup5\n        /* \"contracts/StockCoin.sol\":8399:8408  _transfer */\n      tag_102\n        /* \"contracts/StockCoin.sol\":8399:8436  _transfer(spender, recipient, amount) */\n      jump\t// in\n    tag_101:\n        /* \"contracts/StockCoin.sol\":8508:8580  _approve(spender, msg.sender, _allowances[spender][msg.sender] - amount) */\n      tag_103\n        /* \"contracts/StockCoin.sol\":8517:8524  spender */\n      dup5\n        /* \"contracts/StockCoin.sol\":8526:8536  msg.sender */\n      caller\n        /* \"contracts/StockCoin.sol\":8573:8579  amount */\n      dup5\n        /* \"contracts/StockCoin.sol\":8538:8549  _allowances */\n      0x06\n        /* \"contracts/StockCoin.sol\":8538:8558  _allowances[spender] */\n      0x00\n        /* \"contracts/StockCoin.sol\":8550:8557  spender */\n      dup10\n        /* \"contracts/StockCoin.sol\":8538:8558  _allowances[spender] */\n      0xffffffffffffffffffffffffffffffffffffffff\n      and\n      0xffffffffffffffffffffffffffffffffffffffff\n      and\n      dup2\n      mstore\n      0x20\n      add\n      swap1\n      dup2\n      mstore\n      0x20\n      add\n      0x00\n      keccak256\n        /* \"contracts/StockCoin.sol\":8538:8570  _allowances[spender][msg.sender] */\n      0x00\n        /* \"contracts/StockCoin.sol\":8559:8569  msg.sender */\n      caller\n        /* \"contracts/StockCoin.sol\":8538:8570  _allowances[spender][msg.sender] */\n      0xffffffffffffffffffffffffffffffffffffffff\n      and\n      0xffffffffffffffffffffffffffffffffffffffff\n      and\n      dup2\n      mstore\n      0x20\n      add\n      swap1\n      dup2\n      mstore\n      0x20\n      add\n      0x00\n      keccak256\n      sload\n        /* \"contracts/StockCoin.sol\":8538:8579  _allowances[spender][msg.sender] - amount */\n      tag_104\n      swap2\n      swap1\n      tag_105\n      jump\t// in\n    tag_104:\n        /* \"contracts/StockCoin.sol\":8508:8516  _approve */\n      tag_95\n        /* \"contracts/StockCoin.sol\":8508:8580  _approve(spender, msg.sender, _allowances[spender][msg.sender] - amount) */\n      jump\t// in\n    tag_103:\n        /* \"contracts/StockCoin.sol\":8606:8610  true */\n      0x01\n        /* \"contracts/StockCoin.sol\":8599:8610  return true */\n      swap1\n      pop\n        /* \"contracts/StockCoin.sol\":8093:8618  function transferFrom (address spender, address recipient, uint256 amount) external returns (bool) {... */\n      swap4\n      swap3\n      pop\n      pop\n      pop\n      jump\t// out\n        /* \"contracts/StockCoin.sol\":1711:1795  function decimals () external view returns (uint8) {... */\n    tag_42:\n        /* \"contracts/StockCoin.sol\":1755:1760  uint8 */\n      0x00\n        /* \"contracts/StockCoin.sol\":1779:1788  _decimals */\n      0x02\n      0x00\n      swap1\n      sload\n      swap1\n      0x0100\n      exp\n      swap1\n      div\n      0xff\n      and\n        /* \"contracts/StockCoin.sol\":1772:1788  return _decimals */\n      swap1\n      pop\n        /* \"contracts/StockCoin.sol\":1711:1795  function decimals () external view returns (uint8) {... */\n      swap1\n      jump\t// out\n        /* \"contracts/StockCoin.sol\":8738:8838  function increaseAllowance(address spender, uint256 amount) public returns (bool) {... */\n    tag_47:\n        /* \"contracts/StockCoin.sol\":8814:8818  bool */\n      0x00\n        /* \"contracts/StockCoin.sol\":8738:8838  function increaseAllowance(address spender, uint256 amount) public returns (bool) {... */\n      swap3\n      swap2\n      pop\n      pop\n      jump\t// out\n        /* \"contracts/StockCoin.sol\":4611:4753  function mint (address account, uint256 amount) public onlyOwner returns (bool) {... */\n    tag_51:\n        /* \"contracts/StockCoin.sol\":4685:4689  bool */\n      0x00\n        /* \"contracts/Ownable.sol\":785:795  msg.sender */\n      caller\n        /* \"contracts/Ownable.sol\":775:795  _owner == msg.sender */\n      0xffffffffffffffffffffffffffffffffffffffff\n      and\n        /* \"contracts/Ownable.sol\":775:781  _owner */\n      0x00\n      dup1\n      sload\n      swap1\n      0x0100\n      exp\n      swap1\n      div\n      0xffffffffffffffffffffffffffffffffffffffff\n      and\n        /* \"contracts/Ownable.sol\":775:795  _owner == msg.sender */\n      0xffffffffffffffffffffffffffffffffffffffff\n      and\n      eq\n        /* \"contracts/Ownable.sol\":767:842  require(_owner == msg.sender, \"Ownable: only owner can call this function\") */\n      tag_109\n      jumpi\n      mload(0x40)\n      0x08c379a000000000000000000000000000000000000000000000000000000000\n      dup2\n      mstore\n      0x04\n      add\n      tag_110\n      swap1\n      tag_111\n      jump\t// in\n    tag_110:\n      mload(0x40)\n      dup1\n      swap2\n      sub\n      swap1\n      revert\n    tag_109:\n        /* \"contracts/StockCoin.sol\":4702:4724  _mint(account, amount) */\n      tag_113\n        /* \"contracts/StockCoin.sol\":4708:4715  account */\n      dup4\n        /* \"contracts/StockCoin.sol\":4717:4723  amount */\n      dup4\n        /* \"contracts/StockCoin.sol\":4702:4707  _mint */\n      tag_114\n        /* \"contracts/StockCoin.sol\":4702:4724  _mint(account, amount) */\n      jump\t// in\n    tag_113:\n        /* \"contracts/StockCoin.sol\":4741:4745  true */\n      0x01\n        /* \"contracts/StockCoin.sol\":4734:4745  return true */\n      swap1\n      pop\n        /* \"contracts/StockCoin.sol\":4611:4753  function mint (address account, uint256 amount) public onlyOwner returns (bool) {... */\n      swap3\n      swap2\n      pop\n      pop\n      jump\t// out\n        /* \"contracts/StockCoin.sol\":2391:2503  function balanceOf(address account) external view returns (uint256) {... */\n    tag_56:\n        /* \"contracts/StockCoin.sol\":2450:2457  uint256 */\n      0x00\n        /* \"contracts/StockCoin.sol\":2477:2486  _balances */\n      0x05\n        /* \"contracts/StockCoin.sol\":2477:2495  _balances[account] */\n      0x00\n        /* \"contracts/StockCoin.sol\":2487:2494  account */\n      dup4\n        /* \"contracts/StockCoin.sol\":2477:2495  _balances[account] */\n      0xffffffffffffffffffffffffffffffffffffffff\n      and\n      0xffffffffffffffffffffffffffffffffffffffff\n      and\n      dup2\n      mstore\n      0x20\n      add\n      swap1\n      dup2\n      mstore\n      0x20\n      add\n      0x00\n      keccak256\n      sload\n        /* \"contracts/StockCoin.sol\":2470:2495  return _balances[account] */\n      swap1\n      pop\n        /* \"contracts/StockCoin.sol\":2391:2503  function balanceOf(address account) external view returns (uint256) {... */\n      swap2\n      swap1\n      pop\n      jump\t// out\n        /* \"contracts/Ownable.sol\":1400:1539  function renounceOwnership() public onlyOwner {... */\n    tag_59:\n        /* \"contracts/Ownable.sol\":785:795  msg.sender */\n      caller\n        /* \"contracts/Ownable.sol\":775:795  _owner == msg.sender */\n      0xffffffffffffffffffffffffffffffffffffffff\n      and\n        /* \"contracts/Ownable.sol\":775:781  _owner */\n      0x00\n      dup1\n      sload\n      swap1\n      0x0100\n      exp\n      swap1\n      div\n      0xffffffffffffffffffffffffffffffffffffffff\n      and\n        /* \"contracts/Ownable.sol\":775:795  _owner == msg.sender */\n      0xffffffffffffffffffffffffffffffffffffffff\n      and\n      eq\n        /* \"contracts/Ownable.sol\":767:842  require(_owner == msg.sender, \"Ownable: only owner can call this function\") */\n      tag_117\n      jumpi\n      mload(0x40)\n      0x08c379a000000000000000000000000000000000000000000000000000000000\n      dup2\n      mstore\n      0x04\n      add\n      tag_118\n      swap1\n      tag_111\n      jump\t// in\n    tag_118:\n      mload(0x40)\n      dup1\n      swap2\n      sub\n      swap1\n      revert\n    tag_117:\n        /* \"contracts/Ownable.sol\":1499:1500  0 */\n      0x00\n        /* \"contracts/Ownable.sol\":1462:1502  OwnershipTransferred(_owner, address(0)) */\n      0xffffffffffffffffffffffffffffffffffffffff\n      and\n        /* \"contracts/Ownable.sol\":1483:1489  _owner */\n      0x00\n      dup1\n      sload\n      swap1\n      0x0100\n      exp\n      swap1\n      div\n      0xffffffffffffffffffffffffffffffffffffffff\n      and\n        /* \"contracts/Ownable.sol\":1462:1502  OwnershipTransferred(_owner, address(0)) */\n      0xffffffffffffffffffffffffffffffffffffffff\n      and\n      0x8be0079c531659141344cd1fd0a4f28419497f9722a3daafe3b4186f6b6457e0\n      mload(0x40)\n      mload(0x40)\n      dup1\n      swap2\n      sub\n      swap1\n      log3\n        /* \"contracts/Ownable.sol\":1529:1530  0 */\n      0x00\n        /* \"contracts/Ownable.sol\":1512:1518  _owner */\n      dup1\n      0x00\n        /* \"contracts/Ownable.sol\":1512:1531  _owner = address(0) */\n      0x0100\n      exp\n      dup2\n      sload\n      dup2\n      0xffffffffffffffffffffffffffffffffffffffff\n      mul\n      not\n      and\n      swap1\n      dup4\n      0xffffffffffffffffffffffffffffffffffffffff\n      and\n      mul\n      or\n      swap1\n      sstore\n      pop\n        /* \"contracts/Ownable.sol\":1400:1539  function renounceOwnership() public onlyOwner {... */\n      jump\t// out\n        /* \"contracts/StockCoin.sol\":6581:6666  function getOwner() external view returns (address) {... */\n    tag_61:\n        /* \"contracts/StockCoin.sol\":6624:6631  address */\n      0x00\n        /* \"contracts/StockCoin.sol\":6651:6658  owner() */\n      tag_121\n        /* \"contracts/StockCoin.sol\":6651:6656  owner */\n      tag_65\n        /* \"contracts/StockCoin.sol\":6651:6658  owner() */\n      jump\t// in\n    tag_121:\n        /* \"contracts/StockCoin.sol\":6644:6658  return owner() */\n      swap1\n      pop\n        /* \"contracts/StockCoin.sol\":6581:6666  function getOwner() external view returns (address) {... */\n      swap1\n      jump\t// out\n        /* \"contracts/Ownable.sol\":1075:1153  function owner() public view returns(address) {... */\n    tag_65:\n        /* \"contracts/Ownable.sol\":1112:1119  address */\n      0x00\n        /* \"contracts/Ownable.sol\":1139:1145  _owner */\n      dup1\n      0x00\n      swap1\n      sload\n      swap1\n      0x0100\n      exp\n      swap1\n      div\n      0xffffffffffffffffffffffffffffffffffffffff\n      and\n        /* \"contracts/Ownable.sol\":1132:1145  return _owner */\n      swap1\n      pop\n        /* \"contracts/Ownable.sol\":1075:1153  function owner() public view returns(address) {... */\n      swap1\n      jump\t// out\n        /* \"contracts/StockCoin.sol\":1869:1955  function symbol() external view returns (string memory){... */\n    tag_68:\n        /* \"contracts/StockCoin.sol\":1910:1923  string memory */\n      0x60\n        /* \"contracts/StockCoin.sol\":1941:1948  _symbol */\n      0x03\n        /* \"contracts/StockCoin.sol\":1934:1948  return _symbol */\n      dup1\n      sload\n      tag_124\n      swap1\n      tag_88\n      jump\t// in\n    tag_124:\n      dup1\n      0x1f\n      add\n      0x20\n      dup1\n      swap2\n      div\n      mul\n      0x20\n      add\n      mload(0x40)\n      swap1\n      dup2\n      add\n      0x40\n      mstore\n      dup1\n      swap3\n      swap2\n      swap1\n      dup2\n      dup2\n      mstore\n      0x20\n      add\n      dup3\n      dup1\n      sload\n      tag_125\n      swap1\n      tag_88\n      jump\t// in\n    tag_125:\n      dup1\n      iszero\n      tag_126\n      jumpi\n      dup1\n      0x1f\n      lt\n      tag_127\n      jumpi\n      0x0100\n      dup1\n      dup4\n      sload\n      div\n      mul\n      dup4\n      mstore\n      swap2\n      0x20\n      add\n      swap2\n      jump(tag_126)\n    tag_127:\n      dup3\n      add\n      swap2\n      swap1\n      0x00\n      mstore\n      keccak256(0x00, 0x20)\n      swap1\n    tag_128:\n      dup2\n      sload\n      dup2\n      mstore\n      swap1\n      0x01\n      add\n      swap1\n      0x20\n      add\n      dup1\n      dup4\n      gt\n      tag_128\n      jumpi\n      dup3\n      swap1\n      sub\n      0x1f\n      and\n      dup3\n      add\n      swap2\n    tag_126:\n      pop\n      pop\n      pop\n      pop\n      pop\n      swap1\n      pop\n        /* \"contracts/StockCoin.sol\":1869:1955  function symbol() external view returns (string memory){... */\n      swap1\n      jump\t// out\n        /* \"contracts/StockCoin.sol\":4284:4425  function burn (address account, uint256 amount) public onlyOwner returns(bool) {... */\n    tag_72:\n        /* \"contracts/StockCoin.sol\":4357:4361  bool */\n      0x00\n        /* \"contracts/Ownable.sol\":785:795  msg.sender */\n      caller\n        /* \"contracts/Ownable.sol\":775:795  _owner == msg.sender */\n      0xffffffffffffffffffffffffffffffffffffffff\n      and\n        /* \"contracts/Ownable.sol\":775:781  _owner */\n      0x00\n      dup1\n      sload\n      swap1\n      0x0100\n      exp\n      swap1\n      div\n      0xffffffffffffffffffffffffffffffffffffffff\n      and\n        /* \"contracts/Ownable.sol\":775:795  _owner == msg.sender */\n      0xffffffffffffffffffffffffffffffffffffffff\n      and\n      eq\n        /* \"contracts/Ownable.sol\":767:842  require(_owner == msg.sender, \"Ownable: only owner can call this function\") */\n      tag_130\n      jumpi\n      mload(0x40)\n      0x08c379a000000000000000000000000000000000000000000000000000000000\n      dup2\n      mstore\n      0x04\n      add\n      tag_131\n      swap1\n      tag_111\n      jump\t// in\n    tag_131:\n      mload(0x40)\n      dup1\n      swap2\n      sub\n      swap1\n      revert\n    tag_130:\n        /* \"contracts/StockCoin.sol\":4374:4396  _burn(account, amount) */\n      tag_133\n        /* \"contracts/StockCoin.sol\":4380:4387  account */\n      dup4\n        /* \"contracts/StockCoin.sol\":4389:4395  amount */\n      dup4\n        /* \"contracts/StockCoin.sol\":4374:4379  _burn */\n      tag_134\n        /* \"contracts/StockCoin.sol\":4374:4396  _burn(account, amount) */\n      jump\t// in\n    tag_133:\n        /* \"contracts/StockCoin.sol\":4413:4417  true */\n      0x01\n        /* \"contracts/StockCoin.sol\":4406:4417  return true */\n      swap1\n      pop\n        /* \"contracts/StockCoin.sol\":4284:4425  function burn (address account, uint256 amount) public onlyOwner returns(bool) {... */\n      swap3\n      swap2\n      pop\n      pop\n      jump\t// out\n        /* \"contracts/StockCoin.sol\":5076:5234  function transfer(address recipient, uint256 amount) external returns (bool) {... */\n    tag_76:\n        /* \"contracts/StockCoin.sol\":5147:5151  bool */\n      0x00\n        /* \"contracts/StockCoin.sol\":5164:5205  _transfer (msg.sender, recipient, amount) */\n      tag_136\n        /* \"contracts/StockCoin.sol\":5175:5185  msg.sender */\n      caller\n        /* \"contracts/StockCoin.sol\":5187:5196  recipient */\n      dup5\n        /* \"contracts/StockCoin.sol\":5198:5204  amount */\n      dup5\n        /* \"contracts/StockCoin.sol\":5164:5173  _transfer */\n      tag_102\n        /* \"contracts/StockCoin.sol\":5164:5205  _transfer (msg.sender, recipient, amount) */\n      jump\t// in\n    tag_136:\n        /* \"contracts/StockCoin.sol\":5222:5226  true */\n      0x01\n        /* \"contracts/StockCoin.sol\":5215:5226  return true */\n      swap1\n      pop\n        /* \"contracts/StockCoin.sol\":5076:5234  function transfer(address recipient, uint256 amount) external returns (bool) {... */\n      swap3\n      swap2\n      pop\n      pop\n      jump\t// out\n        /* \"contracts/StockCoin.sol\":6758:6895  function allowance (address owner, address spender) external view returns (uint256) {... */\n    tag_81:\n        /* \"contracts/StockCoin.sol\":6833:6840  uint256 */\n      0x00\n        /* \"contracts/StockCoin.sol\":6860:6871  _allowances */\n      0x06\n        /* \"contracts/StockCoin.sol\":6860:6878  _allowances[owner] */\n      0x00\n        /* \"contracts/StockCoin.sol\":6872:6877  owner */\n      dup5\n        /* \"contracts/StockCoin.sol\":6860:6878  _allowances[owner] */\n      0xffffffffffffffffffffffffffffffffffffffff\n      and\n      0xffffffffffffffffffffffffffffffffffffffff\n      and\n      dup2\n      mstore\n      0x20\n      add\n      swap1\n      dup2\n      mstore\n      0x20\n      add\n      0x00\n      keccak256\n        /* \"contracts/StockCoin.sol\":6860:6887  _allowances[owner][spender] */\n      0x00\n        /* \"contracts/StockCoin.sol\":6879:6886  spender */\n      dup4\n        /* \"contracts/StockCoin.sol\":6860:6887  _allowances[owner][spender] */\n      0xffffffffffffffffffffffffffffffffffffffff\n      and\n      0xffffffffffffffffffffffffffffffffffffffff\n      and\n      dup2\n      mstore\n      0x20\n      add\n      swap1\n      dup2\n      mstore\n      0x20\n      add\n      0x00\n      keccak256\n      sload\n        /* \"contracts/StockCoin.sol\":6853:6887  return _allowances[owner][spender] */\n      swap1\n      pop\n        /* \"contracts/StockCoin.sol\":6758:6895  function allowance (address owner, address spender) external view returns (uint256) {... */\n      swap3\n      swap2\n      pop\n      pop\n      jump\t// out\n        /* \"contracts/Ownable.sol\":1634:1744  function transferOwnership (address newOwner) public onlyOwner {... */\n    tag_85:\n        /* \"contracts/Ownable.sol\":785:795  msg.sender */\n      caller\n        /* \"contracts/Ownable.sol\":775:795  _owner == msg.sender */\n      0xffffffffffffffffffffffffffffffffffffffff\n      and\n        /* \"contracts/Ownable.sol\":775:781  _owner */\n      0x00\n      dup1\n      sload\n      swap1\n      0x0100\n      exp\n      swap1\n      div\n      0xffffffffffffffffffffffffffffffffffffffff\n      and\n        /* \"contracts/Ownable.sol\":775:795  _owner == msg.sender */\n      0xffffffffffffffffffffffffffffffffffffffff\n      and\n      eq\n        /* \"contracts/Ownable.sol\":767:842  require(_owner == msg.sender, \"Ownable: only owner can call this function\") */\n      tag_139\n      jumpi\n      mload(0x40)\n      0x08c379a000000000000000000000000000000000000000000000000000000000\n      dup2\n      mstore\n      0x04\n      add\n      tag_140\n      swap1\n      tag_111\n      jump\t// in\n    tag_140:\n      mload(0x40)\n      dup1\n      swap2\n      sub\n      swap1\n      revert\n    tag_139:\n        /* \"contracts/Ownable.sol\":1708:1736  _transferOwnership(newOwner) */\n      tag_142\n        /* \"contracts/Ownable.sol\":1727:1735  newOwner */\n      dup2\n        /* \"contracts/Ownable.sol\":1708:1726  _transferOwnership */\n      tag_143\n        /* \"contracts/Ownable.sol\":1708:1736  _transferOwnership(newOwner) */\n      jump\t// in\n    tag_142:\n        /* \"contracts/Ownable.sol\":1634:1744  function transferOwnership (address newOwner) public onlyOwner {... */\n      pop\n      jump\t// out\n        /* \"contracts/StockCoin.sol\":7381:7842  function _approve(address owner, address spender, uint256 amount) internal {... */\n    tag_95:\n        /* \"contracts/StockCoin.sol\":7492:7493  0 */\n      0x00\n        /* \"contracts/StockCoin.sol\":7475:7494  owner != address(0) */\n      0xffffffffffffffffffffffffffffffffffffffff\n      and\n        /* \"contracts/StockCoin.sol\":7475:7480  owner */\n      dup4\n        /* \"contracts/StockCoin.sol\":7475:7494  owner != address(0) */\n      0xffffffffffffffffffffffffffffffffffffffff\n      and\n      sub\n        /* \"contracts/StockCoin.sol\":7467:7550  require(owner != address(0), \"StockCoin: approve cannot be done from zero address\") */\n      tag_145\n      jumpi\n      mload(0x40)\n      0x08c379a000000000000000000000000000000000000000000000000000000000\n      dup2\n      mstore\n      0x04\n      add\n      tag_146\n      swap1\n      tag_147\n      jump\t// in\n    tag_146:\n      mload(0x40)\n      dup1\n      swap2\n      sub\n      swap1\n      revert\n    tag_145:\n        /* \"contracts/StockCoin.sol\":7587:7588  0 */\n      0x00\n        /* \"contracts/StockCoin.sol\":7568:7589  spender != address(0) */\n      0xffffffffffffffffffffffffffffffffffffffff\n      and\n        /* \"contracts/StockCoin.sol\":7568:7575  spender */\n      dup3\n        /* \"contracts/StockCoin.sol\":7568:7589  spender != address(0) */\n      0xffffffffffffffffffffffffffffffffffffffff\n      and\n      sub\n        /* \"contracts/StockCoin.sol\":7560:7638  require(spender != address(0), \"StockCoin: approve cannot be to zero address\") */\n      tag_148\n      jumpi\n      mload(0x40)\n      0x08c379a000000000000000000000000000000000000000000000000000000000\n      dup2\n      mstore\n      0x04\n      add\n      tag_149\n      swap1\n      tag_150\n      jump\t// in\n    tag_149:\n      mload(0x40)\n      dup1\n      swap2\n      sub\n      swap1\n      revert\n    tag_148:\n        /* \"contracts/StockCoin.sol\":7780:7786  amount */\n      dup1\n        /* \"contracts/StockCoin.sol\":7750:7761  _allowances */\n      0x06\n        /* \"contracts/StockCoin.sol\":7750:7768  _allowances[owner] */\n      0x00\n        /* \"contracts/StockCoin.sol\":7762:7767  owner */\n      dup6\n        /* \"contracts/StockCoin.sol\":7750:7768  _allowances[owner] */\n      0xffffffffffffffffffffffffffffffffffffffff\n      and\n      0xffffffffffffffffffffffffffffffffffffffff\n      and\n      dup2\n      mstore\n      0x20\n      add\n      swap1\n      dup2\n      mstore\n      0x20\n      add\n      0x00\n      keccak256\n        /* \"contracts/StockCoin.sol\":7750:7777  _allowances[owner][spender] */\n      0x00\n        /* \"contracts/StockCoin.sol\":7769:7776  spender */\n      dup5\n        /* \"contracts/StockCoin.sol\":7750:7777  _allowances[owner][spender] */\n      0xffffffffffffffffffffffffffffffffffffffff\n      and\n      0xffffffffffffffffffffffffffffffffffffffff\n      and\n      dup2\n      mstore\n      0x20\n      add\n      swap1\n      dup2\n      mstore\n      0x20\n      add\n      0x00\n      keccak256\n        /* \"contracts/StockCoin.sol\":7750:7786  _allowances[owner][spender] = amount */\n      dup2\n      swap1\n      sstore\n      pop\n        /* \"contracts/StockCoin.sol\":7818:7825  spender */\n      dup2\n        /* \"contracts/StockCoin.sol\":7802:7834  Approval(owner, spender, amount) */\n      0xffffffffffffffffffffffffffffffffffffffff\n      and\n        /* \"contracts/StockCoin.sol\":7811:7816  owner */\n      dup4\n        /* \"contracts/StockCoin.sol\":7802:7834  Approval(owner, spender, amount) */\n      0xffffffffffffffffffffffffffffffffffffffff\n      and\n      0x8c5be1e5ebec7d5bd14f71427d1e84f3dd0314c0f7b2291e5b200ac8c7c3b925\n        /* \"contracts/StockCoin.sol\":7827:7833  amount */\n      dup4\n        /* \"contracts/StockCoin.sol\":7802:7834  Approval(owner, spender, amount) */\n      mload(0x40)\n      tag_151\n      swap2\n      swap1\n      tag_35\n      jump\t// in\n    tag_151:\n      mload(0x40)\n      dup1\n      swap2\n      sub\n      swap1\n      log3\n        /* \"contracts/StockCoin.sol\":7381:7842  function _approve(address owner, address spender, uint256 amount) internal {... */\n      pop\n      pop\n      pop\n      jump\t// out\n        /* \"contracts/StockCoin.sol\":5491:6015  function _transfer(address sender, address recipient, uint256 amount) internal {... */\n    tag_102:\n        /* \"contracts/StockCoin.sol\":5607:5608  0 */\n      0x00\n        /* \"contracts/StockCoin.sol\":5589:5609  sender != address(0) */\n      0xffffffffffffffffffffffffffffffffffffffff\n      and\n        /* \"contracts/StockCoin.sol\":5589:5595  sender */\n      dup4\n        /* \"contracts/StockCoin.sol\":5589:5609  sender != address(0) */\n      0xffffffffffffffffffffffffffffffffffffffff\n      and\n      sub\n        /* \"contracts/StockCoin.sol\":5581:5651  require(sender != address(0), \"StockCoin: transfer from zero address\") */\n      tag_153\n      jumpi\n      mload(0x40)\n      0x08c379a000000000000000000000000000000000000000000000000000000000\n      dup2\n      mstore\n      0x04\n      add\n      tag_154\n      swap1\n      tag_155\n      jump\t// in\n    tag_154:\n      mload(0x40)\n      dup1\n      swap2\n      sub\n      swap1\n      revert\n    tag_153:\n        /* \"contracts/StockCoin.sol\":5690:5691  0 */\n      0x00\n        /* \"contracts/StockCoin.sol\":5669:5692  recipient != address(0) */\n      0xffffffffffffffffffffffffffffffffffffffff\n      and\n        /* \"contracts/StockCoin.sol\":5669:5678  recipient */\n      dup3\n        /* \"contracts/StockCoin.sol\":5669:5692  recipient != address(0) */\n      0xffffffffffffffffffffffffffffffffffffffff\n      and\n      sub\n        /* \"contracts/StockCoin.sol\":5661:5734  require(recipient != address(0), \"StockCoin: transfer from zero address\") */\n      tag_156\n      jumpi\n      mload(0x40)\n      0x08c379a000000000000000000000000000000000000000000000000000000000\n      dup2\n      mstore\n      0x04\n      add\n      tag_157\n      swap1\n      tag_155\n      jump\t// in\n    tag_157:\n      mload(0x40)\n      dup1\n      swap2\n      sub\n      swap1\n      revert\n    tag_156:\n        /* \"contracts/StockCoin.sol\":5773:5779  amount */\n      dup1\n        /* \"contracts/StockCoin.sol\":5752:5761  _balances */\n      0x05\n        /* \"contracts/StockCoin.sol\":5752:5769  _balances[sender] */\n      0x00\n        /* \"contracts/StockCoin.sol\":5762:5768  sender */\n      dup6\n        /* \"contracts/StockCoin.sol\":5752:5769  _balances[sender] */\n      0xffffffffffffffffffffffffffffffffffffffff\n      and\n      0xffffffffffffffffffffffffffffffffffffffff\n      and\n      dup2\n      mstore\n      0x20\n      add\n      swap1\n      dup2\n      mstore\n      0x20\n      add\n      0x00\n      keccak256\n      sload\n        /* \"contracts/StockCoin.sol\":5752:5779  _balances[sender] >= amount */\n      lt\n      iszero\n        /* \"contracts/StockCoin.sol\":5744:5837  require(_balances[sender] >= amount, \"StockCoin: cant transfer more than your account holds\") */\n      tag_158\n      jumpi\n      mload(0x40)\n      0x08c379a000000000000000000000000000000000000000000000000000000000\n      dup2\n      mstore\n      0x04\n      add\n      tag_159\n      swap1\n      tag_160\n      jump\t// in\n    tag_159:\n      mload(0x40)\n      dup1\n      swap2\n      sub\n      swap1\n      revert\n    tag_158:\n        /* \"contracts/StockCoin.sol\":5888:5894  amount */\n      dup1\n        /* \"contracts/StockCoin.sol\":5868:5877  _balances */\n      0x05\n        /* \"contracts/StockCoin.sol\":5868:5885  _balances[sender] */\n      0x00\n        /* \"contracts/StockCoin.sol\":5878:5884  sender */\n      dup6\n        /* \"contracts/StockCoin.sol\":5868:5885  _balances[sender] */\n      0xffffffffffffffffffffffffffffffffffffffff\n      and\n      0xffffffffffffffffffffffffffffffffffffffff\n      and\n      dup2\n      mstore\n      0x20\n      add\n      swap1\n      dup2\n      mstore\n      0x20\n      add\n      0x00\n      keccak256\n      sload\n        /* \"contracts/StockCoin.sol\":5868:5894  _balances[sender] - amount */\n      tag_161\n      swap2\n      swap1\n      tag_105\n      jump\t// in\n    tag_161:\n        /* \"contracts/StockCoin.sol\":5848:5857  _balances */\n      0x05\n        /* \"contracts/StockCoin.sol\":5848:5865  _balances[sender] */\n      0x00\n        /* \"contracts/StockCoin.sol\":5858:5864  sender */\n      dup6\n        /* \"contracts/StockCoin.sol\":5848:5865  _balances[sender] */\n      0xffffffffffffffffffffffffffffffffffffffff\n      and\n      0xffffffffffffffffffffffffffffffffffffffff\n      and\n      dup2\n      mstore\n      0x20\n      add\n      swap1\n      dup2\n      mstore\n      0x20\n      add\n      0x00\n      keccak256\n        /* \"contracts/StockCoin.sol\":5848:5894  _balances[sender] = _balances[sender] - amount */\n      dup2\n      swap1\n      sstore\n      pop\n        /* \"contracts/StockCoin.sol\":5950:5956  amount */\n      dup1\n        /* \"contracts/StockCoin.sol\":5927:5936  _balances */\n      0x05\n        /* \"contracts/StockCoin.sol\":5927:5947  _balances[recipient] */\n      0x00\n        /* \"contracts/StockCoin.sol\":5937:5946  recipient */\n      dup5\n        /* \"contracts/StockCoin.sol\":5927:5947  _balances[recipient] */\n      0xffffffffffffffffffffffffffffffffffffffff\n      and\n      0xffffffffffffffffffffffffffffffffffffffff\n      and\n      dup2\n      mstore\n      0x20\n      add\n      swap1\n      dup2\n      mstore\n      0x20\n      add\n      0x00\n      keccak256\n      sload\n        /* \"contracts/StockCoin.sol\":5927:5956  _balances[recipient] + amount */\n      tag_162\n      swap2\n      swap1\n      tag_163\n      jump\t// in\n    tag_162:\n        /* \"contracts/StockCoin.sol\":5904:5913  _balances */\n      0x05\n        /* \"contracts/StockCoin.sol\":5904:5924  _balances[recipient] */\n      0x00\n        /* \"contracts/StockCoin.sol\":5914:5923  recipient */\n      dup5\n        /* \"contracts/StockCoin.sol\":5904:5924  _balances[recipient] */\n      0xffffffffffffffffffffffffffffffffffffffff\n      and\n      0xffffffffffffffffffffffffffffffffffffffff\n      and\n      dup2\n      mstore\n      0x20\n      add\n      swap1\n      dup2\n      mstore\n      0x20\n      add\n      0x00\n      keccak256\n        /* \"contracts/StockCoin.sol\":5904:5956  _balances[recipient] = _balances[recipient] + amount */\n      dup2\n      swap1\n      sstore\n      pop\n        /* \"contracts/StockCoin.sol\":5989:5998  recipient */\n      dup2\n        /* \"contracts/StockCoin.sol\":5972:6007  Transfer(sender, recipient, amount) */\n      0xffffffffffffffffffffffffffffffffffffffff\n      and\n        /* \"contracts/StockCoin.sol\":5981:5987  sender */\n      dup4\n        /* \"contracts/StockCoin.sol\":5972:6007  Transfer(sender, recipient, amount) */\n      0xffffffffffffffffffffffffffffffffffffffff\n      and\n      0xddf252ad1be2c89b69c2b068fc378daa952ba7f163c4a11628f55a4df523b3ef\n        /* \"contracts/StockCoin.sol\":6000:6006  amount */\n      dup4\n        /* \"contracts/StockCoin.sol\":5972:6007  Transfer(sender, recipient, amount) */\n      mload(0x40)\n      tag_164\n      swap2\n      swap1\n      tag_35\n      jump\t// in\n    tag_164:\n      mload(0x40)\n      dup1\n      swap2\n      sub\n      swap1\n      log3\n        /* \"contracts/StockCoin.sol\":5491:6015  function _transfer(address sender, address recipient, uint256 amount) internal {... */\n      pop\n      pop\n      pop\n      jump\t// out\n        /* \"contracts/StockCoin.sol\":2804:3260  function _mint (address account, uint256 amount) internal {... */\n    tag_114:\n        /* \"contracts/StockCoin.sol\":2900:2901  0 */\n      0x00\n        /* \"contracts/StockCoin.sol\":2881:2902  account != address(0) */\n      0xffffffffffffffffffffffffffffffffffffffff\n      and\n        /* \"contracts/StockCoin.sol\":2881:2888  account */\n      dup3\n        /* \"contracts/StockCoin.sol\":2881:2902  account != address(0) */\n      0xffffffffffffffffffffffffffffffffffffffff\n      and\n      sub\n        /* \"contracts/StockCoin.sol\":2873:2945  require(account != address(0), \"StockCoin: cannot mint to zero address\") */\n      tag_166\n      jumpi\n      mload(0x40)\n      0x08c379a000000000000000000000000000000000000000000000000000000000\n      dup2\n      mstore\n      0x04\n      add\n      tag_167\n      swap1\n      tag_168\n      jump\t// in\n    tag_167:\n      mload(0x40)\n      dup1\n      swap2\n      sub\n      swap1\n      revert\n    tag_166:\n        /* \"contracts/StockCoin.sol\":3019:3025  amount */\n      dup1\n        /* \"contracts/StockCoin.sol\":3004:3016  _totalSupply */\n      sload(0x01)\n        /* \"contracts/StockCoin.sol\":3004:3025  _totalSupply + amount */\n      tag_169\n      swap2\n      swap1\n      tag_163\n      jump\t// in\n    tag_169:\n        /* \"contracts/StockCoin.sol\":2989:3001  _totalSupply */\n      0x01\n        /* \"contracts/StockCoin.sol\":2989:3025  _totalSupply = _totalSupply + amount */\n      dup2\n      swap1\n      sstore\n      pop\n        /* \"contracts/StockCoin.sol\":3149:3155  amount */\n      dup1\n        /* \"contracts/StockCoin.sol\":3128:3137  _balances */\n      0x05\n        /* \"contracts/StockCoin.sol\":3128:3146  _balances[account] */\n      0x00\n        /* \"contracts/StockCoin.sol\":3138:3145  account */\n      dup5\n        /* \"contracts/StockCoin.sol\":3128:3146  _balances[account] */\n      0xffffffffffffffffffffffffffffffffffffffff\n      and\n      0xffffffffffffffffffffffffffffffffffffffff\n      and\n      dup2\n      mstore\n      0x20\n      add\n      swap1\n      dup2\n      mstore\n      0x20\n      add\n      0x00\n      keccak256\n      sload\n        /* \"contracts/StockCoin.sol\":3128:3155  _balances[account] + amount */\n      tag_170\n      swap2\n      swap1\n      tag_163\n      jump\t// in\n    tag_170:\n        /* \"contracts/StockCoin.sol\":3107:3116  _balances */\n      0x05\n        /* \"contracts/StockCoin.sol\":3107:3125  _balances[account] */\n      0x00\n        /* \"contracts/StockCoin.sol\":3117:3124  account */\n      dup5\n        /* \"contracts/StockCoin.sol\":3107:3125  _balances[account] */\n      0xffffffffffffffffffffffffffffffffffffffff\n      and\n      0xffffffffffffffffffffffffffffffffffffffff\n      and\n      dup2\n      mstore\n      0x20\n      add\n      swap1\n      dup2\n      mstore\n      0x20\n      add\n      0x00\n      keccak256\n        /* \"contracts/StockCoin.sol\":3107:3155  _balances[account] = _balances[account] + amount */\n      dup2\n      swap1\n      sstore\n      pop\n        /* \"contracts/StockCoin.sol\":3236:3243  account */\n      dup2\n        /* \"contracts/StockCoin.sol\":3215:3252  Transfer(address(0), account, amount) */\n      0xffffffffffffffffffffffffffffffffffffffff\n      and\n        /* \"contracts/StockCoin.sol\":3232:3233  0 */\n      0x00\n        /* \"contracts/StockCoin.sol\":3215:3252  Transfer(address(0), account, amount) */\n      0xffffffffffffffffffffffffffffffffffffffff\n      and\n      0xddf252ad1be2c89b69c2b068fc378daa952ba7f163c4a11628f55a4df523b3ef\n        /* \"contracts/StockCoin.sol\":3245:3251  amount */\n      dup4\n        /* \"contracts/StockCoin.sol\":3215:3252  Transfer(address(0), account, amount) */\n      mload(0x40)\n      tag_171\n      swap2\n      swap1\n      tag_35\n      jump\t// in\n    tag_171:\n      mload(0x40)\n      dup1\n      swap2\n      sub\n      swap1\n      log3\n        /* \"contracts/StockCoin.sol\":2804:3260  function _mint (address account, uint256 amount) internal {... */\n      pop\n      pop\n      jump\t// out\n        /* \"contracts/StockCoin.sol\":3560:4112  function _burn (address account, uint256 amount) internal {... */\n    tag_134:\n        /* \"contracts/StockCoin.sol\":3657:3658  0 */\n      0x00\n        /* \"contracts/StockCoin.sol\":3638:3659  account != address(0) */\n      0xffffffffffffffffffffffffffffffffffffffff\n      and\n        /* \"contracts/StockCoin.sol\":3638:3645  account */\n      dup3\n        /* \"contracts/StockCoin.sol\":3638:3659  account != address(0) */\n      0xffffffffffffffffffffffffffffffffffffffff\n      and\n      sub\n        /* \"contracts/StockCoin.sol\":3629:3704  require (account != address(0), \"StockCoin: cannot burn from zero address\") */\n      tag_173\n      jumpi\n      mload(0x40)\n      0x08c379a000000000000000000000000000000000000000000000000000000000\n      dup2\n      mstore\n      0x04\n      add\n      tag_174\n      swap1\n      tag_175\n      jump\t// in\n    tag_174:\n      mload(0x40)\n      dup1\n      swap2\n      sub\n      swap1\n      revert\n    tag_173:\n        /* \"contracts/StockCoin.sol\":3745:3751  amount */\n      dup1\n        /* \"contracts/StockCoin.sol\":3723:3732  _balances */\n      0x05\n        /* \"contracts/StockCoin.sol\":3723:3741  _balances[account] */\n      0x00\n        /* \"contracts/StockCoin.sol\":3733:3740  account */\n      dup5\n        /* \"contracts/StockCoin.sol\":3723:3741  _balances[account] */\n      0xffffffffffffffffffffffffffffffffffffffff\n      and\n      0xffffffffffffffffffffffffffffffffffffffff\n      and\n      dup2\n      mstore\n      0x20\n      add\n      swap1\n      dup2\n      mstore\n      0x20\n      add\n      0x00\n      keccak256\n      sload\n        /* \"contracts/StockCoin.sol\":3723:3751  _balances[account] >= amount */\n      lt\n      iszero\n        /* \"contracts/StockCoin.sol\":3714:3805  require (_balances[account] >= amount, \"StockCoin: cannot burn more than the account owns\") */\n      tag_176\n      jumpi\n      mload(0x40)\n      0x08c379a000000000000000000000000000000000000000000000000000000000\n      dup2\n      mstore\n      0x04\n      add\n      tag_177\n      swap1\n      tag_178\n      jump\t// in\n    tag_177:\n      mload(0x40)\n      dup1\n      swap2\n      sub\n      swap1\n      revert\n    tag_176:\n        /* \"contracts/StockCoin.sol\":3912:3918  amount */\n      dup1\n        /* \"contracts/StockCoin.sol\":3891:3900  _balances */\n      0x05\n        /* \"contracts/StockCoin.sol\":3891:3909  _balances[account] */\n      0x00\n        /* \"contracts/StockCoin.sol\":3901:3908  account */\n      dup5\n        /* \"contracts/StockCoin.sol\":3891:3909  _balances[account] */\n      0xffffffffffffffffffffffffffffffffffffffff\n      and\n      0xffffffffffffffffffffffffffffffffffffffff\n      and\n      dup2\n      mstore\n      0x20\n      add\n      swap1\n      dup2\n      mstore\n      0x20\n      add\n      0x00\n      keccak256\n      sload\n        /* \"contracts/StockCoin.sol\":3891:3918  _balances[account] - amount */\n      tag_179\n      swap2\n      swap1\n      tag_105\n      jump\t// in\n    tag_179:\n        /* \"contracts/StockCoin.sol\":3870:3879  _balances */\n      0x05\n        /* \"contracts/StockCoin.sol\":3870:3888  _balances[account] */\n      0x00\n        /* \"contracts/StockCoin.sol\":3880:3887  account */\n      dup5\n        /* \"contracts/StockCoin.sol\":3870:3888  _balances[account] */\n      0xffffffffffffffffffffffffffffffffffffffff\n      and\n      0xffffffffffffffffffffffffffffffffffffffff\n      and\n      dup2\n      mstore\n      0x20\n      add\n      swap1\n      dup2\n      mstore\n      0x20\n      add\n      0x00\n      keccak256\n        /* \"contracts/StockCoin.sol\":3870:3918  _balances[account] = _balances[account] - amount */\n      dup2\n      swap1\n      sstore\n      pop\n        /* \"contracts/StockCoin.sol\":3991:3997  amount */\n      dup1\n        /* \"contracts/StockCoin.sol\":3976:3988  _totalSupply */\n      sload(0x01)\n        /* \"contracts/StockCoin.sol\":3976:3997  _totalSupply - amount */\n      tag_180\n      swap2\n      swap1\n      tag_105\n      jump\t// in\n    tag_180:\n        /* \"contracts/StockCoin.sol\":3961:3973  _totalSupply */\n      0x01\n        /* \"contracts/StockCoin.sol\":3961:3997  _totalSupply = _totalSupply - amount */\n      dup2\n      swap1\n      sstore\n      pop\n        /* \"contracts/StockCoin.sol\":4093:4094  0 */\n      0x00\n        /* \"contracts/StockCoin.sol\":4066:4104  Transfer (account, address(0), amount) */\n      0xffffffffffffffffffffffffffffffffffffffff\n      and\n        /* \"contracts/StockCoin.sol\":4076:4083  account */\n      dup3\n        /* \"contracts/StockCoin.sol\":4066:4104  Transfer (account, address(0), amount) */\n      0xffffffffffffffffffffffffffffffffffffffff\n      and\n      0xddf252ad1be2c89b69c2b068fc378daa952ba7f163c4a11628f55a4df523b3ef\n        /* \"contracts/StockCoin.sol\":4097:4103  amount */\n      dup4\n        /* \"contracts/StockCoin.sol\":4066:4104  Transfer (account, address(0), amount) */\n      mload(0x40)\n      tag_181\n      swap2\n      swap1\n      tag_35\n      jump\t// in\n    tag_181:\n      mload(0x40)\n      dup1\n      swap2\n      sub\n      swap1\n      log3\n        /* \"contracts/StockCoin.sol\":3560:4112  function _burn (address account, uint256 amount) internal {... */\n      pop\n      pop\n      jump\t// out\n        /* \"contracts/Ownable.sol\":1840:2066  function _transferOwnership (address newOwner) internal {... */\n    tag_143:\n        /* \"contracts/Ownable.sol\":1936:1937  0 */\n      0x00\n        /* \"contracts/Ownable.sol\":1916:1938  newOwner != address(0) */\n      0xffffffffffffffffffffffffffffffffffffffff\n      and\n        /* \"contracts/Ownable.sol\":1916:1924  newOwner */\n      dup2\n        /* \"contracts/Ownable.sol\":1916:1938  newOwner != address(0) */\n      0xffffffffffffffffffffffffffffffffffffffff\n      and\n      sub\n        /* \"contracts/Ownable.sol\":1907:1977  require (newOwner != address(0), \"Ownable: new owner is zero address\") */\n      tag_183\n      jumpi\n      mload(0x40)\n      0x08c379a000000000000000000000000000000000000000000000000000000000\n      dup2\n      mstore\n      0x04\n      add\n      tag_184\n      swap1\n      tag_185\n      jump\t// in\n    tag_184:\n      mload(0x40)\n      dup1\n      swap2\n      sub\n      swap1\n      revert\n    tag_183:\n        /* \"contracts/Ownable.sol\":2022:2030  newOwner */\n      dup1\n        /* \"contracts/Ownable.sol\":1992:2031  OwnershipTransferred (_owner, newOwner) */\n      0xffffffffffffffffffffffffffffffffffffffff\n      and\n        /* \"contracts/Ownable.sol\":2014:2020  _owner */\n      0x00\n      dup1\n      sload\n      swap1\n      0x0100\n      exp\n      swap1\n      div\n      0xffffffffffffffffffffffffffffffffffffffff\n      and\n        /* \"contracts/Ownable.sol\":1992:2031  OwnershipTransferred (_owner, newOwner) */\n      0xffffffffffffffffffffffffffffffffffffffff\n      and\n      0x8be0079c531659141344cd1fd0a4f28419497f9722a3daafe3b4186f6b6457e0\n      mload(0x40)\n      mload(0x40)\n      dup1\n      swap2\n      sub\n      swap1\n      log3\n        /* \"contracts/Ownable.sol\":2050:2058  newOwner */\n      dup1\n        /* \"contracts/Ownable.sol\":2041:2047  _owner */\n      0x00\n      dup1\n        /* \"contracts/Ownable.sol\":2041:2058  _owner = newOwner */\n      0x0100\n      exp\n      dup2\n      sload\n      dup2\n      0xffffffffffffffffffffffffffffffffffffffff\n      mul\n      not\n      and\n      swap1\n      dup4\n      0xffffffffffffffffffffffffffffffffffffffff\n      and\n      mul\n      or\n      swap1\n      sstore\n      pop\n        /* \"contracts/Ownable.sol\":1840:2066  function _transferOwnership (address newOwner) internal {... */\n      pop\n      jump\t// out\n        /* \"#utility.yul\":7:106   */\n    tag_186:\n        /* \"#utility.yul\":59:65   */\n      0x00\n        /* \"#utility.yul\":93:98   */\n      dup2\n        /* \"#utility.yul\":87:99   */\n      mload\n        /* \"#utility.yul\":77:99   */\n      swap1\n      pop\n        /* \"#utility.yul\":7:106   */\n      swap2\n      swap1\n      pop\n      jump\t// out\n        /* \"#utility.yul\":112:281   */\n    tag_187:\n        /* \"#utility.yul\":196:207   */\n      0x00\n        /* \"#utility.yul\":230:236   */\n      dup3\n        /* \"#utility.yul\":225:228   */\n      dup3\n        /* \"#utility.yul\":218:237   */\n      mstore\n        /* \"#utility.yul\":270:274   */\n      0x20\n        /* \"#utility.yul\":265:268   */\n      dup3\n        /* \"#utility.yul\":261:275   */\n      add\n        /* \"#utility.yul\":246:275   */\n      swap1\n      pop\n        /* \"#utility.yul\":112:281   */\n      swap3\n      swap2\n      pop\n      pop\n      jump\t// out\n        /* \"#utility.yul\":287:594   */\n    tag_188:\n        /* \"#utility.yul\":355:356   */\n      0x00\n        /* \"#utility.yul\":365:478   */\n    tag_233:\n        /* \"#utility.yul\":379:385   */\n      dup4\n        /* \"#utility.yul\":376:377   */\n      dup2\n        /* \"#utility.yul\":373:386   */\n      lt\n        /* \"#utility.yul\":365:478   */\n      iszero\n      tag_235\n      jumpi\n        /* \"#utility.yul\":464:465   */\n      dup1\n        /* \"#utility.yul\":459:462   */\n      dup3\n        /* \"#utility.yul\":455:466   */\n      add\n        /* \"#utility.yul\":449:467   */\n      mload\n        /* \"#utility.yul\":445:446   */\n      dup2\n        /* \"#utility.yul\":440:443   */\n      dup5\n        /* \"#utility.yul\":436:447   */\n      add\n        /* \"#utility.yul\":429:468   */\n      mstore\n        /* \"#utility.yul\":401:403   */\n      0x20\n        /* \"#utility.yul\":398:399   */\n      dup2\n        /* \"#utility.yul\":394:404   */\n      add\n        /* \"#utility.yul\":389:404   */\n      swap1\n      pop\n        /* \"#utility.yul\":365:478   */\n      jump(tag_233)\n    tag_235:\n        /* \"#utility.yul\":496:502   */\n      dup4\n        /* \"#utility.yul\":493:494   */\n      dup2\n        /* \"#utility.yul\":490:503   */\n      gt\n        /* \"#utility.yul\":487:588   */\n      iszero\n      tag_236\n      jumpi\n        /* \"#utility.yul\":576:577   */\n      0x00\n        /* \"#utility.yul\":567:573   */\n      dup5\n        /* \"#utility.yul\":562:565   */\n      dup5\n        /* \"#utility.yul\":558:574   */\n      add\n        /* \"#utility.yul\":551:578   */\n      mstore\n        /* \"#utility.yul\":487:588   */\n    tag_236:\n        /* \"#utility.yul\":336:594   */\n      pop\n        /* \"#utility.yul\":287:594   */\n      pop\n      pop\n      pop\n      jump\t// out\n        /* \"#utility.yul\":600:702   */\n    tag_189:\n        /* \"#utility.yul\":641:647   */\n      0x00\n        /* \"#utility.yul\":692:694   */\n      0x1f\n        /* \"#utility.yul\":688:695   */\n      not\n        /* \"#utility.yul\":683:685   */\n      0x1f\n        /* \"#utility.yul\":676:681   */\n      dup4\n        /* \"#utility.yul\":672:686   */\n      add\n        /* \"#utility.yul\":668:696   */\n      and\n        /* \"#utility.yul\":658:696   */\n      swap1\n      pop\n        /* \"#utility.yul\":600:702   */\n      swap2\n      swap1\n      pop\n      jump\t// out\n        /* \"#utility.yul\":708:1072   */\n    tag_190:\n        /* \"#utility.yul\":796:799   */\n      0x00\n        /* \"#utility.yul\":824:863   */\n      tag_239\n        /* \"#utility.yul\":857:862   */\n      dup3\n        /* \"#utility.yul\":824:863   */\n      tag_186\n      jump\t// in\n    tag_239:\n        /* \"#utility.yul\":879:950   */\n      tag_240\n        /* \"#utility.yul\":943:949   */\n      dup2\n        /* \"#utility.yul\":938:941   */\n      dup6\n        /* \"#utility.yul\":879:950   */\n      tag_187\n      jump\t// in\n    tag_240:\n        /* \"#utility.yul\":872:950   */\n      swap4\n      pop\n        /* \"#utility.yul\":959:1011   */\n      tag_241\n        /* \"#utility.yul\":1004:1010   */\n      dup2\n        /* \"#utility.yul\":999:1002   */\n      dup6\n        /* \"#utility.yul\":992:996   */\n      0x20\n        /* \"#utility.yul\":985:990   */\n      dup7\n        /* \"#utility.yul\":981:997   */\n      add\n        /* \"#utility.yul\":959:1011   */\n      tag_188\n      jump\t// in\n    tag_241:\n        /* \"#utility.yul\":1036:1065   */\n      tag_242\n        /* \"#utility.yul\":1058:1064   */\n      dup2\n        /* \"#utility.yul\":1036:1065   */\n      tag_189\n      jump\t// in\n    tag_242:\n        /* \"#utility.yul\":1031:1034   */\n      dup5\n        /* \"#utility.yul\":1027:1066   */\n      add\n        /* \"#utility.yul\":1020:1066   */\n      swap2\n      pop\n        /* \"#utility.yul\":800:1072   */\n      pop\n        /* \"#utility.yul\":708:1072   */\n      swap3\n      swap2\n      pop\n      pop\n      jump\t// out\n        /* \"#utility.yul\":1078:1391   */\n    tag_25:\n        /* \"#utility.yul\":1191:1195   */\n      0x00\n        /* \"#utility.yul\":1229:1231   */\n      0x20\n        /* \"#utility.yul\":1218:1227   */\n      dup3\n        /* \"#utility.yul\":1214:1232   */\n      add\n        /* \"#utility.yul\":1206:1232   */\n      swap1\n      pop\n        /* \"#utility.yul\":1278:1287   */\n      dup2\n        /* \"#utility.yul\":1272:1276   */\n      dup2\n        /* \"#utility.yul\":1268:1288   */\n      sub\n        /* \"#utility.yul\":1264:1265   */\n      0x00\n        /* \"#utility.yul\":1253:1262   */\n      dup4\n        /* \"#utility.yul\":1249:1266   */\n      add\n        /* \"#utility.yul\":1242:1289   */\n      mstore\n        /* \"#utility.yul\":1306:1384   */\n      tag_244\n        /* \"#utility.yul\":1379:1383   */\n      dup2\n        /* \"#utility.yul\":1370:1376   */\n      dup5\n        /* \"#utility.yul\":1306:1384   */\n      tag_190\n      jump\t// in\n    tag_244:\n        /* \"#utility.yul\":1298:1384   */\n      swap1\n      pop\n        /* \"#utility.yul\":1078:1391   */\n      swap3\n      swap2\n      pop\n      pop\n      jump\t// out\n        /* \"#utility.yul\":1478:1595   */\n    tag_192:\n        /* \"#utility.yul\":1587:1588   */\n      0x00\n        /* \"#utility.yul\":1584:1585   */\n      dup1\n        /* \"#utility.yul\":1577:1589   */\n      revert\n        /* \"#utility.yul\":1724:1850   */\n    tag_194:\n        /* \"#utility.yul\":1761:1768   */\n      0x00\n        /* \"#utility.yul\":1801:1843   */\n      0xffffffffffffffffffffffffffffffffffffffff\n        /* \"#utility.yul\":1794:1799   */\n      dup3\n        /* \"#utility.yul\":1790:1844   */\n      and\n        /* \"#utility.yul\":1779:1844   */\n      swap1\n      pop\n        /* \"#utility.yul\":1724:1850   */\n      swap2\n      swap1\n      pop\n      jump\t// out\n        /* \"#utility.yul\":1856:1952   */\n    tag_195:\n        /* \"#utility.yul\":1893:1900   */\n      0x00\n        /* \"#utility.yul\":1922:1946   */\n      tag_250\n        /* \"#utility.yul\":1940:1945   */\n      dup3\n        /* \"#utility.yul\":1922:1946   */\n      tag_194\n      jump\t// in\n    tag_250:\n        /* \"#utility.yul\":1911:1946   */\n      swap1\n      pop\n        /* \"#utility.yul\":1856:1952   */\n      swap2\n      swap1\n      pop\n      jump\t// out\n        /* \"#utility.yul\":1958:2080   */\n    tag_196:\n        /* \"#utility.yul\":2031:2055   */\n      tag_252\n        /* \"#utility.yul\":2049:2054   */\n      dup2\n        /* \"#utility.yul\":2031:2055   */\n      tag_195\n      jump\t// in\n    tag_252:\n        /* \"#utility.yul\":2024:2029   */\n      dup2\n        /* \"#utility.yul\":2021:2056   */\n      eq\n        /* \"#utility.yul\":2011:2074   */\n      tag_253\n      jumpi\n        /* \"#utility.yul\":2070:2071   */\n      0x00\n        /* \"#utility.yul\":2067:2068   */\n      dup1\n        /* \"#utility.yul\":2060:2072   */\n      revert\n        /* \"#utility.yul\":2011:2074   */\n    tag_253:\n        /* \"#utility.yul\":1958:2080   */\n      pop\n      jump\t// out\n        /* \"#utility.yul\":2086:2225   */\n    tag_197:\n        /* \"#utility.yul\":2132:2137   */\n      0x00\n        /* \"#utility.yul\":2170:2176   */\n      dup2\n        /* \"#utility.yul\":2157:2177   */\n      calldataload\n        /* \"#utility.yul\":2148:2177   */\n      swap1\n      pop\n        /* \"#utility.yul\":2186:2219   */\n      tag_255\n        /* \"#utility.yul\":2213:2218   */\n      dup2\n        /* \"#utility.yul\":2186:2219   */\n      tag_196\n      jump\t// in\n    tag_255:\n        /* \"#utility.yul\":2086:2225   */\n      swap3\n      swap2\n      pop\n      pop\n      jump\t// out\n        /* \"#utility.yul\":2231:2308   */\n    tag_198:\n        /* \"#utility.yul\":2268:2275   */\n      0x00\n        /* \"#utility.yul\":2297:2302   */\n      dup2\n        /* \"#utility.yul\":2286:2302   */\n      swap1\n      pop\n        /* \"#utility.yul\":2231:2308   */\n      swap2\n      swap1\n      pop\n      jump\t// out\n        /* \"#utility.yul\":2314:2436   */\n    tag_199:\n        /* \"#utility.yul\":2387:2411   */\n      tag_258\n        /* \"#utility.yul\":2405:2410   */\n      dup2\n        /* \"#utility.yul\":2387:2411   */\n      tag_198\n      jump\t// in\n    tag_258:\n        /* \"#utility.yul\":2380:2385   */\n      dup2\n        /* \"#utility.yul\":2377:2412   */\n      eq\n        /* \"#utility.yul\":2367:2430   */\n      tag_259\n      jumpi\n        /* \"#utility.yul\":2426:2427   */\n      0x00\n        /* \"#utility.yul\":2423:2424   */\n      dup1\n        /* \"#utility.yul\":2416:2428   */\n      revert\n        /* \"#utility.yul\":2367:2430   */\n    tag_259:\n        /* \"#utility.yul\":2314:2436   */\n      pop\n      jump\t// out\n        /* \"#utility.yul\":2442:2581   */\n    tag_200:\n        /* \"#utility.yul\":2488:2493   */\n      0x00\n        /* \"#utility.yul\":2526:2532   */\n      dup2\n        /* \"#utility.yul\":2513:2533   */\n      calldataload\n        /* \"#utility.yul\":2504:2533   */\n      swap1\n      pop\n        /* \"#utility.yul\":2542:2575   */\n      tag_261\n        /* \"#utility.yul\":2569:2574   */\n      dup2\n        /* \"#utility.yul\":2542:2575   */\n      tag_199\n      jump\t// in\n    tag_261:\n        /* \"#utility.yul\":2442:2581   */\n      swap3\n      swap2\n      pop\n      pop\n      jump\t// out\n        /* \"#utility.yul\":2587:3061   */\n    tag_28:\n        /* \"#utility.yul\":2655:2661   */\n      0x00\n        /* \"#utility.yul\":2663:2669   */\n      dup1\n        /* \"#utility.yul\":2712:2714   */\n      0x40\n        /* \"#utility.yul\":2700:2709   */\n      dup4\n        /* \"#utility.yul\":2691:2698   */\n      dup6\n        /* \"#utility.yul\":2687:2710   */\n      sub\n        /* \"#utility.yul\":2683:2715   */\n      slt\n        /* \"#utility.yul\":2680:2799   */\n      iszero\n      tag_263\n      jumpi\n        /* \"#utility.yul\":2718:2797   */\n      tag_264\n      tag_192\n      jump\t// in\n    tag_264:\n        /* \"#utility.yul\":2680:2799   */\n    tag_263:\n        /* \"#utility.yul\":2838:2839   */\n      0x00\n        /* \"#utility.yul\":2863:2916   */\n      tag_265\n        /* \"#utility.yul\":2908:2915   */\n      dup6\n        /* \"#utility.yul\":2899:2905   */\n      dup3\n        /* \"#utility.yul\":2888:2897   */\n      dup7\n        /* \"#utility.yul\":2884:2906   */\n      add\n        /* \"#utility.yul\":2863:2916   */\n      tag_197\n      jump\t// in\n    tag_265:\n        /* \"#utility.yul\":2853:2916   */\n      swap3\n      pop\n        /* \"#utility.yul\":2809:2926   */\n      pop\n        /* \"#utility.yul\":2965:2967   */\n      0x20\n        /* \"#utility.yul\":2991:3044   */\n      tag_266\n        /* \"#utility.yul\":3036:3043   */\n      dup6\n        /* \"#utility.yul\":3027:3033   */\n      dup3\n        /* \"#utility.yul\":3016:3025   */\n      dup7\n        /* \"#utility.yul\":3012:3034   */\n      add\n        /* \"#utility.yul\":2991:3044   */\n      tag_200\n      jump\t// in\n    tag_266:\n        /* \"#utility.yul\":2981:3044   */\n      swap2\n      pop\n        /* \"#utility.yul\":2936:3054   */\n      pop\n        /* \"#utility.yul\":2587:3061   */\n      swap3\n      pop\n      swap3\n      swap1\n      pop\n      jump\t// out\n        /* \"#utility.yul\":3067:3157   */\n    tag_201:\n        /* \"#utility.yul\":3101:3108   */\n      0x00\n        /* \"#utility.yul\":3144:3149   */\n      dup2\n        /* \"#utility.yul\":3137:3150   */\n      iszero\n        /* \"#utility.yul\":3130:3151   */\n      iszero\n        /* \"#utility.yul\":3119:3151   */\n      swap1\n      pop\n        /* \"#utility.yul\":3067:3157   */\n      swap2\n      swap1\n      pop\n      jump\t// out\n        /* \"#utility.yul\":3163:3272   */\n    tag_202:\n        /* \"#utility.yul\":3244:3265   */\n      tag_269\n        /* \"#utility.yul\":3259:3264   */\n      dup2\n        /* \"#utility.yul\":3244:3265   */\n      tag_201\n      jump\t// in\n    tag_269:\n        /* \"#utility.yul\":3239:3242   */\n      dup3\n        /* \"#utility.yul\":3232:3266   */\n      mstore\n        /* \"#utility.yul\":3163:3272   */\n      pop\n      pop\n      jump\t// out\n        /* \"#utility.yul\":3278:3488   */\n    tag_31:\n        /* \"#utility.yul\":3365:3369   */\n      0x00\n        /* \"#utility.yul\":3403:3405   */\n      0x20\n        /* \"#utility.yul\":3392:3401   */\n      dup3\n        /* \"#utility.yul\":3388:3406   */\n      add\n        /* \"#utility.yul\":3380:3406   */\n      swap1\n      pop\n        /* \"#utility.yul\":3416:3481   */\n      tag_271\n        /* \"#utility.yul\":3478:3479   */\n      0x00\n        /* \"#utility.yul\":3467:3476   */\n      dup4\n        /* \"#utility.yul\":3463:3480   */\n      add\n        /* \"#utility.yul\":3454:3460   */\n      dup5\n        /* \"#utility.yul\":3416:3481   */\n      tag_202\n      jump\t// in\n    tag_271:\n        /* \"#utility.yul\":3278:3488   */\n      swap3\n      swap2\n      pop\n      pop\n      jump\t// out\n        /* \"#utility.yul\":3494:3612   */\n    tag_203:\n        /* \"#utility.yul\":3581:3605   */\n      tag_273\n        /* \"#utility.yul\":3599:3604   */\n      dup2\n        /* \"#utility.yul\":3581:3605   */\n      tag_198\n      jump\t// in\n    tag_273:\n        /* \"#utility.yul\":3576:3579   */\n      dup3\n        /* \"#utility.yul\":3569:3606   */\n      mstore\n        /* \"#utility.yul\":3494:3612   */\n      pop\n      pop\n      jump\t// out\n        /* \"#utility.yul\":3618:3840   */\n    tag_35:\n        /* \"#utility.yul\":3711:3715   */\n      0x00\n        /* \"#utility.yul\":3749:3751   */\n      0x20\n        /* \"#utility.yul\":3738:3747   */\n      dup3\n        /* \"#utility.yul\":3734:3752   */\n      add\n        /* \"#utility.yul\":3726:3752   */\n      swap1\n      pop\n        /* \"#utility.yul\":3762:3833   */\n      tag_275\n        /* \"#utility.yul\":3830:3831   */\n      0x00\n        /* \"#utility.yul\":3819:3828   */\n      dup4\n        /* \"#utility.yul\":3815:3832   */\n      add\n        /* \"#utility.yul\":3806:3812   */\n      dup5\n        /* \"#utility.yul\":3762:3833   */\n      tag_203\n      jump\t// in\n    tag_275:\n        /* \"#utility.yul\":3618:3840   */\n      swap3\n      swap2\n      pop\n      pop\n      jump\t// out\n        /* \"#utility.yul\":3846:4465   */\n    tag_38:\n        /* \"#utility.yul\":3923:3929   */\n      0x00\n        /* \"#utility.yul\":3931:3937   */\n      dup1\n        /* \"#utility.yul\":3939:3945   */\n      0x00\n        /* \"#utility.yul\":3988:3990   */\n      0x60\n        /* \"#utility.yul\":3976:3985   */\n      dup5\n        /* \"#utility.yul\":3967:3974   */\n      dup7\n        /* \"#utility.yul\":3963:3986   */\n      sub\n        /* \"#utility.yul\":3959:3991   */\n      slt\n        /* \"#utility.yul\":3956:4075   */\n      iszero\n      tag_277\n      jumpi\n        /* \"#utility.yul\":3994:4073   */\n      tag_278\n      tag_192\n      jump\t// in\n    tag_278:\n        /* \"#utility.yul\":3956:4075   */\n    tag_277:\n        /* \"#utility.yul\":4114:4115   */\n      0x00\n        /* \"#utility.yul\":4139:4192   */\n      tag_279\n        /* \"#utility.yul\":4184:4191   */\n      dup7\n        /* \"#utility.yul\":4175:4181   */\n      dup3\n        /* \"#utility.yul\":4164:4173   */\n      dup8\n        /* \"#utility.yul\":4160:4182   */\n      add\n        /* \"#utility.yul\":4139:4192   */\n      tag_197\n      jump\t// in\n    tag_279:\n        /* \"#utility.yul\":4129:4192   */\n      swap4\n      pop\n        /* \"#utility.yul\":4085:4202   */\n      pop\n        /* \"#utility.yul\":4241:4243   */\n      0x20\n        /* \"#utility.yul\":4267:4320   */\n      tag_280\n        /* \"#utility.yul\":4312:4319   */\n      dup7\n        /* \"#utility.yul\":4303:4309   */\n      dup3\n        /* \"#utility.yul\":4292:4301   */\n      dup8\n        /* \"#utility.yul\":4288:4310   */\n      add\n        /* \"#utility.yul\":4267:4320   */\n      tag_197\n      jump\t// in\n    tag_280:\n        /* \"#utility.yul\":4257:4320   */\n      swap3\n      pop\n        /* \"#utility.yul\":4212:4330   */\n      pop\n        /* \"#utility.yul\":4369:4371   */\n      0x40\n        /* \"#utility.yul\":4395:4448   */\n      tag_281\n        /* \"#utility.yul\":4440:4447   */\n      dup7\n        /* \"#utility.yul\":4431:4437   */\n      dup3\n        /* \"#utility.yul\":4420:4429   */\n      dup8\n        /* \"#utility.yul\":4416:4438   */\n      add\n        /* \"#utility.yul\":4395:4448   */\n      tag_200\n      jump\t// in\n    tag_281:\n        /* \"#utility.yul\":4385:4448   */\n      swap2\n      pop\n        /* \"#utility.yul\":4340:4458   */\n      pop\n        /* \"#utility.yul\":3846:4465   */\n      swap3\n      pop\n      swap3\n      pop\n      swap3\n      jump\t// out\n        /* \"#utility.yul\":4471:4557   */\n    tag_204:\n        /* \"#utility.yul\":4506:4513   */\n      0x00\n        /* \"#utility.yul\":4546:4550   */\n      0xff\n        /* \"#utility.yul\":4539:4544   */\n      dup3\n        /* \"#utility.yul\":4535:4551   */\n      and\n        /* \"#utility.yul\":4524:4551   */\n      swap1\n      pop\n        /* \"#utility.yul\":4471:4557   */\n      swap2\n      swap1\n      pop\n      jump\t// out\n        /* \"#utility.yul\":4563:4675   */\n    tag_205:\n        /* \"#utility.yul\":4646:4668   */\n      tag_284\n        /* \"#utility.yul\":4662:4667   */\n      dup2\n        /* \"#utility.yul\":4646:4668   */\n      tag_204\n      jump\t// in\n    tag_284:\n        /* \"#utility.yul\":4641:4644   */\n      dup3\n        /* \"#utility.yul\":4634:4669   */\n      mstore\n        /* \"#utility.yul\":4563:4675   */\n      pop\n      pop\n      jump\t// out\n        /* \"#utility.yul\":4681:4895   */\n    tag_44:\n        /* \"#utility.yul\":4770:4774   */\n      0x00\n        /* \"#utility.yul\":4808:4810   */\n      0x20\n        /* \"#utility.yul\":4797:4806   */\n      dup3\n        /* \"#utility.yul\":4793:4811   */\n      add\n        /* \"#utility.yul\":4785:4811   */\n      swap1\n      pop\n        /* \"#utility.yul\":4821:4888   */\n      tag_286\n        /* \"#utility.yul\":4885:4886   */\n      0x00\n        /* \"#utility.yul\":4874:4883   */\n      dup4\n        /* \"#utility.yul\":4870:4887   */\n      add\n        /* \"#utility.yul\":4861:4867   */\n      dup5\n        /* \"#utility.yul\":4821:4888   */\n      tag_205\n      jump\t// in\n    tag_286:\n        /* \"#utility.yul\":4681:4895   */\n      swap3\n      swap2\n      pop\n      pop\n      jump\t// out\n        /* \"#utility.yul\":4901:5230   */\n    tag_55:\n        /* \"#utility.yul\":4960:4966   */\n      0x00\n        /* \"#utility.yul\":5009:5011   */\n      0x20\n        /* \"#utility.yul\":4997:5006   */\n      dup3\n        /* \"#utility.yul\":4988:4995   */\n      dup5\n        /* \"#utility.yul\":4984:5007   */\n      sub\n        /* \"#utility.yul\":4980:5012   */\n      slt\n        /* \"#utility.yul\":4977:5096   */\n      iszero\n      tag_288\n      jumpi\n        /* \"#utility.yul\":5015:5094   */\n      tag_289\n      tag_192\n      jump\t// in\n    tag_289:\n        /* \"#utility.yul\":4977:5096   */\n    tag_288:\n        /* \"#utility.yul\":5135:5136   */\n      0x00\n        /* \"#utility.yul\":5160:5213   */\n      tag_290\n        /* \"#utility.yul\":5205:5212   */\n      dup5\n        /* \"#utility.yul\":5196:5202   */\n      dup3\n        /* \"#utility.yul\":5185:5194   */\n      dup6\n        /* \"#utility.yul\":5181:5203   */\n      add\n        /* \"#utility.yul\":5160:5213   */\n      tag_197\n      jump\t// in\n    tag_290:\n        /* \"#utility.yul\":5150:5213   */\n      swap2\n      pop\n        /* \"#utility.yul\":5106:5223   */\n      pop\n        /* \"#utility.yul\":4901:5230   */\n      swap3\n      swap2\n      pop\n      pop\n      jump\t// out\n        /* \"#utility.yul\":5236:5354   */\n    tag_206:\n        /* \"#utility.yul\":5323:5347   */\n      tag_292\n        /* \"#utility.yul\":5341:5346   */\n      dup2\n        /* \"#utility.yul\":5323:5347   */\n      tag_195\n      jump\t// in\n    tag_292:\n        /* \"#utility.yul\":5318:5321   */\n      dup3\n        /* \"#utility.yul\":5311:5348   */\n      mstore\n        /* \"#utility.yul\":5236:5354   */\n      pop\n      pop\n      jump\t// out\n        /* \"#utility.yul\":5360:5582   */\n    tag_63:\n        /* \"#utility.yul\":5453:5457   */\n      0x00\n        /* \"#utility.yul\":5491:5493   */\n      0x20\n        /* \"#utility.yul\":5480:5489   */\n      dup3\n        /* \"#utility.yul\":5476:5494   */\n      add\n        /* \"#utility.yul\":5468:5494   */\n      swap1\n      pop\n        /* \"#utility.yul\":5504:5575   */\n      tag_294\n        /* \"#utility.yul\":5572:5573   */\n      0x00\n        /* \"#utility.yul\":5561:5570   */\n      dup4\n        /* \"#utility.yul\":5557:5574   */\n      add\n        /* \"#utility.yul\":5548:5554   */\n      dup5\n        /* \"#utility.yul\":5504:5575   */\n      tag_206\n      jump\t// in\n    tag_294:\n        /* \"#utility.yul\":5360:5582   */\n      swap3\n      swap2\n      pop\n      pop\n      jump\t// out\n        /* \"#utility.yul\":5588:6062   */\n    tag_80:\n        /* \"#utility.yul\":5656:5662   */\n      0x00\n        /* \"#utility.yul\":5664:5670   */\n      dup1\n        /* \"#utility.yul\":5713:5715   */\n      0x40\n        /* \"#utility.yul\":5701:5710   */\n      dup4\n        /* \"#utility.yul\":5692:5699   */\n      dup6\n        /* \"#utility.yul\":5688:5711   */\n      sub\n        /* \"#utility.yul\":5684:5716   */\n      slt\n        /* \"#utility.yul\":5681:5800   */\n      iszero\n      tag_296\n      jumpi\n        /* \"#utility.yul\":5719:5798   */\n      tag_297\n      tag_192\n      jump\t// in\n    tag_297:\n        /* \"#utility.yul\":5681:5800   */\n    tag_296:\n        /* \"#utility.yul\":5839:5840   */\n      0x00\n        /* \"#utility.yul\":5864:5917   */\n      tag_298\n        /* \"#utility.yul\":5909:5916   */\n      dup6\n        /* \"#utility.yul\":5900:5906   */\n      dup3\n        /* \"#utility.yul\":5889:5898   */\n      dup7\n        /* \"#utility.yul\":5885:5907   */\n      add\n        /* \"#utility.yul\":5864:5917   */\n      tag_197\n      jump\t// in\n    tag_298:\n        /* \"#utility.yul\":5854:5917   */\n      swap3\n      pop\n        /* \"#utility.yul\":5810:5927   */\n      pop\n        /* \"#utility.yul\":5966:5968   */\n      0x20\n        /* \"#utility.yul\":5992:6045   */\n      tag_299\n        /* \"#utility.yul\":6037:6044   */\n      dup6\n        /* \"#utility.yul\":6028:6034   */\n      dup3\n        /* \"#utility.yul\":6017:6026   */\n      dup7\n        /* \"#utility.yul\":6013:6035   */\n      add\n        /* \"#utility.yul\":5992:6045   */\n      tag_197\n      jump\t// in\n    tag_299:\n        /* \"#utility.yul\":5982:6045   */\n      swap2\n      pop\n        /* \"#utility.yul\":5937:6055   */\n      pop\n        /* \"#utility.yul\":5588:6062   */\n      swap3\n      pop\n      swap3\n      swap1\n      pop\n      jump\t// out\n        /* \"#utility.yul\":6068:6248   */\n    tag_207:\n        /* \"#utility.yul\":6116:6193   */\n      0x4e487b7100000000000000000000000000000000000000000000000000000000\n        /* \"#utility.yul\":6113:6114   */\n      0x00\n        /* \"#utility.yul\":6106:6194   */\n      mstore\n        /* \"#utility.yul\":6213:6217   */\n      0x22\n        /* \"#utility.yul\":6210:6211   */\n      0x04\n        /* \"#utility.yul\":6203:6218   */\n      mstore\n        /* \"#utility.yul\":6237:6241   */\n      0x24\n        /* \"#utility.yul\":6234:6235   */\n      0x00\n        /* \"#utility.yul\":6227:6242   */\n      revert\n        /* \"#utility.yul\":6254:6574   */\n    tag_88:\n        /* \"#utility.yul\":6298:6304   */\n      0x00\n        /* \"#utility.yul\":6335:6336   */\n      0x02\n        /* \"#utility.yul\":6329:6333   */\n      dup3\n        /* \"#utility.yul\":6325:6337   */\n      div\n        /* \"#utility.yul\":6315:6337   */\n      swap1\n      pop\n        /* \"#utility.yul\":6382:6383   */\n      0x01\n        /* \"#utility.yul\":6376:6380   */\n      dup3\n        /* \"#utility.yul\":6372:6384   */\n      and\n        /* \"#utility.yul\":6403:6421   */\n      dup1\n        /* \"#utility.yul\":6393:6474   */\n      tag_302\n      jumpi\n        /* \"#utility.yul\":6459:6463   */\n      0x7f\n        /* \"#utility.yul\":6451:6457   */\n      dup3\n        /* \"#utility.yul\":6447:6464   */\n      and\n        /* \"#utility.yul\":6437:6464   */\n      swap2\n      pop\n        /* \"#utility.yul\":6393:6474   */\n    tag_302:\n        /* \"#utility.yul\":6521:6523   */\n      0x20\n        /* \"#utility.yul\":6513:6519   */\n      dup3\n        /* \"#utility.yul\":6510:6524   */\n      lt\n        /* \"#utility.yul\":6490:6508   */\n      dup2\n        /* \"#utility.yul\":6487:6525   */\n      sub\n        /* \"#utility.yul\":6484:6568   */\n      tag_303\n      jumpi\n        /* \"#utility.yul\":6540:6558   */\n      tag_304\n      tag_207\n      jump\t// in\n    tag_304:\n        /* \"#utility.yul\":6484:6568   */\n    tag_303:\n        /* \"#utility.yul\":6305:6574   */\n      pop\n        /* \"#utility.yul\":6254:6574   */\n      swap2\n      swap1\n      pop\n      jump\t// out\n        /* \"#utility.yul\":6580:6820   */\n    tag_208:\n        /* \"#utility.yul\":6720:6754   */\n      0x53746f636b436f696e3a20596f752063616e6e6f74207370656e642074686174\n        /* \"#utility.yul\":6716:6717   */\n      0x00\n        /* \"#utility.yul\":6708:6714   */\n      dup3\n        /* \"#utility.yul\":6704:6718   */\n      add\n        /* \"#utility.yul\":6697:6755   */\n      mstore\n        /* \"#utility.yul\":6789:6812   */\n      0x206d756368206f6e2074686973206163636f756e740000000000000000000000\n        /* \"#utility.yul\":6784:6786   */\n      0x20\n        /* \"#utility.yul\":6776:6782   */\n      dup3\n        /* \"#utility.yul\":6772:6787   */\n      add\n        /* \"#utility.yul\":6765:6813   */\n      mstore\n        /* \"#utility.yul\":6580:6820   */\n      pop\n      jump\t// out\n        /* \"#utility.yul\":6826:7192   */\n    tag_209:\n        /* \"#utility.yul\":6968:6971   */\n      0x00\n        /* \"#utility.yul\":6989:7056   */\n      tag_307\n        /* \"#utility.yul\":7053:7055   */\n      0x35\n        /* \"#utility.yul\":7048:7051   */\n      dup4\n        /* \"#utility.yul\":6989:7056   */\n      tag_187\n      jump\t// in\n    tag_307:\n        /* \"#utility.yul\":6982:7056   */\n      swap2\n      pop\n        /* \"#utility.yul\":7065:7158   */\n      tag_308\n        /* \"#utility.yul\":7154:7157   */\n      dup3\n        /* \"#utility.yul\":7065:7158   */\n      tag_208\n      jump\t// in\n    tag_308:\n        /* \"#utility.yul\":7183:7185   */\n      0x40\n        /* \"#utility.yul\":7178:7181   */\n      dup3\n        /* \"#utility.yul\":7174:7186   */\n      add\n        /* \"#utility.yul\":7167:7186   */\n      swap1\n      pop\n        /* \"#utility.yul\":6826:7192   */\n      swap2\n      swap1\n      pop\n      jump\t// out\n        /* \"#utility.yul\":7198:7617   */\n    tag_100:\n        /* \"#utility.yul\":7364:7368   */\n      0x00\n        /* \"#utility.yul\":7402:7404   */\n      0x20\n        /* \"#utility.yul\":7391:7400   */\n      dup3\n        /* \"#utility.yul\":7387:7405   */\n      add\n        /* \"#utility.yul\":7379:7405   */\n      swap1\n      pop\n        /* \"#utility.yul\":7451:7460   */\n      dup2\n        /* \"#utility.yul\":7445:7449   */\n      dup2\n        /* \"#utility.yul\":7441:7461   */\n      sub\n        /* \"#utility.yul\":7437:7438   */\n      0x00\n        /* \"#utility.yul\":7426:7435   */\n      dup4\n        /* \"#utility.yul\":7422:7439   */\n      add\n        /* \"#utility.yul\":7415:7462   */\n      mstore\n        /* \"#utility.yul\":7479:7610   */\n      tag_310\n        /* \"#utility.yul\":7605:7609   */\n      dup2\n        /* \"#utility.yul\":7479:7610   */\n      tag_209\n      jump\t// in\n    tag_310:\n        /* \"#utility.yul\":7471:7610   */\n      swap1\n      pop\n        /* \"#utility.yul\":7198:7617   */\n      swap2\n      swap1\n      pop\n      jump\t// out\n        /* \"#utility.yul\":7623:7803   */\n    tag_210:\n        /* \"#utility.yul\":7671:7748   */\n      0x4e487b7100000000000000000000000000000000000000000000000000000000\n        /* \"#utility.yul\":7668:7669   */\n      0x00\n        /* \"#utility.yul\":7661:7749   */\n      mstore\n        /* \"#utility.yul\":7768:7772   */\n      0x11\n        /* \"#utility.yul\":7765:7766   */\n      0x04\n        /* \"#utility.yul\":7758:7773   */\n      mstore\n        /* \"#utility.yul\":7792:7796   */\n      0x24\n        /* \"#utility.yul\":7789:7790   */\n      0x00\n        /* \"#utility.yul\":7782:7797   */\n      revert\n        /* \"#utility.yul\":7809:8000   */\n    tag_105:\n        /* \"#utility.yul\":7849:7853   */\n      0x00\n        /* \"#utility.yul\":7869:7889   */\n      tag_313\n        /* \"#utility.yul\":7887:7888   */\n      dup3\n        /* \"#utility.yul\":7869:7889   */\n      tag_198\n      jump\t// in\n    tag_313:\n        /* \"#utility.yul\":7864:7889   */\n      swap2\n      pop\n        /* \"#utility.yul\":7903:7923   */\n      tag_314\n        /* \"#utility.yul\":7921:7922   */\n      dup4\n        /* \"#utility.yul\":7903:7923   */\n      tag_198\n      jump\t// in\n    tag_314:\n        /* \"#utility.yul\":7898:7923   */\n      swap3\n      pop\n        /* \"#utility.yul\":7942:7943   */\n      dup3\n        /* \"#utility.yul\":7939:7940   */\n      dup3\n        /* \"#utility.yul\":7936:7944   */\n      lt\n        /* \"#utility.yul\":7933:7967   */\n      iszero\n      tag_315\n      jumpi\n        /* \"#utility.yul\":7947:7965   */\n      tag_316\n      tag_210\n      jump\t// in\n    tag_316:\n        /* \"#utility.yul\":7933:7967   */\n    tag_315:\n        /* \"#utility.yul\":7992:7993   */\n      dup3\n        /* \"#utility.yul\":7989:7990   */\n      dup3\n        /* \"#utility.yul\":7985:7994   */\n      sub\n        /* \"#utility.yul\":7977:7994   */\n      swap1\n      pop\n        /* \"#utility.yul\":7809:8000   */\n      swap3\n      swap2\n      pop\n      pop\n      jump\t// out\n        /* \"#utility.yul\":8006:8235   */\n    tag_211:\n        /* \"#utility.yul\":8146:8180   */\n      0x4f776e61626c653a206f6e6c79206f776e65722063616e2063616c6c20746869\n        /* \"#utility.yul\":8142:8143   */\n      0x00\n        /* \"#utility.yul\":8134:8140   */\n      dup3\n        /* \"#utility.yul\":8130:8144   */\n      add\n        /* \"#utility.yul\":8123:8181   */\n      mstore\n        /* \"#utility.yul\":8215:8227   */\n      0x732066756e6374696f6e00000000000000000000000000000000000000000000\n        /* \"#utility.yul\":8210:8212   */\n      0x20\n        /* \"#utility.yul\":8202:8208   */\n      dup3\n        /* \"#utility.yul\":8198:8213   */\n      add\n        /* \"#utility.yul\":8191:8228   */\n      mstore\n        /* \"#utility.yul\":8006:8235   */\n      pop\n      jump\t// out\n        /* \"#utility.yul\":8241:8607   */\n    tag_212:\n        /* \"#utility.yul\":8383:8386   */\n      0x00\n        /* \"#utility.yul\":8404:8471   */\n      tag_319\n        /* \"#utility.yul\":8468:8470   */\n      0x2a\n        /* \"#utility.yul\":8463:8466   */\n      dup4\n        /* \"#utility.yul\":8404:8471   */\n      tag_187\n      jump\t// in\n    tag_319:\n        /* \"#utility.yul\":8397:8471   */\n      swap2\n      pop\n        /* \"#utility.yul\":8480:8573   */\n      tag_320\n        /* \"#utility.yul\":8569:8572   */\n      dup3\n        /* \"#utility.yul\":8480:8573   */\n      tag_211\n      jump\t// in\n    tag_320:\n        /* \"#utility.yul\":8598:8600   */\n      0x40\n        /* \"#utility.yul\":8593:8596   */\n      dup3\n        /* \"#utility.yul\":8589:8601   */\n      add\n        /* \"#utility.yul\":8582:8601   */\n      swap1\n      pop\n        /* \"#utility.yul\":8241:8607   */\n      swap2\n      swap1\n      pop\n      jump\t// out\n        /* \"#utility.yul\":8613:9032   */\n    tag_111:\n        /* \"#utility.yul\":8779:8783   */\n      0x00\n        /* \"#utility.yul\":8817:8819   */\n      0x20\n        /* \"#utility.yul\":8806:8815   */\n      dup3\n        /* \"#utility.yul\":8802:8820   */\n      add\n        /* \"#utility.yul\":8794:8820   */\n      swap1\n      pop\n        /* \"#utility.yul\":8866:8875   */\n      dup2\n        /* \"#utility.yul\":8860:8864   */\n      dup2\n        /* \"#utility.yul\":8856:8876   */\n      sub\n        /* \"#utility.yul\":8852:8853   */\n      0x00\n        /* \"#utility.yul\":8841:8850   */\n      dup4\n        /* \"#utility.yul\":8837:8854   */\n      add\n        /* \"#utility.yul\":8830:8877   */\n      mstore\n        /* \"#utility.yul\":8894:9025   */\n      tag_322\n        /* \"#utility.yul\":9020:9024   */\n      dup2\n        /* \"#utility.yul\":8894:9025   */\n      tag_212\n      jump\t// in\n    tag_322:\n        /* \"#utility.yul\":8886:9025   */\n      swap1\n      pop\n        /* \"#utility.yul\":8613:9032   */\n      swap2\n      swap1\n      pop\n      jump\t// out\n        /* \"#utility.yul\":9038:9276   */\n    tag_213:\n        /* \"#utility.yul\":9178:9212   */\n      0x53746f636b436f696e3a20617070726f76652063616e6e6f7420626520646f6e\n        /* \"#utility.yul\":9174:9175   */\n      0x00\n        /* \"#utility.yul\":9166:9172   */\n      dup3\n        /* \"#utility.yul\":9162:9176   */\n      add\n        /* \"#utility.yul\":9155:9213   */\n      mstore\n        /* \"#utility.yul\":9247:9268   */\n      0x652066726f6d207a65726f206164647265737300000000000000000000000000\n        /* \"#utility.yul\":9242:9244   */\n      0x20\n        /* \"#utility.yul\":9234:9240   */\n      dup3\n        /* \"#utility.yul\":9230:9245   */\n      add\n        /* \"#utility.yul\":9223:9269   */\n      mstore\n        /* \"#utility.yul\":9038:9276   */\n      pop\n      jump\t// out\n        /* \"#utility.yul\":9282:9648   */\n    tag_214:\n        /* \"#utility.yul\":9424:9427   */\n      0x00\n        /* \"#utility.yul\":9445:9512   */\n      tag_325\n        /* \"#utility.yul\":9509:9511   */\n      0x33\n        /* \"#utility.yul\":9504:9507   */\n      dup4\n        /* \"#utility.yul\":9445:9512   */\n      tag_187\n      jump\t// in\n    tag_325:\n        /* \"#utility.yul\":9438:9512   */\n      swap2\n      pop\n        /* \"#utility.yul\":9521:9614   */\n      tag_326\n        /* \"#utility.yul\":9610:9613   */\n      dup3\n        /* \"#utility.yul\":9521:9614   */\n      tag_213\n      jump\t// in\n    tag_326:\n        /* \"#utility.yul\":9639:9641   */\n      0x40\n        /* \"#utility.yul\":9634:9637   */\n      dup3\n        /* \"#utility.yul\":9630:9642   */\n      add\n        /* \"#utility.yul\":9623:9642   */\n      swap1\n      pop\n        /* \"#utility.yul\":9282:9648   */\n      swap2\n      swap1\n      pop\n      jump\t// out\n        /* \"#utility.yul\":9654:10073   */\n    tag_147:\n        /* \"#utility.yul\":9820:9824   */\n      0x00\n        /* \"#utility.yul\":9858:9860   */\n      0x20\n        /* \"#utility.yul\":9847:9856   */\n      dup3\n        /* \"#utility.yul\":9843:9861   */\n      add\n        /* \"#utility.yul\":9835:9861   */\n      swap1\n      pop\n        /* \"#utility.yul\":9907:9916   */\n      dup2\n        /* \"#utility.yul\":9901:9905   */\n      dup2\n        /* \"#utility.yul\":9897:9917   */\n      sub\n        /* \"#utility.yul\":9893:9894   */\n      0x00\n        /* \"#utility.yul\":9882:9891   */\n      dup4\n        /* \"#utility.yul\":9878:9895   */\n      add\n        /* \"#utility.yul\":9871:9918   */\n      mstore\n        /* \"#utility.yul\":9935:10066   */\n      tag_328\n        /* \"#utility.yul\":10061:10065   */\n      dup2\n        /* \"#utility.yul\":9935:10066   */\n      tag_214\n      jump\t// in\n    tag_328:\n        /* \"#utility.yul\":9927:10066   */\n      swap1\n      pop\n        /* \"#utility.yul\":9654:10073   */\n      swap2\n      swap1\n      pop\n      jump\t// out\n        /* \"#utility.yul\":10079:10310   */\n    tag_215:\n        /* \"#utility.yul\":10219:10253   */\n      0x53746f636b436f696e3a20617070726f76652063616e6e6f7420626520746f20\n        /* \"#utility.yul\":10215:10216   */\n      0x00\n        /* \"#utility.yul\":10207:10213   */\n      dup3\n        /* \"#utility.yul\":10203:10217   */\n      add\n        /* \"#utility.yul\":10196:10254   */\n      mstore\n        /* \"#utility.yul\":10288:10302   */\n      0x7a65726f20616464726573730000000000000000000000000000000000000000\n        /* \"#utility.yul\":10283:10285   */\n      0x20\n        /* \"#utility.yul\":10275:10281   */\n      dup3\n        /* \"#utility.yul\":10271:10286   */\n      add\n        /* \"#utility.yul\":10264:10303   */\n      mstore\n        /* \"#utility.yul\":10079:10310   */\n      pop\n      jump\t// out\n        /* \"#utility.yul\":10316:10682   */\n    tag_216:\n        /* \"#utility.yul\":10458:10461   */\n      0x00\n        /* \"#utility.yul\":10479:10546   */\n      tag_331\n        /* \"#utility.yul\":10543:10545   */\n      0x2c\n        /* \"#utility.yul\":10538:10541   */\n      dup4\n        /* \"#utility.yul\":10479:10546   */\n      tag_187\n      jump\t// in\n    tag_331:\n        /* \"#utility.yul\":10472:10546   */\n      swap2\n      pop\n        /* \"#utility.yul\":10555:10648   */\n      tag_332\n        /* \"#utility.yul\":10644:10647   */\n      dup3\n        /* \"#utility.yul\":10555:10648   */\n      tag_215\n      jump\t// in\n    tag_332:\n        /* \"#utility.yul\":10673:10675   */\n      0x40\n        /* \"#utility.yul\":10668:10671   */\n      dup3\n        /* \"#utility.yul\":10664:10676   */\n      add\n        /* \"#utility.yul\":10657:10676   */\n      swap1\n      pop\n        /* \"#utility.yul\":10316:10682   */\n      swap2\n      swap1\n      pop\n      jump\t// out\n        /* \"#utility.yul\":10688:11107   */\n    tag_150:\n        /* \"#utility.yul\":10854:10858   */\n      0x00\n        /* \"#utility.yul\":10892:10894   */\n      0x20\n        /* \"#utility.yul\":10881:10890   */\n      dup3\n        /* \"#utility.yul\":10877:10895   */\n      add\n        /* \"#utility.yul\":10869:10895   */\n      swap1\n      pop\n        /* \"#utility.yul\":10941:10950   */\n      dup2\n        /* \"#utility.yul\":10935:10939   */\n      dup2\n        /* \"#utility.yul\":10931:10951   */\n      sub\n        /* \"#utility.yul\":10927:10928   */\n      0x00\n        /* \"#utility.yul\":10916:10925   */\n      dup4\n        /* \"#utility.yul\":10912:10929   */\n      add\n        /* \"#utility.yul\":10905:10952   */\n      mstore\n        /* \"#utility.yul\":10969:11100   */\n      tag_334\n        /* \"#utility.yul\":11095:11099   */\n      dup2\n        /* \"#utility.yul\":10969:11100   */\n      tag_216\n      jump\t// in\n    tag_334:\n        /* \"#utility.yul\":10961:11100   */\n      swap1\n      pop\n        /* \"#utility.yul\":10688:11107   */\n      swap2\n      swap1\n      pop\n      jump\t// out\n        /* \"#utility.yul\":11113:11337   */\n    tag_217:\n        /* \"#utility.yul\":11253:11287   */\n      0x53746f636b436f696e3a207472616e736665722066726f6d207a65726f206164\n        /* \"#utility.yul\":11249:11250   */\n      0x00\n        /* \"#utility.yul\":11241:11247   */\n      dup3\n        /* \"#utility.yul\":11237:11251   */\n      add\n        /* \"#utility.yul\":11230:11288   */\n      mstore\n        /* \"#utility.yul\":11322:11329   */\n      0x6472657373000000000000000000000000000000000000000000000000000000\n        /* \"#utility.yul\":11317:11319   */\n      0x20\n        /* \"#utility.yul\":11309:11315   */\n      dup3\n        /* \"#utility.yul\":11305:11320   */\n      add\n        /* \"#utility.yul\":11298:11330   */\n      mstore\n        /* \"#utility.yul\":11113:11337   */\n      pop\n      jump\t// out\n        /* \"#utility.yul\":11343:11709   */\n    tag_218:\n        /* \"#utility.yul\":11485:11488   */\n      0x00\n        /* \"#utility.yul\":11506:11573   */\n      tag_337\n        /* \"#utility.yul\":11570:11572   */\n      0x25\n        /* \"#utility.yul\":11565:11568   */\n      dup4\n        /* \"#utility.yul\":11506:11573   */\n      tag_187\n      jump\t// in\n    tag_337:\n        /* \"#utility.yul\":11499:11573   */\n      swap2\n      pop\n        /* \"#utility.yul\":11582:11675   */\n      tag_338\n        /* \"#utility.yul\":11671:11674   */\n      dup3\n        /* \"#utility.yul\":11582:11675   */\n      tag_217\n      jump\t// in\n    tag_338:\n        /* \"#utility.yul\":11700:11702   */\n      0x40\n        /* \"#utility.yul\":11695:11698   */\n      dup3\n        /* \"#utility.yul\":11691:11703   */\n      add\n        /* \"#utility.yul\":11684:11703   */\n      swap1\n      pop\n        /* \"#utility.yul\":11343:11709   */\n      swap2\n      swap1\n      pop\n      jump\t// out\n        /* \"#utility.yul\":11715:12134   */\n    tag_155:\n        /* \"#utility.yul\":11881:11885   */\n      0x00\n        /* \"#utility.yul\":11919:11921   */\n      0x20\n        /* \"#utility.yul\":11908:11917   */\n      dup3\n        /* \"#utility.yul\":11904:11922   */\n      add\n        /* \"#utility.yul\":11896:11922   */\n      swap1\n      pop\n        /* \"#utility.yul\":11968:11977   */\n      dup2\n        /* \"#utility.yul\":11962:11966   */\n      dup2\n        /* \"#utility.yul\":11958:11978   */\n      sub\n        /* \"#utility.yul\":11954:11955   */\n      0x00\n        /* \"#utility.yul\":11943:11952   */\n      dup4\n        /* \"#utility.yul\":11939:11956   */\n      add\n        /* \"#utility.yul\":11932:11979   */\n      mstore\n        /* \"#utility.yul\":11996:12127   */\n      tag_340\n        /* \"#utility.yul\":12122:12126   */\n      dup2\n        /* \"#utility.yul\":11996:12127   */\n      tag_218\n      jump\t// in\n    tag_340:\n        /* \"#utility.yul\":11988:12127   */\n      swap1\n      pop\n        /* \"#utility.yul\":11715:12134   */\n      swap2\n      swap1\n      pop\n      jump\t// out\n        /* \"#utility.yul\":12140:12380   */\n    tag_219:\n        /* \"#utility.yul\":12280:12314   */\n      0x53746f636b436f696e3a2063616e74207472616e73666572206d6f7265207468\n        /* \"#utility.yul\":12276:12277   */\n      0x00\n        /* \"#utility.yul\":12268:12274   */\n      dup3\n        /* \"#utility.yul\":12264:12278   */\n      add\n        /* \"#utility.yul\":12257:12315   */\n      mstore\n        /* \"#utility.yul\":12349:12372   */\n      0x616e20796f7572206163636f756e7420686f6c64730000000000000000000000\n        /* \"#utility.yul\":12344:12346   */\n      0x20\n        /* \"#utility.yul\":12336:12342   */\n      dup3\n        /* \"#utility.yul\":12332:12347   */\n      add\n        /* \"#utility.yul\":12325:12373   */\n      mstore\n        /* \"#utility.yul\":12140:12380   */\n      pop\n      jump\t// out\n        /* \"#utility.yul\":12386:12752   */\n    tag_220:\n        /* \"#utility.yul\":12528:12531   */\n      0x00\n        /* \"#utility.yul\":12549:12616   */\n      tag_343\n        /* \"#utility.yul\":12613:12615   */\n      0x35\n        /* \"#utility.yul\":12608:12611   */\n      dup4\n        /* \"#utility.yul\":12549:12616   */\n      tag_187\n      jump\t// in\n    tag_343:\n        /* \"#utility.yul\":12542:12616   */\n      swap2\n      pop\n        /* \"#utility.yul\":12625:12718   */\n      tag_344\n        /* \"#utility.yul\":12714:12717   */\n      dup3\n        /* \"#utility.yul\":12625:12718   */\n      tag_219\n      jump\t// in\n    tag_344:\n        /* \"#utility.yul\":12743:12745   */\n      0x40\n        /* \"#utility.yul\":12738:12741   */\n      dup3\n        /* \"#utility.yul\":12734:12746   */\n      add\n        /* \"#utility.yul\":12727:12746   */\n      swap1\n      pop\n        /* \"#utility.yul\":12386:12752   */\n      swap2\n      swap1\n      pop\n      jump\t// out\n        /* \"#utility.yul\":12758:13177   */\n    tag_160:\n        /* \"#utility.yul\":12924:12928   */\n      0x00\n        /* \"#utility.yul\":12962:12964   */\n      0x20\n        /* \"#utility.yul\":12951:12960   */\n      dup3\n        /* \"#utility.yul\":12947:12965   */\n      add\n        /* \"#utility.yul\":12939:12965   */\n      swap1\n      pop\n        /* \"#utility.yul\":13011:13020   */\n      dup2\n        /* \"#utility.yul\":13005:13009   */\n      dup2\n        /* \"#utility.yul\":13001:13021   */\n      sub\n        /* \"#utility.yul\":12997:12998   */\n      0x00\n        /* \"#utility.yul\":12986:12995   */\n      dup4\n        /* \"#utility.yul\":12982:12999   */\n      add\n        /* \"#utility.yul\":12975:13022   */\n      mstore\n        /* \"#utility.yul\":13039:13170   */\n      tag_346\n        /* \"#utility.yul\":13165:13169   */\n      dup2\n        /* \"#utility.yul\":13039:13170   */\n      tag_220\n      jump\t// in\n    tag_346:\n        /* \"#utility.yul\":13031:13170   */\n      swap1\n      pop\n        /* \"#utility.yul\":12758:13177   */\n      swap2\n      swap1\n      pop\n      jump\t// out\n        /* \"#utility.yul\":13183:13488   */\n    tag_163:\n        /* \"#utility.yul\":13223:13226   */\n      0x00\n        /* \"#utility.yul\":13242:13262   */\n      tag_348\n        /* \"#utility.yul\":13260:13261   */\n      dup3\n        /* \"#utility.yul\":13242:13262   */\n      tag_198\n      jump\t// in\n    tag_348:\n        /* \"#utility.yul\":13237:13262   */\n      swap2\n      pop\n        /* \"#utility.yul\":13276:13296   */\n      tag_349\n        /* \"#utility.yul\":13294:13295   */\n      dup4\n        /* \"#utility.yul\":13276:13296   */\n      tag_198\n      jump\t// in\n    tag_349:\n        /* \"#utility.yul\":13271:13296   */\n      swap3\n      pop\n        /* \"#utility.yul\":13430:13431   */\n      dup3\n        /* \"#utility.yul\":13362:13428   */\n      0xffffffffffffffffffffffffffffffffffffffffffffffffffffffffffffffff\n        /* \"#utility.yul\":13358:13432   */\n      sub\n        /* \"#utility.yul\":13355:13356   */\n      dup3\n        /* \"#utility.yul\":13352:13433   */\n      gt\n        /* \"#utility.yul\":13349:13456   */\n      iszero\n      tag_350\n      jumpi\n        /* \"#utility.yul\":13436:13454   */\n      tag_351\n      tag_210\n      jump\t// in\n    tag_351:\n        /* \"#utility.yul\":13349:13456   */\n    tag_350:\n        /* \"#utility.yul\":13480:13481   */\n      dup3\n        /* \"#utility.yul\":13477:13478   */\n      dup3\n        /* \"#utility.yul\":13473:13482   */\n      add\n        /* \"#utility.yul\":13466:13482   */\n      swap1\n      pop\n        /* \"#utility.yul\":13183:13488   */\n      swap3\n      swap2\n      pop\n      pop\n      jump\t// out\n        /* \"#utility.yul\":13494:13719   */\n    tag_221:\n        /* \"#utility.yul\":13634:13668   */\n      0x53746f636b436f696e3a2063616e6e6f74206d696e7420746f207a65726f2061\n        /* \"#utility.yul\":13630:13631   */\n      0x00\n        /* \"#utility.yul\":13622:13628   */\n      dup3\n        /* \"#utility.yul\":13618:13632   */\n      add\n        /* \"#utility.yul\":13611:13669   */\n      mstore\n        /* \"#utility.yul\":13703:13711   */\n      0x6464726573730000000000000000000000000000000000000000000000000000\n        /* \"#utility.yul\":13698:13700   */\n      0x20\n        /* \"#utility.yul\":13690:13696   */\n      dup3\n        /* \"#utility.yul\":13686:13701   */\n      add\n        /* \"#utility.yul\":13679:13712   */\n      mstore\n        /* \"#utility.yul\":13494:13719   */\n      pop\n      jump\t// out\n        /* \"#utility.yul\":13725:14091   */\n    tag_222:\n        /* \"#utility.yul\":13867:13870   */\n      0x00\n        /* \"#utility.yul\":13888:13955   */\n      tag_354\n        /* \"#utility.yul\":13952:13954   */\n      0x26\n        /* \"#utility.yul\":13947:13950   */\n      dup4\n        /* \"#utility.yul\":13888:13955   */\n      tag_187\n      jump\t// in\n    tag_354:\n        /* \"#utility.yul\":13881:13955   */\n      swap2\n      pop\n        /* \"#utility.yul\":13964:14057   */\n      tag_355\n        /* \"#utility.yul\":14053:14056   */\n      dup3\n        /* \"#utility.yul\":13964:14057   */\n      tag_221\n      jump\t// in\n    tag_355:\n        /* \"#utility.yul\":14082:14084   */\n      0x40\n        /* \"#utility.yul\":14077:14080   */\n      dup3\n        /* \"#utility.yul\":14073:14085   */\n      add\n        /* \"#utility.yul\":14066:14085   */\n      swap1\n      pop\n        /* \"#utility.yul\":13725:14091   */\n      swap2\n      swap1\n      pop\n      jump\t// out\n        /* \"#utility.yul\":14097:14516   */\n    tag_168:\n        /* \"#utility.yul\":14263:14267   */\n      0x00\n        /* \"#utility.yul\":14301:14303   */\n      0x20\n        /* \"#utility.yul\":14290:14299   */\n      dup3\n        /* \"#utility.yul\":14286:14304   */\n      add\n        /* \"#utility.yul\":14278:14304   */\n      swap1\n      pop\n        /* \"#utility.yul\":14350:14359   */\n      dup2\n        /* \"#utility.yul\":14344:14348   */\n      dup2\n        /* \"#utility.yul\":14340:14360   */\n      sub\n        /* \"#utility.yul\":14336:14337   */\n      0x00\n        /* \"#utility.yul\":14325:14334   */\n      dup4\n        /* \"#utility.yul\":14321:14338   */\n      add\n        /* \"#utility.yul\":14314:14361   */\n      mstore\n        /* \"#utility.yul\":14378:14509   */\n      tag_357\n        /* \"#utility.yul\":14504:14508   */\n      dup2\n        /* \"#utility.yul\":14378:14509   */\n      tag_222\n      jump\t// in\n    tag_357:\n        /* \"#utility.yul\":14370:14509   */\n      swap1\n      pop\n        /* \"#utility.yul\":14097:14516   */\n      swap2\n      swap1\n      pop\n      jump\t// out\n        /* \"#utility.yul\":14522:14749   */\n    tag_223:\n        /* \"#utility.yul\":14662:14696   */\n      0x53746f636b436f696e3a2063616e6e6f74206275726e2066726f6d207a65726f\n        /* \"#utility.yul\":14658:14659   */\n      0x00\n        /* \"#utility.yul\":14650:14656   */\n      dup3\n        /* \"#utility.yul\":14646:14660   */\n      add\n        /* \"#utility.yul\":14639:14697   */\n      mstore\n        /* \"#utility.yul\":14731:14741   */\n      0x2061646472657373000000000000000000000000000000000000000000000000\n        /* \"#utility.yul\":14726:14728   */\n      0x20\n        /* \"#utility.yul\":14718:14724   */\n      dup3\n        /* \"#utility.yul\":14714:14729   */\n      add\n        /* \"#utility.yul\":14707:14742   */\n      mstore\n        /* \"#utility.yul\":14522:14749   */\n      pop\n      jump\t// out\n        /* \"#utility.yul\":14755:15121   */\n    tag_224:\n        /* \"#utility.yul\":14897:14900   */\n      0x00\n        /* \"#utility.yul\":14918:14985   */\n      tag_360\n        /* \"#utility.yul\":14982:14984   */\n      0x28\n        /* \"#utility.yul\":14977:14980   */\n      dup4\n        /* \"#utility.yul\":14918:14985   */\n      tag_187\n      jump\t// in\n    tag_360:\n        /* \"#utility.yul\":14911:14985   */\n      swap2\n      pop\n        /* \"#utility.yul\":14994:15087   */\n      tag_361\n        /* \"#utility.yul\":15083:15086   */\n      dup3\n        /* \"#utility.yul\":14994:15087   */\n      tag_223\n      jump\t// in\n    tag_361:\n        /* \"#utility.yul\":15112:15114   */\n      0x40\n        /* \"#utility.yul\":15107:15110   */\n      dup3\n        /* \"#utility.yul\":15103:15115   */\n      add\n        /* \"#utility.yul\":15096:15115   */\n      swap1\n      pop\n        /* \"#utility.yul\":14755:15121   */\n      swap2\n      swap1\n      pop\n      jump\t// out\n        /* \"#utility.yul\":15127:15546   */\n    tag_175:\n        /* \"#utility.yul\":15293:15297   */\n      0x00\n        /* \"#utility.yul\":15331:15333   */\n      0x20\n        /* \"#utility.yul\":15320:15329   */\n      dup3\n        /* \"#utility.yul\":15316:15334   */\n      add\n        /* \"#utility.yul\":15308:15334   */\n      swap1\n      pop\n        /* \"#utility.yul\":15380:15389   */\n      dup2\n        /* \"#utility.yul\":15374:15378   */\n      dup2\n        /* \"#utility.yul\":15370:15390   */\n      sub\n        /* \"#utility.yul\":15366:15367   */\n      0x00\n        /* \"#utility.yul\":15355:15364   */\n      dup4\n        /* \"#utility.yul\":15351:15368   */\n      add\n        /* \"#utility.yul\":15344:15391   */\n      mstore\n        /* \"#utility.yul\":15408:15539   */\n      tag_363\n        /* \"#utility.yul\":15534:15538   */\n      dup2\n        /* \"#utility.yul\":15408:15539   */\n      tag_224\n      jump\t// in\n    tag_363:\n        /* \"#utility.yul\":15400:15539   */\n      swap1\n      pop\n        /* \"#utility.yul\":15127:15546   */\n      swap2\n      swap1\n      pop\n      jump\t// out\n        /* \"#utility.yul\":15552:15788   */\n    tag_225:\n        /* \"#utility.yul\":15692:15726   */\n      0x53746f636b436f696e3a2063616e6e6f74206275726e206d6f7265207468616e\n        /* \"#utility.yul\":15688:15689   */\n      0x00\n        /* \"#utility.yul\":15680:15686   */\n      dup3\n        /* \"#utility.yul\":15676:15690   */\n      add\n        /* \"#utility.yul\":15669:15727   */\n      mstore\n        /* \"#utility.yul\":15761:15780   */\n      0x20746865206163636f756e74206f776e73000000000000000000000000000000\n        /* \"#utility.yul\":15756:15758   */\n      0x20\n        /* \"#utility.yul\":15748:15754   */\n      dup3\n        /* \"#utility.yul\":15744:15759   */\n      add\n        /* \"#utility.yul\":15737:15781   */\n      mstore\n        /* \"#utility.yul\":15552:15788   */\n      pop\n      jump\t// out\n        /* \"#utility.yul\":15794:16160   */\n    tag_226:\n        /* \"#utility.yul\":15936:15939   */\n      0x00\n        /* \"#utility.yul\":15957:16024   */\n      tag_366\n        /* \"#utility.yul\":16021:16023   */\n      0x31\n        /* \"#utility.yul\":16016:16019   */\n      dup4\n        /* \"#utility.yul\":15957:16024   */\n      tag_187\n      jump\t// in\n    tag_366:\n        /* \"#utility.yul\":15950:16024   */\n      swap2\n      pop\n        /* \"#utility.yul\":16033:16126   */\n      tag_367\n        /* \"#utility.yul\":16122:16125   */\n      dup3\n        /* \"#utility.yul\":16033:16126   */\n      tag_225\n      jump\t// in\n    tag_367:\n        /* \"#utility.yul\":16151:16153   */\n      0x40\n        /* \"#utility.yul\":16146:16149   */\n      dup3\n        /* \"#utility.yul\":16142:16154   */\n      add\n        /* \"#utility.yul\":16135:16154   */\n      swap1\n      pop\n        /* \"#utility.yul\":15794:16160   */\n      swap2\n      swap1\n      pop\n      jump\t// out\n        /* \"#utility.yul\":16166:16585   */\n    tag_178:\n        /* \"#utility.yul\":16332:16336   */\n      0x00\n        /* \"#utility.yul\":16370:16372   */\n      0x20\n        /* \"#utility.yul\":16359:16368   */\n      dup3\n        /* \"#utility.yul\":16355:16373   */\n      add\n        /* \"#utility.yul\":16347:16373   */\n      swap1\n      pop\n        /* \"#utility.yul\":16419:16428   */\n      dup2\n        /* \"#utility.yul\":16413:16417   */\n      dup2\n        /* \"#utility.yul\":16409:16429   */\n      sub\n        /* \"#utility.yul\":16405:16406   */\n      0x00\n        /* \"#utility.yul\":16394:16403   */\n      dup4\n        /* \"#utility.yul\":16390:16407   */\n      add\n        /* \"#utility.yul\":16383:16430   */\n      mstore\n        /* \"#utility.yul\":16447:16578   */\n      tag_369\n        /* \"#utility.yul\":16573:16577   */\n      dup2\n        /* \"#utility.yul\":16447:16578   */\n      tag_226\n      jump\t// in\n    tag_369:\n        /* \"#utility.yul\":16439:16578   */\n      swap1\n      pop\n        /* \"#utility.yul\":16166:16585   */\n      swap2\n      swap1\n      pop\n      jump\t// out\n        /* \"#utility.yul\":16591:16812   */\n    tag_227:\n        /* \"#utility.yul\":16731:16765   */\n      0x4f776e61626c653a206e6577206f776e6572206973207a65726f206164647265\n        /* \"#utility.yul\":16727:16728   */\n      0x00\n        /* \"#utility.yul\":16719:16725   */\n      dup3\n        /* \"#utility.yul\":16715:16729   */\n      add\n        /* \"#utility.yul\":16708:16766   */\n      mstore\n        /* \"#utility.yul\":16800:16804   */\n      0x7373000000000000000000000000000000000000000000000000000000000000\n        /* \"#utility.yul\":16795:16797   */\n      0x20\n        /* \"#utility.yul\":16787:16793   */\n      dup3\n        /* \"#utility.yul\":16783:16798   */\n      add\n        /* \"#utility.yul\":16776:16805   */\n      mstore\n        /* \"#utility.yul\":16591:16812   */\n      pop\n      jump\t// out\n        /* \"#utility.yul\":16818:17184   */\n    tag_228:\n        /* \"#utility.yul\":16960:16963   */\n      0x00\n        /* \"#utility.yul\":16981:17048   */\n      tag_372\n        /* \"#utility.yul\":17045:17047   */\n      0x22\n        /* \"#utility.yul\":17040:17043   */\n      dup4\n        /* \"#utility.yul\":16981:17048   */\n      tag_187\n      jump\t// in\n    tag_372:\n        /* \"#utility.yul\":16974:17048   */\n      swap2\n      pop\n        /* \"#utility.yul\":17057:17150   */\n      tag_373\n        /* \"#utility.yul\":17146:17149   */\n      dup3\n        /* \"#utility.yul\":17057:17150   */\n      tag_227\n      jump\t// in\n    tag_373:\n        /* \"#utility.yul\":17175:17177   */\n      0x40\n        /* \"#utility.yul\":17170:17173   */\n      dup3\n        /* \"#utility.yul\":17166:17178   */\n      add\n        /* \"#utility.yul\":17159:17178   */\n      swap1\n      pop\n        /* \"#utility.yul\":16818:17184   */\n      swap2\n      swap1\n      pop\n      jump\t// out\n        /* \"#utility.yul\":17190:17609   */\n    tag_185:\n        /* \"#utility.yul\":17356:17360   */\n      0x00\n        /* \"#utility.yul\":17394:17396   */\n      0x20\n        /* \"#utility.yul\":17383:17392   */\n      dup3\n        /* \"#utility.yul\":17379:17397   */\n      add\n        /* \"#utility.yul\":17371:17397   */\n      swap1\n      pop\n        /* \"#utility.yul\":17443:17452   */\n      dup2\n        /* \"#utility.yul\":17437:17441   */\n      dup2\n        /* \"#utility.yul\":17433:17453   */\n      sub\n        /* \"#utility.yul\":17429:17430   */\n      0x00\n        /* \"#utility.yul\":17418:17427   */\n      dup4\n        /* \"#utility.yul\":17414:17431   */\n      add\n        /* \"#utility.yul\":17407:17454   */\n      mstore\n        /* \"#utility.yul\":17471:17602   */\n      tag_375\n        /* \"#utility.yul\":17597:17601   */\n      dup2\n        /* \"#utility.yul\":17471:17602   */\n      tag_228\n      jump\t// in\n    tag_375:\n        /* \"#utility.yul\":17463:17602   */\n      swap1\n      pop\n        /* \"#utility.yul\":17190:17609   */\n      swap2\n      swap1\n      pop\n      jump\t// out\n\n    auxdata: 0xa26469706673582212202b9bdc6223aca648cffb7b9225117e00710d27940adbed3865b3d9f91f65d44c64736f6c634300080d0033\n}\n",
				"bytecode": {
					"linkReferences": {},
					"object": "60806040523480156200001157600080fd5b50604051620023fc380380620023fc8339818101604052810190620000379190620004c6565b336000806101000a81548173ffffffffffffffffffffffffffffffffffffffff021916908373ffffffffffffffffffffffffffffffffffffffff16021790555060008054906101000a900473ffffffffffffffffffffffffffffffffffffffff1673ffffffffffffffffffffffffffffffffffffffff16600073ffffffffffffffffffffffffffffffffffffffff167f8be0079c531659141344cd1fd0a4f28419497f9722a3daafe3b4186f6b6457e060405160405180910390a383600490805190602001906200010a92919062000200565b5082600390805190602001906200012392919062000200565b5081600260006101000a81548160ff021916908360ff16021790555080600181905550600154600560003373ffffffffffffffffffffffffffffffffffffffff1673ffffffffffffffffffffffffffffffffffffffff168152602001908152602001600020819055503373ffffffffffffffffffffffffffffffffffffffff16600073ffffffffffffffffffffffffffffffffffffffff167fddf252ad1be2c89b69c2b068fc378daa952ba7f163c4a11628f55a4df523b3ef600154604051620001ee919062000587565b60405180910390a35050505062000608565b8280546200020e90620005d3565b90600052602060002090601f0160209004810192826200023257600085556200027e565b82601f106200024d57805160ff19168380011785556200027e565b828001600101855582156200027e579182015b828111156200027d57825182559160200191906001019062000260565b5b5090506200028d919062000291565b5090565b5b80821115620002ac57600081600090555060010162000292565b5090565b6000604051905090565b600080fd5b600080fd5b600080fd5b600080fd5b6000601f19601f8301169050919050565b7f4e487b7100000000000000000000000000000000000000000000000000000000600052604160045260246000fd5b6200031982620002ce565b810181811067ffffffffffffffff821117156200033b576200033a620002df565b5b80604052505050565b600062000350620002b0565b90506200035e82826200030e565b919050565b600067ffffffffffffffff821115620003815762000380620002df565b5b6200038c82620002ce565b9050602081019050919050565b60005b83811015620003b95780820151818401526020810190506200039c565b83811115620003c9576000848401525b50505050565b6000620003e6620003e08462000363565b62000344565b905082815260208101848484011115620004055762000404620002c9565b5b6200041284828562000399565b509392505050565b600082601f830112620004325762000431620002c4565b5b815162000444848260208601620003cf565b91505092915050565b600060ff82169050919050565b62000465816200044d565b81146200047157600080fd5b50565b60008151905062000485816200045a565b92915050565b6000819050919050565b620004a0816200048b565b8114620004ac57600080fd5b50565b600081519050620004c08162000495565b92915050565b60008060008060808587031215620004e357620004e2620002ba565b5b600085015167ffffffffffffffff811115620005045762000503620002bf565b5b62000512878288016200041a565b945050602085015167ffffffffffffffff811115620005365762000535620002bf565b5b62000544878288016200041a565b9350506040620005578782880162000474565b92505060606200056a87828801620004af565b91505092959194509250565b62000581816200048b565b82525050565b60006020820190506200059e600083018462000576565b92915050565b7f4e487b7100000000000000000000000000000000000000000000000000000000600052602260045260246000fd5b60006002820490506001821680620005ec57607f821691505b602082108103620006025762000601620005a4565b5b50919050565b611de480620006186000396000f3fe608060405234801561001057600080fd5b50600436106101005760003560e01c8063715018a6116100975780639dc29fac116100665780639dc29fac146102b3578063a9059cbb146102e3578063dd62ed3e14610313578063f2fde38b1461034357610100565b8063715018a61461024f578063893d20e8146102595780638da5cb5b1461027757806395d89b411461029557610100565b8063313ce567116100d3578063313ce567146101a157806339509351146101bf57806340c10f19146101ef57806370a082311461021f57610100565b806306fdde0314610105578063095ea7b31461012357806318160ddd1461015357806323b872dd14610171575b600080fd5b61010d61035f565b60405161011a9190611465565b60405180910390f35b61013d60048036038101906101389190611520565b6103f1565b60405161014a919061157b565b60405180910390f35b61015b610408565b60405161016891906115a5565b60405180910390f35b61018b600480360381019061018691906115c0565b610412565b604051610198919061157b565b60405180910390f35b6101a961057b565b6040516101b6919061162f565b60405180910390f35b6101d960048036038101906101d49190611520565b610592565b6040516101e6919061157b565b60405180910390f35b61020960048036038101906102049190611520565b61059a565b604051610216919061157b565b60405180910390f35b6102396004803603810190610234919061164a565b61063e565b60405161024691906115a5565b60405180910390f35b610257610687565b005b6102616107d3565b60405161026e9190611686565b60405180910390f35b61027f6107e2565b60405161028c9190611686565b60405180910390f35b61029d61080b565b6040516102aa9190611465565b60405180910390f35b6102cd60048036038101906102c89190611520565b61089d565b6040516102da919061157b565b60405180910390f35b6102fd60048036038101906102f89190611520565b610941565b60405161030a919061157b565b60405180910390f35b61032d600480360381019061032891906116a1565b610958565b60405161033a91906115a5565b60405180910390f35b61035d6004803603810190610358919061164a565b6109df565b005b60606004805461036e90611710565b80601f016020809104026020016040519081016040528092919081815260200182805461039a90611710565b80156103e75780601f106103bc576101008083540402835291602001916103e7565b820191906000526020600020905b8154815290600101906020018083116103ca57829003601f168201915b5050505050905090565b60006103fe338484610a79565b6001905092915050565b6000600154905090565b600081600660008673ffffffffffffffffffffffffffffffffffffffff1673ffffffffffffffffffffffffffffffffffffffff16815260200190815260200160002060003373ffffffffffffffffffffffffffffffffffffffff1673ffffffffffffffffffffffffffffffffffffffff1681526020019081526020016000205410156104d3576040517f08c379a00000000000000000000000000000000000000000000000000000000081526004016104ca906117b3565b60405180910390fd5b6104de848484610c42565b610570843384600660008973ffffffffffffffffffffffffffffffffffffffff1673ffffffffffffffffffffffffffffffffffffffff16815260200190815260200160002060003373ffffffffffffffffffffffffffffffffffffffff1673ffffffffffffffffffffffffffffffffffffffff1681526020019081526020016000205461056b9190611802565b610a79565b600190509392505050565b6000600260009054906101000a900460ff16905090565b600092915050565b60003373ffffffffffffffffffffffffffffffffffffffff1660008054906101000a900473ffffffffffffffffffffffffffffffffffffffff1673ffffffffffffffffffffffffffffffffffffffff161461062a576040517f08c379a0000000000000000000000000000000000000000000000000000000008152600401610621906118a8565b60405180910390fd5b6106348383610f28565b6001905092915050565b6000600560008373ffffffffffffffffffffffffffffffffffffffff1673ffffffffffffffffffffffffffffffffffffffff168152602001908152602001600020549050919050565b3373ffffffffffffffffffffffffffffffffffffffff1660008054906101000a900473ffffffffffffffffffffffffffffffffffffffff1673ffffffffffffffffffffffffffffffffffffffff1614610715576040517f08c379a000000000000000000000000000000000000000000000000000000000815260040161070c906118a8565b60405180910390fd5b600073ffffffffffffffffffffffffffffffffffffffff1660008054906101000a900473ffffffffffffffffffffffffffffffffffffffff1673ffffffffffffffffffffffffffffffffffffffff167f8be0079c531659141344cd1fd0a4f28419497f9722a3daafe3b4186f6b6457e060405160405180910390a360008060006101000a81548173ffffffffffffffffffffffffffffffffffffffff021916908373ffffffffffffffffffffffffffffffffffffffff160217905550565b60006107dd6107e2565b905090565b60008060009054906101000a900473ffffffffffffffffffffffffffffffffffffffff16905090565b60606003805461081a90611710565b80601f016020809104026020016040519081016040528092919081815260200182805461084690611710565b80156108935780601f1061086857610100808354040283529160200191610893565b820191906000526020600020905b81548152906001019060200180831161087657829003601f168201915b5050505050905090565b60003373ffffffffffffffffffffffffffffffffffffffff1660008054906101000a900473ffffffffffffffffffffffffffffffffffffffff1673ffffffffffffffffffffffffffffffffffffffff161461092d576040517f08c379a0000000000000000000000000000000000000000000000000000000008152600401610924906118a8565b60405180910390fd5b61093783836110a3565b6001905092915050565b600061094e338484610c42565b6001905092915050565b6000600660008473ffffffffffffffffffffffffffffffffffffffff1673ffffffffffffffffffffffffffffffffffffffff16815260200190815260200160002060008373ffffffffffffffffffffffffffffffffffffffff1673ffffffffffffffffffffffffffffffffffffffff16815260200190815260200160002054905092915050565b3373ffffffffffffffffffffffffffffffffffffffff1660008054906101000a900473ffffffffffffffffffffffffffffffffffffffff1673ffffffffffffffffffffffffffffffffffffffff1614610a6d576040517f08c379a0000000000000000000000000000000000000000000000000000000008152600401610a64906118a8565b60405180910390fd5b610a76816112a0565b50565b600073ffffffffffffffffffffffffffffffffffffffff168373ffffffffffffffffffffffffffffffffffffffff1603610ae8576040517f08c379a0000000000000000000000000000000000000000000000000000000008152600401610adf9061193a565b60405180910390fd5b600073ffffffffffffffffffffffffffffffffffffffff168273ffffffffffffffffffffffffffffffffffffffff1603610b57576040517f08c379a0000000000000000000000000000000000000000000000000000000008152600401610b4e906119cc565b60405180910390fd5b80600660008573ffffffffffffffffffffffffffffffffffffffff1673ffffffffffffffffffffffffffffffffffffffff16815260200190815260200160002060008473ffffffffffffffffffffffffffffffffffffffff1673ffffffffffffffffffffffffffffffffffffffff168152602001908152602001600020819055508173ffffffffffffffffffffffffffffffffffffffff168373ffffffffffffffffffffffffffffffffffffffff167f8c5be1e5ebec7d5bd14f71427d1e84f3dd0314c0f7b2291e5b200ac8c7c3b92583604051610c3591906115a5565b60405180910390a3505050565b600073ffffffffffffffffffffffffffffffffffffffff168373ffffffffffffffffffffffffffffffffffffffff1603610cb1576040517f08c379a0000000000000000000000000000000000000000000000000000000008152600401610ca890611a5e565b60405180910390fd5b600073ffffffffffffffffffffffffffffffffffffffff168273ffffffffffffffffffffffffffffffffffffffff1603610d20576040517f08c379a0000000000000000000000000000000000000000000000000000000008152600401610d1790611a5e565b60405180910390fd5b80600560008573ffffffffffffffffffffffffffffffffffffffff1673ffffffffffffffffffffffffffffffffffffffff168152602001908152602001600020541015610da2576040517f08c379a0000000000000000000000000000000000000000000000000000000008152600401610d9990611af0565b60405180910390fd5b80600560008573ffffffffffffffffffffffffffffffffffffffff1673ffffffffffffffffffffffffffffffffffffffff16815260200190815260200160002054610ded9190611802565b600560008573ffffffffffffffffffffffffffffffffffffffff1673ffffffffffffffffffffffffffffffffffffffff1681526020019081526020016000208190555080600560008473ffffffffffffffffffffffffffffffffffffffff1673ffffffffffffffffffffffffffffffffffffffff16815260200190815260200160002054610e7b9190611b10565b600560008473ffffffffffffffffffffffffffffffffffffffff1673ffffffffffffffffffffffffffffffffffffffff168152602001908152602001600020819055508173ffffffffffffffffffffffffffffffffffffffff168373ffffffffffffffffffffffffffffffffffffffff167fddf252ad1be2c89b69c2b068fc378daa952ba7f163c4a11628f55a4df523b3ef83604051610f1b91906115a5565b60405180910390a3505050565b600073ffffffffffffffffffffffffffffffffffffffff168273ffffffffffffffffffffffffffffffffffffffff1603610f97576040517f08c379a0000000000000000000000000000000000000000000000000000000008152600401610f8e90611bd8565b60405180910390fd5b80600154610fa59190611b10565b60018190555080600560008473ffffffffffffffffffffffffffffffffffffffff1673ffffffffffffffffffffffffffffffffffffffff16815260200190815260200160002054610ff69190611b10565b600560008473ffffffffffffffffffffffffffffffffffffffff1673ffffffffffffffffffffffffffffffffffffffff168152602001908152602001600020819055508173ffffffffffffffffffffffffffffffffffffffff16600073ffffffffffffffffffffffffffffffffffffffff167fddf252ad1be2c89b69c2b068fc378daa952ba7f163c4a11628f55a4df523b3ef8360405161109791906115a5565b60405180910390a35050565b600073ffffffffffffffffffffffffffffffffffffffff168273ffffffffffffffffffffffffffffffffffffffff1603611112576040517f08c379a000000000000000000000000000000000000000000000000000000000815260040161110990611c6a565b60405180910390fd5b80600560008473ffffffffffffffffffffffffffffffffffffffff1673ffffffffffffffffffffffffffffffffffffffff168152602001908152602001600020541015611194576040517f08c379a000000000000000000000000000000000000000000000000000000000815260040161118b90611cfc565b60405180910390fd5b80600560008473ffffffffffffffffffffffffffffffffffffffff1673ffffffffffffffffffffffffffffffffffffffff168152602001908152602001600020546111df9190611802565b600560008473ffffffffffffffffffffffffffffffffffffffff1673ffffffffffffffffffffffffffffffffffffffff16815260200190815260200160002081905550806001546112309190611802565b600181905550600073ffffffffffffffffffffffffffffffffffffffff168273ffffffffffffffffffffffffffffffffffffffff167fddf252ad1be2c89b69c2b068fc378daa952ba7f163c4a11628f55a4df523b3ef8360405161129491906115a5565b60405180910390a35050565b600073ffffffffffffffffffffffffffffffffffffffff168173ffffffffffffffffffffffffffffffffffffffff160361130f576040517f08c379a000000000000000000000000000000000000000000000000000000000815260040161130690611d8e565b60405180910390fd5b8073ffffffffffffffffffffffffffffffffffffffff1660008054906101000a900473ffffffffffffffffffffffffffffffffffffffff1673ffffffffffffffffffffffffffffffffffffffff167f8be0079c531659141344cd1fd0a4f28419497f9722a3daafe3b4186f6b6457e060405160405180910390a3806000806101000a81548173ffffffffffffffffffffffffffffffffffffffff021916908373ffffffffffffffffffffffffffffffffffffffff16021790555050565b600081519050919050565b600082825260208201905092915050565b60005b838110156114065780820151818401526020810190506113eb565b83811115611415576000848401525b50505050565b6000601f19601f8301169050919050565b6000611437826113cc565b61144181856113d7565b93506114518185602086016113e8565b61145a8161141b565b840191505092915050565b6000602082019050818103600083015261147f818461142c565b905092915050565b600080fd5b600073ffffffffffffffffffffffffffffffffffffffff82169050919050565b60006114b78261148c565b9050919050565b6114c7816114ac565b81146114d257600080fd5b50565b6000813590506114e4816114be565b92915050565b6000819050919050565b6114fd816114ea565b811461150857600080fd5b50565b60008135905061151a816114f4565b92915050565b6000806040838503121561153757611536611487565b5b6000611545858286016114d5565b92505060206115568582860161150b565b9150509250929050565b60008115159050919050565b61157581611560565b82525050565b6000602082019050611590600083018461156c565b92915050565b61159f816114ea565b82525050565b60006020820190506115ba6000830184611596565b92915050565b6000806000606084860312156115d9576115d8611487565b5b60006115e7868287016114d5565b93505060206115f8868287016114d5565b92505060406116098682870161150b565b9150509250925092565b600060ff82169050919050565b61162981611613565b82525050565b60006020820190506116446000830184611620565b92915050565b6000602082840312156116605761165f611487565b5b600061166e848285016114d5565b91505092915050565b611680816114ac565b82525050565b600060208201905061169b6000830184611677565b92915050565b600080604083850312156116b8576116b7611487565b5b60006116c6858286016114d5565b92505060206116d7858286016114d5565b9150509250929050565b7f4e487b7100000000000000000000000000000000000000000000000000000000600052602260045260246000fd5b6000600282049050600182168061172857607f821691505b60208210810361173b5761173a6116e1565b5b50919050565b7f53746f636b436f696e3a20596f752063616e6e6f74207370656e64207468617460008201527f206d756368206f6e2074686973206163636f756e740000000000000000000000602082015250565b600061179d6035836113d7565b91506117a882611741565b604082019050919050565b600060208201905081810360008301526117cc81611790565b9050919050565b7f4e487b7100000000000000000000000000000000000000000000000000000000600052601160045260246000fd5b600061180d826114ea565b9150611818836114ea565b92508282101561182b5761182a6117d3565b5b828203905092915050565b7f4f776e61626c653a206f6e6c79206f776e65722063616e2063616c6c2074686960008201527f732066756e6374696f6e00000000000000000000000000000000000000000000602082015250565b6000611892602a836113d7565b915061189d82611836565b604082019050919050565b600060208201905081810360008301526118c181611885565b9050919050565b7f53746f636b436f696e3a20617070726f76652063616e6e6f7420626520646f6e60008201527f652066726f6d207a65726f206164647265737300000000000000000000000000602082015250565b60006119246033836113d7565b915061192f826118c8565b604082019050919050565b6000602082019050818103600083015261195381611917565b9050919050565b7f53746f636b436f696e3a20617070726f76652063616e6e6f7420626520746f2060008201527f7a65726f20616464726573730000000000000000000000000000000000000000602082015250565b60006119b6602c836113d7565b91506119c18261195a565b604082019050919050565b600060208201905081810360008301526119e5816119a9565b9050919050565b7f53746f636b436f696e3a207472616e736665722066726f6d207a65726f20616460008201527f6472657373000000000000000000000000000000000000000000000000000000602082015250565b6000611a486025836113d7565b9150611a53826119ec565b604082019050919050565b60006020820190508181036000830152611a7781611a3b565b9050919050565b7f53746f636b436f696e3a2063616e74207472616e73666572206d6f726520746860008201527f616e20796f7572206163636f756e7420686f6c64730000000000000000000000602082015250565b6000611ada6035836113d7565b9150611ae582611a7e565b604082019050919050565b60006020820190508181036000830152611b0981611acd565b9050919050565b6000611b1b826114ea565b9150611b26836114ea565b9250827fffffffffffffffffffffffffffffffffffffffffffffffffffffffffffffffff03821115611b5b57611b5a6117d3565b5b828201905092915050565b7f53746f636b436f696e3a2063616e6e6f74206d696e7420746f207a65726f206160008201527f6464726573730000000000000000000000000000000000000000000000000000602082015250565b6000611bc26026836113d7565b9150611bcd82611b66565b604082019050919050565b60006020820190508181036000830152611bf181611bb5565b9050919050565b7f53746f636b436f696e3a2063616e6e6f74206275726e2066726f6d207a65726f60008201527f2061646472657373000000000000000000000000000000000000000000000000602082015250565b6000611c546028836113d7565b9150611c5f82611bf8565b604082019050919050565b60006020820190508181036000830152611c8381611c47565b9050919050565b7f53746f636b436f696e3a2063616e6e6f74206275726e206d6f7265207468616e60008201527f20746865206163636f756e74206f776e73000000000000000000000000000000602082015250565b6000611ce66031836113d7565b9150611cf182611c8a565b604082019050919050565b60006020820190508181036000830152611d1581611cd9565b9050919050565b7f4f776e61626c653a206e6577206f776e6572206973207a65726f20616464726560008201527f7373000000000000000000000000000000000000000000000000000000000000602082015250565b6000611d786022836113d7565b9150611d8382611d1c565b604082019050919050565b60006020820190508181036000830152611da781611d6b565b905091905056fea26469706673582212202b9bdc6223aca648cffb7b9225117e00710d27940adbed3865b3d9f91f65d44c64736f6c634300080d0033",
					"opcodes": "PUSH1 0x80 PUSH1 0x40 MSTORE CALLVALUE DUP1 ISZERO PUSH3 0x11 JUMPI PUSH1 0x0 DUP1 REVERT JUMPDEST POP PUSH1 0x40 MLOAD PUSH3 0x23FC CODESIZE SUB DUP1 PUSH3 0x23FC DUP4 CODECOPY DUP2 DUP2 ADD PUSH1 0x40 MSTORE DUP2 ADD SWAP1 PUSH3 0x37 SWAP2 SWAP1 PUSH3 0x4C6 JUMP JUMPDEST CALLER PUSH1 0x0 DUP1 PUSH2 0x100 EXP DUP2 SLOAD DUP2 PUSH20 0xFFFFFFFFFFFFFFFFFFFFFFFFFFFFFFFFFFFFFFFF MUL NOT AND SWAP1 DUP4 PUSH20 0xFFFFFFFFFFFFFFFFFFFFFFFFFFFFFFFFFFFFFFFF AND MUL OR SWAP1 SSTORE POP PUSH1 0x0 DUP1 SLOAD SWAP1 PUSH2 0x100 EXP SWAP1 DIV PUSH20 0xFFFFFFFFFFFFFFFFFFFFFFFFFFFFFFFFFFFFFFFF AND PUSH20 0xFFFFFFFFFFFFFFFFFFFFFFFFFFFFFFFFFFFFFFFF AND PUSH1 0x0 PUSH20 0xFFFFFFFFFFFFFFFFFFFFFFFFFFFFFFFFFFFFFFFF AND PUSH32 0x8BE0079C531659141344CD1FD0A4F28419497F9722A3DAAFE3B4186F6B6457E0 PUSH1 0x40 MLOAD PUSH1 0x40 MLOAD DUP1 SWAP2 SUB SWAP1 LOG3 DUP4 PUSH1 0x4 SWAP1 DUP1 MLOAD SWAP1 PUSH1 0x20 ADD SWAP1 PUSH3 0x10A SWAP3 SWAP2 SWAP1 PUSH3 0x200 JUMP JUMPDEST POP DUP3 PUSH1 0x3 SWAP1 DUP1 MLOAD SWAP1 PUSH1 0x20 ADD SWAP1 PUSH3 0x123 SWAP3 SWAP2 SWAP1 PUSH3 0x200 JUMP JUMPDEST POP DUP2 PUSH1 0x2 PUSH1 0x0 PUSH2 0x100 EXP DUP2 SLOAD DUP2 PUSH1 0xFF MUL NOT AND SWAP1 DUP4 PUSH1 0xFF AND MUL OR SWAP1 SSTORE POP DUP1 PUSH1 0x1 DUP2 SWAP1 SSTORE POP PUSH1 0x1 SLOAD PUSH1 0x5 PUSH1 0x0 CALLER PUSH20 0xFFFFFFFFFFFFFFFFFFFFFFFFFFFFFFFFFFFFFFFF AND PUSH20 0xFFFFFFFFFFFFFFFFFFFFFFFFFFFFFFFFFFFFFFFF AND DUP2 MSTORE PUSH1 0x20 ADD SWAP1 DUP2 MSTORE PUSH1 0x20 ADD PUSH1 0x0 KECCAK256 DUP2 SWAP1 SSTORE POP CALLER PUSH20 0xFFFFFFFFFFFFFFFFFFFFFFFFFFFFFFFFFFFFFFFF AND PUSH1 0x0 PUSH20 0xFFFFFFFFFFFFFFFFFFFFFFFFFFFFFFFFFFFFFFFF AND PUSH32 0xDDF252AD1BE2C89B69C2B068FC378DAA952BA7F163C4A11628F55A4DF523B3EF PUSH1 0x1 SLOAD PUSH1 0x40 MLOAD PUSH3 0x1EE SWAP2 SWAP1 PUSH3 0x587 JUMP JUMPDEST PUSH1 0x40 MLOAD DUP1 SWAP2 SUB SWAP1 LOG3 POP POP POP POP PUSH3 0x608 JUMP JUMPDEST DUP3 DUP1 SLOAD PUSH3 0x20E SWAP1 PUSH3 0x5D3 JUMP JUMPDEST SWAP1 PUSH1 0x0 MSTORE PUSH1 0x20 PUSH1 0x0 KECCAK256 SWAP1 PUSH1 0x1F ADD PUSH1 0x20 SWAP1 DIV DUP2 ADD SWAP3 DUP3 PUSH3 0x232 JUMPI PUSH1 0x0 DUP6 SSTORE PUSH3 0x27E JUMP JUMPDEST DUP3 PUSH1 0x1F LT PUSH3 0x24D JUMPI DUP1 MLOAD PUSH1 0xFF NOT AND DUP4 DUP1 ADD OR DUP6 SSTORE PUSH3 0x27E JUMP JUMPDEST DUP3 DUP1 ADD PUSH1 0x1 ADD DUP6 SSTORE DUP3 ISZERO PUSH3 0x27E JUMPI SWAP2 DUP3 ADD JUMPDEST DUP3 DUP2 GT ISZERO PUSH3 0x27D JUMPI DUP3 MLOAD DUP3 SSTORE SWAP2 PUSH1 0x20 ADD SWAP2 SWAP1 PUSH1 0x1 ADD SWAP1 PUSH3 0x260 JUMP JUMPDEST JUMPDEST POP SWAP1 POP PUSH3 0x28D SWAP2 SWAP1 PUSH3 0x291 JUMP JUMPDEST POP SWAP1 JUMP JUMPDEST JUMPDEST DUP1 DUP3 GT ISZERO PUSH3 0x2AC JUMPI PUSH1 0x0 DUP2 PUSH1 0x0 SWAP1 SSTORE POP PUSH1 0x1 ADD PUSH3 0x292 JUMP JUMPDEST POP SWAP1 JUMP JUMPDEST PUSH1 0x0 PUSH1 0x40 MLOAD SWAP1 POP SWAP1 JUMP JUMPDEST PUSH1 0x0 DUP1 REVERT JUMPDEST PUSH1 0x0 DUP1 REVERT JUMPDEST PUSH1 0x0 DUP1 REVERT JUMPDEST PUSH1 0x0 DUP1 REVERT JUMPDEST PUSH1 0x0 PUSH1 0x1F NOT PUSH1 0x1F DUP4 ADD AND SWAP1 POP SWAP2 SWAP1 POP JUMP JUMPDEST PUSH32 0x4E487B7100000000000000000000000000000000000000000000000000000000 PUSH1 0x0 MSTORE PUSH1 0x41 PUSH1 0x4 MSTORE PUSH1 0x24 PUSH1 0x0 REVERT JUMPDEST PUSH3 0x319 DUP3 PUSH3 0x2CE JUMP JUMPDEST DUP2 ADD DUP2 DUP2 LT PUSH8 0xFFFFFFFFFFFFFFFF DUP3 GT OR ISZERO PUSH3 0x33B JUMPI PUSH3 0x33A PUSH3 0x2DF JUMP JUMPDEST JUMPDEST DUP1 PUSH1 0x40 MSTORE POP POP POP JUMP JUMPDEST PUSH1 0x0 PUSH3 0x350 PUSH3 0x2B0 JUMP JUMPDEST SWAP1 POP PUSH3 0x35E DUP3 DUP3 PUSH3 0x30E JUMP JUMPDEST SWAP2 SWAP1 POP JUMP JUMPDEST PUSH1 0x0 PUSH8 0xFFFFFFFFFFFFFFFF DUP3 GT ISZERO PUSH3 0x381 JUMPI PUSH3 0x380 PUSH3 0x2DF JUMP JUMPDEST JUMPDEST PUSH3 0x38C DUP3 PUSH3 0x2CE JUMP JUMPDEST SWAP1 POP PUSH1 0x20 DUP2 ADD SWAP1 POP SWAP2 SWAP1 POP JUMP JUMPDEST PUSH1 0x0 JUMPDEST DUP4 DUP2 LT ISZERO PUSH3 0x3B9 JUMPI DUP1 DUP3 ADD MLOAD DUP2 DUP5 ADD MSTORE PUSH1 0x20 DUP2 ADD SWAP1 POP PUSH3 0x39C JUMP JUMPDEST DUP4 DUP2 GT ISZERO PUSH3 0x3C9 JUMPI PUSH1 0x0 DUP5 DUP5 ADD MSTORE JUMPDEST POP POP POP POP JUMP JUMPDEST PUSH1 0x0 PUSH3 0x3E6 PUSH3 0x3E0 DUP5 PUSH3 0x363 JUMP JUMPDEST PUSH3 0x344 JUMP JUMPDEST SWAP1 POP DUP3 DUP2 MSTORE PUSH1 0x20 DUP2 ADD DUP5 DUP5 DUP5 ADD GT ISZERO PUSH3 0x405 JUMPI PUSH3 0x404 PUSH3 0x2C9 JUMP JUMPDEST JUMPDEST PUSH3 0x412 DUP5 DUP3 DUP6 PUSH3 0x399 JUMP JUMPDEST POP SWAP4 SWAP3 POP POP POP JUMP JUMPDEST PUSH1 0x0 DUP3 PUSH1 0x1F DUP4 ADD SLT PUSH3 0x432 JUMPI PUSH3 0x431 PUSH3 0x2C4 JUMP JUMPDEST JUMPDEST DUP2 MLOAD PUSH3 0x444 DUP5 DUP3 PUSH1 0x20 DUP7 ADD PUSH3 0x3CF JUMP JUMPDEST SWAP2 POP POP SWAP3 SWAP2 POP POP JUMP JUMPDEST PUSH1 0x0 PUSH1 0xFF DUP3 AND SWAP1 POP SWAP2 SWAP1 POP JUMP JUMPDEST PUSH3 0x465 DUP2 PUSH3 0x44D JUMP JUMPDEST DUP2 EQ PUSH3 0x471 JUMPI PUSH1 0x0 DUP1 REVERT JUMPDEST POP JUMP JUMPDEST PUSH1 0x0 DUP2 MLOAD SWAP1 POP PUSH3 0x485 DUP2 PUSH3 0x45A JUMP JUMPDEST SWAP3 SWAP2 POP POP JUMP JUMPDEST PUSH1 0x0 DUP2 SWAP1 POP SWAP2 SWAP1 POP JUMP JUMPDEST PUSH3 0x4A0 DUP2 PUSH3 0x48B JUMP JUMPDEST DUP2 EQ PUSH3 0x4AC JUMPI PUSH1 0x0 DUP1 REVERT JUMPDEST POP JUMP JUMPDEST PUSH1 0x0 DUP2 MLOAD SWAP1 POP PUSH3 0x4C0 DUP2 PUSH3 0x495 JUMP JUMPDEST SWAP3 SWAP2 POP POP JUMP JUMPDEST PUSH1 0x0 DUP1 PUSH1 0x0 DUP1 PUSH1 0x80 DUP6 DUP8 SUB SLT ISZERO PUSH3 0x4E3 JUMPI PUSH3 0x4E2 PUSH3 0x2BA JUMP JUMPDEST JUMPDEST PUSH1 0x0 DUP6 ADD MLOAD PUSH8 0xFFFFFFFFFFFFFFFF DUP2 GT ISZERO PUSH3 0x504 JUMPI PUSH3 0x503 PUSH3 0x2BF JUMP JUMPDEST JUMPDEST PUSH3 0x512 DUP8 DUP3 DUP9 ADD PUSH3 0x41A JUMP JUMPDEST SWAP5 POP POP PUSH1 0x20 DUP6 ADD MLOAD PUSH8 0xFFFFFFFFFFFFFFFF DUP2 GT ISZERO PUSH3 0x536 JUMPI PUSH3 0x535 PUSH3 0x2BF JUMP JUMPDEST JUMPDEST PUSH3 0x544 DUP8 DUP3 DUP9 ADD PUSH3 0x41A JUMP JUMPDEST SWAP4 POP POP PUSH1 0x40 PUSH3 0x557 DUP8 DUP3 DUP9 ADD PUSH3 0x474 JUMP JUMPDEST SWAP3 POP POP PUSH1 0x60 PUSH3 0x56A DUP8 DUP3 DUP9 ADD PUSH3 0x4AF JUMP JUMPDEST SWAP2 POP POP SWAP3 SWAP6 SWAP2 SWAP5 POP SWAP3 POP JUMP JUMPDEST PUSH3 0x581 DUP2 PUSH3 0x48B JUMP JUMPDEST DUP3 MSTORE POP POP JUMP JUMPDEST PUSH1 0x0 PUSH1 0x20 DUP3 ADD SWAP1 POP PUSH3 0x59E PUSH1 0x0 DUP4 ADD DUP5 PUSH3 0x576 JUMP JUMPDEST SWAP3 SWAP2 POP POP JUMP JUMPDEST PUSH32 0x4E487B7100000000000000000000000000000000000000000000000000000000 PUSH1 0x0 MSTORE PUSH1 0x22 PUSH1 0x4 MSTORE PUSH1 0x24 PUSH1 0x0 REVERT JUMPDEST PUSH1 0x0 PUSH1 0x2 DUP3 DIV SWAP1 POP PUSH1 0x1 DUP3 AND DUP1 PUSH3 0x5EC JUMPI PUSH1 0x7F DUP3 AND SWAP2 POP JUMPDEST PUSH1 0x20 DUP3 LT DUP2 SUB PUSH3 0x602 JUMPI PUSH3 0x601 PUSH3 0x5A4 JUMP JUMPDEST JUMPDEST POP SWAP2 SWAP1 POP JUMP JUMPDEST PUSH2 0x1DE4 DUP1 PUSH3 0x618 PUSH1 0x0 CODECOPY PUSH1 0x0 RETURN INVALID PUSH1 0x80 PUSH1 0x40 MSTORE CALLVALUE DUP1 ISZERO PUSH2 0x10 JUMPI PUSH1 0x0 DUP1 REVERT JUMPDEST POP PUSH1 0x4 CALLDATASIZE LT PUSH2 0x100 JUMPI PUSH1 0x0 CALLDATALOAD PUSH1 0xE0 SHR DUP1 PUSH4 0x715018A6 GT PUSH2 0x97 JUMPI DUP1 PUSH4 0x9DC29FAC GT PUSH2 0x66 JUMPI DUP1 PUSH4 0x9DC29FAC EQ PUSH2 0x2B3 JUMPI DUP1 PUSH4 0xA9059CBB EQ PUSH2 0x2E3 JUMPI DUP1 PUSH4 0xDD62ED3E EQ PUSH2 0x313 JUMPI DUP1 PUSH4 0xF2FDE38B EQ PUSH2 0x343 JUMPI PUSH2 0x100 JUMP JUMPDEST DUP1 PUSH4 0x715018A6 EQ PUSH2 0x24F JUMPI DUP1 PUSH4 0x893D20E8 EQ PUSH2 0x259 JUMPI DUP1 PUSH4 0x8DA5CB5B EQ PUSH2 0x277 JUMPI DUP1 PUSH4 0x95D89B41 EQ PUSH2 0x295 JUMPI PUSH2 0x100 JUMP JUMPDEST DUP1 PUSH4 0x313CE567 GT PUSH2 0xD3 JUMPI DUP1 PUSH4 0x313CE567 EQ PUSH2 0x1A1 JUMPI DUP1 PUSH4 0x39509351 EQ PUSH2 0x1BF JUMPI DUP1 PUSH4 0x40C10F19 EQ PUSH2 0x1EF JUMPI DUP1 PUSH4 0x70A08231 EQ PUSH2 0x21F JUMPI PUSH2 0x100 JUMP JUMPDEST DUP1 PUSH4 0x6FDDE03 EQ PUSH2 0x105 JUMPI DUP1 PUSH4 0x95EA7B3 EQ PUSH2 0x123 JUMPI DUP1 PUSH4 0x18160DDD EQ PUSH2 0x153 JUMPI DUP1 PUSH4 0x23B872DD EQ PUSH2 0x171 JUMPI JUMPDEST PUSH1 0x0 DUP1 REVERT JUMPDEST PUSH2 0x10D PUSH2 0x35F JUMP JUMPDEST PUSH1 0x40 MLOAD PUSH2 0x11A SWAP2 SWAP1 PUSH2 0x1465 JUMP JUMPDEST PUSH1 0x40 MLOAD DUP1 SWAP2 SUB SWAP1 RETURN JUMPDEST PUSH2 0x13D PUSH1 0x4 DUP1 CALLDATASIZE SUB DUP2 ADD SWAP1 PUSH2 0x138 SWAP2 SWAP1 PUSH2 0x1520 JUMP JUMPDEST PUSH2 0x3F1 JUMP JUMPDEST PUSH1 0x40 MLOAD PUSH2 0x14A SWAP2 SWAP1 PUSH2 0x157B JUMP JUMPDEST PUSH1 0x40 MLOAD DUP1 SWAP2 SUB SWAP1 RETURN JUMPDEST PUSH2 0x15B PUSH2 0x408 JUMP JUMPDEST PUSH1 0x40 MLOAD PUSH2 0x168 SWAP2 SWAP1 PUSH2 0x15A5 JUMP JUMPDEST PUSH1 0x40 MLOAD DUP1 SWAP2 SUB SWAP1 RETURN JUMPDEST PUSH2 0x18B PUSH1 0x4 DUP1 CALLDATASIZE SUB DUP2 ADD SWAP1 PUSH2 0x186 SWAP2 SWAP1 PUSH2 0x15C0 JUMP JUMPDEST PUSH2 0x412 JUMP JUMPDEST PUSH1 0x40 MLOAD PUSH2 0x198 SWAP2 SWAP1 PUSH2 0x157B JUMP JUMPDEST PUSH1 0x40 MLOAD DUP1 SWAP2 SUB SWAP1 RETURN JUMPDEST PUSH2 0x1A9 PUSH2 0x57B JUMP JUMPDEST PUSH1 0x40 MLOAD PUSH2 0x1B6 SWAP2 SWAP1 PUSH2 0x162F JUMP JUMPDEST PUSH1 0x40 MLOAD DUP1 SWAP2 SUB SWAP1 RETURN JUMPDEST PUSH2 0x1D9 PUSH1 0x4 DUP1 CALLDATASIZE SUB DUP2 ADD SWAP1 PUSH2 0x1D4 SWAP2 SWAP1 PUSH2 0x1520 JUMP JUMPDEST PUSH2 0x592 JUMP JUMPDEST PUSH1 0x40 MLOAD PUSH2 0x1E6 SWAP2 SWAP1 PUSH2 0x157B JUMP JUMPDEST PUSH1 0x40 MLOAD DUP1 SWAP2 SUB SWAP1 RETURN JUMPDEST PUSH2 0x209 PUSH1 0x4 DUP1 CALLDATASIZE SUB DUP2 ADD SWAP1 PUSH2 0x204 SWAP2 SWAP1 PUSH2 0x1520 JUMP JUMPDEST PUSH2 0x59A JUMP JUMPDEST PUSH1 0x40 MLOAD PUSH2 0x216 SWAP2 SWAP1 PUSH2 0x157B JUMP JUMPDEST PUSH1 0x40 MLOAD DUP1 SWAP2 SUB SWAP1 RETURN JUMPDEST PUSH2 0x239 PUSH1 0x4 DUP1 CALLDATASIZE SUB DUP2 ADD SWAP1 PUSH2 0x234 SWAP2 SWAP1 PUSH2 0x164A JUMP JUMPDEST PUSH2 0x63E JUMP JUMPDEST PUSH1 0x40 MLOAD PUSH2 0x246 SWAP2 SWAP1 PUSH2 0x15A5 JUMP JUMPDEST PUSH1 0x40 MLOAD DUP1 SWAP2 SUB SWAP1 RETURN JUMPDEST PUSH2 0x257 PUSH2 0x687 JUMP JUMPDEST STOP JUMPDEST PUSH2 0x261 PUSH2 0x7D3 JUMP JUMPDEST PUSH1 0x40 MLOAD PUSH2 0x26E SWAP2 SWAP1 PUSH2 0x1686 JUMP JUMPDEST PUSH1 0x40 MLOAD DUP1 SWAP2 SUB SWAP1 RETURN JUMPDEST PUSH2 0x27F PUSH2 0x7E2 JUMP JUMPDEST PUSH1 0x40 MLOAD PUSH2 0x28C SWAP2 SWAP1 PUSH2 0x1686 JUMP JUMPDEST PUSH1 0x40 MLOAD DUP1 SWAP2 SUB SWAP1 RETURN JUMPDEST PUSH2 0x29D PUSH2 0x80B JUMP JUMPDEST PUSH1 0x40 MLOAD PUSH2 0x2AA SWAP2 SWAP1 PUSH2 0x1465 JUMP JUMPDEST PUSH1 0x40 MLOAD DUP1 SWAP2 SUB SWAP1 RETURN JUMPDEST PUSH2 0x2CD PUSH1 0x4 DUP1 CALLDATASIZE SUB DUP2 ADD SWAP1 PUSH2 0x2C8 SWAP2 SWAP1 PUSH2 0x1520 JUMP JUMPDEST PUSH2 0x89D JUMP JUMPDEST PUSH1 0x40 MLOAD PUSH2 0x2DA SWAP2 SWAP1 PUSH2 0x157B JUMP JUMPDEST PUSH1 0x40 MLOAD DUP1 SWAP2 SUB SWAP1 RETURN JUMPDEST PUSH2 0x2FD PUSH1 0x4 DUP1 CALLDATASIZE SUB DUP2 ADD SWAP1 PUSH2 0x2F8 SWAP2 SWAP1 PUSH2 0x1520 JUMP JUMPDEST PUSH2 0x941 JUMP JUMPDEST PUSH1 0x40 MLOAD PUSH2 0x30A SWAP2 SWAP1 PUSH2 0x157B JUMP JUMPDEST PUSH1 0x40 MLOAD DUP1 SWAP2 SUB SWAP1 RETURN JUMPDEST PUSH2 0x32D PUSH1 0x4 DUP1 CALLDATASIZE SUB DUP2 ADD SWAP1 PUSH2 0x328 SWAP2 SWAP1 PUSH2 0x16A1 JUMP JUMPDEST PUSH2 0x958 JUMP JUMPDEST PUSH1 0x40 MLOAD PUSH2 0x33A SWAP2 SWAP1 PUSH2 0x15A5 JUMP JUMPDEST PUSH1 0x40 MLOAD DUP1 SWAP2 SUB SWAP1 RETURN JUMPDEST PUSH2 0x35D PUSH1 0x4 DUP1 CALLDATASIZE SUB DUP2 ADD SWAP1 PUSH2 0x358 SWAP2 SWAP1 PUSH2 0x164A JUMP JUMPDEST PUSH2 0x9DF JUMP JUMPDEST STOP JUMPDEST PUSH1 0x60 PUSH1 0x4 DUP1 SLOAD PUSH2 0x36E SWAP1 PUSH2 0x1710 JUMP JUMPDEST DUP1 PUSH1 0x1F ADD PUSH1 0x20 DUP1 SWAP2 DIV MUL PUSH1 0x20 ADD PUSH1 0x40 MLOAD SWAP1 DUP2 ADD PUSH1 0x40 MSTORE DUP1 SWAP3 SWAP2 SWAP1 DUP2 DUP2 MSTORE PUSH1 0x20 ADD DUP3 DUP1 SLOAD PUSH2 0x39A SWAP1 PUSH2 0x1710 JUMP JUMPDEST DUP1 ISZERO PUSH2 0x3E7 JUMPI DUP1 PUSH1 0x1F LT PUSH2 0x3BC JUMPI PUSH2 0x100 DUP1 DUP4 SLOAD DIV MUL DUP4 MSTORE SWAP2 PUSH1 0x20 ADD SWAP2 PUSH2 0x3E7 JUMP JUMPDEST DUP3 ADD SWAP2 SWAP1 PUSH1 0x0 MSTORE PUSH1 0x20 PUSH1 0x0 KECCAK256 SWAP1 JUMPDEST DUP2 SLOAD DUP2 MSTORE SWAP1 PUSH1 0x1 ADD SWAP1 PUSH1 0x20 ADD DUP1 DUP4 GT PUSH2 0x3CA JUMPI DUP3 SWAP1 SUB PUSH1 0x1F AND DUP3 ADD SWAP2 JUMPDEST POP POP POP POP POP SWAP1 POP SWAP1 JUMP JUMPDEST PUSH1 0x0 PUSH2 0x3FE CALLER DUP5 DUP5 PUSH2 0xA79 JUMP JUMPDEST PUSH1 0x1 SWAP1 POP SWAP3 SWAP2 POP POP JUMP JUMPDEST PUSH1 0x0 PUSH1 0x1 SLOAD SWAP1 POP SWAP1 JUMP JUMPDEST PUSH1 0x0 DUP2 PUSH1 0x6 PUSH1 0x0 DUP7 PUSH20 0xFFFFFFFFFFFFFFFFFFFFFFFFFFFFFFFFFFFFFFFF AND PUSH20 0xFFFFFFFFFFFFFFFFFFFFFFFFFFFFFFFFFFFFFFFF AND DUP2 MSTORE PUSH1 0x20 ADD SWAP1 DUP2 MSTORE PUSH1 0x20 ADD PUSH1 0x0 KECCAK256 PUSH1 0x0 CALLER PUSH20 0xFFFFFFFFFFFFFFFFFFFFFFFFFFFFFFFFFFFFFFFF AND PUSH20 0xFFFFFFFFFFFFFFFFFFFFFFFFFFFFFFFFFFFFFFFF AND DUP2 MSTORE PUSH1 0x20 ADD SWAP1 DUP2 MSTORE PUSH1 0x20 ADD PUSH1 0x0 KECCAK256 SLOAD LT ISZERO PUSH2 0x4D3 JUMPI PUSH1 0x40 MLOAD PUSH32 0x8C379A000000000000000000000000000000000000000000000000000000000 DUP2 MSTORE PUSH1 0x4 ADD PUSH2 0x4CA SWAP1 PUSH2 0x17B3 JUMP JUMPDEST PUSH1 0x40 MLOAD DUP1 SWAP2 SUB SWAP1 REVERT JUMPDEST PUSH2 0x4DE DUP5 DUP5 DUP5 PUSH2 0xC42 JUMP JUMPDEST PUSH2 0x570 DUP5 CALLER DUP5 PUSH1 0x6 PUSH1 0x0 DUP10 PUSH20 0xFFFFFFFFFFFFFFFFFFFFFFFFFFFFFFFFFFFFFFFF AND PUSH20 0xFFFFFFFFFFFFFFFFFFFFFFFFFFFFFFFFFFFFFFFF AND DUP2 MSTORE PUSH1 0x20 ADD SWAP1 DUP2 MSTORE PUSH1 0x20 ADD PUSH1 0x0 KECCAK256 PUSH1 0x0 CALLER PUSH20 0xFFFFFFFFFFFFFFFFFFFFFFFFFFFFFFFFFFFFFFFF AND PUSH20 0xFFFFFFFFFFFFFFFFFFFFFFFFFFFFFFFFFFFFFFFF AND DUP2 MSTORE PUSH1 0x20 ADD SWAP1 DUP2 MSTORE PUSH1 0x20 ADD PUSH1 0x0 KECCAK256 SLOAD PUSH2 0x56B SWAP2 SWAP1 PUSH2 0x1802 JUMP JUMPDEST PUSH2 0xA79 JUMP JUMPDEST PUSH1 0x1 SWAP1 POP SWAP4 SWAP3 POP POP POP JUMP JUMPDEST PUSH1 0x0 PUSH1 0x2 PUSH1 0x0 SWAP1 SLOAD SWAP1 PUSH2 0x100 EXP SWAP1 DIV PUSH1 0xFF AND SWAP1 POP SWAP1 JUMP JUMPDEST PUSH1 0x0 SWAP3 SWAP2 POP POP JUMP JUMPDEST PUSH1 0x0 CALLER PUSH20 0xFFFFFFFFFFFFFFFFFFFFFFFFFFFFFFFFFFFFFFFF AND PUSH1 0x0 DUP1 SLOAD SWAP1 PUSH2 0x100 EXP SWAP1 DIV PUSH20 0xFFFFFFFFFFFFFFFFFFFFFFFFFFFFFFFFFFFFFFFF AND PUSH20 0xFFFFFFFFFFFFFFFFFFFFFFFFFFFFFFFFFFFFFFFF AND EQ PUSH2 0x62A JUMPI PUSH1 0x40 MLOAD PUSH32 0x8C379A000000000000000000000000000000000000000000000000000000000 DUP2 MSTORE PUSH1 0x4 ADD PUSH2 0x621 SWAP1 PUSH2 0x18A8 JUMP JUMPDEST PUSH1 0x40 MLOAD DUP1 SWAP2 SUB SWAP1 REVERT JUMPDEST PUSH2 0x634 DUP4 DUP4 PUSH2 0xF28 JUMP JUMPDEST PUSH1 0x1 SWAP1 POP SWAP3 SWAP2 POP POP JUMP JUMPDEST PUSH1 0x0 PUSH1 0x5 PUSH1 0x0 DUP4 PUSH20 0xFFFFFFFFFFFFFFFFFFFFFFFFFFFFFFFFFFFFFFFF AND PUSH20 0xFFFFFFFFFFFFFFFFFFFFFFFFFFFFFFFFFFFFFFFF AND DUP2 MSTORE PUSH1 0x20 ADD SWAP1 DUP2 MSTORE PUSH1 0x20 ADD PUSH1 0x0 KECCAK256 SLOAD SWAP1 POP SWAP2 SWAP1 POP JUMP JUMPDEST CALLER PUSH20 0xFFFFFFFFFFFFFFFFFFFFFFFFFFFFFFFFFFFFFFFF AND PUSH1 0x0 DUP1 SLOAD SWAP1 PUSH2 0x100 EXP SWAP1 DIV PUSH20 0xFFFFFFFFFFFFFFFFFFFFFFFFFFFFFFFFFFFFFFFF AND PUSH20 0xFFFFFFFFFFFFFFFFFFFFFFFFFFFFFFFFFFFFFFFF AND EQ PUSH2 0x715 JUMPI PUSH1 0x40 MLOAD PUSH32 0x8C379A000000000000000000000000000000000000000000000000000000000 DUP2 MSTORE PUSH1 0x4 ADD PUSH2 0x70C SWAP1 PUSH2 0x18A8 JUMP JUMPDEST PUSH1 0x40 MLOAD DUP1 SWAP2 SUB SWAP1 REVERT JUMPDEST PUSH1 0x0 PUSH20 0xFFFFFFFFFFFFFFFFFFFFFFFFFFFFFFFFFFFFFFFF AND PUSH1 0x0 DUP1 SLOAD SWAP1 PUSH2 0x100 EXP SWAP1 DIV PUSH20 0xFFFFFFFFFFFFFFFFFFFFFFFFFFFFFFFFFFFFFFFF AND PUSH20 0xFFFFFFFFFFFFFFFFFFFFFFFFFFFFFFFFFFFFFFFF AND PUSH32 0x8BE0079C531659141344CD1FD0A4F28419497F9722A3DAAFE3B4186F6B6457E0 PUSH1 0x40 MLOAD PUSH1 0x40 MLOAD DUP1 SWAP2 SUB SWAP1 LOG3 PUSH1 0x0 DUP1 PUSH1 0x0 PUSH2 0x100 EXP DUP2 SLOAD DUP2 PUSH20 0xFFFFFFFFFFFFFFFFFFFFFFFFFFFFFFFFFFFFFFFF MUL NOT AND SWAP1 DUP4 PUSH20 0xFFFFFFFFFFFFFFFFFFFFFFFFFFFFFFFFFFFFFFFF AND MUL OR SWAP1 SSTORE POP JUMP JUMPDEST PUSH1 0x0 PUSH2 0x7DD PUSH2 0x7E2 JUMP JUMPDEST SWAP1 POP SWAP1 JUMP JUMPDEST PUSH1 0x0 DUP1 PUSH1 0x0 SWAP1 SLOAD SWAP1 PUSH2 0x100 EXP SWAP1 DIV PUSH20 0xFFFFFFFFFFFFFFFFFFFFFFFFFFFFFFFFFFFFFFFF AND SWAP1 POP SWAP1 JUMP JUMPDEST PUSH1 0x60 PUSH1 0x3 DUP1 SLOAD PUSH2 0x81A SWAP1 PUSH2 0x1710 JUMP JUMPDEST DUP1 PUSH1 0x1F ADD PUSH1 0x20 DUP1 SWAP2 DIV MUL PUSH1 0x20 ADD PUSH1 0x40 MLOAD SWAP1 DUP2 ADD PUSH1 0x40 MSTORE DUP1 SWAP3 SWAP2 SWAP1 DUP2 DUP2 MSTORE PUSH1 0x20 ADD DUP3 DUP1 SLOAD PUSH2 0x846 SWAP1 PUSH2 0x1710 JUMP JUMPDEST DUP1 ISZERO PUSH2 0x893 JUMPI DUP1 PUSH1 0x1F LT PUSH2 0x868 JUMPI PUSH2 0x100 DUP1 DUP4 SLOAD DIV MUL DUP4 MSTORE SWAP2 PUSH1 0x20 ADD SWAP2 PUSH2 0x893 JUMP JUMPDEST DUP3 ADD SWAP2 SWAP1 PUSH1 0x0 MSTORE PUSH1 0x20 PUSH1 0x0 KECCAK256 SWAP1 JUMPDEST DUP2 SLOAD DUP2 MSTORE SWAP1 PUSH1 0x1 ADD SWAP1 PUSH1 0x20 ADD DUP1 DUP4 GT PUSH2 0x876 JUMPI DUP3 SWAP1 SUB PUSH1 0x1F AND DUP3 ADD SWAP2 JUMPDEST POP POP POP POP POP SWAP1 POP SWAP1 JUMP JUMPDEST PUSH1 0x0 CALLER PUSH20 0xFFFFFFFFFFFFFFFFFFFFFFFFFFFFFFFFFFFFFFFF AND PUSH1 0x0 DUP1 SLOAD SWAP1 PUSH2 0x100 EXP SWAP1 DIV PUSH20 0xFFFFFFFFFFFFFFFFFFFFFFFFFFFFFFFFFFFFFFFF AND PUSH20 0xFFFFFFFFFFFFFFFFFFFFFFFFFFFFFFFFFFFFFFFF AND EQ PUSH2 0x92D JUMPI PUSH1 0x40 MLOAD PUSH32 0x8C379A000000000000000000000000000000000000000000000000000000000 DUP2 MSTORE PUSH1 0x4 ADD PUSH2 0x924 SWAP1 PUSH2 0x18A8 JUMP JUMPDEST PUSH1 0x40 MLOAD DUP1 SWAP2 SUB SWAP1 REVERT JUMPDEST PUSH2 0x937 DUP4 DUP4 PUSH2 0x10A3 JUMP JUMPDEST PUSH1 0x1 SWAP1 POP SWAP3 SWAP2 POP POP JUMP JUMPDEST PUSH1 0x0 PUSH2 0x94E CALLER DUP5 DUP5 PUSH2 0xC42 JUMP JUMPDEST PUSH1 0x1 SWAP1 POP SWAP3 SWAP2 POP POP JUMP JUMPDEST PUSH1 0x0 PUSH1 0x6 PUSH1 0x0 DUP5 PUSH20 0xFFFFFFFFFFFFFFFFFFFFFFFFFFFFFFFFFFFFFFFF AND PUSH20 0xFFFFFFFFFFFFFFFFFFFFFFFFFFFFFFFFFFFFFFFF AND DUP2 MSTORE PUSH1 0x20 ADD SWAP1 DUP2 MSTORE PUSH1 0x20 ADD PUSH1 0x0 KECCAK256 PUSH1 0x0 DUP4 PUSH20 0xFFFFFFFFFFFFFFFFFFFFFFFFFFFFFFFFFFFFFFFF AND PUSH20 0xFFFFFFFFFFFFFFFFFFFFFFFFFFFFFFFFFFFFFFFF AND DUP2 MSTORE PUSH1 0x20 ADD SWAP1 DUP2 MSTORE PUSH1 0x20 ADD PUSH1 0x0 KECCAK256 SLOAD SWAP1 POP SWAP3 SWAP2 POP POP JUMP JUMPDEST CALLER PUSH20 0xFFFFFFFFFFFFFFFFFFFFFFFFFFFFFFFFFFFFFFFF AND PUSH1 0x0 DUP1 SLOAD SWAP1 PUSH2 0x100 EXP SWAP1 DIV PUSH20 0xFFFFFFFFFFFFFFFFFFFFFFFFFFFFFFFFFFFFFFFF AND PUSH20 0xFFFFFFFFFFFFFFFFFFFFFFFFFFFFFFFFFFFFFFFF AND EQ PUSH2 0xA6D JUMPI PUSH1 0x40 MLOAD PUSH32 0x8C379A000000000000000000000000000000000000000000000000000000000 DUP2 MSTORE PUSH1 0x4 ADD PUSH2 0xA64 SWAP1 PUSH2 0x18A8 JUMP JUMPDEST PUSH1 0x40 MLOAD DUP1 SWAP2 SUB SWAP1 REVERT JUMPDEST PUSH2 0xA76 DUP2 PUSH2 0x12A0 JUMP JUMPDEST POP JUMP JUMPDEST PUSH1 0x0 PUSH20 0xFFFFFFFFFFFFFFFFFFFFFFFFFFFFFFFFFFFFFFFF AND DUP4 PUSH20 0xFFFFFFFFFFFFFFFFFFFFFFFFFFFFFFFFFFFFFFFF AND SUB PUSH2 0xAE8 JUMPI PUSH1 0x40 MLOAD PUSH32 0x8C379A000000000000000000000000000000000000000000000000000000000 DUP2 MSTORE PUSH1 0x4 ADD PUSH2 0xADF SWAP1 PUSH2 0x193A JUMP JUMPDEST PUSH1 0x40 MLOAD DUP1 SWAP2 SUB SWAP1 REVERT JUMPDEST PUSH1 0x0 PUSH20 0xFFFFFFFFFFFFFFFFFFFFFFFFFFFFFFFFFFFFFFFF AND DUP3 PUSH20 0xFFFFFFFFFFFFFFFFFFFFFFFFFFFFFFFFFFFFFFFF AND SUB PUSH2 0xB57 JUMPI PUSH1 0x40 MLOAD PUSH32 0x8C379A000000000000000000000000000000000000000000000000000000000 DUP2 MSTORE PUSH1 0x4 ADD PUSH2 0xB4E SWAP1 PUSH2 0x19CC JUMP JUMPDEST PUSH1 0x40 MLOAD DUP1 SWAP2 SUB SWAP1 REVERT JUMPDEST DUP1 PUSH1 0x6 PUSH1 0x0 DUP6 PUSH20 0xFFFFFFFFFFFFFFFFFFFFFFFFFFFFFFFFFFFFFFFF AND PUSH20 0xFFFFFFFFFFFFFFFFFFFFFFFFFFFFFFFFFFFFFFFF AND DUP2 MSTORE PUSH1 0x20 ADD SWAP1 DUP2 MSTORE PUSH1 0x20 ADD PUSH1 0x0 KECCAK256 PUSH1 0x0 DUP5 PUSH20 0xFFFFFFFFFFFFFFFFFFFFFFFFFFFFFFFFFFFFFFFF AND PUSH20 0xFFFFFFFFFFFFFFFFFFFFFFFFFFFFFFFFFFFFFFFF AND DUP2 MSTORE PUSH1 0x20 ADD SWAP1 DUP2 MSTORE PUSH1 0x20 ADD PUSH1 0x0 KECCAK256 DUP2 SWAP1 SSTORE POP DUP2 PUSH20 0xFFFFFFFFFFFFFFFFFFFFFFFFFFFFFFFFFFFFFFFF AND DUP4 PUSH20 0xFFFFFFFFFFFFFFFFFFFFFFFFFFFFFFFFFFFFFFFF AND PUSH32 0x8C5BE1E5EBEC7D5BD14F71427D1E84F3DD0314C0F7B2291E5B200AC8C7C3B925 DUP4 PUSH1 0x40 MLOAD PUSH2 0xC35 SWAP2 SWAP1 PUSH2 0x15A5 JUMP JUMPDEST PUSH1 0x40 MLOAD DUP1 SWAP2 SUB SWAP1 LOG3 POP POP POP JUMP JUMPDEST PUSH1 0x0 PUSH20 0xFFFFFFFFFFFFFFFFFFFFFFFFFFFFFFFFFFFFFFFF AND DUP4 PUSH20 0xFFFFFFFFFFFFFFFFFFFFFFFFFFFFFFFFFFFFFFFF AND SUB PUSH2 0xCB1 JUMPI PUSH1 0x40 MLOAD PUSH32 0x8C379A000000000000000000000000000000000000000000000000000000000 DUP2 MSTORE PUSH1 0x4 ADD PUSH2 0xCA8 SWAP1 PUSH2 0x1A5E JUMP JUMPDEST PUSH1 0x40 MLOAD DUP1 SWAP2 SUB SWAP1 REVERT JUMPDEST PUSH1 0x0 PUSH20 0xFFFFFFFFFFFFFFFFFFFFFFFFFFFFFFFFFFFFFFFF AND DUP3 PUSH20 0xFFFFFFFFFFFFFFFFFFFFFFFFFFFFFFFFFFFFFFFF AND SUB PUSH2 0xD20 JUMPI PUSH1 0x40 MLOAD PUSH32 0x8C379A000000000000000000000000000000000000000000000000000000000 DUP2 MSTORE PUSH1 0x4 ADD PUSH2 0xD17 SWAP1 PUSH2 0x1A5E JUMP JUMPDEST PUSH1 0x40 MLOAD DUP1 SWAP2 SUB SWAP1 REVERT JUMPDEST DUP1 PUSH1 0x5 PUSH1 0x0 DUP6 PUSH20 0xFFFFFFFFFFFFFFFFFFFFFFFFFFFFFFFFFFFFFFFF AND PUSH20 0xFFFFFFFFFFFFFFFFFFFFFFFFFFFFFFFFFFFFFFFF AND DUP2 MSTORE PUSH1 0x20 ADD SWAP1 DUP2 MSTORE PUSH1 0x20 ADD PUSH1 0x0 KECCAK256 SLOAD LT ISZERO PUSH2 0xDA2 JUMPI PUSH1 0x40 MLOAD PUSH32 0x8C379A000000000000000000000000000000000000000000000000000000000 DUP2 MSTORE PUSH1 0x4 ADD PUSH2 0xD99 SWAP1 PUSH2 0x1AF0 JUMP JUMPDEST PUSH1 0x40 MLOAD DUP1 SWAP2 SUB SWAP1 REVERT JUMPDEST DUP1 PUSH1 0x5 PUSH1 0x0 DUP6 PUSH20 0xFFFFFFFFFFFFFFFFFFFFFFFFFFFFFFFFFFFFFFFF AND PUSH20 0xFFFFFFFFFFFFFFFFFFFFFFFFFFFFFFFFFFFFFFFF AND DUP2 MSTORE PUSH1 0x20 ADD SWAP1 DUP2 MSTORE PUSH1 0x20 ADD PUSH1 0x0 KECCAK256 SLOAD PUSH2 0xDED SWAP2 SWAP1 PUSH2 0x1802 JUMP JUMPDEST PUSH1 0x5 PUSH1 0x0 DUP6 PUSH20 0xFFFFFFFFFFFFFFFFFFFFFFFFFFFFFFFFFFFFFFFF AND PUSH20 0xFFFFFFFFFFFFFFFFFFFFFFFFFFFFFFFFFFFFFFFF AND DUP2 MSTORE PUSH1 0x20 ADD SWAP1 DUP2 MSTORE PUSH1 0x20 ADD PUSH1 0x0 KECCAK256 DUP2 SWAP1 SSTORE POP DUP1 PUSH1 0x5 PUSH1 0x0 DUP5 PUSH20 0xFFFFFFFFFFFFFFFFFFFFFFFFFFFFFFFFFFFFFFFF AND PUSH20 0xFFFFFFFFFFFFFFFFFFFFFFFFFFFFFFFFFFFFFFFF AND DUP2 MSTORE PUSH1 0x20 ADD SWAP1 DUP2 MSTORE PUSH1 0x20 ADD PUSH1 0x0 KECCAK256 SLOAD PUSH2 0xE7B SWAP2 SWAP1 PUSH2 0x1B10 JUMP JUMPDEST PUSH1 0x5 PUSH1 0x0 DUP5 PUSH20 0xFFFFFFFFFFFFFFFFFFFFFFFFFFFFFFFFFFFFFFFF AND PUSH20 0xFFFFFFFFFFFFFFFFFFFFFFFFFFFFFFFFFFFFFFFF AND DUP2 MSTORE PUSH1 0x20 ADD SWAP1 DUP2 MSTORE PUSH1 0x20 ADD PUSH1 0x0 KECCAK256 DUP2 SWAP1 SSTORE POP DUP2 PUSH20 0xFFFFFFFFFFFFFFFFFFFFFFFFFFFFFFFFFFFFFFFF AND DUP4 PUSH20 0xFFFFFFFFFFFFFFFFFFFFFFFFFFFFFFFFFFFFFFFF AND PUSH32 0xDDF252AD1BE2C89B69C2B068FC378DAA952BA7F163C4A11628F55A4DF523B3EF DUP4 PUSH1 0x40 MLOAD PUSH2 0xF1B SWAP2 SWAP1 PUSH2 0x15A5 JUMP JUMPDEST PUSH1 0x40 MLOAD DUP1 SWAP2 SUB SWAP1 LOG3 POP POP POP JUMP JUMPDEST PUSH1 0x0 PUSH20 0xFFFFFFFFFFFFFFFFFFFFFFFFFFFFFFFFFFFFFFFF AND DUP3 PUSH20 0xFFFFFFFFFFFFFFFFFFFFFFFFFFFFFFFFFFFFFFFF AND SUB PUSH2 0xF97 JUMPI PUSH1 0x40 MLOAD PUSH32 0x8C379A000000000000000000000000000000000000000000000000000000000 DUP2 MSTORE PUSH1 0x4 ADD PUSH2 0xF8E SWAP1 PUSH2 0x1BD8 JUMP JUMPDEST PUSH1 0x40 MLOAD DUP1 SWAP2 SUB SWAP1 REVERT JUMPDEST DUP1 PUSH1 0x1 SLOAD PUSH2 0xFA5 SWAP2 SWAP1 PUSH2 0x1B10 JUMP JUMPDEST PUSH1 0x1 DUP2 SWAP1 SSTORE POP DUP1 PUSH1 0x5 PUSH1 0x0 DUP5 PUSH20 0xFFFFFFFFFFFFFFFFFFFFFFFFFFFFFFFFFFFFFFFF AND PUSH20 0xFFFFFFFFFFFFFFFFFFFFFFFFFFFFFFFFFFFFFFFF AND DUP2 MSTORE PUSH1 0x20 ADD SWAP1 DUP2 MSTORE PUSH1 0x20 ADD PUSH1 0x0 KECCAK256 SLOAD PUSH2 0xFF6 SWAP2 SWAP1 PUSH2 0x1B10 JUMP JUMPDEST PUSH1 0x5 PUSH1 0x0 DUP5 PUSH20 0xFFFFFFFFFFFFFFFFFFFFFFFFFFFFFFFFFFFFFFFF AND PUSH20 0xFFFFFFFFFFFFFFFFFFFFFFFFFFFFFFFFFFFFFFFF AND DUP2 MSTORE PUSH1 0x20 ADD SWAP1 DUP2 MSTORE PUSH1 0x20 ADD PUSH1 0x0 KECCAK256 DUP2 SWAP1 SSTORE POP DUP2 PUSH20 0xFFFFFFFFFFFFFFFFFFFFFFFFFFFFFFFFFFFFFFFF AND PUSH1 0x0 PUSH20 0xFFFFFFFFFFFFFFFFFFFFFFFFFFFFFFFFFFFFFFFF AND PUSH32 0xDDF252AD1BE2C89B69C2B068FC378DAA952BA7F163C4A11628F55A4DF523B3EF DUP4 PUSH1 0x40 MLOAD PUSH2 0x1097 SWAP2 SWAP1 PUSH2 0x15A5 JUMP JUMPDEST PUSH1 0x40 MLOAD DUP1 SWAP2 SUB SWAP1 LOG3 POP POP JUMP JUMPDEST PUSH1 0x0 PUSH20 0xFFFFFFFFFFFFFFFFFFFFFFFFFFFFFFFFFFFFFFFF AND DUP3 PUSH20 0xFFFFFFFFFFFFFFFFFFFFFFFFFFFFFFFFFFFFFFFF AND SUB PUSH2 0x1112 JUMPI PUSH1 0x40 MLOAD PUSH32 0x8C379A000000000000000000000000000000000000000000000000000000000 DUP2 MSTORE PUSH1 0x4 ADD PUSH2 0x1109 SWAP1 PUSH2 0x1C6A JUMP JUMPDEST PUSH1 0x40 MLOAD DUP1 SWAP2 SUB SWAP1 REVERT JUMPDEST DUP1 PUSH1 0x5 PUSH1 0x0 DUP5 PUSH20 0xFFFFFFFFFFFFFFFFFFFFFFFFFFFFFFFFFFFFFFFF AND PUSH20 0xFFFFFFFFFFFFFFFFFFFFFFFFFFFFFFFFFFFFFFFF AND DUP2 MSTORE PUSH1 0x20 ADD SWAP1 DUP2 MSTORE PUSH1 0x20 ADD PUSH1 0x0 KECCAK256 SLOAD LT ISZERO PUSH2 0x1194 JUMPI PUSH1 0x40 MLOAD PUSH32 0x8C379A000000000000000000000000000000000000000000000000000000000 DUP2 MSTORE PUSH1 0x4 ADD PUSH2 0x118B SWAP1 PUSH2 0x1CFC JUMP JUMPDEST PUSH1 0x40 MLOAD DUP1 SWAP2 SUB SWAP1 REVERT JUMPDEST DUP1 PUSH1 0x5 PUSH1 0x0 DUP5 PUSH20 0xFFFFFFFFFFFFFFFFFFFFFFFFFFFFFFFFFFFFFFFF AND PUSH20 0xFFFFFFFFFFFFFFFFFFFFFFFFFFFFFFFFFFFFFFFF AND DUP2 MSTORE PUSH1 0x20 ADD SWAP1 DUP2 MSTORE PUSH1 0x20 ADD PUSH1 0x0 KECCAK256 SLOAD PUSH2 0x11DF SWAP2 SWAP1 PUSH2 0x1802 JUMP JUMPDEST PUSH1 0x5 PUSH1 0x0 DUP5 PUSH20 0xFFFFFFFFFFFFFFFFFFFFFFFFFFFFFFFFFFFFFFFF AND PUSH20 0xFFFFFFFFFFFFFFFFFFFFFFFFFFFFFFFFFFFFFFFF AND DUP2 MSTORE PUSH1 0x20 ADD SWAP1 DUP2 MSTORE PUSH1 0x20 ADD PUSH1 0x0 KECCAK256 DUP2 SWAP1 SSTORE POP DUP1 PUSH1 0x1 SLOAD PUSH2 0x1230 SWAP2 SWAP1 PUSH2 0x1802 JUMP JUMPDEST PUSH1 0x1 DUP2 SWAP1 SSTORE POP PUSH1 0x0 PUSH20 0xFFFFFFFFFFFFFFFFFFFFFFFFFFFFFFFFFFFFFFFF AND DUP3 PUSH20 0xFFFFFFFFFFFFFFFFFFFFFFFFFFFFFFFFFFFFFFFF AND PUSH32 0xDDF252AD1BE2C89B69C2B068FC378DAA952BA7F163C4A11628F55A4DF523B3EF DUP4 PUSH1 0x40 MLOAD PUSH2 0x1294 SWAP2 SWAP1 PUSH2 0x15A5 JUMP JUMPDEST PUSH1 0x40 MLOAD DUP1 SWAP2 SUB SWAP1 LOG3 POP POP JUMP JUMPDEST PUSH1 0x0 PUSH20 0xFFFFFFFFFFFFFFFFFFFFFFFFFFFFFFFFFFFFFFFF AND DUP2 PUSH20 0xFFFFFFFFFFFFFFFFFFFFFFFFFFFFFFFFFFFFFFFF AND SUB PUSH2 0x130F JUMPI PUSH1 0x40 MLOAD PUSH32 0x8C379A000000000000000000000000000000000000000000000000000000000 DUP2 MSTORE PUSH1 0x4 ADD PUSH2 0x1306 SWAP1 PUSH2 0x1D8E JUMP JUMPDEST PUSH1 0x40 MLOAD DUP1 SWAP2 SUB SWAP1 REVERT JUMPDEST DUP1 PUSH20 0xFFFFFFFFFFFFFFFFFFFFFFFFFFFFFFFFFFFFFFFF AND PUSH1 0x0 DUP1 SLOAD SWAP1 PUSH2 0x100 EXP SWAP1 DIV PUSH20 0xFFFFFFFFFFFFFFFFFFFFFFFFFFFFFFFFFFFFFFFF AND PUSH20 0xFFFFFFFFFFFFFFFFFFFFFFFFFFFFFFFFFFFFFFFF AND PUSH32 0x8BE0079C531659141344CD1FD0A4F28419497F9722A3DAAFE3B4186F6B6457E0 PUSH1 0x40 MLOAD PUSH1 0x40 MLOAD DUP1 SWAP2 SUB SWAP1 LOG3 DUP1 PUSH1 0x0 DUP1 PUSH2 0x100 EXP DUP2 SLOAD DUP2 PUSH20 0xFFFFFFFFFFFFFFFFFFFFFFFFFFFFFFFFFFFFFFFF MUL NOT AND SWAP1 DUP4 PUSH20 0xFFFFFFFFFFFFFFFFFFFFFFFFFFFFFFFFFFFFFFFF AND MUL OR SWAP1 SSTORE POP POP JUMP JUMPDEST PUSH1 0x0 DUP2 MLOAD SWAP1 POP SWAP2 SWAP1 POP JUMP JUMPDEST PUSH1 0x0 DUP3 DUP3 MSTORE PUSH1 0x20 DUP3 ADD SWAP1 POP SWAP3 SWAP2 POP POP JUMP JUMPDEST PUSH1 0x0 JUMPDEST DUP4 DUP2 LT ISZERO PUSH2 0x1406 JUMPI DUP1 DUP3 ADD MLOAD DUP2 DUP5 ADD MSTORE PUSH1 0x20 DUP2 ADD SWAP1 POP PUSH2 0x13EB JUMP JUMPDEST DUP4 DUP2 GT ISZERO PUSH2 0x1415 JUMPI PUSH1 0x0 DUP5 DUP5 ADD MSTORE JUMPDEST POP POP POP POP JUMP JUMPDEST PUSH1 0x0 PUSH1 0x1F NOT PUSH1 0x1F DUP4 ADD AND SWAP1 POP SWAP2 SWAP1 POP JUMP JUMPDEST PUSH1 0x0 PUSH2 0x1437 DUP3 PUSH2 0x13CC JUMP JUMPDEST PUSH2 0x1441 DUP2 DUP6 PUSH2 0x13D7 JUMP JUMPDEST SWAP4 POP PUSH2 0x1451 DUP2 DUP6 PUSH1 0x20 DUP7 ADD PUSH2 0x13E8 JUMP JUMPDEST PUSH2 0x145A DUP2 PUSH2 0x141B JUMP JUMPDEST DUP5 ADD SWAP2 POP POP SWAP3 SWAP2 POP POP JUMP JUMPDEST PUSH1 0x0 PUSH1 0x20 DUP3 ADD SWAP1 POP DUP2 DUP2 SUB PUSH1 0x0 DUP4 ADD MSTORE PUSH2 0x147F DUP2 DUP5 PUSH2 0x142C JUMP JUMPDEST SWAP1 POP SWAP3 SWAP2 POP POP JUMP JUMPDEST PUSH1 0x0 DUP1 REVERT JUMPDEST PUSH1 0x0 PUSH20 0xFFFFFFFFFFFFFFFFFFFFFFFFFFFFFFFFFFFFFFFF DUP3 AND SWAP1 POP SWAP2 SWAP1 POP JUMP JUMPDEST PUSH1 0x0 PUSH2 0x14B7 DUP3 PUSH2 0x148C JUMP JUMPDEST SWAP1 POP SWAP2 SWAP1 POP JUMP JUMPDEST PUSH2 0x14C7 DUP2 PUSH2 0x14AC JUMP JUMPDEST DUP2 EQ PUSH2 0x14D2 JUMPI PUSH1 0x0 DUP1 REVERT JUMPDEST POP JUMP JUMPDEST PUSH1 0x0 DUP2 CALLDATALOAD SWAP1 POP PUSH2 0x14E4 DUP2 PUSH2 0x14BE JUMP JUMPDEST SWAP3 SWAP2 POP POP JUMP JUMPDEST PUSH1 0x0 DUP2 SWAP1 POP SWAP2 SWAP1 POP JUMP JUMPDEST PUSH2 0x14FD DUP2 PUSH2 0x14EA JUMP JUMPDEST DUP2 EQ PUSH2 0x1508 JUMPI PUSH1 0x0 DUP1 REVERT JUMPDEST POP JUMP JUMPDEST PUSH1 0x0 DUP2 CALLDATALOAD SWAP1 POP PUSH2 0x151A DUP2 PUSH2 0x14F4 JUMP JUMPDEST SWAP3 SWAP2 POP POP JUMP JUMPDEST PUSH1 0x0 DUP1 PUSH1 0x40 DUP4 DUP6 SUB SLT ISZERO PUSH2 0x1537 JUMPI PUSH2 0x1536 PUSH2 0x1487 JUMP JUMPDEST JUMPDEST PUSH1 0x0 PUSH2 0x1545 DUP6 DUP3 DUP7 ADD PUSH2 0x14D5 JUMP JUMPDEST SWAP3 POP POP PUSH1 0x20 PUSH2 0x1556 DUP6 DUP3 DUP7 ADD PUSH2 0x150B JUMP JUMPDEST SWAP2 POP POP SWAP3 POP SWAP3 SWAP1 POP JUMP JUMPDEST PUSH1 0x0 DUP2 ISZERO ISZERO SWAP1 POP SWAP2 SWAP1 POP JUMP JUMPDEST PUSH2 0x1575 DUP2 PUSH2 0x1560 JUMP JUMPDEST DUP3 MSTORE POP POP JUMP JUMPDEST PUSH1 0x0 PUSH1 0x20 DUP3 ADD SWAP1 POP PUSH2 0x1590 PUSH1 0x0 DUP4 ADD DUP5 PUSH2 0x156C JUMP JUMPDEST SWAP3 SWAP2 POP POP JUMP JUMPDEST PUSH2 0x159F DUP2 PUSH2 0x14EA JUMP JUMPDEST DUP3 MSTORE POP POP JUMP JUMPDEST PUSH1 0x0 PUSH1 0x20 DUP3 ADD SWAP1 POP PUSH2 0x15BA PUSH1 0x0 DUP4 ADD DUP5 PUSH2 0x1596 JUMP JUMPDEST SWAP3 SWAP2 POP POP JUMP JUMPDEST PUSH1 0x0 DUP1 PUSH1 0x0 PUSH1 0x60 DUP5 DUP7 SUB SLT ISZERO PUSH2 0x15D9 JUMPI PUSH2 0x15D8 PUSH2 0x1487 JUMP JUMPDEST JUMPDEST PUSH1 0x0 PUSH2 0x15E7 DUP7 DUP3 DUP8 ADD PUSH2 0x14D5 JUMP JUMPDEST SWAP4 POP POP PUSH1 0x20 PUSH2 0x15F8 DUP7 DUP3 DUP8 ADD PUSH2 0x14D5 JUMP JUMPDEST SWAP3 POP POP PUSH1 0x40 PUSH2 0x1609 DUP7 DUP3 DUP8 ADD PUSH2 0x150B JUMP JUMPDEST SWAP2 POP POP SWAP3 POP SWAP3 POP SWAP3 JUMP JUMPDEST PUSH1 0x0 PUSH1 0xFF DUP3 AND SWAP1 POP SWAP2 SWAP1 POP JUMP JUMPDEST PUSH2 0x1629 DUP2 PUSH2 0x1613 JUMP JUMPDEST DUP3 MSTORE POP POP JUMP JUMPDEST PUSH1 0x0 PUSH1 0x20 DUP3 ADD SWAP1 POP PUSH2 0x1644 PUSH1 0x0 DUP4 ADD DUP5 PUSH2 0x1620 JUMP JUMPDEST SWAP3 SWAP2 POP POP JUMP JUMPDEST PUSH1 0x0 PUSH1 0x20 DUP3 DUP5 SUB SLT ISZERO PUSH2 0x1660 JUMPI PUSH2 0x165F PUSH2 0x1487 JUMP JUMPDEST JUMPDEST PUSH1 0x0 PUSH2 0x166E DUP5 DUP3 DUP6 ADD PUSH2 0x14D5 JUMP JUMPDEST SWAP2 POP POP SWAP3 SWAP2 POP POP JUMP JUMPDEST PUSH2 0x1680 DUP2 PUSH2 0x14AC JUMP JUMPDEST DUP3 MSTORE POP POP JUMP JUMPDEST PUSH1 0x0 PUSH1 0x20 DUP3 ADD SWAP1 POP PUSH2 0x169B PUSH1 0x0 DUP4 ADD DUP5 PUSH2 0x1677 JUMP JUMPDEST SWAP3 SWAP2 POP POP JUMP JUMPDEST PUSH1 0x0 DUP1 PUSH1 0x40 DUP4 DUP6 SUB SLT ISZERO PUSH2 0x16B8 JUMPI PUSH2 0x16B7 PUSH2 0x1487 JUMP JUMPDEST JUMPDEST PUSH1 0x0 PUSH2 0x16C6 DUP6 DUP3 DUP7 ADD PUSH2 0x14D5 JUMP JUMPDEST SWAP3 POP POP PUSH1 0x20 PUSH2 0x16D7 DUP6 DUP3 DUP7 ADD PUSH2 0x14D5 JUMP JUMPDEST SWAP2 POP POP SWAP3 POP SWAP3 SWAP1 POP JUMP JUMPDEST PUSH32 0x4E487B7100000000000000000000000000000000000000000000000000000000 PUSH1 0x0 MSTORE PUSH1 0x22 PUSH1 0x4 MSTORE PUSH1 0x24 PUSH1 0x0 REVERT JUMPDEST PUSH1 0x0 PUSH1 0x2 DUP3 DIV SWAP1 POP PUSH1 0x1 DUP3 AND DUP1 PUSH2 0x1728 JUMPI PUSH1 0x7F DUP3 AND SWAP2 POP JUMPDEST PUSH1 0x20 DUP3 LT DUP2 SUB PUSH2 0x173B JUMPI PUSH2 0x173A PUSH2 0x16E1 JUMP JUMPDEST JUMPDEST POP SWAP2 SWAP1 POP JUMP JUMPDEST PUSH32 0x53746F636B436F696E3A20596F752063616E6E6F74207370656E642074686174 PUSH1 0x0 DUP3 ADD MSTORE PUSH32 0x206D756368206F6E2074686973206163636F756E740000000000000000000000 PUSH1 0x20 DUP3 ADD MSTORE POP JUMP JUMPDEST PUSH1 0x0 PUSH2 0x179D PUSH1 0x35 DUP4 PUSH2 0x13D7 JUMP JUMPDEST SWAP2 POP PUSH2 0x17A8 DUP3 PUSH2 0x1741 JUMP JUMPDEST PUSH1 0x40 DUP3 ADD SWAP1 POP SWAP2 SWAP1 POP JUMP JUMPDEST PUSH1 0x0 PUSH1 0x20 DUP3 ADD SWAP1 POP DUP2 DUP2 SUB PUSH1 0x0 DUP4 ADD MSTORE PUSH2 0x17CC DUP2 PUSH2 0x1790 JUMP JUMPDEST SWAP1 POP SWAP2 SWAP1 POP JUMP JUMPDEST PUSH32 0x4E487B7100000000000000000000000000000000000000000000000000000000 PUSH1 0x0 MSTORE PUSH1 0x11 PUSH1 0x4 MSTORE PUSH1 0x24 PUSH1 0x0 REVERT JUMPDEST PUSH1 0x0 PUSH2 0x180D DUP3 PUSH2 0x14EA JUMP JUMPDEST SWAP2 POP PUSH2 0x1818 DUP4 PUSH2 0x14EA JUMP JUMPDEST SWAP3 POP DUP3 DUP3 LT ISZERO PUSH2 0x182B JUMPI PUSH2 0x182A PUSH2 0x17D3 JUMP JUMPDEST JUMPDEST DUP3 DUP3 SUB SWAP1 POP SWAP3 SWAP2 POP POP JUMP JUMPDEST PUSH32 0x4F776E61626C653A206F6E6C79206F776E65722063616E2063616C6C20746869 PUSH1 0x0 DUP3 ADD MSTORE PUSH32 0x732066756E6374696F6E00000000000000000000000000000000000000000000 PUSH1 0x20 DUP3 ADD MSTORE POP JUMP JUMPDEST PUSH1 0x0 PUSH2 0x1892 PUSH1 0x2A DUP4 PUSH2 0x13D7 JUMP JUMPDEST SWAP2 POP PUSH2 0x189D DUP3 PUSH2 0x1836 JUMP JUMPDEST PUSH1 0x40 DUP3 ADD SWAP1 POP SWAP2 SWAP1 POP JUMP JUMPDEST PUSH1 0x0 PUSH1 0x20 DUP3 ADD SWAP1 POP DUP2 DUP2 SUB PUSH1 0x0 DUP4 ADD MSTORE PUSH2 0x18C1 DUP2 PUSH2 0x1885 JUMP JUMPDEST SWAP1 POP SWAP2 SWAP1 POP JUMP JUMPDEST PUSH32 0x53746F636B436F696E3A20617070726F76652063616E6E6F7420626520646F6E PUSH1 0x0 DUP3 ADD MSTORE PUSH32 0x652066726F6D207A65726F206164647265737300000000000000000000000000 PUSH1 0x20 DUP3 ADD MSTORE POP JUMP JUMPDEST PUSH1 0x0 PUSH2 0x1924 PUSH1 0x33 DUP4 PUSH2 0x13D7 JUMP JUMPDEST SWAP2 POP PUSH2 0x192F DUP3 PUSH2 0x18C8 JUMP JUMPDEST PUSH1 0x40 DUP3 ADD SWAP1 POP SWAP2 SWAP1 POP JUMP JUMPDEST PUSH1 0x0 PUSH1 0x20 DUP3 ADD SWAP1 POP DUP2 DUP2 SUB PUSH1 0x0 DUP4 ADD MSTORE PUSH2 0x1953 DUP2 PUSH2 0x1917 JUMP JUMPDEST SWAP1 POP SWAP2 SWAP1 POP JUMP JUMPDEST PUSH32 0x53746F636B436F696E3A20617070726F76652063616E6E6F7420626520746F20 PUSH1 0x0 DUP3 ADD MSTORE PUSH32 0x7A65726F20616464726573730000000000000000000000000000000000000000 PUSH1 0x20 DUP3 ADD MSTORE POP JUMP JUMPDEST PUSH1 0x0 PUSH2 0x19B6 PUSH1 0x2C DUP4 PUSH2 0x13D7 JUMP JUMPDEST SWAP2 POP PUSH2 0x19C1 DUP3 PUSH2 0x195A JUMP JUMPDEST PUSH1 0x40 DUP3 ADD SWAP1 POP SWAP2 SWAP1 POP JUMP JUMPDEST PUSH1 0x0 PUSH1 0x20 DUP3 ADD SWAP1 POP DUP2 DUP2 SUB PUSH1 0x0 DUP4 ADD MSTORE PUSH2 0x19E5 DUP2 PUSH2 0x19A9 JUMP JUMPDEST SWAP1 POP SWAP2 SWAP1 POP JUMP JUMPDEST PUSH32 0x53746F636B436F696E3A207472616E736665722066726F6D207A65726F206164 PUSH1 0x0 DUP3 ADD MSTORE PUSH32 0x6472657373000000000000000000000000000000000000000000000000000000 PUSH1 0x20 DUP3 ADD MSTORE POP JUMP JUMPDEST PUSH1 0x0 PUSH2 0x1A48 PUSH1 0x25 DUP4 PUSH2 0x13D7 JUMP JUMPDEST SWAP2 POP PUSH2 0x1A53 DUP3 PUSH2 0x19EC JUMP JUMPDEST PUSH1 0x40 DUP3 ADD SWAP1 POP SWAP2 SWAP1 POP JUMP JUMPDEST PUSH1 0x0 PUSH1 0x20 DUP3 ADD SWAP1 POP DUP2 DUP2 SUB PUSH1 0x0 DUP4 ADD MSTORE PUSH2 0x1A77 DUP2 PUSH2 0x1A3B JUMP JUMPDEST SWAP1 POP SWAP2 SWAP1 POP JUMP JUMPDEST PUSH32 0x53746F636B436F696E3A2063616E74207472616E73666572206D6F7265207468 PUSH1 0x0 DUP3 ADD MSTORE PUSH32 0x616E20796F7572206163636F756E7420686F6C64730000000000000000000000 PUSH1 0x20 DUP3 ADD MSTORE POP JUMP JUMPDEST PUSH1 0x0 PUSH2 0x1ADA PUSH1 0x35 DUP4 PUSH2 0x13D7 JUMP JUMPDEST SWAP2 POP PUSH2 0x1AE5 DUP3 PUSH2 0x1A7E JUMP JUMPDEST PUSH1 0x40 DUP3 ADD SWAP1 POP SWAP2 SWAP1 POP JUMP JUMPDEST PUSH1 0x0 PUSH1 0x20 DUP3 ADD SWAP1 POP DUP2 DUP2 SUB PUSH1 0x0 DUP4 ADD MSTORE PUSH2 0x1B09 DUP2 PUSH2 0x1ACD JUMP JUMPDEST SWAP1 POP SWAP2 SWAP1 POP JUMP JUMPDEST PUSH1 0x0 PUSH2 0x1B1B DUP3 PUSH2 0x14EA JUMP JUMPDEST SWAP2 POP PUSH2 0x1B26 DUP4 PUSH2 0x14EA JUMP JUMPDEST SWAP3 POP DUP3 PUSH32 0xFFFFFFFFFFFFFFFFFFFFFFFFFFFFFFFFFFFFFFFFFFFFFFFFFFFFFFFFFFFFFFFF SUB DUP3 GT ISZERO PUSH2 0x1B5B JUMPI PUSH2 0x1B5A PUSH2 0x17D3 JUMP JUMPDEST JUMPDEST DUP3 DUP3 ADD SWAP1 POP SWAP3 SWAP2 POP POP JUMP JUMPDEST PUSH32 0x53746F636B436F696E3A2063616E6E6F74206D696E7420746F207A65726F2061 PUSH1 0x0 DUP3 ADD MSTORE PUSH32 0x6464726573730000000000000000000000000000000000000000000000000000 PUSH1 0x20 DUP3 ADD MSTORE POP JUMP JUMPDEST PUSH1 0x0 PUSH2 0x1BC2 PUSH1 0x26 DUP4 PUSH2 0x13D7 JUMP JUMPDEST SWAP2 POP PUSH2 0x1BCD DUP3 PUSH2 0x1B66 JUMP JUMPDEST PUSH1 0x40 DUP3 ADD SWAP1 POP SWAP2 SWAP1 POP JUMP JUMPDEST PUSH1 0x0 PUSH1 0x20 DUP3 ADD SWAP1 POP DUP2 DUP2 SUB PUSH1 0x0 DUP4 ADD MSTORE PUSH2 0x1BF1 DUP2 PUSH2 0x1BB5 JUMP JUMPDEST SWAP1 POP SWAP2 SWAP1 POP JUMP JUMPDEST PUSH32 0x53746F636B436F696E3A2063616E6E6F74206275726E2066726F6D207A65726F PUSH1 0x0 DUP3 ADD MSTORE PUSH32 0x2061646472657373000000000000000000000000000000000000000000000000 PUSH1 0x20 DUP3 ADD MSTORE POP JUMP JUMPDEST PUSH1 0x0 PUSH2 0x1C54 PUSH1 0x28 DUP4 PUSH2 0x13D7 JUMP JUMPDEST SWAP2 POP PUSH2 0x1C5F DUP3 PUSH2 0x1BF8 JUMP JUMPDEST PUSH1 0x40 DUP3 ADD SWAP1 POP SWAP2 SWAP1 POP JUMP JUMPDEST PUSH1 0x0 PUSH1 0x20 DUP3 ADD SWAP1 POP DUP2 DUP2 SUB PUSH1 0x0 DUP4 ADD MSTORE PUSH2 0x1C83 DUP2 PUSH2 0x1C47 JUMP JUMPDEST SWAP1 POP SWAP2 SWAP1 POP JUMP JUMPDEST PUSH32 0x53746F636B436F696E3A2063616E6E6F74206275726E206D6F7265207468616E PUSH1 0x0 DUP3 ADD MSTORE PUSH32 0x20746865206163636F756E74206F776E73000000000000000000000000000000 PUSH1 0x20 DUP3 ADD MSTORE POP JUMP JUMPDEST PUSH1 0x0 PUSH2 0x1CE6 PUSH1 0x31 DUP4 PUSH2 0x13D7 JUMP JUMPDEST SWAP2 POP PUSH2 0x1CF1 DUP3 PUSH2 0x1C8A JUMP JUMPDEST PUSH1 0x40 DUP3 ADD SWAP1 POP SWAP2 SWAP1 POP JUMP JUMPDEST PUSH1 0x0 PUSH1 0x20 DUP3 ADD SWAP1 POP DUP2 DUP2 SUB PUSH1 0x0 DUP4 ADD MSTORE PUSH2 0x1D15 DUP2 PUSH2 0x1CD9 JUMP JUMPDEST SWAP1 POP SWAP2 SWAP1 POP JUMP JUMPDEST PUSH32 0x4F776E61626C653A206E6577206F776E6572206973207A65726F206164647265 PUSH1 0x0 DUP3 ADD MSTORE PUSH32 0x7373000000000000000000000000000000000000000000000000000000000000 PUSH1 0x20 DUP3 ADD MSTORE POP JUMP JUMPDEST PUSH1 0x0 PUSH2 0x1D78 PUSH1 0x22 DUP4 PUSH2 0x13D7 JUMP JUMPDEST SWAP2 POP PUSH2 0x1D83 DUP3 PUSH2 0x1D1C JUMP JUMPDEST PUSH1 0x40 DUP3 ADD SWAP1 POP SWAP2 SWAP1 POP JUMP JUMPDEST PUSH1 0x0 PUSH1 0x20 DUP3 ADD SWAP1 POP DUP2 DUP2 SUB PUSH1 0x0 DUP4 ADD MSTORE PUSH2 0x1DA7 DUP2 PUSH2 0x1D6B JUMP JUMPDEST SWAP1 POP SWAP2 SWAP1 POP JUMP INVALID LOG2 PUSH5 0x6970667358 0x22 SLT KECCAK256 0x2B SWAP12 0xDC PUSH3 0x23ACA6 BASEFEE 0xCF 0xFB PUSH28 0x9225117E00710D27940ADBED3865B3D9F91F65D44C64736F6C634300 ADDMOD 0xD STOP CALLER "
				},
				"gasEstimates": {
					"creation": {
						"codeDepositCost": "1530400",
						"executionCost": "infinite",
						"totalCost": "infinite"
					},
					"external": {
						"allowance(address,address)": "infinite",
						"approve(address,uint256)": "infinite",
						"balanceOf(address)": "2930",
						"burn(address,uint256)": "infinite",
						"decimals()": "2502",
						"getOwner()": "2602",
						"increaseAllowance(address,uint256)": "867",
						"mint(address,uint256)": "infinite",
						"name()": "infinite",
						"owner()": "2589",
						"renounceOwnership()": "30279",
						"symbol()": "infinite",
						"totalSupply()": "2505",
						"transfer(address,uint256)": "infinite",
						"transferFrom(address,address,uint256)": "infinite",
						"transferOwnership(address)": "30719"
					},
					"internal": {
						"_approve(address,address,uint256)": "infinite",
						"_burn(address,uint256)": "infinite",
						"_mint(address,uint256)": "infinite",
						"_transfer(address,address,uint256)": "infinite"
					}
				},
				"methodIdentifiers": {
					"allowance(address,address)": "dd62ed3e",
					"approve(address,uint256)": "095ea7b3",
					"balanceOf(address)": "70a08231",
					"burn(address,uint256)": "9dc29fac",
					"decimals()": "313ce567",
					"getOwner()": "893d20e8",
					"increaseAllowance(address,uint256)": "39509351",
					"mint(address,uint256)": "40c10f19",
					"name()": "06fdde03",
					"owner()": "8da5cb5b",
					"renounceOwnership()": "715018a6",
					"symbol()": "95d89b41",
					"totalSupply()": "18160ddd",
					"transfer(address,uint256)": "a9059cbb",
					"transferFrom(address,address,uint256)": "23b872dd",
					"transferOwnership(address)": "f2fde38b"
				}
			},
			"userdoc": {
				"events": {
					"Approval(address,address,uint256)": {
						"notice": "Approval is emitted when a new Spender is approved to spend Tokens on the Owners account"
					},
					"OwnershipTransferred(address,address)": {
						"notice": "Event OwnershipTransferred is used to log that a ownership change of the token has occured"
					},
					"Transfer(address,address,uint256)": {
						"notice": "Events are created below. Transfer event is a event that notify the blockchain that a transfer of assets has taken place"
					}
				},
				"kind": "user",
				"methods": {
					"allowance(address,address)": {
						"notice": "allowance is used view how much allowance an spender has"
					},
					"approve(address,uint256)": {
						"notice": "approve will use the senders address and allow the spender to use X amount of tokens on his behalf"
					},
					"balanceOf(address)": {
						"notice": "balanceOf will return the account balance for the given account"
					},
					"burn(address,uint256)": {
						"notice": "burn is used to destroy tokens on an address  See {_burn} Requires   - msg.sender must be the token owner"
					},
					"constructor": {
						"notice": "constructor will be triggered when we create the Smart contract _name = name of the token _short_symbol = Short Symbol name for the token token_decimals = The decimal precision of the Token, defaults 18 _totalSupply is how much Tokens there are totally "
					},
					"decimals()": {
						"notice": "decimals will return the number of decimal precision the Token is deployed with"
					},
					"getOwner()": {
						"notice": "getOwner just calls Ownables owner function.  returns owner of the token "
					},
					"increaseAllowance(address,uint256)": {
						"notice": "increaseAllowance Adds allowance to a account from the function caller address"
					},
					"mint(address,uint256)": {
						"notice": "mint is used to create tokens and assign them to msg.sender  See {_mint} Requires   - msg.sender must be the token owner"
					},
					"name()": {
						"notice": "name will return the Token's symbol "
					},
					"owner()": {
						"notice": "owner() returns the currently assigned owner of the Token "
					},
					"renounceOwnership()": {
						"notice": "renounceOwnership will set the owner to zero address This will make the contract owner less, It will make ALL functions with onlyOwner no longer callable. There is no way of restoring the owner"
					},
					"symbol()": {
						"notice": "symbol will return the Token's symbol "
					},
					"totalSupply()": {
						"notice": "totalSupply will return the tokens total supply of tokens"
					},
					"transfer(address,uint256)": {
						"notice": "transfer is used to transfer funds from the sender to the recipient This function is only callable from outside the contract. For internal usage see  _transfer Requires - Caller cannot be zero - Caller must have a balance = or bigger than amount"
					},
					"transferFrom(address,address,uint256)": {
						"notice": "transferFrom is uesd to transfer Tokens from a Accounts allowance Spender address should be the token holder Requires   - The caller must have a allowance = or bigger than the amount spending"
					},
					"transferOwnership(address)": {
						"notice": "transferOwnership will assign the {newOwner} as owner"
					}
				},
				"version": 1
			}
		}
	}
}