{
	"contracts/StockCoin.sol": {
		"StockCoin": {
			"abi": [
				{
					"inputs": [
						{
							"internalType": "string",
							"name": "token_name",
							"type": "string"
						},
						{
							"internalType": "string",
							"name": "short_symbol",
							"type": "string"
						},
						{
							"internalType": "uint8",
							"name": "token_decimals",
							"type": "uint8"
						},
						{
							"internalType": "uint256",
							"name": "token_totalSupply",
							"type": "uint256"
						}
					],
					"stateMutability": "nonpayable",
					"type": "constructor"
				},
				{
					"anonymous": false,
					"inputs": [
						{
							"indexed": true,
							"internalType": "address",
							"name": "from",
							"type": "address"
						},
						{
							"indexed": true,
							"internalType": "address",
							"name": "to",
							"type": "address"
						},
						{
							"indexed": false,
							"internalType": "uint256",
							"name": "value",
							"type": "uint256"
						}
					],
					"name": "Transfer",
					"type": "event"
				},
				{
					"inputs": [
						{
							"internalType": "address",
							"name": "account",
							"type": "address"
						}
					],
					"name": "balanceOf",
					"outputs": [
						{
							"internalType": "uint256",
							"name": "",
							"type": "uint256"
						}
					],
					"stateMutability": "view",
					"type": "function"
				},
				{
					"inputs": [
						{
							"internalType": "address",
							"name": "account",
							"type": "address"
						},
						{
							"internalType": "uint256",
							"name": "amount",
							"type": "uint256"
						}
					],
					"name": "burn",
					"outputs": [
						{
							"internalType": "bool",
							"name": "",
							"type": "bool"
						}
					],
					"stateMutability": "nonpayable",
					"type": "function"
				},
				{
					"inputs": [],
					"name": "decimals",
					"outputs": [
						{
							"internalType": "uint8",
							"name": "",
							"type": "uint8"
						}
					],
					"stateMutability": "view",
					"type": "function"
				},
				{
					"inputs": [
						{
							"internalType": "address",
							"name": "account",
							"type": "address"
						},
						{
							"internalType": "uint256",
							"name": "amount",
							"type": "uint256"
						}
					],
					"name": "mint",
					"outputs": [
						{
							"internalType": "bool",
							"name": "",
							"type": "bool"
						}
					],
					"stateMutability": "nonpayable",
					"type": "function"
				},
				{
					"inputs": [],
					"name": "name",
					"outputs": [
						{
							"internalType": "string",
							"name": "",
							"type": "string"
						}
					],
					"stateMutability": "view",
					"type": "function"
				},
				{
					"inputs": [],
					"name": "symbol",
					"outputs": [
						{
							"internalType": "string",
							"name": "",
							"type": "string"
						}
					],
					"stateMutability": "view",
					"type": "function"
				},
				{
					"inputs": [],
					"name": "totalSupply",
					"outputs": [
						{
							"internalType": "uint256",
							"name": "",
							"type": "uint256"
						}
					],
					"stateMutability": "view",
					"type": "function"
				},
				{
					"inputs": [
						{
							"internalType": "address",
							"name": "recipient",
							"type": "address"
						},
						{
							"internalType": "uint256",
							"name": "amount",
							"type": "uint256"
						}
					],
					"name": "transfer",
					"outputs": [
						{
							"internalType": "bool",
							"name": "",
							"type": "bool"
						}
					],
					"stateMutability": "nonpayable",
					"type": "function"
				}
			],
			"devdoc": {
				"kind": "dev",
				"methods": {},
				"version": 1
			},
			"evm": {
				"assembly": "    /* \"contracts/StockCoin.sol\":60:5970  contract StockCoin {... */\n  mstore(0x40, 0x80)\n    /* \"contracts/StockCoin.sol\":1037:1562  constructor (string memory token_name, string memory short_symbol, uint8 token_decimals, uint256 token_totalSupply) {... */\n  callvalue\n  dup1\n  iszero\n  tag_1\n  jumpi\n  0x00\n  dup1\n  revert\ntag_1:\n  pop\n  mload(0x40)\n  sub(codesize, bytecodeSize)\n  dup1\n  bytecodeSize\n  dup4\n  codecopy\n  dup2\n  dup2\n  add\n  0x40\n  mstore\n  dup2\n  add\n  swap1\n  tag_2\n  swap2\n  swap1\n  tag_3\n  jump\t// in\ntag_2:\n    /* \"contracts/StockCoin.sol\":1172:1182  token_name */\n  dup4\n    /* \"contracts/StockCoin.sol\":1164:1169  _name */\n  0x03\n    /* \"contracts/StockCoin.sol\":1164:1182  _name = token_name */\n  swap1\n  dup1\n  mload\n  swap1\n  0x20\n  add\n  swap1\n  tag_6\n  swap3\n  swap2\n  swap1\n  tag_7\n  jump\t// in\ntag_6:\n  pop\n    /* \"contracts/StockCoin.sol\":1202:1214  short_symbol */\n  dup3\n    /* \"contracts/StockCoin.sol\":1192:1199  _symbol */\n  0x02\n    /* \"contracts/StockCoin.sol\":1192:1214  _symbol = short_symbol */\n  swap1\n  dup1\n  mload\n  swap1\n  0x20\n  add\n  swap1\n  tag_8\n  swap3\n  swap2\n  swap1\n  tag_7\n  jump\t// in\ntag_8:\n  pop\n    /* \"contracts/StockCoin.sol\":1236:1250  token_decimals */\n  dup2\n    /* \"contracts/StockCoin.sol\":1224:1233  _decimals */\n  0x01\n  0x00\n    /* \"contracts/StockCoin.sol\":1224:1250  _decimals = token_decimals */\n  0x0100\n  exp\n  dup2\n  sload\n  dup2\n  0xff\n  mul\n  not\n  and\n  swap1\n  dup4\n  0xff\n  and\n  mul\n  or\n  swap1\n  sstore\n  pop\n    /* \"contracts/StockCoin.sol\":1275:1292  token_totalSupply */\n  dup1\n    /* \"contracts/StockCoin.sol\":1260:1272  _totalSupply */\n  0x00\n    /* \"contracts/StockCoin.sol\":1260:1292  _totalSupply = token_totalSupply */\n  dup2\n  swap1\n  sstore\n  pop\n    /* \"contracts/StockCoin.sol\":1393:1405  _totalSupply */\n  sload(0x00)\n    /* \"contracts/StockCoin.sol\":1369:1378  _balances */\n  0x04\n    /* \"contracts/StockCoin.sol\":1369:1390  _balances[msg.sender] */\n  0x00\n    /* \"contracts/StockCoin.sol\":1379:1389  msg.sender */\n  caller\n    /* \"contracts/StockCoin.sol\":1369:1390  _balances[msg.sender] */\n  0xffffffffffffffffffffffffffffffffffffffff\n  and\n  0xffffffffffffffffffffffffffffffffffffffff\n  and\n  dup2\n  mstore\n  0x20\n  add\n  swap1\n  dup2\n  mstore\n  0x20\n  add\n  0x00\n  keccak256\n    /* \"contracts/StockCoin.sol\":1369:1405  _balances[msg.sender] = _totalSupply */\n  dup2\n  swap1\n  sstore\n  pop\n    /* \"contracts/StockCoin.sol\":1529:1539  msg.sender */\n  caller\n    /* \"contracts/StockCoin.sol\":1508:1554  Transfer(address(0), msg.sender, _totalSupply) */\n  0xffffffffffffffffffffffffffffffffffffffff\n  and\n    /* \"contracts/StockCoin.sol\":1525:1526  0 */\n  0x00\n    /* \"contracts/StockCoin.sol\":1508:1554  Transfer(address(0), msg.sender, _totalSupply) */\n  0xffffffffffffffffffffffffffffffffffffffff\n  and\n  0xddf252ad1be2c89b69c2b068fc378daa952ba7f163c4a11628f55a4df523b3ef\n    /* \"contracts/StockCoin.sol\":1541:1553  _totalSupply */\n  sload(0x00)\n    /* \"contracts/StockCoin.sol\":1508:1554  Transfer(address(0), msg.sender, _totalSupply) */\n  mload(0x40)\n  tag_9\n  swap2\n  swap1\n  tag_10\n  jump\t// in\ntag_9:\n  mload(0x40)\n  dup1\n  swap2\n  sub\n  swap1\n  log3\n    /* \"contracts/StockCoin.sol\":1037:1562  constructor (string memory token_name, string memory short_symbol, uint8 token_decimals, uint256 token_totalSupply) {... */\n  pop\n  pop\n  pop\n  pop\n    /* \"contracts/StockCoin.sol\":60:5970  contract StockCoin {... */\n  jump(tag_11)\ntag_7:\n  dup3\n  dup1\n  sload\n  tag_12\n  swap1\n  tag_13\n  jump\t// in\ntag_12:\n  swap1\n  0x00\n  mstore\n  keccak256(0x00, 0x20)\n  swap1\n  0x1f\n  add\n  0x20\n  swap1\n  div\n  dup2\n  add\n  swap3\n  dup3\n  tag_15\n  jumpi\n  0x00\n  dup6\n  sstore\n  jump(tag_14)\ntag_15:\n  dup3\n  0x1f\n  lt\n  tag_16\n  jumpi\n  dup1\n  mload\n  not(0xff)\n  and\n  dup4\n  dup1\n  add\n  or\n  dup6\n  sstore\n  jump(tag_14)\ntag_16:\n  dup3\n  dup1\n  add\n  0x01\n  add\n  dup6\n  sstore\n  dup3\n  iszero\n  tag_14\n  jumpi\n  swap2\n  dup3\n  add\ntag_17:\n  dup3\n  dup2\n  gt\n  iszero\n  tag_18\n  jumpi\n  dup3\n  mload\n  dup3\n  sstore\n  swap2\n  0x20\n  add\n  swap2\n  swap1\n  0x01\n  add\n  swap1\n  jump(tag_17)\ntag_18:\ntag_14:\n  pop\n  swap1\n  pop\n  tag_19\n  swap2\n  swap1\n  tag_20\n  jump\t// in\ntag_19:\n  pop\n  swap1\n  jump\t// out\ntag_20:\ntag_21:\n  dup1\n  dup3\n  gt\n  iszero\n  tag_22\n  jumpi\n  0x00\n  dup2\n  0x00\n  swap1\n  sstore\n  pop\n  0x01\n  add\n  jump(tag_21)\ntag_22:\n  pop\n  swap1\n  jump\t// out\n    /* \"#utility.yul\":7:82   */\ntag_23:\n    /* \"#utility.yul\":40:46   */\n  0x00\n    /* \"#utility.yul\":73:75   */\n  0x40\n    /* \"#utility.yul\":67:76   */\n  mload\n    /* \"#utility.yul\":57:76   */\n  swap1\n  pop\n    /* \"#utility.yul\":7:82   */\n  swap1\n  jump\t// out\n    /* \"#utility.yul\":88:205   */\ntag_24:\n    /* \"#utility.yul\":197:198   */\n  0x00\n    /* \"#utility.yul\":194:195   */\n  dup1\n    /* \"#utility.yul\":187:199   */\n  revert\n    /* \"#utility.yul\":211:328   */\ntag_25:\n    /* \"#utility.yul\":320:321   */\n  0x00\n    /* \"#utility.yul\":317:318   */\n  dup1\n    /* \"#utility.yul\":310:322   */\n  revert\n    /* \"#utility.yul\":334:451   */\ntag_26:\n    /* \"#utility.yul\":443:444   */\n  0x00\n    /* \"#utility.yul\":440:441   */\n  dup1\n    /* \"#utility.yul\":433:445   */\n  revert\n    /* \"#utility.yul\":457:574   */\ntag_27:\n    /* \"#utility.yul\":566:567   */\n  0x00\n    /* \"#utility.yul\":563:564   */\n  dup1\n    /* \"#utility.yul\":556:568   */\n  revert\n    /* \"#utility.yul\":580:682   */\ntag_28:\n    /* \"#utility.yul\":621:627   */\n  0x00\n    /* \"#utility.yul\":672:674   */\n  0x1f\n    /* \"#utility.yul\":668:675   */\n  not\n    /* \"#utility.yul\":663:665   */\n  0x1f\n    /* \"#utility.yul\":656:661   */\n  dup4\n    /* \"#utility.yul\":652:666   */\n  add\n    /* \"#utility.yul\":648:676   */\n  and\n    /* \"#utility.yul\":638:676   */\n  swap1\n  pop\n    /* \"#utility.yul\":580:682   */\n  swap2\n  swap1\n  pop\n  jump\t// out\n    /* \"#utility.yul\":688:868   */\ntag_29:\n    /* \"#utility.yul\":736:813   */\n  0x4e487b7100000000000000000000000000000000000000000000000000000000\n    /* \"#utility.yul\":733:734   */\n  0x00\n    /* \"#utility.yul\":726:814   */\n  mstore\n    /* \"#utility.yul\":833:837   */\n  0x41\n    /* \"#utility.yul\":830:831   */\n  0x04\n    /* \"#utility.yul\":823:838   */\n  mstore\n    /* \"#utility.yul\":857:861   */\n  0x24\n    /* \"#utility.yul\":854:855   */\n  0x00\n    /* \"#utility.yul\":847:862   */\n  revert\n    /* \"#utility.yul\":874:1155   */\ntag_30:\n    /* \"#utility.yul\":957:984   */\n  tag_53\n    /* \"#utility.yul\":979:983   */\n  dup3\n    /* \"#utility.yul\":957:984   */\n  tag_28\n  jump\t// in\ntag_53:\n    /* \"#utility.yul\":949:955   */\n  dup2\n    /* \"#utility.yul\":945:985   */\n  add\n    /* \"#utility.yul\":1087:1093   */\n  dup2\n    /* \"#utility.yul\":1075:1085   */\n  dup2\n    /* \"#utility.yul\":1072:1094   */\n  lt\n    /* \"#utility.yul\":1051:1069   */\n  0xffffffffffffffff\n    /* \"#utility.yul\":1039:1049   */\n  dup3\n    /* \"#utility.yul\":1036:1070   */\n  gt\n    /* \"#utility.yul\":1033:1095   */\n  or\n    /* \"#utility.yul\":1030:1118   */\n  iszero\n  tag_54\n  jumpi\n    /* \"#utility.yul\":1098:1116   */\n  tag_55\n  tag_29\n  jump\t// in\ntag_55:\n    /* \"#utility.yul\":1030:1118   */\ntag_54:\n    /* \"#utility.yul\":1138:1148   */\n  dup1\n    /* \"#utility.yul\":1134:1136   */\n  0x40\n    /* \"#utility.yul\":1127:1149   */\n  mstore\n    /* \"#utility.yul\":917:1155   */\n  pop\n    /* \"#utility.yul\":874:1155   */\n  pop\n  pop\n  jump\t// out\n    /* \"#utility.yul\":1161:1290   */\ntag_31:\n    /* \"#utility.yul\":1195:1201   */\n  0x00\n    /* \"#utility.yul\":1222:1242   */\n  tag_57\n  tag_23\n  jump\t// in\ntag_57:\n    /* \"#utility.yul\":1212:1242   */\n  swap1\n  pop\n    /* \"#utility.yul\":1251:1284   */\n  tag_58\n    /* \"#utility.yul\":1279:1283   */\n  dup3\n    /* \"#utility.yul\":1271:1277   */\n  dup3\n    /* \"#utility.yul\":1251:1284   */\n  tag_30\n  jump\t// in\ntag_58:\n    /* \"#utility.yul\":1161:1290   */\n  swap2\n  swap1\n  pop\n  jump\t// out\n    /* \"#utility.yul\":1296:1604   */\ntag_32:\n    /* \"#utility.yul\":1358:1362   */\n  0x00\n    /* \"#utility.yul\":1448:1466   */\n  0xffffffffffffffff\n    /* \"#utility.yul\":1440:1446   */\n  dup3\n    /* \"#utility.yul\":1437:1467   */\n  gt\n    /* \"#utility.yul\":1434:1490   */\n  iszero\n  tag_60\n  jumpi\n    /* \"#utility.yul\":1470:1488   */\n  tag_61\n  tag_29\n  jump\t// in\ntag_61:\n    /* \"#utility.yul\":1434:1490   */\ntag_60:\n    /* \"#utility.yul\":1508:1537   */\n  tag_62\n    /* \"#utility.yul\":1530:1536   */\n  dup3\n    /* \"#utility.yul\":1508:1537   */\n  tag_28\n  jump\t// in\ntag_62:\n    /* \"#utility.yul\":1500:1537   */\n  swap1\n  pop\n    /* \"#utility.yul\":1592:1596   */\n  0x20\n    /* \"#utility.yul\":1586:1590   */\n  dup2\n    /* \"#utility.yul\":1582:1597   */\n  add\n    /* \"#utility.yul\":1574:1597   */\n  swap1\n  pop\n    /* \"#utility.yul\":1296:1604   */\n  swap2\n  swap1\n  pop\n  jump\t// out\n    /* \"#utility.yul\":1610:1917   */\ntag_33:\n    /* \"#utility.yul\":1678:1679   */\n  0x00\n    /* \"#utility.yul\":1688:1801   */\ntag_64:\n    /* \"#utility.yul\":1702:1708   */\n  dup4\n    /* \"#utility.yul\":1699:1700   */\n  dup2\n    /* \"#utility.yul\":1696:1709   */\n  lt\n    /* \"#utility.yul\":1688:1801   */\n  iszero\n  tag_66\n  jumpi\n    /* \"#utility.yul\":1787:1788   */\n  dup1\n    /* \"#utility.yul\":1782:1785   */\n  dup3\n    /* \"#utility.yul\":1778:1789   */\n  add\n    /* \"#utility.yul\":1772:1790   */\n  mload\n    /* \"#utility.yul\":1768:1769   */\n  dup2\n    /* \"#utility.yul\":1763:1766   */\n  dup5\n    /* \"#utility.yul\":1759:1770   */\n  add\n    /* \"#utility.yul\":1752:1791   */\n  mstore\n    /* \"#utility.yul\":1724:1726   */\n  0x20\n    /* \"#utility.yul\":1721:1722   */\n  dup2\n    /* \"#utility.yul\":1717:1727   */\n  add\n    /* \"#utility.yul\":1712:1727   */\n  swap1\n  pop\n    /* \"#utility.yul\":1688:1801   */\n  jump(tag_64)\ntag_66:\n    /* \"#utility.yul\":1819:1825   */\n  dup4\n    /* \"#utility.yul\":1816:1817   */\n  dup2\n    /* \"#utility.yul\":1813:1826   */\n  gt\n    /* \"#utility.yul\":1810:1911   */\n  iszero\n  tag_67\n  jumpi\n    /* \"#utility.yul\":1899:1900   */\n  0x00\n    /* \"#utility.yul\":1890:1896   */\n  dup5\n    /* \"#utility.yul\":1885:1888   */\n  dup5\n    /* \"#utility.yul\":1881:1897   */\n  add\n    /* \"#utility.yul\":1874:1901   */\n  mstore\n    /* \"#utility.yul\":1810:1911   */\ntag_67:\n    /* \"#utility.yul\":1659:1917   */\n  pop\n    /* \"#utility.yul\":1610:1917   */\n  pop\n  pop\n  pop\n  jump\t// out\n    /* \"#utility.yul\":1923:2344   */\ntag_34:\n    /* \"#utility.yul\":2012:2017   */\n  0x00\n    /* \"#utility.yul\":2037:2103   */\n  tag_69\n    /* \"#utility.yul\":2053:2102   */\n  tag_70\n    /* \"#utility.yul\":2095:2101   */\n  dup5\n    /* \"#utility.yul\":2053:2102   */\n  tag_32\n  jump\t// in\ntag_70:\n    /* \"#utility.yul\":2037:2103   */\n  tag_31\n  jump\t// in\ntag_69:\n    /* \"#utility.yul\":2028:2103   */\n  swap1\n  pop\n    /* \"#utility.yul\":2126:2132   */\n  dup3\n    /* \"#utility.yul\":2119:2124   */\n  dup2\n    /* \"#utility.yul\":2112:2133   */\n  mstore\n    /* \"#utility.yul\":2164:2168   */\n  0x20\n    /* \"#utility.yul\":2157:2162   */\n  dup2\n    /* \"#utility.yul\":2153:2169   */\n  add\n    /* \"#utility.yul\":2202:2205   */\n  dup5\n    /* \"#utility.yul\":2193:2199   */\n  dup5\n    /* \"#utility.yul\":2188:2191   */\n  dup5\n    /* \"#utility.yul\":2184:2200   */\n  add\n    /* \"#utility.yul\":2181:2206   */\n  gt\n    /* \"#utility.yul\":2178:2290   */\n  iszero\n  tag_71\n  jumpi\n    /* \"#utility.yul\":2209:2288   */\n  tag_72\n  tag_27\n  jump\t// in\ntag_72:\n    /* \"#utility.yul\":2178:2290   */\ntag_71:\n    /* \"#utility.yul\":2299:2338   */\n  tag_73\n    /* \"#utility.yul\":2331:2337   */\n  dup5\n    /* \"#utility.yul\":2326:2329   */\n  dup3\n    /* \"#utility.yul\":2321:2324   */\n  dup6\n    /* \"#utility.yul\":2299:2338   */\n  tag_33\n  jump\t// in\ntag_73:\n    /* \"#utility.yul\":2018:2344   */\n  pop\n    /* \"#utility.yul\":1923:2344   */\n  swap4\n  swap3\n  pop\n  pop\n  pop\n  jump\t// out\n    /* \"#utility.yul\":2364:2719   */\ntag_35:\n    /* \"#utility.yul\":2431:2436   */\n  0x00\n    /* \"#utility.yul\":2480:2483   */\n  dup3\n    /* \"#utility.yul\":2473:2477   */\n  0x1f\n    /* \"#utility.yul\":2465:2471   */\n  dup4\n    /* \"#utility.yul\":2461:2478   */\n  add\n    /* \"#utility.yul\":2457:2484   */\n  slt\n    /* \"#utility.yul\":2447:2569   */\n  tag_75\n  jumpi\n    /* \"#utility.yul\":2488:2567   */\n  tag_76\n  tag_26\n  jump\t// in\ntag_76:\n    /* \"#utility.yul\":2447:2569   */\ntag_75:\n    /* \"#utility.yul\":2598:2604   */\n  dup2\n    /* \"#utility.yul\":2592:2605   */\n  mload\n    /* \"#utility.yul\":2623:2713   */\n  tag_77\n    /* \"#utility.yul\":2709:2712   */\n  dup5\n    /* \"#utility.yul\":2701:2707   */\n  dup3\n    /* \"#utility.yul\":2694:2698   */\n  0x20\n    /* \"#utility.yul\":2686:2692   */\n  dup7\n    /* \"#utility.yul\":2682:2699   */\n  add\n    /* \"#utility.yul\":2623:2713   */\n  tag_34\n  jump\t// in\ntag_77:\n    /* \"#utility.yul\":2614:2713   */\n  swap2\n  pop\n    /* \"#utility.yul\":2437:2719   */\n  pop\n    /* \"#utility.yul\":2364:2719   */\n  swap3\n  swap2\n  pop\n  pop\n  jump\t// out\n    /* \"#utility.yul\":2725:2811   */\ntag_36:\n    /* \"#utility.yul\":2760:2767   */\n  0x00\n    /* \"#utility.yul\":2800:2804   */\n  0xff\n    /* \"#utility.yul\":2793:2798   */\n  dup3\n    /* \"#utility.yul\":2789:2805   */\n  and\n    /* \"#utility.yul\":2778:2805   */\n  swap1\n  pop\n    /* \"#utility.yul\":2725:2811   */\n  swap2\n  swap1\n  pop\n  jump\t// out\n    /* \"#utility.yul\":2817:2935   */\ntag_37:\n    /* \"#utility.yul\":2888:2910   */\n  tag_80\n    /* \"#utility.yul\":2904:2909   */\n  dup2\n    /* \"#utility.yul\":2888:2910   */\n  tag_36\n  jump\t// in\ntag_80:\n    /* \"#utility.yul\":2881:2886   */\n  dup2\n    /* \"#utility.yul\":2878:2911   */\n  eq\n    /* \"#utility.yul\":2868:2929   */\n  tag_81\n  jumpi\n    /* \"#utility.yul\":2925:2926   */\n  0x00\n    /* \"#utility.yul\":2922:2923   */\n  dup1\n    /* \"#utility.yul\":2915:2927   */\n  revert\n    /* \"#utility.yul\":2868:2929   */\ntag_81:\n    /* \"#utility.yul\":2817:2935   */\n  pop\n  jump\t// out\n    /* \"#utility.yul\":2941:3080   */\ntag_38:\n    /* \"#utility.yul\":2996:3001   */\n  0x00\n    /* \"#utility.yul\":3027:3033   */\n  dup2\n    /* \"#utility.yul\":3021:3034   */\n  mload\n    /* \"#utility.yul\":3012:3034   */\n  swap1\n  pop\n    /* \"#utility.yul\":3043:3074   */\n  tag_83\n    /* \"#utility.yul\":3068:3073   */\n  dup2\n    /* \"#utility.yul\":3043:3074   */\n  tag_37\n  jump\t// in\ntag_83:\n    /* \"#utility.yul\":2941:3080   */\n  swap3\n  swap2\n  pop\n  pop\n  jump\t// out\n    /* \"#utility.yul\":3086:3163   */\ntag_39:\n    /* \"#utility.yul\":3123:3130   */\n  0x00\n    /* \"#utility.yul\":3152:3157   */\n  dup2\n    /* \"#utility.yul\":3141:3157   */\n  swap1\n  pop\n    /* \"#utility.yul\":3086:3163   */\n  swap2\n  swap1\n  pop\n  jump\t// out\n    /* \"#utility.yul\":3169:3291   */\ntag_40:\n    /* \"#utility.yul\":3242:3266   */\n  tag_86\n    /* \"#utility.yul\":3260:3265   */\n  dup2\n    /* \"#utility.yul\":3242:3266   */\n  tag_39\n  jump\t// in\ntag_86:\n    /* \"#utility.yul\":3235:3240   */\n  dup2\n    /* \"#utility.yul\":3232:3267   */\n  eq\n    /* \"#utility.yul\":3222:3285   */\n  tag_87\n  jumpi\n    /* \"#utility.yul\":3281:3282   */\n  0x00\n    /* \"#utility.yul\":3278:3279   */\n  dup1\n    /* \"#utility.yul\":3271:3283   */\n  revert\n    /* \"#utility.yul\":3222:3285   */\ntag_87:\n    /* \"#utility.yul\":3169:3291   */\n  pop\n  jump\t// out\n    /* \"#utility.yul\":3297:3440   */\ntag_41:\n    /* \"#utility.yul\":3354:3359   */\n  0x00\n    /* \"#utility.yul\":3385:3391   */\n  dup2\n    /* \"#utility.yul\":3379:3392   */\n  mload\n    /* \"#utility.yul\":3370:3392   */\n  swap1\n  pop\n    /* \"#utility.yul\":3401:3434   */\n  tag_89\n    /* \"#utility.yul\":3428:3433   */\n  dup2\n    /* \"#utility.yul\":3401:3434   */\n  tag_40\n  jump\t// in\ntag_89:\n    /* \"#utility.yul\":3297:3440   */\n  swap3\n  swap2\n  pop\n  pop\n  jump\t// out\n    /* \"#utility.yul\":3446:4608   */\ntag_3:\n    /* \"#utility.yul\":3561:3567   */\n  0x00\n    /* \"#utility.yul\":3569:3575   */\n  dup1\n    /* \"#utility.yul\":3577:3583   */\n  0x00\n    /* \"#utility.yul\":3585:3591   */\n  dup1\n    /* \"#utility.yul\":3634:3637   */\n  0x80\n    /* \"#utility.yul\":3622:3631   */\n  dup6\n    /* \"#utility.yul\":3613:3620   */\n  dup8\n    /* \"#utility.yul\":3609:3632   */\n  sub\n    /* \"#utility.yul\":3605:3638   */\n  slt\n    /* \"#utility.yul\":3602:3722   */\n  iszero\n  tag_91\n  jumpi\n    /* \"#utility.yul\":3641:3720   */\n  tag_92\n  tag_24\n  jump\t// in\ntag_92:\n    /* \"#utility.yul\":3602:3722   */\ntag_91:\n    /* \"#utility.yul\":3782:3783   */\n  0x00\n    /* \"#utility.yul\":3771:3780   */\n  dup6\n    /* \"#utility.yul\":3767:3784   */\n  add\n    /* \"#utility.yul\":3761:3785   */\n  mload\n    /* \"#utility.yul\":3812:3830   */\n  0xffffffffffffffff\n    /* \"#utility.yul\":3804:3810   */\n  dup2\n    /* \"#utility.yul\":3801:3831   */\n  gt\n    /* \"#utility.yul\":3798:3915   */\n  iszero\n  tag_93\n  jumpi\n    /* \"#utility.yul\":3834:3913   */\n  tag_94\n  tag_25\n  jump\t// in\ntag_94:\n    /* \"#utility.yul\":3798:3915   */\ntag_93:\n    /* \"#utility.yul\":3939:4013   */\n  tag_95\n    /* \"#utility.yul\":4005:4012   */\n  dup8\n    /* \"#utility.yul\":3996:4002   */\n  dup3\n    /* \"#utility.yul\":3985:3994   */\n  dup9\n    /* \"#utility.yul\":3981:4003   */\n  add\n    /* \"#utility.yul\":3939:4013   */\n  tag_35\n  jump\t// in\ntag_95:\n    /* \"#utility.yul\":3929:4013   */\n  swap5\n  pop\n    /* \"#utility.yul\":3732:4023   */\n  pop\n    /* \"#utility.yul\":4083:4085   */\n  0x20\n    /* \"#utility.yul\":4072:4081   */\n  dup6\n    /* \"#utility.yul\":4068:4086   */\n  add\n    /* \"#utility.yul\":4062:4087   */\n  mload\n    /* \"#utility.yul\":4114:4132   */\n  0xffffffffffffffff\n    /* \"#utility.yul\":4106:4112   */\n  dup2\n    /* \"#utility.yul\":4103:4133   */\n  gt\n    /* \"#utility.yul\":4100:4217   */\n  iszero\n  tag_96\n  jumpi\n    /* \"#utility.yul\":4136:4215   */\n  tag_97\n  tag_25\n  jump\t// in\ntag_97:\n    /* \"#utility.yul\":4100:4217   */\ntag_96:\n    /* \"#utility.yul\":4241:4315   */\n  tag_98\n    /* \"#utility.yul\":4307:4314   */\n  dup8\n    /* \"#utility.yul\":4298:4304   */\n  dup3\n    /* \"#utility.yul\":4287:4296   */\n  dup9\n    /* \"#utility.yul\":4283:4305   */\n  add\n    /* \"#utility.yul\":4241:4315   */\n  tag_35\n  jump\t// in\ntag_98:\n    /* \"#utility.yul\":4231:4315   */\n  swap4\n  pop\n    /* \"#utility.yul\":4033:4325   */\n  pop\n    /* \"#utility.yul\":4364:4366   */\n  0x40\n    /* \"#utility.yul\":4390:4452   */\n  tag_99\n    /* \"#utility.yul\":4444:4451   */\n  dup8\n    /* \"#utility.yul\":4435:4441   */\n  dup3\n    /* \"#utility.yul\":4424:4433   */\n  dup9\n    /* \"#utility.yul\":4420:4442   */\n  add\n    /* \"#utility.yul\":4390:4452   */\n  tag_38\n  jump\t// in\ntag_99:\n    /* \"#utility.yul\":4380:4452   */\n  swap3\n  pop\n    /* \"#utility.yul\":4335:4462   */\n  pop\n    /* \"#utility.yul\":4501:4503   */\n  0x60\n    /* \"#utility.yul\":4527:4591   */\n  tag_100\n    /* \"#utility.yul\":4583:4590   */\n  dup8\n    /* \"#utility.yul\":4574:4580   */\n  dup3\n    /* \"#utility.yul\":4563:4572   */\n  dup9\n    /* \"#utility.yul\":4559:4581   */\n  add\n    /* \"#utility.yul\":4527:4591   */\n  tag_41\n  jump\t// in\ntag_100:\n    /* \"#utility.yul\":4517:4591   */\n  swap2\n  pop\n    /* \"#utility.yul\":4472:4601   */\n  pop\n    /* \"#utility.yul\":3446:4608   */\n  swap3\n  swap6\n  swap2\n  swap5\n  pop\n  swap3\n  pop\n  jump\t// out\n    /* \"#utility.yul\":4614:4732   */\ntag_42:\n    /* \"#utility.yul\":4701:4725   */\n  tag_102\n    /* \"#utility.yul\":4719:4724   */\n  dup2\n    /* \"#utility.yul\":4701:4725   */\n  tag_39\n  jump\t// in\ntag_102:\n    /* \"#utility.yul\":4696:4699   */\n  dup3\n    /* \"#utility.yul\":4689:4726   */\n  mstore\n    /* \"#utility.yul\":4614:4732   */\n  pop\n  pop\n  jump\t// out\n    /* \"#utility.yul\":4738:4960   */\ntag_10:\n    /* \"#utility.yul\":4831:4835   */\n  0x00\n    /* \"#utility.yul\":4869:4871   */\n  0x20\n    /* \"#utility.yul\":4858:4867   */\n  dup3\n    /* \"#utility.yul\":4854:4872   */\n  add\n    /* \"#utility.yul\":4846:4872   */\n  swap1\n  pop\n    /* \"#utility.yul\":4882:4953   */\n  tag_104\n    /* \"#utility.yul\":4950:4951   */\n  0x00\n    /* \"#utility.yul\":4939:4948   */\n  dup4\n    /* \"#utility.yul\":4935:4952   */\n  add\n    /* \"#utility.yul\":4926:4932   */\n  dup5\n    /* \"#utility.yul\":4882:4953   */\n  tag_42\n  jump\t// in\ntag_104:\n    /* \"#utility.yul\":4738:4960   */\n  swap3\n  swap2\n  pop\n  pop\n  jump\t// out\n    /* \"#utility.yul\":4966:5146   */\ntag_43:\n    /* \"#utility.yul\":5014:5091   */\n  0x4e487b7100000000000000000000000000000000000000000000000000000000\n    /* \"#utility.yul\":5011:5012   */\n  0x00\n    /* \"#utility.yul\":5004:5092   */\n  mstore\n    /* \"#utility.yul\":5111:5115   */\n  0x22\n    /* \"#utility.yul\":5108:5109   */\n  0x04\n    /* \"#utility.yul\":5101:5116   */\n  mstore\n    /* \"#utility.yul\":5135:5139   */\n  0x24\n    /* \"#utility.yul\":5132:5133   */\n  0x00\n    /* \"#utility.yul\":5125:5140   */\n  revert\n    /* \"#utility.yul\":5152:5472   */\ntag_13:\n    /* \"#utility.yul\":5196:5202   */\n  0x00\n    /* \"#utility.yul\":5233:5234   */\n  0x02\n    /* \"#utility.yul\":5227:5231   */\n  dup3\n    /* \"#utility.yul\":5223:5235   */\n  div\n    /* \"#utility.yul\":5213:5235   */\n  swap1\n  pop\n    /* \"#utility.yul\":5280:5281   */\n  0x01\n    /* \"#utility.yul\":5274:5278   */\n  dup3\n    /* \"#utility.yul\":5270:5282   */\n  and\n    /* \"#utility.yul\":5301:5319   */\n  dup1\n    /* \"#utility.yul\":5291:5372   */\n  tag_107\n  jumpi\n    /* \"#utility.yul\":5357:5361   */\n  0x7f\n    /* \"#utility.yul\":5349:5355   */\n  dup3\n    /* \"#utility.yul\":5345:5362   */\n  and\n    /* \"#utility.yul\":5335:5362   */\n  swap2\n  pop\n    /* \"#utility.yul\":5291:5372   */\ntag_107:\n    /* \"#utility.yul\":5419:5421   */\n  0x20\n    /* \"#utility.yul\":5411:5417   */\n  dup3\n    /* \"#utility.yul\":5408:5422   */\n  lt\n    /* \"#utility.yul\":5388:5406   */\n  dup2\n    /* \"#utility.yul\":5385:5423   */\n  sub\n    /* \"#utility.yul\":5382:5466   */\n  tag_108\n  jumpi\n    /* \"#utility.yul\":5438:5456   */\n  tag_109\n  tag_43\n  jump\t// in\ntag_109:\n    /* \"#utility.yul\":5382:5466   */\ntag_108:\n    /* \"#utility.yul\":5203:5472   */\n  pop\n    /* \"#utility.yul\":5152:5472   */\n  swap2\n  swap1\n  pop\n  jump\t// out\n    /* \"contracts/StockCoin.sol\":60:5970  contract StockCoin {... */\ntag_11:\n  dataSize(sub_0)\n  dup1\n  dataOffset(sub_0)\n  0x00\n  codecopy\n  0x00\n  return\nstop\n\nsub_0: assembly {\n        /* \"contracts/StockCoin.sol\":60:5970  contract StockCoin {... */\n      mstore(0x40, 0x80)\n      callvalue\n      dup1\n      iszero\n      tag_1\n      jumpi\n      0x00\n      dup1\n      revert\n    tag_1:\n      pop\n      jumpi(tag_2, lt(calldatasize, 0x04))\n      shr(0xe0, calldataload(0x00))\n      dup1\n      0x70a08231\n      gt\n      tag_11\n      jumpi\n      dup1\n      0x70a08231\n      eq\n      tag_7\n      jumpi\n      dup1\n      0x95d89b41\n      eq\n      tag_8\n      jumpi\n      dup1\n      0x9dc29fac\n      eq\n      tag_9\n      jumpi\n      dup1\n      0xa9059cbb\n      eq\n      tag_10\n      jumpi\n      jump(tag_2)\n    tag_11:\n      dup1\n      0x06fdde03\n      eq\n      tag_3\n      jumpi\n      dup1\n      0x18160ddd\n      eq\n      tag_4\n      jumpi\n      dup1\n      0x313ce567\n      eq\n      tag_5\n      jumpi\n      dup1\n      0x40c10f19\n      eq\n      tag_6\n      jumpi\n    tag_2:\n      0x00\n      dup1\n      revert\n        /* \"contracts/StockCoin.sol\":1993:2075  function name() external view returns (string memory){... */\n    tag_3:\n      tag_12\n      tag_13\n      jump\t// in\n    tag_12:\n      mload(0x40)\n      tag_14\n      swap2\n      swap1\n      tag_15\n      jump\t// in\n    tag_14:\n      mload(0x40)\n      dup1\n      swap2\n      sub\n      swap1\n      return\n        /* \"contracts/StockCoin.sol\":2168:2258  function totalSupply() external view returns (uint256){... */\n    tag_4:\n      tag_16\n      tag_17\n      jump\t// in\n    tag_16:\n      mload(0x40)\n      tag_18\n      swap2\n      swap1\n      tag_19\n      jump\t// in\n    tag_18:\n      mload(0x40)\n      dup1\n      swap2\n      sub\n      swap1\n      return\n        /* \"contracts/StockCoin.sol\":1677:1761  function decimals () external view returns (uint8) {... */\n    tag_5:\n      tag_20\n      tag_21\n      jump\t// in\n    tag_20:\n      mload(0x40)\n      tag_22\n      swap2\n      swap1\n      tag_23\n      jump\t// in\n    tag_22:\n      mload(0x40)\n      dup1\n      swap2\n      sub\n      swap1\n      return\n        /* \"contracts/StockCoin.sol\":4567:4699  function mint (address account, uint256 amount) public returns (bool) {... */\n    tag_6:\n      tag_24\n      0x04\n      dup1\n      calldatasize\n      sub\n      dup2\n      add\n      swap1\n      tag_25\n      swap2\n      swap1\n      tag_26\n      jump\t// in\n    tag_25:\n      tag_27\n      jump\t// in\n    tag_24:\n      mload(0x40)\n      tag_28\n      swap2\n      swap1\n      tag_29\n      jump\t// in\n    tag_28:\n      mload(0x40)\n      dup1\n      swap2\n      sub\n      swap1\n      return\n        /* \"contracts/StockCoin.sol\":2357:2469  function balanceOf(address account) external view returns (uint256) {... */\n    tag_7:\n      tag_30\n      0x04\n      dup1\n      calldatasize\n      sub\n      dup2\n      add\n      swap1\n      tag_31\n      swap2\n      swap1\n      tag_32\n      jump\t// in\n    tag_31:\n      tag_33\n      jump\t// in\n    tag_30:\n      mload(0x40)\n      tag_34\n      swap2\n      swap1\n      tag_19\n      jump\t// in\n    tag_34:\n      mload(0x40)\n      dup1\n      swap2\n      sub\n      swap1\n      return\n        /* \"contracts/StockCoin.sol\":1835:1921  function symbol() external view returns (string memory){... */\n    tag_8:\n      tag_35\n      tag_36\n      jump\t// in\n    tag_35:\n      mload(0x40)\n      tag_37\n      swap2\n      swap1\n      tag_15\n      jump\t// in\n    tag_37:\n      mload(0x40)\n      dup1\n      swap2\n      sub\n      swap1\n      return\n        /* \"contracts/StockCoin.sol\":4250:4381  function burn (address account, uint256 amount) public returns(bool) {... */\n    tag_9:\n      tag_38\n      0x04\n      dup1\n      calldatasize\n      sub\n      dup2\n      add\n      swap1\n      tag_39\n      swap2\n      swap1\n      tag_26\n      jump\t// in\n    tag_39:\n      tag_40\n      jump\t// in\n    tag_38:\n      mload(0x40)\n      tag_41\n      swap2\n      swap1\n      tag_29\n      jump\t// in\n    tag_41:\n      mload(0x40)\n      dup1\n      swap2\n      sub\n      swap1\n      return\n        /* \"contracts/StockCoin.sol\":5022:5180  function transfer(address recipient, uint256 amount) external returns (bool) {... */\n    tag_10:\n      tag_42\n      0x04\n      dup1\n      calldatasize\n      sub\n      dup2\n      add\n      swap1\n      tag_43\n      swap2\n      swap1\n      tag_26\n      jump\t// in\n    tag_43:\n      tag_44\n      jump\t// in\n    tag_42:\n      mload(0x40)\n      tag_45\n      swap2\n      swap1\n      tag_29\n      jump\t// in\n    tag_45:\n      mload(0x40)\n      dup1\n      swap2\n      sub\n      swap1\n      return\n        /* \"contracts/StockCoin.sol\":1993:2075  function name() external view returns (string memory){... */\n    tag_13:\n        /* \"contracts/StockCoin.sol\":2032:2045  string memory */\n      0x60\n        /* \"contracts/StockCoin.sol\":2063:2068  _name */\n      0x03\n        /* \"contracts/StockCoin.sol\":2056:2068  return _name */\n      dup1\n      sload\n      tag_47\n      swap1\n      tag_48\n      jump\t// in\n    tag_47:\n      dup1\n      0x1f\n      add\n      0x20\n      dup1\n      swap2\n      div\n      mul\n      0x20\n      add\n      mload(0x40)\n      swap1\n      dup2\n      add\n      0x40\n      mstore\n      dup1\n      swap3\n      swap2\n      swap1\n      dup2\n      dup2\n      mstore\n      0x20\n      add\n      dup3\n      dup1\n      sload\n      tag_49\n      swap1\n      tag_48\n      jump\t// in\n    tag_49:\n      dup1\n      iszero\n      tag_50\n      jumpi\n      dup1\n      0x1f\n      lt\n      tag_51\n      jumpi\n      0x0100\n      dup1\n      dup4\n      sload\n      div\n      mul\n      dup4\n      mstore\n      swap2\n      0x20\n      add\n      swap2\n      jump(tag_50)\n    tag_51:\n      dup3\n      add\n      swap2\n      swap1\n      0x00\n      mstore\n      keccak256(0x00, 0x20)\n      swap1\n    tag_52:\n      dup2\n      sload\n      dup2\n      mstore\n      swap1\n      0x01\n      add\n      swap1\n      0x20\n      add\n      dup1\n      dup4\n      gt\n      tag_52\n      jumpi\n      dup3\n      swap1\n      sub\n      0x1f\n      and\n      dup3\n      add\n      swap2\n    tag_50:\n      pop\n      pop\n      pop\n      pop\n      pop\n      swap1\n      pop\n        /* \"contracts/StockCoin.sol\":1993:2075  function name() external view returns (string memory){... */\n      swap1\n      jump\t// out\n        /* \"contracts/StockCoin.sol\":2168:2258  function totalSupply() external view returns (uint256){... */\n    tag_17:\n        /* \"contracts/StockCoin.sol\":2214:2221  uint256 */\n      0x00\n        /* \"contracts/StockCoin.sol\":2239:2251  _totalSupply */\n      dup1\n      sload\n        /* \"contracts/StockCoin.sol\":2232:2251  return _totalSupply */\n      swap1\n      pop\n        /* \"contracts/StockCoin.sol\":2168:2258  function totalSupply() external view returns (uint256){... */\n      swap1\n      jump\t// out\n        /* \"contracts/StockCoin.sol\":1677:1761  function decimals () external view returns (uint8) {... */\n    tag_21:\n        /* \"contracts/StockCoin.sol\":1721:1726  uint8 */\n      0x00\n        /* \"contracts/StockCoin.sol\":1745:1754  _decimals */\n      0x01\n      0x00\n      swap1\n      sload\n      swap1\n      0x0100\n      exp\n      swap1\n      div\n      0xff\n      and\n        /* \"contracts/StockCoin.sol\":1738:1754  return _decimals */\n      swap1\n      pop\n        /* \"contracts/StockCoin.sol\":1677:1761  function decimals () external view returns (uint8) {... */\n      swap1\n      jump\t// out\n        /* \"contracts/StockCoin.sol\":4567:4699  function mint (address account, uint256 amount) public returns (bool) {... */\n    tag_27:\n        /* \"contracts/StockCoin.sol\":4631:4635  bool */\n      0x00\n        /* \"contracts/StockCoin.sol\":4648:4670  _mint(account, amount) */\n      tag_56\n        /* \"contracts/StockCoin.sol\":4654:4661  account */\n      dup4\n        /* \"contracts/StockCoin.sol\":4663:4669  amount */\n      dup4\n        /* \"contracts/StockCoin.sol\":4648:4653  _mint */\n      tag_57\n        /* \"contracts/StockCoin.sol\":4648:4670  _mint(account, amount) */\n      jump\t// in\n    tag_56:\n        /* \"contracts/StockCoin.sol\":4687:4691  true */\n      0x01\n        /* \"contracts/StockCoin.sol\":4680:4691  return true */\n      swap1\n      pop\n        /* \"contracts/StockCoin.sol\":4567:4699  function mint (address account, uint256 amount) public returns (bool) {... */\n      swap3\n      swap2\n      pop\n      pop\n      jump\t// out\n        /* \"contracts/StockCoin.sol\":2357:2469  function balanceOf(address account) external view returns (uint256) {... */\n    tag_33:\n        /* \"contracts/StockCoin.sol\":2416:2423  uint256 */\n      0x00\n        /* \"contracts/StockCoin.sol\":2443:2452  _balances */\n      0x04\n        /* \"contracts/StockCoin.sol\":2443:2461  _balances[account] */\n      0x00\n        /* \"contracts/StockCoin.sol\":2453:2460  account */\n      dup4\n        /* \"contracts/StockCoin.sol\":2443:2461  _balances[account] */\n      0xffffffffffffffffffffffffffffffffffffffff\n      and\n      0xffffffffffffffffffffffffffffffffffffffff\n      and\n      dup2\n      mstore\n      0x20\n      add\n      swap1\n      dup2\n      mstore\n      0x20\n      add\n      0x00\n      keccak256\n      sload\n        /* \"contracts/StockCoin.sol\":2436:2461  return _balances[account] */\n      swap1\n      pop\n        /* \"contracts/StockCoin.sol\":2357:2469  function balanceOf(address account) external view returns (uint256) {... */\n      swap2\n      swap1\n      pop\n      jump\t// out\n        /* \"contracts/StockCoin.sol\":1835:1921  function symbol() external view returns (string memory){... */\n    tag_36:\n        /* \"contracts/StockCoin.sol\":1876:1889  string memory */\n      0x60\n        /* \"contracts/StockCoin.sol\":1907:1914  _symbol */\n      0x02\n        /* \"contracts/StockCoin.sol\":1900:1914  return _symbol */\n      dup1\n      sload\n      tag_60\n      swap1\n      tag_48\n      jump\t// in\n    tag_60:\n      dup1\n      0x1f\n      add\n      0x20\n      dup1\n      swap2\n      div\n      mul\n      0x20\n      add\n      mload(0x40)\n      swap1\n      dup2\n      add\n      0x40\n      mstore\n      dup1\n      swap3\n      swap2\n      swap1\n      dup2\n      dup2\n      mstore\n      0x20\n      add\n      dup3\n      dup1\n      sload\n      tag_61\n      swap1\n      tag_48\n      jump\t// in\n    tag_61:\n      dup1\n      iszero\n      tag_62\n      jumpi\n      dup1\n      0x1f\n      lt\n      tag_63\n      jumpi\n      0x0100\n      dup1\n      dup4\n      sload\n      div\n      mul\n      dup4\n      mstore\n      swap2\n      0x20\n      add\n      swap2\n      jump(tag_62)\n    tag_63:\n      dup3\n      add\n      swap2\n      swap1\n      0x00\n      mstore\n      keccak256(0x00, 0x20)\n      swap1\n    tag_64:\n      dup2\n      sload\n      dup2\n      mstore\n      swap1\n      0x01\n      add\n      swap1\n      0x20\n      add\n      dup1\n      dup4\n      gt\n      tag_64\n      jumpi\n      dup3\n      swap1\n      sub\n      0x1f\n      and\n      dup3\n      add\n      swap2\n    tag_62:\n      pop\n      pop\n      pop\n      pop\n      pop\n      swap1\n      pop\n        /* \"contracts/StockCoin.sol\":1835:1921  function symbol() external view returns (string memory){... */\n      swap1\n      jump\t// out\n        /* \"contracts/StockCoin.sol\":4250:4381  function burn (address account, uint256 amount) public returns(bool) {... */\n    tag_40:\n        /* \"contracts/StockCoin.sol\":4313:4317  bool */\n      0x00\n        /* \"contracts/StockCoin.sol\":4330:4352  _burn(account, amount) */\n      tag_66\n        /* \"contracts/StockCoin.sol\":4336:4343  account */\n      dup4\n        /* \"contracts/StockCoin.sol\":4345:4351  amount */\n      dup4\n        /* \"contracts/StockCoin.sol\":4330:4335  _burn */\n      tag_67\n        /* \"contracts/StockCoin.sol\":4330:4352  _burn(account, amount) */\n      jump\t// in\n    tag_66:\n        /* \"contracts/StockCoin.sol\":4369:4373  true */\n      0x01\n        /* \"contracts/StockCoin.sol\":4362:4373  return true */\n      swap1\n      pop\n        /* \"contracts/StockCoin.sol\":4250:4381  function burn (address account, uint256 amount) public returns(bool) {... */\n      swap3\n      swap2\n      pop\n      pop\n      jump\t// out\n        /* \"contracts/StockCoin.sol\":5022:5180  function transfer(address recipient, uint256 amount) external returns (bool) {... */\n    tag_44:\n        /* \"contracts/StockCoin.sol\":5093:5097  bool */\n      0x00\n        /* \"contracts/StockCoin.sol\":5110:5151  _transfer (msg.sender, recipient, amount) */\n      tag_69\n        /* \"contracts/StockCoin.sol\":5121:5131  msg.sender */\n      caller\n        /* \"contracts/StockCoin.sol\":5133:5142  recipient */\n      dup5\n        /* \"contracts/StockCoin.sol\":5144:5150  amount */\n      dup5\n        /* \"contracts/StockCoin.sol\":5110:5119  _transfer */\n      tag_70\n        /* \"contracts/StockCoin.sol\":5110:5151  _transfer (msg.sender, recipient, amount) */\n      jump\t// in\n    tag_69:\n        /* \"contracts/StockCoin.sol\":5168:5172  true */\n      0x01\n        /* \"contracts/StockCoin.sol\":5161:5172  return true */\n      swap1\n      pop\n        /* \"contracts/StockCoin.sol\":5022:5180  function transfer(address recipient, uint256 amount) external returns (bool) {... */\n      swap3\n      swap2\n      pop\n      pop\n      jump\t// out\n        /* \"contracts/StockCoin.sol\":2770:3226  function _mint (address account, uint256 amount) internal {... */\n    tag_57:\n        /* \"contracts/StockCoin.sol\":2866:2867  0 */\n      0x00\n        /* \"contracts/StockCoin.sol\":2847:2868  account != address(0) */\n      0xffffffffffffffffffffffffffffffffffffffff\n      and\n        /* \"contracts/StockCoin.sol\":2847:2854  account */\n      dup3\n        /* \"contracts/StockCoin.sol\":2847:2868  account != address(0) */\n      0xffffffffffffffffffffffffffffffffffffffff\n      and\n      sub\n        /* \"contracts/StockCoin.sol\":2839:2911  require(account != address(0), \"StockCoin: cannot mint to zero address\") */\n      tag_72\n      jumpi\n      mload(0x40)\n      0x08c379a000000000000000000000000000000000000000000000000000000000\n      dup2\n      mstore\n      0x04\n      add\n      tag_73\n      swap1\n      tag_74\n      jump\t// in\n    tag_73:\n      mload(0x40)\n      dup1\n      swap2\n      sub\n      swap1\n      revert\n    tag_72:\n        /* \"contracts/StockCoin.sol\":2985:2991  amount */\n      dup1\n        /* \"contracts/StockCoin.sol\":2970:2982  _totalSupply */\n      sload(0x00)\n        /* \"contracts/StockCoin.sol\":2970:2991  _totalSupply + amount */\n      tag_75\n      swap2\n      swap1\n      tag_76\n      jump\t// in\n    tag_75:\n        /* \"contracts/StockCoin.sol\":2955:2967  _totalSupply */\n      0x00\n        /* \"contracts/StockCoin.sol\":2955:2991  _totalSupply = _totalSupply + amount */\n      dup2\n      swap1\n      sstore\n      pop\n        /* \"contracts/StockCoin.sol\":3115:3121  amount */\n      dup1\n        /* \"contracts/StockCoin.sol\":3094:3103  _balances */\n      0x04\n        /* \"contracts/StockCoin.sol\":3094:3112  _balances[account] */\n      0x00\n        /* \"contracts/StockCoin.sol\":3104:3111  account */\n      dup5\n        /* \"contracts/StockCoin.sol\":3094:3112  _balances[account] */\n      0xffffffffffffffffffffffffffffffffffffffff\n      and\n      0xffffffffffffffffffffffffffffffffffffffff\n      and\n      dup2\n      mstore\n      0x20\n      add\n      swap1\n      dup2\n      mstore\n      0x20\n      add\n      0x00\n      keccak256\n      sload\n        /* \"contracts/StockCoin.sol\":3094:3121  _balances[account] + amount */\n      tag_77\n      swap2\n      swap1\n      tag_76\n      jump\t// in\n    tag_77:\n        /* \"contracts/StockCoin.sol\":3073:3082  _balances */\n      0x04\n        /* \"contracts/StockCoin.sol\":3073:3091  _balances[account] */\n      0x00\n        /* \"contracts/StockCoin.sol\":3083:3090  account */\n      dup5\n        /* \"contracts/StockCoin.sol\":3073:3091  _balances[account] */\n      0xffffffffffffffffffffffffffffffffffffffff\n      and\n      0xffffffffffffffffffffffffffffffffffffffff\n      and\n      dup2\n      mstore\n      0x20\n      add\n      swap1\n      dup2\n      mstore\n      0x20\n      add\n      0x00\n      keccak256\n        /* \"contracts/StockCoin.sol\":3073:3121  _balances[account] = _balances[account] + amount */\n      dup2\n      swap1\n      sstore\n      pop\n        /* \"contracts/StockCoin.sol\":3202:3209  account */\n      dup2\n        /* \"contracts/StockCoin.sol\":3181:3218  Transfer(address(0), account, amount) */\n      0xffffffffffffffffffffffffffffffffffffffff\n      and\n        /* \"contracts/StockCoin.sol\":3198:3199  0 */\n      0x00\n        /* \"contracts/StockCoin.sol\":3181:3218  Transfer(address(0), account, amount) */\n      0xffffffffffffffffffffffffffffffffffffffff\n      and\n      0xddf252ad1be2c89b69c2b068fc378daa952ba7f163c4a11628f55a4df523b3ef\n        /* \"contracts/StockCoin.sol\":3211:3217  amount */\n      dup4\n        /* \"contracts/StockCoin.sol\":3181:3218  Transfer(address(0), account, amount) */\n      mload(0x40)\n      tag_78\n      swap2\n      swap1\n      tag_19\n      jump\t// in\n    tag_78:\n      mload(0x40)\n      dup1\n      swap2\n      sub\n      swap1\n      log3\n        /* \"contracts/StockCoin.sol\":2770:3226  function _mint (address account, uint256 amount) internal {... */\n      pop\n      pop\n      jump\t// out\n        /* \"contracts/StockCoin.sol\":3526:4078  function _burn (address account, uint256 amount) internal {... */\n    tag_67:\n        /* \"contracts/StockCoin.sol\":3623:3624  0 */\n      0x00\n        /* \"contracts/StockCoin.sol\":3604:3625  account != address(0) */\n      0xffffffffffffffffffffffffffffffffffffffff\n      and\n        /* \"contracts/StockCoin.sol\":3604:3611  account */\n      dup3\n        /* \"contracts/StockCoin.sol\":3604:3625  account != address(0) */\n      0xffffffffffffffffffffffffffffffffffffffff\n      and\n      sub\n        /* \"contracts/StockCoin.sol\":3595:3670  require (account != address(0), \"StockCoin: cannot burn from zero address\") */\n      tag_80\n      jumpi\n      mload(0x40)\n      0x08c379a000000000000000000000000000000000000000000000000000000000\n      dup2\n      mstore\n      0x04\n      add\n      tag_81\n      swap1\n      tag_82\n      jump\t// in\n    tag_81:\n      mload(0x40)\n      dup1\n      swap2\n      sub\n      swap1\n      revert\n    tag_80:\n        /* \"contracts/StockCoin.sol\":3711:3717  amount */\n      dup1\n        /* \"contracts/StockCoin.sol\":3689:3698  _balances */\n      0x04\n        /* \"contracts/StockCoin.sol\":3689:3707  _balances[account] */\n      0x00\n        /* \"contracts/StockCoin.sol\":3699:3706  account */\n      dup5\n        /* \"contracts/StockCoin.sol\":3689:3707  _balances[account] */\n      0xffffffffffffffffffffffffffffffffffffffff\n      and\n      0xffffffffffffffffffffffffffffffffffffffff\n      and\n      dup2\n      mstore\n      0x20\n      add\n      swap1\n      dup2\n      mstore\n      0x20\n      add\n      0x00\n      keccak256\n      sload\n        /* \"contracts/StockCoin.sol\":3689:3717  _balances[account] >= amount */\n      lt\n      iszero\n        /* \"contracts/StockCoin.sol\":3680:3771  require (_balances[account] >= amount, \"StockCoin: cannot burn more than the account owns\") */\n      tag_83\n      jumpi\n      mload(0x40)\n      0x08c379a000000000000000000000000000000000000000000000000000000000\n      dup2\n      mstore\n      0x04\n      add\n      tag_84\n      swap1\n      tag_85\n      jump\t// in\n    tag_84:\n      mload(0x40)\n      dup1\n      swap2\n      sub\n      swap1\n      revert\n    tag_83:\n        /* \"contracts/StockCoin.sol\":3878:3884  amount */\n      dup1\n        /* \"contracts/StockCoin.sol\":3857:3866  _balances */\n      0x04\n        /* \"contracts/StockCoin.sol\":3857:3875  _balances[account] */\n      0x00\n        /* \"contracts/StockCoin.sol\":3867:3874  account */\n      dup5\n        /* \"contracts/StockCoin.sol\":3857:3875  _balances[account] */\n      0xffffffffffffffffffffffffffffffffffffffff\n      and\n      0xffffffffffffffffffffffffffffffffffffffff\n      and\n      dup2\n      mstore\n      0x20\n      add\n      swap1\n      dup2\n      mstore\n      0x20\n      add\n      0x00\n      keccak256\n      sload\n        /* \"contracts/StockCoin.sol\":3857:3884  _balances[account] - amount */\n      tag_86\n      swap2\n      swap1\n      tag_87\n      jump\t// in\n    tag_86:\n        /* \"contracts/StockCoin.sol\":3836:3845  _balances */\n      0x04\n        /* \"contracts/StockCoin.sol\":3836:3854  _balances[account] */\n      0x00\n        /* \"contracts/StockCoin.sol\":3846:3853  account */\n      dup5\n        /* \"contracts/StockCoin.sol\":3836:3854  _balances[account] */\n      0xffffffffffffffffffffffffffffffffffffffff\n      and\n      0xffffffffffffffffffffffffffffffffffffffff\n      and\n      dup2\n      mstore\n      0x20\n      add\n      swap1\n      dup2\n      mstore\n      0x20\n      add\n      0x00\n      keccak256\n        /* \"contracts/StockCoin.sol\":3836:3884  _balances[account] = _balances[account] - amount */\n      dup2\n      swap1\n      sstore\n      pop\n        /* \"contracts/StockCoin.sol\":3957:3963  amount */\n      dup1\n        /* \"contracts/StockCoin.sol\":3942:3954  _totalSupply */\n      sload(0x00)\n        /* \"contracts/StockCoin.sol\":3942:3963  _totalSupply - amount */\n      tag_88\n      swap2\n      swap1\n      tag_87\n      jump\t// in\n    tag_88:\n        /* \"contracts/StockCoin.sol\":3927:3939  _totalSupply */\n      0x00\n        /* \"contracts/StockCoin.sol\":3927:3963  _totalSupply = _totalSupply - amount */\n      dup2\n      swap1\n      sstore\n      pop\n        /* \"contracts/StockCoin.sol\":4059:4060  0 */\n      0x00\n        /* \"contracts/StockCoin.sol\":4032:4070  Transfer (account, address(0), amount) */\n      0xffffffffffffffffffffffffffffffffffffffff\n      and\n        /* \"contracts/StockCoin.sol\":4042:4049  account */\n      dup3\n        /* \"contracts/StockCoin.sol\":4032:4070  Transfer (account, address(0), amount) */\n      0xffffffffffffffffffffffffffffffffffffffff\n      and\n      0xddf252ad1be2c89b69c2b068fc378daa952ba7f163c4a11628f55a4df523b3ef\n        /* \"contracts/StockCoin.sol\":4063:4069  amount */\n      dup4\n        /* \"contracts/StockCoin.sol\":4032:4070  Transfer (account, address(0), amount) */\n      mload(0x40)\n      tag_89\n      swap2\n      swap1\n      tag_19\n      jump\t// in\n    tag_89:\n      mload(0x40)\n      dup1\n      swap2\n      sub\n      swap1\n      log3\n        /* \"contracts/StockCoin.sol\":3526:4078  function _burn (address account, uint256 amount) internal {... */\n      pop\n      pop\n      jump\t// out\n        /* \"contracts/StockCoin.sol\":5437:5961  function _transfer(address sender, address recipient, uint256 amount) internal {... */\n    tag_70:\n        /* \"contracts/StockCoin.sol\":5553:5554  0 */\n      0x00\n        /* \"contracts/StockCoin.sol\":5535:5555  sender != address(0) */\n      0xffffffffffffffffffffffffffffffffffffffff\n      and\n        /* \"contracts/StockCoin.sol\":5535:5541  sender */\n      dup4\n        /* \"contracts/StockCoin.sol\":5535:5555  sender != address(0) */\n      0xffffffffffffffffffffffffffffffffffffffff\n      and\n      sub\n        /* \"contracts/StockCoin.sol\":5527:5597  require(sender != address(0), \"StockCoin: transfer from zero address\") */\n      tag_91\n      jumpi\n      mload(0x40)\n      0x08c379a000000000000000000000000000000000000000000000000000000000\n      dup2\n      mstore\n      0x04\n      add\n      tag_92\n      swap1\n      tag_93\n      jump\t// in\n    tag_92:\n      mload(0x40)\n      dup1\n      swap2\n      sub\n      swap1\n      revert\n    tag_91:\n        /* \"contracts/StockCoin.sol\":5636:5637  0 */\n      0x00\n        /* \"contracts/StockCoin.sol\":5615:5638  recipient != address(0) */\n      0xffffffffffffffffffffffffffffffffffffffff\n      and\n        /* \"contracts/StockCoin.sol\":5615:5624  recipient */\n      dup3\n        /* \"contracts/StockCoin.sol\":5615:5638  recipient != address(0) */\n      0xffffffffffffffffffffffffffffffffffffffff\n      and\n      sub\n        /* \"contracts/StockCoin.sol\":5607:5680  require(recipient != address(0), \"StockCoin: transfer from zero address\") */\n      tag_94\n      jumpi\n      mload(0x40)\n      0x08c379a000000000000000000000000000000000000000000000000000000000\n      dup2\n      mstore\n      0x04\n      add\n      tag_95\n      swap1\n      tag_93\n      jump\t// in\n    tag_95:\n      mload(0x40)\n      dup1\n      swap2\n      sub\n      swap1\n      revert\n    tag_94:\n        /* \"contracts/StockCoin.sol\":5719:5725  amount */\n      dup1\n        /* \"contracts/StockCoin.sol\":5698:5707  _balances */\n      0x04\n        /* \"contracts/StockCoin.sol\":5698:5715  _balances[sender] */\n      0x00\n        /* \"contracts/StockCoin.sol\":5708:5714  sender */\n      dup6\n        /* \"contracts/StockCoin.sol\":5698:5715  _balances[sender] */\n      0xffffffffffffffffffffffffffffffffffffffff\n      and\n      0xffffffffffffffffffffffffffffffffffffffff\n      and\n      dup2\n      mstore\n      0x20\n      add\n      swap1\n      dup2\n      mstore\n      0x20\n      add\n      0x00\n      keccak256\n      sload\n        /* \"contracts/StockCoin.sol\":5698:5725  _balances[sender] >= amount */\n      lt\n      iszero\n        /* \"contracts/StockCoin.sol\":5690:5783  require(_balances[sender] >= amount, \"StockCoin: cant transfer more than your account holds\") */\n      tag_96\n      jumpi\n      mload(0x40)\n      0x08c379a000000000000000000000000000000000000000000000000000000000\n      dup2\n      mstore\n      0x04\n      add\n      tag_97\n      swap1\n      tag_98\n      jump\t// in\n    tag_97:\n      mload(0x40)\n      dup1\n      swap2\n      sub\n      swap1\n      revert\n    tag_96:\n        /* \"contracts/StockCoin.sol\":5834:5840  amount */\n      dup1\n        /* \"contracts/StockCoin.sol\":5814:5823  _balances */\n      0x04\n        /* \"contracts/StockCoin.sol\":5814:5831  _balances[sender] */\n      0x00\n        /* \"contracts/StockCoin.sol\":5824:5830  sender */\n      dup6\n        /* \"contracts/StockCoin.sol\":5814:5831  _balances[sender] */\n      0xffffffffffffffffffffffffffffffffffffffff\n      and\n      0xffffffffffffffffffffffffffffffffffffffff\n      and\n      dup2\n      mstore\n      0x20\n      add\n      swap1\n      dup2\n      mstore\n      0x20\n      add\n      0x00\n      keccak256\n      sload\n        /* \"contracts/StockCoin.sol\":5814:5840  _balances[sender] - amount */\n      tag_99\n      swap2\n      swap1\n      tag_87\n      jump\t// in\n    tag_99:\n        /* \"contracts/StockCoin.sol\":5794:5803  _balances */\n      0x04\n        /* \"contracts/StockCoin.sol\":5794:5811  _balances[sender] */\n      0x00\n        /* \"contracts/StockCoin.sol\":5804:5810  sender */\n      dup6\n        /* \"contracts/StockCoin.sol\":5794:5811  _balances[sender] */\n      0xffffffffffffffffffffffffffffffffffffffff\n      and\n      0xffffffffffffffffffffffffffffffffffffffff\n      and\n      dup2\n      mstore\n      0x20\n      add\n      swap1\n      dup2\n      mstore\n      0x20\n      add\n      0x00\n      keccak256\n        /* \"contracts/StockCoin.sol\":5794:5840  _balances[sender] = _balances[sender] - amount */\n      dup2\n      swap1\n      sstore\n      pop\n        /* \"contracts/StockCoin.sol\":5896:5902  amount */\n      dup1\n        /* \"contracts/StockCoin.sol\":5873:5882  _balances */\n      0x04\n        /* \"contracts/StockCoin.sol\":5873:5893  _balances[recipient] */\n      0x00\n        /* \"contracts/StockCoin.sol\":5883:5892  recipient */\n      dup5\n        /* \"contracts/StockCoin.sol\":5873:5893  _balances[recipient] */\n      0xffffffffffffffffffffffffffffffffffffffff\n      and\n      0xffffffffffffffffffffffffffffffffffffffff\n      and\n      dup2\n      mstore\n      0x20\n      add\n      swap1\n      dup2\n      mstore\n      0x20\n      add\n      0x00\n      keccak256\n      sload\n        /* \"contracts/StockCoin.sol\":5873:5902  _balances[recipient] + amount */\n      tag_100\n      swap2\n      swap1\n      tag_76\n      jump\t// in\n    tag_100:\n        /* \"contracts/StockCoin.sol\":5850:5859  _balances */\n      0x04\n        /* \"contracts/StockCoin.sol\":5850:5870  _balances[recipient] */\n      0x00\n        /* \"contracts/StockCoin.sol\":5860:5869  recipient */\n      dup5\n        /* \"contracts/StockCoin.sol\":5850:5870  _balances[recipient] */\n      0xffffffffffffffffffffffffffffffffffffffff\n      and\n      0xffffffffffffffffffffffffffffffffffffffff\n      and\n      dup2\n      mstore\n      0x20\n      add\n      swap1\n      dup2\n      mstore\n      0x20\n      add\n      0x00\n      keccak256\n        /* \"contracts/StockCoin.sol\":5850:5902  _balances[recipient] = _balances[recipient] + amount */\n      dup2\n      swap1\n      sstore\n      pop\n        /* \"contracts/StockCoin.sol\":5935:5944  recipient */\n      dup2\n        /* \"contracts/StockCoin.sol\":5918:5953  Transfer(sender, recipient, amount) */\n      0xffffffffffffffffffffffffffffffffffffffff\n      and\n        /* \"contracts/StockCoin.sol\":5927:5933  sender */\n      dup4\n        /* \"contracts/StockCoin.sol\":5918:5953  Transfer(sender, recipient, amount) */\n      0xffffffffffffffffffffffffffffffffffffffff\n      and\n      0xddf252ad1be2c89b69c2b068fc378daa952ba7f163c4a11628f55a4df523b3ef\n        /* \"contracts/StockCoin.sol\":5946:5952  amount */\n      dup4\n        /* \"contracts/StockCoin.sol\":5918:5953  Transfer(sender, recipient, amount) */\n      mload(0x40)\n      tag_101\n      swap2\n      swap1\n      tag_19\n      jump\t// in\n    tag_101:\n      mload(0x40)\n      dup1\n      swap2\n      sub\n      swap1\n      log3\n        /* \"contracts/StockCoin.sol\":5437:5961  function _transfer(address sender, address recipient, uint256 amount) internal {... */\n      pop\n      pop\n      pop\n      jump\t// out\n        /* \"#utility.yul\":7:106   */\n    tag_102:\n        /* \"#utility.yul\":59:65   */\n      0x00\n        /* \"#utility.yul\":93:98   */\n      dup2\n        /* \"#utility.yul\":87:99   */\n      mload\n        /* \"#utility.yul\":77:99   */\n      swap1\n      pop\n        /* \"#utility.yul\":7:106   */\n      swap2\n      swap1\n      pop\n      jump\t// out\n        /* \"#utility.yul\":112:281   */\n    tag_103:\n        /* \"#utility.yul\":196:207   */\n      0x00\n        /* \"#utility.yul\":230:236   */\n      dup3\n        /* \"#utility.yul\":225:228   */\n      dup3\n        /* \"#utility.yul\":218:237   */\n      mstore\n        /* \"#utility.yul\":270:274   */\n      0x20\n        /* \"#utility.yul\":265:268   */\n      dup3\n        /* \"#utility.yul\":261:275   */\n      add\n        /* \"#utility.yul\":246:275   */\n      swap1\n      pop\n        /* \"#utility.yul\":112:281   */\n      swap3\n      swap2\n      pop\n      pop\n      jump\t// out\n        /* \"#utility.yul\":287:594   */\n    tag_104:\n        /* \"#utility.yul\":355:356   */\n      0x00\n        /* \"#utility.yul\":365:478   */\n    tag_138:\n        /* \"#utility.yul\":379:385   */\n      dup4\n        /* \"#utility.yul\":376:377   */\n      dup2\n        /* \"#utility.yul\":373:386   */\n      lt\n        /* \"#utility.yul\":365:478   */\n      iszero\n      tag_140\n      jumpi\n        /* \"#utility.yul\":464:465   */\n      dup1\n        /* \"#utility.yul\":459:462   */\n      dup3\n        /* \"#utility.yul\":455:466   */\n      add\n        /* \"#utility.yul\":449:467   */\n      mload\n        /* \"#utility.yul\":445:446   */\n      dup2\n        /* \"#utility.yul\":440:443   */\n      dup5\n        /* \"#utility.yul\":436:447   */\n      add\n        /* \"#utility.yul\":429:468   */\n      mstore\n        /* \"#utility.yul\":401:403   */\n      0x20\n        /* \"#utility.yul\":398:399   */\n      dup2\n        /* \"#utility.yul\":394:404   */\n      add\n        /* \"#utility.yul\":389:404   */\n      swap1\n      pop\n        /* \"#utility.yul\":365:478   */\n      jump(tag_138)\n    tag_140:\n        /* \"#utility.yul\":496:502   */\n      dup4\n        /* \"#utility.yul\":493:494   */\n      dup2\n        /* \"#utility.yul\":490:503   */\n      gt\n        /* \"#utility.yul\":487:588   */\n      iszero\n      tag_141\n      jumpi\n        /* \"#utility.yul\":576:577   */\n      0x00\n        /* \"#utility.yul\":567:573   */\n      dup5\n        /* \"#utility.yul\":562:565   */\n      dup5\n        /* \"#utility.yul\":558:574   */\n      add\n        /* \"#utility.yul\":551:578   */\n      mstore\n        /* \"#utility.yul\":487:588   */\n    tag_141:\n        /* \"#utility.yul\":336:594   */\n      pop\n        /* \"#utility.yul\":287:594   */\n      pop\n      pop\n      pop\n      jump\t// out\n        /* \"#utility.yul\":600:702   */\n    tag_105:\n        /* \"#utility.yul\":641:647   */\n      0x00\n        /* \"#utility.yul\":692:694   */\n      0x1f\n        /* \"#utility.yul\":688:695   */\n      not\n        /* \"#utility.yul\":683:685   */\n      0x1f\n        /* \"#utility.yul\":676:681   */\n      dup4\n        /* \"#utility.yul\":672:686   */\n      add\n        /* \"#utility.yul\":668:696   */\n      and\n        /* \"#utility.yul\":658:696   */\n      swap1\n      pop\n        /* \"#utility.yul\":600:702   */\n      swap2\n      swap1\n      pop\n      jump\t// out\n        /* \"#utility.yul\":708:1072   */\n    tag_106:\n        /* \"#utility.yul\":796:799   */\n      0x00\n        /* \"#utility.yul\":824:863   */\n      tag_144\n        /* \"#utility.yul\":857:862   */\n      dup3\n        /* \"#utility.yul\":824:863   */\n      tag_102\n      jump\t// in\n    tag_144:\n        /* \"#utility.yul\":879:950   */\n      tag_145\n        /* \"#utility.yul\":943:949   */\n      dup2\n        /* \"#utility.yul\":938:941   */\n      dup6\n        /* \"#utility.yul\":879:950   */\n      tag_103\n      jump\t// in\n    tag_145:\n        /* \"#utility.yul\":872:950   */\n      swap4\n      pop\n        /* \"#utility.yul\":959:1011   */\n      tag_146\n        /* \"#utility.yul\":1004:1010   */\n      dup2\n        /* \"#utility.yul\":999:1002   */\n      dup6\n        /* \"#utility.yul\":992:996   */\n      0x20\n        /* \"#utility.yul\":985:990   */\n      dup7\n        /* \"#utility.yul\":981:997   */\n      add\n        /* \"#utility.yul\":959:1011   */\n      tag_104\n      jump\t// in\n    tag_146:\n        /* \"#utility.yul\":1036:1065   */\n      tag_147\n        /* \"#utility.yul\":1058:1064   */\n      dup2\n        /* \"#utility.yul\":1036:1065   */\n      tag_105\n      jump\t// in\n    tag_147:\n        /* \"#utility.yul\":1031:1034   */\n      dup5\n        /* \"#utility.yul\":1027:1066   */\n      add\n        /* \"#utility.yul\":1020:1066   */\n      swap2\n      pop\n        /* \"#utility.yul\":800:1072   */\n      pop\n        /* \"#utility.yul\":708:1072   */\n      swap3\n      swap2\n      pop\n      pop\n      jump\t// out\n        /* \"#utility.yul\":1078:1391   */\n    tag_15:\n        /* \"#utility.yul\":1191:1195   */\n      0x00\n        /* \"#utility.yul\":1229:1231   */\n      0x20\n        /* \"#utility.yul\":1218:1227   */\n      dup3\n        /* \"#utility.yul\":1214:1232   */\n      add\n        /* \"#utility.yul\":1206:1232   */\n      swap1\n      pop\n        /* \"#utility.yul\":1278:1287   */\n      dup2\n        /* \"#utility.yul\":1272:1276   */\n      dup2\n        /* \"#utility.yul\":1268:1288   */\n      sub\n        /* \"#utility.yul\":1264:1265   */\n      0x00\n        /* \"#utility.yul\":1253:1262   */\n      dup4\n        /* \"#utility.yul\":1249:1266   */\n      add\n        /* \"#utility.yul\":1242:1289   */\n      mstore\n        /* \"#utility.yul\":1306:1384   */\n      tag_149\n        /* \"#utility.yul\":1379:1383   */\n      dup2\n        /* \"#utility.yul\":1370:1376   */\n      dup5\n        /* \"#utility.yul\":1306:1384   */\n      tag_106\n      jump\t// in\n    tag_149:\n        /* \"#utility.yul\":1298:1384   */\n      swap1\n      pop\n        /* \"#utility.yul\":1078:1391   */\n      swap3\n      swap2\n      pop\n      pop\n      jump\t// out\n        /* \"#utility.yul\":1397:1474   */\n    tag_107:\n        /* \"#utility.yul\":1434:1441   */\n      0x00\n        /* \"#utility.yul\":1463:1468   */\n      dup2\n        /* \"#utility.yul\":1452:1468   */\n      swap1\n      pop\n        /* \"#utility.yul\":1397:1474   */\n      swap2\n      swap1\n      pop\n      jump\t// out\n        /* \"#utility.yul\":1480:1598   */\n    tag_108:\n        /* \"#utility.yul\":1567:1591   */\n      tag_152\n        /* \"#utility.yul\":1585:1590   */\n      dup2\n        /* \"#utility.yul\":1567:1591   */\n      tag_107\n      jump\t// in\n    tag_152:\n        /* \"#utility.yul\":1562:1565   */\n      dup3\n        /* \"#utility.yul\":1555:1592   */\n      mstore\n        /* \"#utility.yul\":1480:1598   */\n      pop\n      pop\n      jump\t// out\n        /* \"#utility.yul\":1604:1826   */\n    tag_19:\n        /* \"#utility.yul\":1697:1701   */\n      0x00\n        /* \"#utility.yul\":1735:1737   */\n      0x20\n        /* \"#utility.yul\":1724:1733   */\n      dup3\n        /* \"#utility.yul\":1720:1738   */\n      add\n        /* \"#utility.yul\":1712:1738   */\n      swap1\n      pop\n        /* \"#utility.yul\":1748:1819   */\n      tag_154\n        /* \"#utility.yul\":1816:1817   */\n      0x00\n        /* \"#utility.yul\":1805:1814   */\n      dup4\n        /* \"#utility.yul\":1801:1818   */\n      add\n        /* \"#utility.yul\":1792:1798   */\n      dup5\n        /* \"#utility.yul\":1748:1819   */\n      tag_108\n      jump\t// in\n    tag_154:\n        /* \"#utility.yul\":1604:1826   */\n      swap3\n      swap2\n      pop\n      pop\n      jump\t// out\n        /* \"#utility.yul\":1832:1918   */\n    tag_109:\n        /* \"#utility.yul\":1867:1874   */\n      0x00\n        /* \"#utility.yul\":1907:1911   */\n      0xff\n        /* \"#utility.yul\":1900:1905   */\n      dup3\n        /* \"#utility.yul\":1896:1912   */\n      and\n        /* \"#utility.yul\":1885:1912   */\n      swap1\n      pop\n        /* \"#utility.yul\":1832:1918   */\n      swap2\n      swap1\n      pop\n      jump\t// out\n        /* \"#utility.yul\":1924:2036   */\n    tag_110:\n        /* \"#utility.yul\":2007:2029   */\n      tag_157\n        /* \"#utility.yul\":2023:2028   */\n      dup2\n        /* \"#utility.yul\":2007:2029   */\n      tag_109\n      jump\t// in\n    tag_157:\n        /* \"#utility.yul\":2002:2005   */\n      dup3\n        /* \"#utility.yul\":1995:2030   */\n      mstore\n        /* \"#utility.yul\":1924:2036   */\n      pop\n      pop\n      jump\t// out\n        /* \"#utility.yul\":2042:2256   */\n    tag_23:\n        /* \"#utility.yul\":2131:2135   */\n      0x00\n        /* \"#utility.yul\":2169:2171   */\n      0x20\n        /* \"#utility.yul\":2158:2167   */\n      dup3\n        /* \"#utility.yul\":2154:2172   */\n      add\n        /* \"#utility.yul\":2146:2172   */\n      swap1\n      pop\n        /* \"#utility.yul\":2182:2249   */\n      tag_159\n        /* \"#utility.yul\":2246:2247   */\n      0x00\n        /* \"#utility.yul\":2235:2244   */\n      dup4\n        /* \"#utility.yul\":2231:2248   */\n      add\n        /* \"#utility.yul\":2222:2228   */\n      dup5\n        /* \"#utility.yul\":2182:2249   */\n      tag_110\n      jump\t// in\n    tag_159:\n        /* \"#utility.yul\":2042:2256   */\n      swap3\n      swap2\n      pop\n      pop\n      jump\t// out\n        /* \"#utility.yul\":2343:2460   */\n    tag_112:\n        /* \"#utility.yul\":2452:2453   */\n      0x00\n        /* \"#utility.yul\":2449:2450   */\n      dup1\n        /* \"#utility.yul\":2442:2454   */\n      revert\n        /* \"#utility.yul\":2589:2715   */\n    tag_114:\n        /* \"#utility.yul\":2626:2633   */\n      0x00\n        /* \"#utility.yul\":2666:2708   */\n      0xffffffffffffffffffffffffffffffffffffffff\n        /* \"#utility.yul\":2659:2664   */\n      dup3\n        /* \"#utility.yul\":2655:2709   */\n      and\n        /* \"#utility.yul\":2644:2709   */\n      swap1\n      pop\n        /* \"#utility.yul\":2589:2715   */\n      swap2\n      swap1\n      pop\n      jump\t// out\n        /* \"#utility.yul\":2721:2817   */\n    tag_115:\n        /* \"#utility.yul\":2758:2765   */\n      0x00\n        /* \"#utility.yul\":2787:2811   */\n      tag_165\n        /* \"#utility.yul\":2805:2810   */\n      dup3\n        /* \"#utility.yul\":2787:2811   */\n      tag_114\n      jump\t// in\n    tag_165:\n        /* \"#utility.yul\":2776:2811   */\n      swap1\n      pop\n        /* \"#utility.yul\":2721:2817   */\n      swap2\n      swap1\n      pop\n      jump\t// out\n        /* \"#utility.yul\":2823:2945   */\n    tag_116:\n        /* \"#utility.yul\":2896:2920   */\n      tag_167\n        /* \"#utility.yul\":2914:2919   */\n      dup2\n        /* \"#utility.yul\":2896:2920   */\n      tag_115\n      jump\t// in\n    tag_167:\n        /* \"#utility.yul\":2889:2894   */\n      dup2\n        /* \"#utility.yul\":2886:2921   */\n      eq\n        /* \"#utility.yul\":2876:2939   */\n      tag_168\n      jumpi\n        /* \"#utility.yul\":2935:2936   */\n      0x00\n        /* \"#utility.yul\":2932:2933   */\n      dup1\n        /* \"#utility.yul\":2925:2937   */\n      revert\n        /* \"#utility.yul\":2876:2939   */\n    tag_168:\n        /* \"#utility.yul\":2823:2945   */\n      pop\n      jump\t// out\n        /* \"#utility.yul\":2951:3090   */\n    tag_117:\n        /* \"#utility.yul\":2997:3002   */\n      0x00\n        /* \"#utility.yul\":3035:3041   */\n      dup2\n        /* \"#utility.yul\":3022:3042   */\n      calldataload\n        /* \"#utility.yul\":3013:3042   */\n      swap1\n      pop\n        /* \"#utility.yul\":3051:3084   */\n      tag_170\n        /* \"#utility.yul\":3078:3083   */\n      dup2\n        /* \"#utility.yul\":3051:3084   */\n      tag_116\n      jump\t// in\n    tag_170:\n        /* \"#utility.yul\":2951:3090   */\n      swap3\n      swap2\n      pop\n      pop\n      jump\t// out\n        /* \"#utility.yul\":3096:3218   */\n    tag_118:\n        /* \"#utility.yul\":3169:3193   */\n      tag_172\n        /* \"#utility.yul\":3187:3192   */\n      dup2\n        /* \"#utility.yul\":3169:3193   */\n      tag_107\n      jump\t// in\n    tag_172:\n        /* \"#utility.yul\":3162:3167   */\n      dup2\n        /* \"#utility.yul\":3159:3194   */\n      eq\n        /* \"#utility.yul\":3149:3212   */\n      tag_173\n      jumpi\n        /* \"#utility.yul\":3208:3209   */\n      0x00\n        /* \"#utility.yul\":3205:3206   */\n      dup1\n        /* \"#utility.yul\":3198:3210   */\n      revert\n        /* \"#utility.yul\":3149:3212   */\n    tag_173:\n        /* \"#utility.yul\":3096:3218   */\n      pop\n      jump\t// out\n        /* \"#utility.yul\":3224:3363   */\n    tag_119:\n        /* \"#utility.yul\":3270:3275   */\n      0x00\n        /* \"#utility.yul\":3308:3314   */\n      dup2\n        /* \"#utility.yul\":3295:3315   */\n      calldataload\n        /* \"#utility.yul\":3286:3315   */\n      swap1\n      pop\n        /* \"#utility.yul\":3324:3357   */\n      tag_175\n        /* \"#utility.yul\":3351:3356   */\n      dup2\n        /* \"#utility.yul\":3324:3357   */\n      tag_118\n      jump\t// in\n    tag_175:\n        /* \"#utility.yul\":3224:3363   */\n      swap3\n      swap2\n      pop\n      pop\n      jump\t// out\n        /* \"#utility.yul\":3369:3843   */\n    tag_26:\n        /* \"#utility.yul\":3437:3443   */\n      0x00\n        /* \"#utility.yul\":3445:3451   */\n      dup1\n        /* \"#utility.yul\":3494:3496   */\n      0x40\n        /* \"#utility.yul\":3482:3491   */\n      dup4\n        /* \"#utility.yul\":3473:3480   */\n      dup6\n        /* \"#utility.yul\":3469:3492   */\n      sub\n        /* \"#utility.yul\":3465:3497   */\n      slt\n        /* \"#utility.yul\":3462:3581   */\n      iszero\n      tag_177\n      jumpi\n        /* \"#utility.yul\":3500:3579   */\n      tag_178\n      tag_112\n      jump\t// in\n    tag_178:\n        /* \"#utility.yul\":3462:3581   */\n    tag_177:\n        /* \"#utility.yul\":3620:3621   */\n      0x00\n        /* \"#utility.yul\":3645:3698   */\n      tag_179\n        /* \"#utility.yul\":3690:3697   */\n      dup6\n        /* \"#utility.yul\":3681:3687   */\n      dup3\n        /* \"#utility.yul\":3670:3679   */\n      dup7\n        /* \"#utility.yul\":3666:3688   */\n      add\n        /* \"#utility.yul\":3645:3698   */\n      tag_117\n      jump\t// in\n    tag_179:\n        /* \"#utility.yul\":3635:3698   */\n      swap3\n      pop\n        /* \"#utility.yul\":3591:3708   */\n      pop\n        /* \"#utility.yul\":3747:3749   */\n      0x20\n        /* \"#utility.yul\":3773:3826   */\n      tag_180\n        /* \"#utility.yul\":3818:3825   */\n      dup6\n        /* \"#utility.yul\":3809:3815   */\n      dup3\n        /* \"#utility.yul\":3798:3807   */\n      dup7\n        /* \"#utility.yul\":3794:3816   */\n      add\n        /* \"#utility.yul\":3773:3826   */\n      tag_119\n      jump\t// in\n    tag_180:\n        /* \"#utility.yul\":3763:3826   */\n      swap2\n      pop\n        /* \"#utility.yul\":3718:3836   */\n      pop\n        /* \"#utility.yul\":3369:3843   */\n      swap3\n      pop\n      swap3\n      swap1\n      pop\n      jump\t// out\n        /* \"#utility.yul\":3849:3939   */\n    tag_120:\n        /* \"#utility.yul\":3883:3890   */\n      0x00\n        /* \"#utility.yul\":3926:3931   */\n      dup2\n        /* \"#utility.yul\":3919:3932   */\n      iszero\n        /* \"#utility.yul\":3912:3933   */\n      iszero\n        /* \"#utility.yul\":3901:3933   */\n      swap1\n      pop\n        /* \"#utility.yul\":3849:3939   */\n      swap2\n      swap1\n      pop\n      jump\t// out\n        /* \"#utility.yul\":3945:4054   */\n    tag_121:\n        /* \"#utility.yul\":4026:4047   */\n      tag_183\n        /* \"#utility.yul\":4041:4046   */\n      dup2\n        /* \"#utility.yul\":4026:4047   */\n      tag_120\n      jump\t// in\n    tag_183:\n        /* \"#utility.yul\":4021:4024   */\n      dup3\n        /* \"#utility.yul\":4014:4048   */\n      mstore\n        /* \"#utility.yul\":3945:4054   */\n      pop\n      pop\n      jump\t// out\n        /* \"#utility.yul\":4060:4270   */\n    tag_29:\n        /* \"#utility.yul\":4147:4151   */\n      0x00\n        /* \"#utility.yul\":4185:4187   */\n      0x20\n        /* \"#utility.yul\":4174:4183   */\n      dup3\n        /* \"#utility.yul\":4170:4188   */\n      add\n        /* \"#utility.yul\":4162:4188   */\n      swap1\n      pop\n        /* \"#utility.yul\":4198:4263   */\n      tag_185\n        /* \"#utility.yul\":4260:4261   */\n      0x00\n        /* \"#utility.yul\":4249:4258   */\n      dup4\n        /* \"#utility.yul\":4245:4262   */\n      add\n        /* \"#utility.yul\":4236:4242   */\n      dup5\n        /* \"#utility.yul\":4198:4263   */\n      tag_121\n      jump\t// in\n    tag_185:\n        /* \"#utility.yul\":4060:4270   */\n      swap3\n      swap2\n      pop\n      pop\n      jump\t// out\n        /* \"#utility.yul\":4276:4605   */\n    tag_32:\n        /* \"#utility.yul\":4335:4341   */\n      0x00\n        /* \"#utility.yul\":4384:4386   */\n      0x20\n        /* \"#utility.yul\":4372:4381   */\n      dup3\n        /* \"#utility.yul\":4363:4370   */\n      dup5\n        /* \"#utility.yul\":4359:4382   */\n      sub\n        /* \"#utility.yul\":4355:4387   */\n      slt\n        /* \"#utility.yul\":4352:4471   */\n      iszero\n      tag_187\n      jumpi\n        /* \"#utility.yul\":4390:4469   */\n      tag_188\n      tag_112\n      jump\t// in\n    tag_188:\n        /* \"#utility.yul\":4352:4471   */\n    tag_187:\n        /* \"#utility.yul\":4510:4511   */\n      0x00\n        /* \"#utility.yul\":4535:4588   */\n      tag_189\n        /* \"#utility.yul\":4580:4587   */\n      dup5\n        /* \"#utility.yul\":4571:4577   */\n      dup3\n        /* \"#utility.yul\":4560:4569   */\n      dup6\n        /* \"#utility.yul\":4556:4578   */\n      add\n        /* \"#utility.yul\":4535:4588   */\n      tag_117\n      jump\t// in\n    tag_189:\n        /* \"#utility.yul\":4525:4588   */\n      swap2\n      pop\n        /* \"#utility.yul\":4481:4598   */\n      pop\n        /* \"#utility.yul\":4276:4605   */\n      swap3\n      swap2\n      pop\n      pop\n      jump\t// out\n        /* \"#utility.yul\":4611:4791   */\n    tag_122:\n        /* \"#utility.yul\":4659:4736   */\n      0x4e487b7100000000000000000000000000000000000000000000000000000000\n        /* \"#utility.yul\":4656:4657   */\n      0x00\n        /* \"#utility.yul\":4649:4737   */\n      mstore\n        /* \"#utility.yul\":4756:4760   */\n      0x22\n        /* \"#utility.yul\":4753:4754   */\n      0x04\n        /* \"#utility.yul\":4746:4761   */\n      mstore\n        /* \"#utility.yul\":4780:4784   */\n      0x24\n        /* \"#utility.yul\":4777:4778   */\n      0x00\n        /* \"#utility.yul\":4770:4785   */\n      revert\n        /* \"#utility.yul\":4797:5117   */\n    tag_48:\n        /* \"#utility.yul\":4841:4847   */\n      0x00\n        /* \"#utility.yul\":4878:4879   */\n      0x02\n        /* \"#utility.yul\":4872:4876   */\n      dup3\n        /* \"#utility.yul\":4868:4880   */\n      div\n        /* \"#utility.yul\":4858:4880   */\n      swap1\n      pop\n        /* \"#utility.yul\":4925:4926   */\n      0x01\n        /* \"#utility.yul\":4919:4923   */\n      dup3\n        /* \"#utility.yul\":4915:4927   */\n      and\n        /* \"#utility.yul\":4946:4964   */\n      dup1\n        /* \"#utility.yul\":4936:5017   */\n      tag_192\n      jumpi\n        /* \"#utility.yul\":5002:5006   */\n      0x7f\n        /* \"#utility.yul\":4994:5000   */\n      dup3\n        /* \"#utility.yul\":4990:5007   */\n      and\n        /* \"#utility.yul\":4980:5007   */\n      swap2\n      pop\n        /* \"#utility.yul\":4936:5017   */\n    tag_192:\n        /* \"#utility.yul\":5064:5066   */\n      0x20\n        /* \"#utility.yul\":5056:5062   */\n      dup3\n        /* \"#utility.yul\":5053:5067   */\n      lt\n        /* \"#utility.yul\":5033:5051   */\n      dup2\n        /* \"#utility.yul\":5030:5068   */\n      sub\n        /* \"#utility.yul\":5027:5111   */\n      tag_193\n      jumpi\n        /* \"#utility.yul\":5083:5101   */\n      tag_194\n      tag_122\n      jump\t// in\n    tag_194:\n        /* \"#utility.yul\":5027:5111   */\n    tag_193:\n        /* \"#utility.yul\":4848:5117   */\n      pop\n        /* \"#utility.yul\":4797:5117   */\n      swap2\n      swap1\n      pop\n      jump\t// out\n        /* \"#utility.yul\":5123:5348   */\n    tag_123:\n        /* \"#utility.yul\":5263:5297   */\n      0x53746f636b436f696e3a2063616e6e6f74206d696e7420746f207a65726f2061\n        /* \"#utility.yul\":5259:5260   */\n      0x00\n        /* \"#utility.yul\":5251:5257   */\n      dup3\n        /* \"#utility.yul\":5247:5261   */\n      add\n        /* \"#utility.yul\":5240:5298   */\n      mstore\n        /* \"#utility.yul\":5332:5340   */\n      0x6464726573730000000000000000000000000000000000000000000000000000\n        /* \"#utility.yul\":5327:5329   */\n      0x20\n        /* \"#utility.yul\":5319:5325   */\n      dup3\n        /* \"#utility.yul\":5315:5330   */\n      add\n        /* \"#utility.yul\":5308:5341   */\n      mstore\n        /* \"#utility.yul\":5123:5348   */\n      pop\n      jump\t// out\n        /* \"#utility.yul\":5354:5720   */\n    tag_124:\n        /* \"#utility.yul\":5496:5499   */\n      0x00\n        /* \"#utility.yul\":5517:5584   */\n      tag_197\n        /* \"#utility.yul\":5581:5583   */\n      0x26\n        /* \"#utility.yul\":5576:5579   */\n      dup4\n        /* \"#utility.yul\":5517:5584   */\n      tag_103\n      jump\t// in\n    tag_197:\n        /* \"#utility.yul\":5510:5584   */\n      swap2\n      pop\n        /* \"#utility.yul\":5593:5686   */\n      tag_198\n        /* \"#utility.yul\":5682:5685   */\n      dup3\n        /* \"#utility.yul\":5593:5686   */\n      tag_123\n      jump\t// in\n    tag_198:\n        /* \"#utility.yul\":5711:5713   */\n      0x40\n        /* \"#utility.yul\":5706:5709   */\n      dup3\n        /* \"#utility.yul\":5702:5714   */\n      add\n        /* \"#utility.yul\":5695:5714   */\n      swap1\n      pop\n        /* \"#utility.yul\":5354:5720   */\n      swap2\n      swap1\n      pop\n      jump\t// out\n        /* \"#utility.yul\":5726:6145   */\n    tag_74:\n        /* \"#utility.yul\":5892:5896   */\n      0x00\n        /* \"#utility.yul\":5930:5932   */\n      0x20\n        /* \"#utility.yul\":5919:5928   */\n      dup3\n        /* \"#utility.yul\":5915:5933   */\n      add\n        /* \"#utility.yul\":5907:5933   */\n      swap1\n      pop\n        /* \"#utility.yul\":5979:5988   */\n      dup2\n        /* \"#utility.yul\":5973:5977   */\n      dup2\n        /* \"#utility.yul\":5969:5989   */\n      sub\n        /* \"#utility.yul\":5965:5966   */\n      0x00\n        /* \"#utility.yul\":5954:5963   */\n      dup4\n        /* \"#utility.yul\":5950:5967   */\n      add\n        /* \"#utility.yul\":5943:5990   */\n      mstore\n        /* \"#utility.yul\":6007:6138   */\n      tag_200\n        /* \"#utility.yul\":6133:6137   */\n      dup2\n        /* \"#utility.yul\":6007:6138   */\n      tag_124\n      jump\t// in\n    tag_200:\n        /* \"#utility.yul\":5999:6138   */\n      swap1\n      pop\n        /* \"#utility.yul\":5726:6145   */\n      swap2\n      swap1\n      pop\n      jump\t// out\n        /* \"#utility.yul\":6151:6331   */\n    tag_125:\n        /* \"#utility.yul\":6199:6276   */\n      0x4e487b7100000000000000000000000000000000000000000000000000000000\n        /* \"#utility.yul\":6196:6197   */\n      0x00\n        /* \"#utility.yul\":6189:6277   */\n      mstore\n        /* \"#utility.yul\":6296:6300   */\n      0x11\n        /* \"#utility.yul\":6293:6294   */\n      0x04\n        /* \"#utility.yul\":6286:6301   */\n      mstore\n        /* \"#utility.yul\":6320:6324   */\n      0x24\n        /* \"#utility.yul\":6317:6318   */\n      0x00\n        /* \"#utility.yul\":6310:6325   */\n      revert\n        /* \"#utility.yul\":6337:6642   */\n    tag_76:\n        /* \"#utility.yul\":6377:6380   */\n      0x00\n        /* \"#utility.yul\":6396:6416   */\n      tag_203\n        /* \"#utility.yul\":6414:6415   */\n      dup3\n        /* \"#utility.yul\":6396:6416   */\n      tag_107\n      jump\t// in\n    tag_203:\n        /* \"#utility.yul\":6391:6416   */\n      swap2\n      pop\n        /* \"#utility.yul\":6430:6450   */\n      tag_204\n        /* \"#utility.yul\":6448:6449   */\n      dup4\n        /* \"#utility.yul\":6430:6450   */\n      tag_107\n      jump\t// in\n    tag_204:\n        /* \"#utility.yul\":6425:6450   */\n      swap3\n      pop\n        /* \"#utility.yul\":6584:6585   */\n      dup3\n        /* \"#utility.yul\":6516:6582   */\n      0xffffffffffffffffffffffffffffffffffffffffffffffffffffffffffffffff\n        /* \"#utility.yul\":6512:6586   */\n      sub\n        /* \"#utility.yul\":6509:6510   */\n      dup3\n        /* \"#utility.yul\":6506:6587   */\n      gt\n        /* \"#utility.yul\":6503:6610   */\n      iszero\n      tag_205\n      jumpi\n        /* \"#utility.yul\":6590:6608   */\n      tag_206\n      tag_125\n      jump\t// in\n    tag_206:\n        /* \"#utility.yul\":6503:6610   */\n    tag_205:\n        /* \"#utility.yul\":6634:6635   */\n      dup3\n        /* \"#utility.yul\":6631:6632   */\n      dup3\n        /* \"#utility.yul\":6627:6636   */\n      add\n        /* \"#utility.yul\":6620:6636   */\n      swap1\n      pop\n        /* \"#utility.yul\":6337:6642   */\n      swap3\n      swap2\n      pop\n      pop\n      jump\t// out\n        /* \"#utility.yul\":6648:6875   */\n    tag_126:\n        /* \"#utility.yul\":6788:6822   */\n      0x53746f636b436f696e3a2063616e6e6f74206275726e2066726f6d207a65726f\n        /* \"#utility.yul\":6784:6785   */\n      0x00\n        /* \"#utility.yul\":6776:6782   */\n      dup3\n        /* \"#utility.yul\":6772:6786   */\n      add\n        /* \"#utility.yul\":6765:6823   */\n      mstore\n        /* \"#utility.yul\":6857:6867   */\n      0x2061646472657373000000000000000000000000000000000000000000000000\n        /* \"#utility.yul\":6852:6854   */\n      0x20\n        /* \"#utility.yul\":6844:6850   */\n      dup3\n        /* \"#utility.yul\":6840:6855   */\n      add\n        /* \"#utility.yul\":6833:6868   */\n      mstore\n        /* \"#utility.yul\":6648:6875   */\n      pop\n      jump\t// out\n        /* \"#utility.yul\":6881:7247   */\n    tag_127:\n        /* \"#utility.yul\":7023:7026   */\n      0x00\n        /* \"#utility.yul\":7044:7111   */\n      tag_209\n        /* \"#utility.yul\":7108:7110   */\n      0x28\n        /* \"#utility.yul\":7103:7106   */\n      dup4\n        /* \"#utility.yul\":7044:7111   */\n      tag_103\n      jump\t// in\n    tag_209:\n        /* \"#utility.yul\":7037:7111   */\n      swap2\n      pop\n        /* \"#utility.yul\":7120:7213   */\n      tag_210\n        /* \"#utility.yul\":7209:7212   */\n      dup3\n        /* \"#utility.yul\":7120:7213   */\n      tag_126\n      jump\t// in\n    tag_210:\n        /* \"#utility.yul\":7238:7240   */\n      0x40\n        /* \"#utility.yul\":7233:7236   */\n      dup3\n        /* \"#utility.yul\":7229:7241   */\n      add\n        /* \"#utility.yul\":7222:7241   */\n      swap1\n      pop\n        /* \"#utility.yul\":6881:7247   */\n      swap2\n      swap1\n      pop\n      jump\t// out\n        /* \"#utility.yul\":7253:7672   */\n    tag_82:\n        /* \"#utility.yul\":7419:7423   */\n      0x00\n        /* \"#utility.yul\":7457:7459   */\n      0x20\n        /* \"#utility.yul\":7446:7455   */\n      dup3\n        /* \"#utility.yul\":7442:7460   */\n      add\n        /* \"#utility.yul\":7434:7460   */\n      swap1\n      pop\n        /* \"#utility.yul\":7506:7515   */\n      dup2\n        /* \"#utility.yul\":7500:7504   */\n      dup2\n        /* \"#utility.yul\":7496:7516   */\n      sub\n        /* \"#utility.yul\":7492:7493   */\n      0x00\n        /* \"#utility.yul\":7481:7490   */\n      dup4\n        /* \"#utility.yul\":7477:7494   */\n      add\n        /* \"#utility.yul\":7470:7517   */\n      mstore\n        /* \"#utility.yul\":7534:7665   */\n      tag_212\n        /* \"#utility.yul\":7660:7664   */\n      dup2\n        /* \"#utility.yul\":7534:7665   */\n      tag_127\n      jump\t// in\n    tag_212:\n        /* \"#utility.yul\":7526:7665   */\n      swap1\n      pop\n        /* \"#utility.yul\":7253:7672   */\n      swap2\n      swap1\n      pop\n      jump\t// out\n        /* \"#utility.yul\":7678:7914   */\n    tag_128:\n        /* \"#utility.yul\":7818:7852   */\n      0x53746f636b436f696e3a2063616e6e6f74206275726e206d6f7265207468616e\n        /* \"#utility.yul\":7814:7815   */\n      0x00\n        /* \"#utility.yul\":7806:7812   */\n      dup3\n        /* \"#utility.yul\":7802:7816   */\n      add\n        /* \"#utility.yul\":7795:7853   */\n      mstore\n        /* \"#utility.yul\":7887:7906   */\n      0x20746865206163636f756e74206f776e73000000000000000000000000000000\n        /* \"#utility.yul\":7882:7884   */\n      0x20\n        /* \"#utility.yul\":7874:7880   */\n      dup3\n        /* \"#utility.yul\":7870:7885   */\n      add\n        /* \"#utility.yul\":7863:7907   */\n      mstore\n        /* \"#utility.yul\":7678:7914   */\n      pop\n      jump\t// out\n        /* \"#utility.yul\":7920:8286   */\n    tag_129:\n        /* \"#utility.yul\":8062:8065   */\n      0x00\n        /* \"#utility.yul\":8083:8150   */\n      tag_215\n        /* \"#utility.yul\":8147:8149   */\n      0x31\n        /* \"#utility.yul\":8142:8145   */\n      dup4\n        /* \"#utility.yul\":8083:8150   */\n      tag_103\n      jump\t// in\n    tag_215:\n        /* \"#utility.yul\":8076:8150   */\n      swap2\n      pop\n        /* \"#utility.yul\":8159:8252   */\n      tag_216\n        /* \"#utility.yul\":8248:8251   */\n      dup3\n        /* \"#utility.yul\":8159:8252   */\n      tag_128\n      jump\t// in\n    tag_216:\n        /* \"#utility.yul\":8277:8279   */\n      0x40\n        /* \"#utility.yul\":8272:8275   */\n      dup3\n        /* \"#utility.yul\":8268:8280   */\n      add\n        /* \"#utility.yul\":8261:8280   */\n      swap1\n      pop\n        /* \"#utility.yul\":7920:8286   */\n      swap2\n      swap1\n      pop\n      jump\t// out\n        /* \"#utility.yul\":8292:8711   */\n    tag_85:\n        /* \"#utility.yul\":8458:8462   */\n      0x00\n        /* \"#utility.yul\":8496:8498   */\n      0x20\n        /* \"#utility.yul\":8485:8494   */\n      dup3\n        /* \"#utility.yul\":8481:8499   */\n      add\n        /* \"#utility.yul\":8473:8499   */\n      swap1\n      pop\n        /* \"#utility.yul\":8545:8554   */\n      dup2\n        /* \"#utility.yul\":8539:8543   */\n      dup2\n        /* \"#utility.yul\":8535:8555   */\n      sub\n        /* \"#utility.yul\":8531:8532   */\n      0x00\n        /* \"#utility.yul\":8520:8529   */\n      dup4\n        /* \"#utility.yul\":8516:8533   */\n      add\n        /* \"#utility.yul\":8509:8556   */\n      mstore\n        /* \"#utility.yul\":8573:8704   */\n      tag_218\n        /* \"#utility.yul\":8699:8703   */\n      dup2\n        /* \"#utility.yul\":8573:8704   */\n      tag_129\n      jump\t// in\n    tag_218:\n        /* \"#utility.yul\":8565:8704   */\n      swap1\n      pop\n        /* \"#utility.yul\":8292:8711   */\n      swap2\n      swap1\n      pop\n      jump\t// out\n        /* \"#utility.yul\":8717:8908   */\n    tag_87:\n        /* \"#utility.yul\":8757:8761   */\n      0x00\n        /* \"#utility.yul\":8777:8797   */\n      tag_220\n        /* \"#utility.yul\":8795:8796   */\n      dup3\n        /* \"#utility.yul\":8777:8797   */\n      tag_107\n      jump\t// in\n    tag_220:\n        /* \"#utility.yul\":8772:8797   */\n      swap2\n      pop\n        /* \"#utility.yul\":8811:8831   */\n      tag_221\n        /* \"#utility.yul\":8829:8830   */\n      dup4\n        /* \"#utility.yul\":8811:8831   */\n      tag_107\n      jump\t// in\n    tag_221:\n        /* \"#utility.yul\":8806:8831   */\n      swap3\n      pop\n        /* \"#utility.yul\":8850:8851   */\n      dup3\n        /* \"#utility.yul\":8847:8848   */\n      dup3\n        /* \"#utility.yul\":8844:8852   */\n      lt\n        /* \"#utility.yul\":8841:8875   */\n      iszero\n      tag_222\n      jumpi\n        /* \"#utility.yul\":8855:8873   */\n      tag_223\n      tag_125\n      jump\t// in\n    tag_223:\n        /* \"#utility.yul\":8841:8875   */\n    tag_222:\n        /* \"#utility.yul\":8900:8901   */\n      dup3\n        /* \"#utility.yul\":8897:8898   */\n      dup3\n        /* \"#utility.yul\":8893:8902   */\n      sub\n        /* \"#utility.yul\":8885:8902   */\n      swap1\n      pop\n        /* \"#utility.yul\":8717:8908   */\n      swap3\n      swap2\n      pop\n      pop\n      jump\t// out\n        /* \"#utility.yul\":8914:9138   */\n    tag_130:\n        /* \"#utility.yul\":9054:9088   */\n      0x53746f636b436f696e3a207472616e736665722066726f6d207a65726f206164\n        /* \"#utility.yul\":9050:9051   */\n      0x00\n        /* \"#utility.yul\":9042:9048   */\n      dup3\n        /* \"#utility.yul\":9038:9052   */\n      add\n        /* \"#utility.yul\":9031:9089   */\n      mstore\n        /* \"#utility.yul\":9123:9130   */\n      0x6472657373000000000000000000000000000000000000000000000000000000\n        /* \"#utility.yul\":9118:9120   */\n      0x20\n        /* \"#utility.yul\":9110:9116   */\n      dup3\n        /* \"#utility.yul\":9106:9121   */\n      add\n        /* \"#utility.yul\":9099:9131   */\n      mstore\n        /* \"#utility.yul\":8914:9138   */\n      pop\n      jump\t// out\n        /* \"#utility.yul\":9144:9510   */\n    tag_131:\n        /* \"#utility.yul\":9286:9289   */\n      0x00\n        /* \"#utility.yul\":9307:9374   */\n      tag_226\n        /* \"#utility.yul\":9371:9373   */\n      0x25\n        /* \"#utility.yul\":9366:9369   */\n      dup4\n        /* \"#utility.yul\":9307:9374   */\n      tag_103\n      jump\t// in\n    tag_226:\n        /* \"#utility.yul\":9300:9374   */\n      swap2\n      pop\n        /* \"#utility.yul\":9383:9476   */\n      tag_227\n        /* \"#utility.yul\":9472:9475   */\n      dup3\n        /* \"#utility.yul\":9383:9476   */\n      tag_130\n      jump\t// in\n    tag_227:\n        /* \"#utility.yul\":9501:9503   */\n      0x40\n        /* \"#utility.yul\":9496:9499   */\n      dup3\n        /* \"#utility.yul\":9492:9504   */\n      add\n        /* \"#utility.yul\":9485:9504   */\n      swap1\n      pop\n        /* \"#utility.yul\":9144:9510   */\n      swap2\n      swap1\n      pop\n      jump\t// out\n        /* \"#utility.yul\":9516:9935   */\n    tag_93:\n        /* \"#utility.yul\":9682:9686   */\n      0x00\n        /* \"#utility.yul\":9720:9722   */\n      0x20\n        /* \"#utility.yul\":9709:9718   */\n      dup3\n        /* \"#utility.yul\":9705:9723   */\n      add\n        /* \"#utility.yul\":9697:9723   */\n      swap1\n      pop\n        /* \"#utility.yul\":9769:9778   */\n      dup2\n        /* \"#utility.yul\":9763:9767   */\n      dup2\n        /* \"#utility.yul\":9759:9779   */\n      sub\n        /* \"#utility.yul\":9755:9756   */\n      0x00\n        /* \"#utility.yul\":9744:9753   */\n      dup4\n        /* \"#utility.yul\":9740:9757   */\n      add\n        /* \"#utility.yul\":9733:9780   */\n      mstore\n        /* \"#utility.yul\":9797:9928   */\n      tag_229\n        /* \"#utility.yul\":9923:9927   */\n      dup2\n        /* \"#utility.yul\":9797:9928   */\n      tag_131\n      jump\t// in\n    tag_229:\n        /* \"#utility.yul\":9789:9928   */\n      swap1\n      pop\n        /* \"#utility.yul\":9516:9935   */\n      swap2\n      swap1\n      pop\n      jump\t// out\n        /* \"#utility.yul\":9941:10181   */\n    tag_132:\n        /* \"#utility.yul\":10081:10115   */\n      0x53746f636b436f696e3a2063616e74207472616e73666572206d6f7265207468\n        /* \"#utility.yul\":10077:10078   */\n      0x00\n        /* \"#utility.yul\":10069:10075   */\n      dup3\n        /* \"#utility.yul\":10065:10079   */\n      add\n        /* \"#utility.yul\":10058:10116   */\n      mstore\n        /* \"#utility.yul\":10150:10173   */\n      0x616e20796f7572206163636f756e7420686f6c64730000000000000000000000\n        /* \"#utility.yul\":10145:10147   */\n      0x20\n        /* \"#utility.yul\":10137:10143   */\n      dup3\n        /* \"#utility.yul\":10133:10148   */\n      add\n        /* \"#utility.yul\":10126:10174   */\n      mstore\n        /* \"#utility.yul\":9941:10181   */\n      pop\n      jump\t// out\n        /* \"#utility.yul\":10187:10553   */\n    tag_133:\n        /* \"#utility.yul\":10329:10332   */\n      0x00\n        /* \"#utility.yul\":10350:10417   */\n      tag_232\n        /* \"#utility.yul\":10414:10416   */\n      0x35\n        /* \"#utility.yul\":10409:10412   */\n      dup4\n        /* \"#utility.yul\":10350:10417   */\n      tag_103\n      jump\t// in\n    tag_232:\n        /* \"#utility.yul\":10343:10417   */\n      swap2\n      pop\n        /* \"#utility.yul\":10426:10519   */\n      tag_233\n        /* \"#utility.yul\":10515:10518   */\n      dup3\n        /* \"#utility.yul\":10426:10519   */\n      tag_132\n      jump\t// in\n    tag_233:\n        /* \"#utility.yul\":10544:10546   */\n      0x40\n        /* \"#utility.yul\":10539:10542   */\n      dup3\n        /* \"#utility.yul\":10535:10547   */\n      add\n        /* \"#utility.yul\":10528:10547   */\n      swap1\n      pop\n        /* \"#utility.yul\":10187:10553   */\n      swap2\n      swap1\n      pop\n      jump\t// out\n        /* \"#utility.yul\":10559:10978   */\n    tag_98:\n        /* \"#utility.yul\":10725:10729   */\n      0x00\n        /* \"#utility.yul\":10763:10765   */\n      0x20\n        /* \"#utility.yul\":10752:10761   */\n      dup3\n        /* \"#utility.yul\":10748:10766   */\n      add\n        /* \"#utility.yul\":10740:10766   */\n      swap1\n      pop\n        /* \"#utility.yul\":10812:10821   */\n      dup2\n        /* \"#utility.yul\":10806:10810   */\n      dup2\n        /* \"#utility.yul\":10802:10822   */\n      sub\n        /* \"#utility.yul\":10798:10799   */\n      0x00\n        /* \"#utility.yul\":10787:10796   */\n      dup4\n        /* \"#utility.yul\":10783:10800   */\n      add\n        /* \"#utility.yul\":10776:10823   */\n      mstore\n        /* \"#utility.yul\":10840:10971   */\n      tag_235\n        /* \"#utility.yul\":10966:10970   */\n      dup2\n        /* \"#utility.yul\":10840:10971   */\n      tag_133\n      jump\t// in\n    tag_235:\n        /* \"#utility.yul\":10832:10971   */\n      swap1\n      pop\n        /* \"#utility.yul\":10559:10978   */\n      swap2\n      swap1\n      pop\n      jump\t// out\n\n    auxdata: 0xa26469706673582212206d07cee7a0d360633e27db337c55782a2a5aa3a056575c71541739dc4e1a170164736f6c634300080d0033\n}\n",
				"bytecode": {
					"linkReferences": {},
					"object": "60806040523480156200001157600080fd5b50604051620015d1380380620015d183398181016040528101906200003791906200040b565b83600390805190602001906200004f92919062000145565b5082600290805190602001906200006892919062000145565b5081600160006101000a81548160ff021916908360ff16021790555080600081905550600054600460003373ffffffffffffffffffffffffffffffffffffffff1673ffffffffffffffffffffffffffffffffffffffff168152602001908152602001600020819055503373ffffffffffffffffffffffffffffffffffffffff16600073ffffffffffffffffffffffffffffffffffffffff167fddf252ad1be2c89b69c2b068fc378daa952ba7f163c4a11628f55a4df523b3ef600054604051620001339190620004cc565b60405180910390a3505050506200054d565b828054620001539062000518565b90600052602060002090601f016020900481019282620001775760008555620001c3565b82601f106200019257805160ff1916838001178555620001c3565b82800160010185558215620001c3579182015b82811115620001c2578251825591602001919060010190620001a5565b5b509050620001d29190620001d6565b5090565b5b80821115620001f1576000816000905550600101620001d7565b5090565b6000604051905090565b600080fd5b600080fd5b600080fd5b600080fd5b6000601f19601f8301169050919050565b7f4e487b7100000000000000000000000000000000000000000000000000000000600052604160045260246000fd5b6200025e8262000213565b810181811067ffffffffffffffff8211171562000280576200027f62000224565b5b80604052505050565b600062000295620001f5565b9050620002a3828262000253565b919050565b600067ffffffffffffffff821115620002c657620002c562000224565b5b620002d18262000213565b9050602081019050919050565b60005b83811015620002fe578082015181840152602081019050620002e1565b838111156200030e576000848401525b50505050565b60006200032b6200032584620002a8565b62000289565b9050828152602081018484840111156200034a57620003496200020e565b5b62000357848285620002de565b509392505050565b600082601f83011262000377576200037662000209565b5b81516200038984826020860162000314565b91505092915050565b600060ff82169050919050565b620003aa8162000392565b8114620003b657600080fd5b50565b600081519050620003ca816200039f565b92915050565b6000819050919050565b620003e581620003d0565b8114620003f157600080fd5b50565b6000815190506200040581620003da565b92915050565b60008060008060808587031215620004285762000427620001ff565b5b600085015167ffffffffffffffff81111562000449576200044862000204565b5b62000457878288016200035f565b945050602085015167ffffffffffffffff8111156200047b576200047a62000204565b5b62000489878288016200035f565b93505060406200049c87828801620003b9565b9250506060620004af87828801620003f4565b91505092959194509250565b620004c681620003d0565b82525050565b6000602082019050620004e36000830184620004bb565b92915050565b7f4e487b7100000000000000000000000000000000000000000000000000000000600052602260045260246000fd5b600060028204905060018216806200053157607f821691505b602082108103620005475762000546620004e9565b5b50919050565b611074806200055d6000396000f3fe608060405234801561001057600080fd5b50600436106100885760003560e01c806370a082311161005b57806370a082311461011757806395d89b41146101475780639dc29fac14610165578063a9059cbb1461019557610088565b806306fdde031461008d57806318160ddd146100ab578063313ce567146100c957806340c10f19146100e7575b600080fd5b6100956101c5565b6040516100a29190610a8c565b60405180910390f35b6100b3610257565b6040516100c09190610ac7565b60405180910390f35b6100d1610260565b6040516100de9190610afe565b60405180910390f35b61010160048036038101906100fc9190610ba8565b610277565b60405161010e9190610c03565b60405180910390f35b610131600480360381019061012c9190610c1e565b61028d565b60405161013e9190610ac7565b60405180910390f35b61014f6102d6565b60405161015c9190610a8c565b60405180910390f35b61017f600480360381019061017a9190610ba8565b610368565b60405161018c9190610c03565b60405180910390f35b6101af60048036038101906101aa9190610ba8565b61037e565b6040516101bc9190610c03565b60405180910390f35b6060600380546101d490610c7a565b80601f016020809104026020016040519081016040528092919081815260200182805461020090610c7a565b801561024d5780601f106102225761010080835404028352916020019161024d565b820191906000526020600020905b81548152906001019060200180831161023057829003601f168201915b5050505050905090565b60008054905090565b6000600160009054906101000a900460ff16905090565b60006102838383610395565b6001905092915050565b6000600460008373ffffffffffffffffffffffffffffffffffffffff1673ffffffffffffffffffffffffffffffffffffffff168152602001908152602001600020549050919050565b6060600280546102e590610c7a565b80601f016020809104026020016040519081016040528092919081815260200182805461031190610c7a565b801561035e5780601f106103335761010080835404028352916020019161035e565b820191906000526020600020905b81548152906001019060200180831161034157829003601f168201915b5050505050905090565b60006103748383610510565b6001905092915050565b600061038b33848461070d565b6001905092915050565b600073ffffffffffffffffffffffffffffffffffffffff168273ffffffffffffffffffffffffffffffffffffffff1603610404576040517f08c379a00000000000000000000000000000000000000000000000000000000081526004016103fb90610d1d565b60405180910390fd5b806000546104129190610d6c565b60008190555080600460008473ffffffffffffffffffffffffffffffffffffffff1673ffffffffffffffffffffffffffffffffffffffff168152602001908152602001600020546104639190610d6c565b600460008473ffffffffffffffffffffffffffffffffffffffff1673ffffffffffffffffffffffffffffffffffffffff168152602001908152602001600020819055508173ffffffffffffffffffffffffffffffffffffffff16600073ffffffffffffffffffffffffffffffffffffffff167fddf252ad1be2c89b69c2b068fc378daa952ba7f163c4a11628f55a4df523b3ef836040516105049190610ac7565b60405180910390a35050565b600073ffffffffffffffffffffffffffffffffffffffff168273ffffffffffffffffffffffffffffffffffffffff160361057f576040517f08c379a000000000000000000000000000000000000000000000000000000000815260040161057690610e34565b60405180910390fd5b80600460008473ffffffffffffffffffffffffffffffffffffffff1673ffffffffffffffffffffffffffffffffffffffff168152602001908152602001600020541015610601576040517f08c379a00000000000000000000000000000000000000000000000000000000081526004016105f890610ec6565b60405180910390fd5b80600460008473ffffffffffffffffffffffffffffffffffffffff1673ffffffffffffffffffffffffffffffffffffffff1681526020019081526020016000205461064c9190610ee6565b600460008473ffffffffffffffffffffffffffffffffffffffff1673ffffffffffffffffffffffffffffffffffffffff168152602001908152602001600020819055508060005461069d9190610ee6565b600081905550600073ffffffffffffffffffffffffffffffffffffffff168273ffffffffffffffffffffffffffffffffffffffff167fddf252ad1be2c89b69c2b068fc378daa952ba7f163c4a11628f55a4df523b3ef836040516107019190610ac7565b60405180910390a35050565b600073ffffffffffffffffffffffffffffffffffffffff168373ffffffffffffffffffffffffffffffffffffffff160361077c576040517f08c379a000000000000000000000000000000000000000000000000000000000815260040161077390610f8c565b60405180910390fd5b600073ffffffffffffffffffffffffffffffffffffffff168273ffffffffffffffffffffffffffffffffffffffff16036107eb576040517f08c379a00000000000000000000000000000000000000000000000000000000081526004016107e290610f8c565b60405180910390fd5b80600460008573ffffffffffffffffffffffffffffffffffffffff1673ffffffffffffffffffffffffffffffffffffffff16815260200190815260200160002054101561086d576040517f08c379a00000000000000000000000000000000000000000000000000000000081526004016108649061101e565b60405180910390fd5b80600460008573ffffffffffffffffffffffffffffffffffffffff1673ffffffffffffffffffffffffffffffffffffffff168152602001908152602001600020546108b89190610ee6565b600460008573ffffffffffffffffffffffffffffffffffffffff1673ffffffffffffffffffffffffffffffffffffffff1681526020019081526020016000208190555080600460008473ffffffffffffffffffffffffffffffffffffffff1673ffffffffffffffffffffffffffffffffffffffff168152602001908152602001600020546109469190610d6c565b600460008473ffffffffffffffffffffffffffffffffffffffff1673ffffffffffffffffffffffffffffffffffffffff168152602001908152602001600020819055508173ffffffffffffffffffffffffffffffffffffffff168373ffffffffffffffffffffffffffffffffffffffff167fddf252ad1be2c89b69c2b068fc378daa952ba7f163c4a11628f55a4df523b3ef836040516109e69190610ac7565b60405180910390a3505050565b600081519050919050565b600082825260208201905092915050565b60005b83811015610a2d578082015181840152602081019050610a12565b83811115610a3c576000848401525b50505050565b6000601f19601f8301169050919050565b6000610a5e826109f3565b610a6881856109fe565b9350610a78818560208601610a0f565b610a8181610a42565b840191505092915050565b60006020820190508181036000830152610aa68184610a53565b905092915050565b6000819050919050565b610ac181610aae565b82525050565b6000602082019050610adc6000830184610ab8565b92915050565b600060ff82169050919050565b610af881610ae2565b82525050565b6000602082019050610b136000830184610aef565b92915050565b600080fd5b600073ffffffffffffffffffffffffffffffffffffffff82169050919050565b6000610b4982610b1e565b9050919050565b610b5981610b3e565b8114610b6457600080fd5b50565b600081359050610b7681610b50565b92915050565b610b8581610aae565b8114610b9057600080fd5b50565b600081359050610ba281610b7c565b92915050565b60008060408385031215610bbf57610bbe610b19565b5b6000610bcd85828601610b67565b9250506020610bde85828601610b93565b9150509250929050565b60008115159050919050565b610bfd81610be8565b82525050565b6000602082019050610c186000830184610bf4565b92915050565b600060208284031215610c3457610c33610b19565b5b6000610c4284828501610b67565b91505092915050565b7f4e487b7100000000000000000000000000000000000000000000000000000000600052602260045260246000fd5b60006002820490506001821680610c9257607f821691505b602082108103610ca557610ca4610c4b565b5b50919050565b7f53746f636b436f696e3a2063616e6e6f74206d696e7420746f207a65726f206160008201527f6464726573730000000000000000000000000000000000000000000000000000602082015250565b6000610d076026836109fe565b9150610d1282610cab565b604082019050919050565b60006020820190508181036000830152610d3681610cfa565b9050919050565b7f4e487b7100000000000000000000000000000000000000000000000000000000600052601160045260246000fd5b6000610d7782610aae565b9150610d8283610aae565b9250827fffffffffffffffffffffffffffffffffffffffffffffffffffffffffffffffff03821115610db757610db6610d3d565b5b828201905092915050565b7f53746f636b436f696e3a2063616e6e6f74206275726e2066726f6d207a65726f60008201527f2061646472657373000000000000000000000000000000000000000000000000602082015250565b6000610e1e6028836109fe565b9150610e2982610dc2565b604082019050919050565b60006020820190508181036000830152610e4d81610e11565b9050919050565b7f53746f636b436f696e3a2063616e6e6f74206275726e206d6f7265207468616e60008201527f20746865206163636f756e74206f776e73000000000000000000000000000000602082015250565b6000610eb06031836109fe565b9150610ebb82610e54565b604082019050919050565b60006020820190508181036000830152610edf81610ea3565b9050919050565b6000610ef182610aae565b9150610efc83610aae565b925082821015610f0f57610f0e610d3d565b5b828203905092915050565b7f53746f636b436f696e3a207472616e736665722066726f6d207a65726f20616460008201527f6472657373000000000000000000000000000000000000000000000000000000602082015250565b6000610f766025836109fe565b9150610f8182610f1a565b604082019050919050565b60006020820190508181036000830152610fa581610f69565b9050919050565b7f53746f636b436f696e3a2063616e74207472616e73666572206d6f726520746860008201527f616e20796f7572206163636f756e7420686f6c64730000000000000000000000602082015250565b60006110086035836109fe565b915061101382610fac565b604082019050919050565b6000602082019050818103600083015261103781610ffb565b905091905056fea26469706673582212206d07cee7a0d360633e27db337c55782a2a5aa3a056575c71541739dc4e1a170164736f6c634300080d0033",
					"opcodes": "PUSH1 0x80 PUSH1 0x40 MSTORE CALLVALUE DUP1 ISZERO PUSH3 0x11 JUMPI PUSH1 0x0 DUP1 REVERT JUMPDEST POP PUSH1 0x40 MLOAD PUSH3 0x15D1 CODESIZE SUB DUP1 PUSH3 0x15D1 DUP4 CODECOPY DUP2 DUP2 ADD PUSH1 0x40 MSTORE DUP2 ADD SWAP1 PUSH3 0x37 SWAP2 SWAP1 PUSH3 0x40B JUMP JUMPDEST DUP4 PUSH1 0x3 SWAP1 DUP1 MLOAD SWAP1 PUSH1 0x20 ADD SWAP1 PUSH3 0x4F SWAP3 SWAP2 SWAP1 PUSH3 0x145 JUMP JUMPDEST POP DUP3 PUSH1 0x2 SWAP1 DUP1 MLOAD SWAP1 PUSH1 0x20 ADD SWAP1 PUSH3 0x68 SWAP3 SWAP2 SWAP1 PUSH3 0x145 JUMP JUMPDEST POP DUP2 PUSH1 0x1 PUSH1 0x0 PUSH2 0x100 EXP DUP2 SLOAD DUP2 PUSH1 0xFF MUL NOT AND SWAP1 DUP4 PUSH1 0xFF AND MUL OR SWAP1 SSTORE POP DUP1 PUSH1 0x0 DUP2 SWAP1 SSTORE POP PUSH1 0x0 SLOAD PUSH1 0x4 PUSH1 0x0 CALLER PUSH20 0xFFFFFFFFFFFFFFFFFFFFFFFFFFFFFFFFFFFFFFFF AND PUSH20 0xFFFFFFFFFFFFFFFFFFFFFFFFFFFFFFFFFFFFFFFF AND DUP2 MSTORE PUSH1 0x20 ADD SWAP1 DUP2 MSTORE PUSH1 0x20 ADD PUSH1 0x0 KECCAK256 DUP2 SWAP1 SSTORE POP CALLER PUSH20 0xFFFFFFFFFFFFFFFFFFFFFFFFFFFFFFFFFFFFFFFF AND PUSH1 0x0 PUSH20 0xFFFFFFFFFFFFFFFFFFFFFFFFFFFFFFFFFFFFFFFF AND PUSH32 0xDDF252AD1BE2C89B69C2B068FC378DAA952BA7F163C4A11628F55A4DF523B3EF PUSH1 0x0 SLOAD PUSH1 0x40 MLOAD PUSH3 0x133 SWAP2 SWAP1 PUSH3 0x4CC JUMP JUMPDEST PUSH1 0x40 MLOAD DUP1 SWAP2 SUB SWAP1 LOG3 POP POP POP POP PUSH3 0x54D JUMP JUMPDEST DUP3 DUP1 SLOAD PUSH3 0x153 SWAP1 PUSH3 0x518 JUMP JUMPDEST SWAP1 PUSH1 0x0 MSTORE PUSH1 0x20 PUSH1 0x0 KECCAK256 SWAP1 PUSH1 0x1F ADD PUSH1 0x20 SWAP1 DIV DUP2 ADD SWAP3 DUP3 PUSH3 0x177 JUMPI PUSH1 0x0 DUP6 SSTORE PUSH3 0x1C3 JUMP JUMPDEST DUP3 PUSH1 0x1F LT PUSH3 0x192 JUMPI DUP1 MLOAD PUSH1 0xFF NOT AND DUP4 DUP1 ADD OR DUP6 SSTORE PUSH3 0x1C3 JUMP JUMPDEST DUP3 DUP1 ADD PUSH1 0x1 ADD DUP6 SSTORE DUP3 ISZERO PUSH3 0x1C3 JUMPI SWAP2 DUP3 ADD JUMPDEST DUP3 DUP2 GT ISZERO PUSH3 0x1C2 JUMPI DUP3 MLOAD DUP3 SSTORE SWAP2 PUSH1 0x20 ADD SWAP2 SWAP1 PUSH1 0x1 ADD SWAP1 PUSH3 0x1A5 JUMP JUMPDEST JUMPDEST POP SWAP1 POP PUSH3 0x1D2 SWAP2 SWAP1 PUSH3 0x1D6 JUMP JUMPDEST POP SWAP1 JUMP JUMPDEST JUMPDEST DUP1 DUP3 GT ISZERO PUSH3 0x1F1 JUMPI PUSH1 0x0 DUP2 PUSH1 0x0 SWAP1 SSTORE POP PUSH1 0x1 ADD PUSH3 0x1D7 JUMP JUMPDEST POP SWAP1 JUMP JUMPDEST PUSH1 0x0 PUSH1 0x40 MLOAD SWAP1 POP SWAP1 JUMP JUMPDEST PUSH1 0x0 DUP1 REVERT JUMPDEST PUSH1 0x0 DUP1 REVERT JUMPDEST PUSH1 0x0 DUP1 REVERT JUMPDEST PUSH1 0x0 DUP1 REVERT JUMPDEST PUSH1 0x0 PUSH1 0x1F NOT PUSH1 0x1F DUP4 ADD AND SWAP1 POP SWAP2 SWAP1 POP JUMP JUMPDEST PUSH32 0x4E487B7100000000000000000000000000000000000000000000000000000000 PUSH1 0x0 MSTORE PUSH1 0x41 PUSH1 0x4 MSTORE PUSH1 0x24 PUSH1 0x0 REVERT JUMPDEST PUSH3 0x25E DUP3 PUSH3 0x213 JUMP JUMPDEST DUP2 ADD DUP2 DUP2 LT PUSH8 0xFFFFFFFFFFFFFFFF DUP3 GT OR ISZERO PUSH3 0x280 JUMPI PUSH3 0x27F PUSH3 0x224 JUMP JUMPDEST JUMPDEST DUP1 PUSH1 0x40 MSTORE POP POP POP JUMP JUMPDEST PUSH1 0x0 PUSH3 0x295 PUSH3 0x1F5 JUMP JUMPDEST SWAP1 POP PUSH3 0x2A3 DUP3 DUP3 PUSH3 0x253 JUMP JUMPDEST SWAP2 SWAP1 POP JUMP JUMPDEST PUSH1 0x0 PUSH8 0xFFFFFFFFFFFFFFFF DUP3 GT ISZERO PUSH3 0x2C6 JUMPI PUSH3 0x2C5 PUSH3 0x224 JUMP JUMPDEST JUMPDEST PUSH3 0x2D1 DUP3 PUSH3 0x213 JUMP JUMPDEST SWAP1 POP PUSH1 0x20 DUP2 ADD SWAP1 POP SWAP2 SWAP1 POP JUMP JUMPDEST PUSH1 0x0 JUMPDEST DUP4 DUP2 LT ISZERO PUSH3 0x2FE JUMPI DUP1 DUP3 ADD MLOAD DUP2 DUP5 ADD MSTORE PUSH1 0x20 DUP2 ADD SWAP1 POP PUSH3 0x2E1 JUMP JUMPDEST DUP4 DUP2 GT ISZERO PUSH3 0x30E JUMPI PUSH1 0x0 DUP5 DUP5 ADD MSTORE JUMPDEST POP POP POP POP JUMP JUMPDEST PUSH1 0x0 PUSH3 0x32B PUSH3 0x325 DUP5 PUSH3 0x2A8 JUMP JUMPDEST PUSH3 0x289 JUMP JUMPDEST SWAP1 POP DUP3 DUP2 MSTORE PUSH1 0x20 DUP2 ADD DUP5 DUP5 DUP5 ADD GT ISZERO PUSH3 0x34A JUMPI PUSH3 0x349 PUSH3 0x20E JUMP JUMPDEST JUMPDEST PUSH3 0x357 DUP5 DUP3 DUP6 PUSH3 0x2DE JUMP JUMPDEST POP SWAP4 SWAP3 POP POP POP JUMP JUMPDEST PUSH1 0x0 DUP3 PUSH1 0x1F DUP4 ADD SLT PUSH3 0x377 JUMPI PUSH3 0x376 PUSH3 0x209 JUMP JUMPDEST JUMPDEST DUP2 MLOAD PUSH3 0x389 DUP5 DUP3 PUSH1 0x20 DUP7 ADD PUSH3 0x314 JUMP JUMPDEST SWAP2 POP POP SWAP3 SWAP2 POP POP JUMP JUMPDEST PUSH1 0x0 PUSH1 0xFF DUP3 AND SWAP1 POP SWAP2 SWAP1 POP JUMP JUMPDEST PUSH3 0x3AA DUP2 PUSH3 0x392 JUMP JUMPDEST DUP2 EQ PUSH3 0x3B6 JUMPI PUSH1 0x0 DUP1 REVERT JUMPDEST POP JUMP JUMPDEST PUSH1 0x0 DUP2 MLOAD SWAP1 POP PUSH3 0x3CA DUP2 PUSH3 0x39F JUMP JUMPDEST SWAP3 SWAP2 POP POP JUMP JUMPDEST PUSH1 0x0 DUP2 SWAP1 POP SWAP2 SWAP1 POP JUMP JUMPDEST PUSH3 0x3E5 DUP2 PUSH3 0x3D0 JUMP JUMPDEST DUP2 EQ PUSH3 0x3F1 JUMPI PUSH1 0x0 DUP1 REVERT JUMPDEST POP JUMP JUMPDEST PUSH1 0x0 DUP2 MLOAD SWAP1 POP PUSH3 0x405 DUP2 PUSH3 0x3DA JUMP JUMPDEST SWAP3 SWAP2 POP POP JUMP JUMPDEST PUSH1 0x0 DUP1 PUSH1 0x0 DUP1 PUSH1 0x80 DUP6 DUP8 SUB SLT ISZERO PUSH3 0x428 JUMPI PUSH3 0x427 PUSH3 0x1FF JUMP JUMPDEST JUMPDEST PUSH1 0x0 DUP6 ADD MLOAD PUSH8 0xFFFFFFFFFFFFFFFF DUP2 GT ISZERO PUSH3 0x449 JUMPI PUSH3 0x448 PUSH3 0x204 JUMP JUMPDEST JUMPDEST PUSH3 0x457 DUP8 DUP3 DUP9 ADD PUSH3 0x35F JUMP JUMPDEST SWAP5 POP POP PUSH1 0x20 DUP6 ADD MLOAD PUSH8 0xFFFFFFFFFFFFFFFF DUP2 GT ISZERO PUSH3 0x47B JUMPI PUSH3 0x47A PUSH3 0x204 JUMP JUMPDEST JUMPDEST PUSH3 0x489 DUP8 DUP3 DUP9 ADD PUSH3 0x35F JUMP JUMPDEST SWAP4 POP POP PUSH1 0x40 PUSH3 0x49C DUP8 DUP3 DUP9 ADD PUSH3 0x3B9 JUMP JUMPDEST SWAP3 POP POP PUSH1 0x60 PUSH3 0x4AF DUP8 DUP3 DUP9 ADD PUSH3 0x3F4 JUMP JUMPDEST SWAP2 POP POP SWAP3 SWAP6 SWAP2 SWAP5 POP SWAP3 POP JUMP JUMPDEST PUSH3 0x4C6 DUP2 PUSH3 0x3D0 JUMP JUMPDEST DUP3 MSTORE POP POP JUMP JUMPDEST PUSH1 0x0 PUSH1 0x20 DUP3 ADD SWAP1 POP PUSH3 0x4E3 PUSH1 0x0 DUP4 ADD DUP5 PUSH3 0x4BB JUMP JUMPDEST SWAP3 SWAP2 POP POP JUMP JUMPDEST PUSH32 0x4E487B7100000000000000000000000000000000000000000000000000000000 PUSH1 0x0 MSTORE PUSH1 0x22 PUSH1 0x4 MSTORE PUSH1 0x24 PUSH1 0x0 REVERT JUMPDEST PUSH1 0x0 PUSH1 0x2 DUP3 DIV SWAP1 POP PUSH1 0x1 DUP3 AND DUP1 PUSH3 0x531 JUMPI PUSH1 0x7F DUP3 AND SWAP2 POP JUMPDEST PUSH1 0x20 DUP3 LT DUP2 SUB PUSH3 0x547 JUMPI PUSH3 0x546 PUSH3 0x4E9 JUMP JUMPDEST JUMPDEST POP SWAP2 SWAP1 POP JUMP JUMPDEST PUSH2 0x1074 DUP1 PUSH3 0x55D PUSH1 0x0 CODECOPY PUSH1 0x0 RETURN INVALID PUSH1 0x80 PUSH1 0x40 MSTORE CALLVALUE DUP1 ISZERO PUSH2 0x10 JUMPI PUSH1 0x0 DUP1 REVERT JUMPDEST POP PUSH1 0x4 CALLDATASIZE LT PUSH2 0x88 JUMPI PUSH1 0x0 CALLDATALOAD PUSH1 0xE0 SHR DUP1 PUSH4 0x70A08231 GT PUSH2 0x5B JUMPI DUP1 PUSH4 0x70A08231 EQ PUSH2 0x117 JUMPI DUP1 PUSH4 0x95D89B41 EQ PUSH2 0x147 JUMPI DUP1 PUSH4 0x9DC29FAC EQ PUSH2 0x165 JUMPI DUP1 PUSH4 0xA9059CBB EQ PUSH2 0x195 JUMPI PUSH2 0x88 JUMP JUMPDEST DUP1 PUSH4 0x6FDDE03 EQ PUSH2 0x8D JUMPI DUP1 PUSH4 0x18160DDD EQ PUSH2 0xAB JUMPI DUP1 PUSH4 0x313CE567 EQ PUSH2 0xC9 JUMPI DUP1 PUSH4 0x40C10F19 EQ PUSH2 0xE7 JUMPI JUMPDEST PUSH1 0x0 DUP1 REVERT JUMPDEST PUSH2 0x95 PUSH2 0x1C5 JUMP JUMPDEST PUSH1 0x40 MLOAD PUSH2 0xA2 SWAP2 SWAP1 PUSH2 0xA8C JUMP JUMPDEST PUSH1 0x40 MLOAD DUP1 SWAP2 SUB SWAP1 RETURN JUMPDEST PUSH2 0xB3 PUSH2 0x257 JUMP JUMPDEST PUSH1 0x40 MLOAD PUSH2 0xC0 SWAP2 SWAP1 PUSH2 0xAC7 JUMP JUMPDEST PUSH1 0x40 MLOAD DUP1 SWAP2 SUB SWAP1 RETURN JUMPDEST PUSH2 0xD1 PUSH2 0x260 JUMP JUMPDEST PUSH1 0x40 MLOAD PUSH2 0xDE SWAP2 SWAP1 PUSH2 0xAFE JUMP JUMPDEST PUSH1 0x40 MLOAD DUP1 SWAP2 SUB SWAP1 RETURN JUMPDEST PUSH2 0x101 PUSH1 0x4 DUP1 CALLDATASIZE SUB DUP2 ADD SWAP1 PUSH2 0xFC SWAP2 SWAP1 PUSH2 0xBA8 JUMP JUMPDEST PUSH2 0x277 JUMP JUMPDEST PUSH1 0x40 MLOAD PUSH2 0x10E SWAP2 SWAP1 PUSH2 0xC03 JUMP JUMPDEST PUSH1 0x40 MLOAD DUP1 SWAP2 SUB SWAP1 RETURN JUMPDEST PUSH2 0x131 PUSH1 0x4 DUP1 CALLDATASIZE SUB DUP2 ADD SWAP1 PUSH2 0x12C SWAP2 SWAP1 PUSH2 0xC1E JUMP JUMPDEST PUSH2 0x28D JUMP JUMPDEST PUSH1 0x40 MLOAD PUSH2 0x13E SWAP2 SWAP1 PUSH2 0xAC7 JUMP JUMPDEST PUSH1 0x40 MLOAD DUP1 SWAP2 SUB SWAP1 RETURN JUMPDEST PUSH2 0x14F PUSH2 0x2D6 JUMP JUMPDEST PUSH1 0x40 MLOAD PUSH2 0x15C SWAP2 SWAP1 PUSH2 0xA8C JUMP JUMPDEST PUSH1 0x40 MLOAD DUP1 SWAP2 SUB SWAP1 RETURN JUMPDEST PUSH2 0x17F PUSH1 0x4 DUP1 CALLDATASIZE SUB DUP2 ADD SWAP1 PUSH2 0x17A SWAP2 SWAP1 PUSH2 0xBA8 JUMP JUMPDEST PUSH2 0x368 JUMP JUMPDEST PUSH1 0x40 MLOAD PUSH2 0x18C SWAP2 SWAP1 PUSH2 0xC03 JUMP JUMPDEST PUSH1 0x40 MLOAD DUP1 SWAP2 SUB SWAP1 RETURN JUMPDEST PUSH2 0x1AF PUSH1 0x4 DUP1 CALLDATASIZE SUB DUP2 ADD SWAP1 PUSH2 0x1AA SWAP2 SWAP1 PUSH2 0xBA8 JUMP JUMPDEST PUSH2 0x37E JUMP JUMPDEST PUSH1 0x40 MLOAD PUSH2 0x1BC SWAP2 SWAP1 PUSH2 0xC03 JUMP JUMPDEST PUSH1 0x40 MLOAD DUP1 SWAP2 SUB SWAP1 RETURN JUMPDEST PUSH1 0x60 PUSH1 0x3 DUP1 SLOAD PUSH2 0x1D4 SWAP1 PUSH2 0xC7A JUMP JUMPDEST DUP1 PUSH1 0x1F ADD PUSH1 0x20 DUP1 SWAP2 DIV MUL PUSH1 0x20 ADD PUSH1 0x40 MLOAD SWAP1 DUP2 ADD PUSH1 0x40 MSTORE DUP1 SWAP3 SWAP2 SWAP1 DUP2 DUP2 MSTORE PUSH1 0x20 ADD DUP3 DUP1 SLOAD PUSH2 0x200 SWAP1 PUSH2 0xC7A JUMP JUMPDEST DUP1 ISZERO PUSH2 0x24D JUMPI DUP1 PUSH1 0x1F LT PUSH2 0x222 JUMPI PUSH2 0x100 DUP1 DUP4 SLOAD DIV MUL DUP4 MSTORE SWAP2 PUSH1 0x20 ADD SWAP2 PUSH2 0x24D JUMP JUMPDEST DUP3 ADD SWAP2 SWAP1 PUSH1 0x0 MSTORE PUSH1 0x20 PUSH1 0x0 KECCAK256 SWAP1 JUMPDEST DUP2 SLOAD DUP2 MSTORE SWAP1 PUSH1 0x1 ADD SWAP1 PUSH1 0x20 ADD DUP1 DUP4 GT PUSH2 0x230 JUMPI DUP3 SWAP1 SUB PUSH1 0x1F AND DUP3 ADD SWAP2 JUMPDEST POP POP POP POP POP SWAP1 POP SWAP1 JUMP JUMPDEST PUSH1 0x0 DUP1 SLOAD SWAP1 POP SWAP1 JUMP JUMPDEST PUSH1 0x0 PUSH1 0x1 PUSH1 0x0 SWAP1 SLOAD SWAP1 PUSH2 0x100 EXP SWAP1 DIV PUSH1 0xFF AND SWAP1 POP SWAP1 JUMP JUMPDEST PUSH1 0x0 PUSH2 0x283 DUP4 DUP4 PUSH2 0x395 JUMP JUMPDEST PUSH1 0x1 SWAP1 POP SWAP3 SWAP2 POP POP JUMP JUMPDEST PUSH1 0x0 PUSH1 0x4 PUSH1 0x0 DUP4 PUSH20 0xFFFFFFFFFFFFFFFFFFFFFFFFFFFFFFFFFFFFFFFF AND PUSH20 0xFFFFFFFFFFFFFFFFFFFFFFFFFFFFFFFFFFFFFFFF AND DUP2 MSTORE PUSH1 0x20 ADD SWAP1 DUP2 MSTORE PUSH1 0x20 ADD PUSH1 0x0 KECCAK256 SLOAD SWAP1 POP SWAP2 SWAP1 POP JUMP JUMPDEST PUSH1 0x60 PUSH1 0x2 DUP1 SLOAD PUSH2 0x2E5 SWAP1 PUSH2 0xC7A JUMP JUMPDEST DUP1 PUSH1 0x1F ADD PUSH1 0x20 DUP1 SWAP2 DIV MUL PUSH1 0x20 ADD PUSH1 0x40 MLOAD SWAP1 DUP2 ADD PUSH1 0x40 MSTORE DUP1 SWAP3 SWAP2 SWAP1 DUP2 DUP2 MSTORE PUSH1 0x20 ADD DUP3 DUP1 SLOAD PUSH2 0x311 SWAP1 PUSH2 0xC7A JUMP JUMPDEST DUP1 ISZERO PUSH2 0x35E JUMPI DUP1 PUSH1 0x1F LT PUSH2 0x333 JUMPI PUSH2 0x100 DUP1 DUP4 SLOAD DIV MUL DUP4 MSTORE SWAP2 PUSH1 0x20 ADD SWAP2 PUSH2 0x35E JUMP JUMPDEST DUP3 ADD SWAP2 SWAP1 PUSH1 0x0 MSTORE PUSH1 0x20 PUSH1 0x0 KECCAK256 SWAP1 JUMPDEST DUP2 SLOAD DUP2 MSTORE SWAP1 PUSH1 0x1 ADD SWAP1 PUSH1 0x20 ADD DUP1 DUP4 GT PUSH2 0x341 JUMPI DUP3 SWAP1 SUB PUSH1 0x1F AND DUP3 ADD SWAP2 JUMPDEST POP POP POP POP POP SWAP1 POP SWAP1 JUMP JUMPDEST PUSH1 0x0 PUSH2 0x374 DUP4 DUP4 PUSH2 0x510 JUMP JUMPDEST PUSH1 0x1 SWAP1 POP SWAP3 SWAP2 POP POP JUMP JUMPDEST PUSH1 0x0 PUSH2 0x38B CALLER DUP5 DUP5 PUSH2 0x70D JUMP JUMPDEST PUSH1 0x1 SWAP1 POP SWAP3 SWAP2 POP POP JUMP JUMPDEST PUSH1 0x0 PUSH20 0xFFFFFFFFFFFFFFFFFFFFFFFFFFFFFFFFFFFFFFFF AND DUP3 PUSH20 0xFFFFFFFFFFFFFFFFFFFFFFFFFFFFFFFFFFFFFFFF AND SUB PUSH2 0x404 JUMPI PUSH1 0x40 MLOAD PUSH32 0x8C379A000000000000000000000000000000000000000000000000000000000 DUP2 MSTORE PUSH1 0x4 ADD PUSH2 0x3FB SWAP1 PUSH2 0xD1D JUMP JUMPDEST PUSH1 0x40 MLOAD DUP1 SWAP2 SUB SWAP1 REVERT JUMPDEST DUP1 PUSH1 0x0 SLOAD PUSH2 0x412 SWAP2 SWAP1 PUSH2 0xD6C JUMP JUMPDEST PUSH1 0x0 DUP2 SWAP1 SSTORE POP DUP1 PUSH1 0x4 PUSH1 0x0 DUP5 PUSH20 0xFFFFFFFFFFFFFFFFFFFFFFFFFFFFFFFFFFFFFFFF AND PUSH20 0xFFFFFFFFFFFFFFFFFFFFFFFFFFFFFFFFFFFFFFFF AND DUP2 MSTORE PUSH1 0x20 ADD SWAP1 DUP2 MSTORE PUSH1 0x20 ADD PUSH1 0x0 KECCAK256 SLOAD PUSH2 0x463 SWAP2 SWAP1 PUSH2 0xD6C JUMP JUMPDEST PUSH1 0x4 PUSH1 0x0 DUP5 PUSH20 0xFFFFFFFFFFFFFFFFFFFFFFFFFFFFFFFFFFFFFFFF AND PUSH20 0xFFFFFFFFFFFFFFFFFFFFFFFFFFFFFFFFFFFFFFFF AND DUP2 MSTORE PUSH1 0x20 ADD SWAP1 DUP2 MSTORE PUSH1 0x20 ADD PUSH1 0x0 KECCAK256 DUP2 SWAP1 SSTORE POP DUP2 PUSH20 0xFFFFFFFFFFFFFFFFFFFFFFFFFFFFFFFFFFFFFFFF AND PUSH1 0x0 PUSH20 0xFFFFFFFFFFFFFFFFFFFFFFFFFFFFFFFFFFFFFFFF AND PUSH32 0xDDF252AD1BE2C89B69C2B068FC378DAA952BA7F163C4A11628F55A4DF523B3EF DUP4 PUSH1 0x40 MLOAD PUSH2 0x504 SWAP2 SWAP1 PUSH2 0xAC7 JUMP JUMPDEST PUSH1 0x40 MLOAD DUP1 SWAP2 SUB SWAP1 LOG3 POP POP JUMP JUMPDEST PUSH1 0x0 PUSH20 0xFFFFFFFFFFFFFFFFFFFFFFFFFFFFFFFFFFFFFFFF AND DUP3 PUSH20 0xFFFFFFFFFFFFFFFFFFFFFFFFFFFFFFFFFFFFFFFF AND SUB PUSH2 0x57F JUMPI PUSH1 0x40 MLOAD PUSH32 0x8C379A000000000000000000000000000000000000000000000000000000000 DUP2 MSTORE PUSH1 0x4 ADD PUSH2 0x576 SWAP1 PUSH2 0xE34 JUMP JUMPDEST PUSH1 0x40 MLOAD DUP1 SWAP2 SUB SWAP1 REVERT JUMPDEST DUP1 PUSH1 0x4 PUSH1 0x0 DUP5 PUSH20 0xFFFFFFFFFFFFFFFFFFFFFFFFFFFFFFFFFFFFFFFF AND PUSH20 0xFFFFFFFFFFFFFFFFFFFFFFFFFFFFFFFFFFFFFFFF AND DUP2 MSTORE PUSH1 0x20 ADD SWAP1 DUP2 MSTORE PUSH1 0x20 ADD PUSH1 0x0 KECCAK256 SLOAD LT ISZERO PUSH2 0x601 JUMPI PUSH1 0x40 MLOAD PUSH32 0x8C379A000000000000000000000000000000000000000000000000000000000 DUP2 MSTORE PUSH1 0x4 ADD PUSH2 0x5F8 SWAP1 PUSH2 0xEC6 JUMP JUMPDEST PUSH1 0x40 MLOAD DUP1 SWAP2 SUB SWAP1 REVERT JUMPDEST DUP1 PUSH1 0x4 PUSH1 0x0 DUP5 PUSH20 0xFFFFFFFFFFFFFFFFFFFFFFFFFFFFFFFFFFFFFFFF AND PUSH20 0xFFFFFFFFFFFFFFFFFFFFFFFFFFFFFFFFFFFFFFFF AND DUP2 MSTORE PUSH1 0x20 ADD SWAP1 DUP2 MSTORE PUSH1 0x20 ADD PUSH1 0x0 KECCAK256 SLOAD PUSH2 0x64C SWAP2 SWAP1 PUSH2 0xEE6 JUMP JUMPDEST PUSH1 0x4 PUSH1 0x0 DUP5 PUSH20 0xFFFFFFFFFFFFFFFFFFFFFFFFFFFFFFFFFFFFFFFF AND PUSH20 0xFFFFFFFFFFFFFFFFFFFFFFFFFFFFFFFFFFFFFFFF AND DUP2 MSTORE PUSH1 0x20 ADD SWAP1 DUP2 MSTORE PUSH1 0x20 ADD PUSH1 0x0 KECCAK256 DUP2 SWAP1 SSTORE POP DUP1 PUSH1 0x0 SLOAD PUSH2 0x69D SWAP2 SWAP1 PUSH2 0xEE6 JUMP JUMPDEST PUSH1 0x0 DUP2 SWAP1 SSTORE POP PUSH1 0x0 PUSH20 0xFFFFFFFFFFFFFFFFFFFFFFFFFFFFFFFFFFFFFFFF AND DUP3 PUSH20 0xFFFFFFFFFFFFFFFFFFFFFFFFFFFFFFFFFFFFFFFF AND PUSH32 0xDDF252AD1BE2C89B69C2B068FC378DAA952BA7F163C4A11628F55A4DF523B3EF DUP4 PUSH1 0x40 MLOAD PUSH2 0x701 SWAP2 SWAP1 PUSH2 0xAC7 JUMP JUMPDEST PUSH1 0x40 MLOAD DUP1 SWAP2 SUB SWAP1 LOG3 POP POP JUMP JUMPDEST PUSH1 0x0 PUSH20 0xFFFFFFFFFFFFFFFFFFFFFFFFFFFFFFFFFFFFFFFF AND DUP4 PUSH20 0xFFFFFFFFFFFFFFFFFFFFFFFFFFFFFFFFFFFFFFFF AND SUB PUSH2 0x77C JUMPI PUSH1 0x40 MLOAD PUSH32 0x8C379A000000000000000000000000000000000000000000000000000000000 DUP2 MSTORE PUSH1 0x4 ADD PUSH2 0x773 SWAP1 PUSH2 0xF8C JUMP JUMPDEST PUSH1 0x40 MLOAD DUP1 SWAP2 SUB SWAP1 REVERT JUMPDEST PUSH1 0x0 PUSH20 0xFFFFFFFFFFFFFFFFFFFFFFFFFFFFFFFFFFFFFFFF AND DUP3 PUSH20 0xFFFFFFFFFFFFFFFFFFFFFFFFFFFFFFFFFFFFFFFF AND SUB PUSH2 0x7EB JUMPI PUSH1 0x40 MLOAD PUSH32 0x8C379A000000000000000000000000000000000000000000000000000000000 DUP2 MSTORE PUSH1 0x4 ADD PUSH2 0x7E2 SWAP1 PUSH2 0xF8C JUMP JUMPDEST PUSH1 0x40 MLOAD DUP1 SWAP2 SUB SWAP1 REVERT JUMPDEST DUP1 PUSH1 0x4 PUSH1 0x0 DUP6 PUSH20 0xFFFFFFFFFFFFFFFFFFFFFFFFFFFFFFFFFFFFFFFF AND PUSH20 0xFFFFFFFFFFFFFFFFFFFFFFFFFFFFFFFFFFFFFFFF AND DUP2 MSTORE PUSH1 0x20 ADD SWAP1 DUP2 MSTORE PUSH1 0x20 ADD PUSH1 0x0 KECCAK256 SLOAD LT ISZERO PUSH2 0x86D JUMPI PUSH1 0x40 MLOAD PUSH32 0x8C379A000000000000000000000000000000000000000000000000000000000 DUP2 MSTORE PUSH1 0x4 ADD PUSH2 0x864 SWAP1 PUSH2 0x101E JUMP JUMPDEST PUSH1 0x40 MLOAD DUP1 SWAP2 SUB SWAP1 REVERT JUMPDEST DUP1 PUSH1 0x4 PUSH1 0x0 DUP6 PUSH20 0xFFFFFFFFFFFFFFFFFFFFFFFFFFFFFFFFFFFFFFFF AND PUSH20 0xFFFFFFFFFFFFFFFFFFFFFFFFFFFFFFFFFFFFFFFF AND DUP2 MSTORE PUSH1 0x20 ADD SWAP1 DUP2 MSTORE PUSH1 0x20 ADD PUSH1 0x0 KECCAK256 SLOAD PUSH2 0x8B8 SWAP2 SWAP1 PUSH2 0xEE6 JUMP JUMPDEST PUSH1 0x4 PUSH1 0x0 DUP6 PUSH20 0xFFFFFFFFFFFFFFFFFFFFFFFFFFFFFFFFFFFFFFFF AND PUSH20 0xFFFFFFFFFFFFFFFFFFFFFFFFFFFFFFFFFFFFFFFF AND DUP2 MSTORE PUSH1 0x20 ADD SWAP1 DUP2 MSTORE PUSH1 0x20 ADD PUSH1 0x0 KECCAK256 DUP2 SWAP1 SSTORE POP DUP1 PUSH1 0x4 PUSH1 0x0 DUP5 PUSH20 0xFFFFFFFFFFFFFFFFFFFFFFFFFFFFFFFFFFFFFFFF AND PUSH20 0xFFFFFFFFFFFFFFFFFFFFFFFFFFFFFFFFFFFFFFFF AND DUP2 MSTORE PUSH1 0x20 ADD SWAP1 DUP2 MSTORE PUSH1 0x20 ADD PUSH1 0x0 KECCAK256 SLOAD PUSH2 0x946 SWAP2 SWAP1 PUSH2 0xD6C JUMP JUMPDEST PUSH1 0x4 PUSH1 0x0 DUP5 PUSH20 0xFFFFFFFFFFFFFFFFFFFFFFFFFFFFFFFFFFFFFFFF AND PUSH20 0xFFFFFFFFFFFFFFFFFFFFFFFFFFFFFFFFFFFFFFFF AND DUP2 MSTORE PUSH1 0x20 ADD SWAP1 DUP2 MSTORE PUSH1 0x20 ADD PUSH1 0x0 KECCAK256 DUP2 SWAP1 SSTORE POP DUP2 PUSH20 0xFFFFFFFFFFFFFFFFFFFFFFFFFFFFFFFFFFFFFFFF AND DUP4 PUSH20 0xFFFFFFFFFFFFFFFFFFFFFFFFFFFFFFFFFFFFFFFF AND PUSH32 0xDDF252AD1BE2C89B69C2B068FC378DAA952BA7F163C4A11628F55A4DF523B3EF DUP4 PUSH1 0x40 MLOAD PUSH2 0x9E6 SWAP2 SWAP1 PUSH2 0xAC7 JUMP JUMPDEST PUSH1 0x40 MLOAD DUP1 SWAP2 SUB SWAP1 LOG3 POP POP POP JUMP JUMPDEST PUSH1 0x0 DUP2 MLOAD SWAP1 POP SWAP2 SWAP1 POP JUMP JUMPDEST PUSH1 0x0 DUP3 DUP3 MSTORE PUSH1 0x20 DUP3 ADD SWAP1 POP SWAP3 SWAP2 POP POP JUMP JUMPDEST PUSH1 0x0 JUMPDEST DUP4 DUP2 LT ISZERO PUSH2 0xA2D JUMPI DUP1 DUP3 ADD MLOAD DUP2 DUP5 ADD MSTORE PUSH1 0x20 DUP2 ADD SWAP1 POP PUSH2 0xA12 JUMP JUMPDEST DUP4 DUP2 GT ISZERO PUSH2 0xA3C JUMPI PUSH1 0x0 DUP5 DUP5 ADD MSTORE JUMPDEST POP POP POP POP JUMP JUMPDEST PUSH1 0x0 PUSH1 0x1F NOT PUSH1 0x1F DUP4 ADD AND SWAP1 POP SWAP2 SWAP1 POP JUMP JUMPDEST PUSH1 0x0 PUSH2 0xA5E DUP3 PUSH2 0x9F3 JUMP JUMPDEST PUSH2 0xA68 DUP2 DUP6 PUSH2 0x9FE JUMP JUMPDEST SWAP4 POP PUSH2 0xA78 DUP2 DUP6 PUSH1 0x20 DUP7 ADD PUSH2 0xA0F JUMP JUMPDEST PUSH2 0xA81 DUP2 PUSH2 0xA42 JUMP JUMPDEST DUP5 ADD SWAP2 POP POP SWAP3 SWAP2 POP POP JUMP JUMPDEST PUSH1 0x0 PUSH1 0x20 DUP3 ADD SWAP1 POP DUP2 DUP2 SUB PUSH1 0x0 DUP4 ADD MSTORE PUSH2 0xAA6 DUP2 DUP5 PUSH2 0xA53 JUMP JUMPDEST SWAP1 POP SWAP3 SWAP2 POP POP JUMP JUMPDEST PUSH1 0x0 DUP2 SWAP1 POP SWAP2 SWAP1 POP JUMP JUMPDEST PUSH2 0xAC1 DUP2 PUSH2 0xAAE JUMP JUMPDEST DUP3 MSTORE POP POP JUMP JUMPDEST PUSH1 0x0 PUSH1 0x20 DUP3 ADD SWAP1 POP PUSH2 0xADC PUSH1 0x0 DUP4 ADD DUP5 PUSH2 0xAB8 JUMP JUMPDEST SWAP3 SWAP2 POP POP JUMP JUMPDEST PUSH1 0x0 PUSH1 0xFF DUP3 AND SWAP1 POP SWAP2 SWAP1 POP JUMP JUMPDEST PUSH2 0xAF8 DUP2 PUSH2 0xAE2 JUMP JUMPDEST DUP3 MSTORE POP POP JUMP JUMPDEST PUSH1 0x0 PUSH1 0x20 DUP3 ADD SWAP1 POP PUSH2 0xB13 PUSH1 0x0 DUP4 ADD DUP5 PUSH2 0xAEF JUMP JUMPDEST SWAP3 SWAP2 POP POP JUMP JUMPDEST PUSH1 0x0 DUP1 REVERT JUMPDEST PUSH1 0x0 PUSH20 0xFFFFFFFFFFFFFFFFFFFFFFFFFFFFFFFFFFFFFFFF DUP3 AND SWAP1 POP SWAP2 SWAP1 POP JUMP JUMPDEST PUSH1 0x0 PUSH2 0xB49 DUP3 PUSH2 0xB1E JUMP JUMPDEST SWAP1 POP SWAP2 SWAP1 POP JUMP JUMPDEST PUSH2 0xB59 DUP2 PUSH2 0xB3E JUMP JUMPDEST DUP2 EQ PUSH2 0xB64 JUMPI PUSH1 0x0 DUP1 REVERT JUMPDEST POP JUMP JUMPDEST PUSH1 0x0 DUP2 CALLDATALOAD SWAP1 POP PUSH2 0xB76 DUP2 PUSH2 0xB50 JUMP JUMPDEST SWAP3 SWAP2 POP POP JUMP JUMPDEST PUSH2 0xB85 DUP2 PUSH2 0xAAE JUMP JUMPDEST DUP2 EQ PUSH2 0xB90 JUMPI PUSH1 0x0 DUP1 REVERT JUMPDEST POP JUMP JUMPDEST PUSH1 0x0 DUP2 CALLDATALOAD SWAP1 POP PUSH2 0xBA2 DUP2 PUSH2 0xB7C JUMP JUMPDEST SWAP3 SWAP2 POP POP JUMP JUMPDEST PUSH1 0x0 DUP1 PUSH1 0x40 DUP4 DUP6 SUB SLT ISZERO PUSH2 0xBBF JUMPI PUSH2 0xBBE PUSH2 0xB19 JUMP JUMPDEST JUMPDEST PUSH1 0x0 PUSH2 0xBCD DUP6 DUP3 DUP7 ADD PUSH2 0xB67 JUMP JUMPDEST SWAP3 POP POP PUSH1 0x20 PUSH2 0xBDE DUP6 DUP3 DUP7 ADD PUSH2 0xB93 JUMP JUMPDEST SWAP2 POP POP SWAP3 POP SWAP3 SWAP1 POP JUMP JUMPDEST PUSH1 0x0 DUP2 ISZERO ISZERO SWAP1 POP SWAP2 SWAP1 POP JUMP JUMPDEST PUSH2 0xBFD DUP2 PUSH2 0xBE8 JUMP JUMPDEST DUP3 MSTORE POP POP JUMP JUMPDEST PUSH1 0x0 PUSH1 0x20 DUP3 ADD SWAP1 POP PUSH2 0xC18 PUSH1 0x0 DUP4 ADD DUP5 PUSH2 0xBF4 JUMP JUMPDEST SWAP3 SWAP2 POP POP JUMP JUMPDEST PUSH1 0x0 PUSH1 0x20 DUP3 DUP5 SUB SLT ISZERO PUSH2 0xC34 JUMPI PUSH2 0xC33 PUSH2 0xB19 JUMP JUMPDEST JUMPDEST PUSH1 0x0 PUSH2 0xC42 DUP5 DUP3 DUP6 ADD PUSH2 0xB67 JUMP JUMPDEST SWAP2 POP POP SWAP3 SWAP2 POP POP JUMP JUMPDEST PUSH32 0x4E487B7100000000000000000000000000000000000000000000000000000000 PUSH1 0x0 MSTORE PUSH1 0x22 PUSH1 0x4 MSTORE PUSH1 0x24 PUSH1 0x0 REVERT JUMPDEST PUSH1 0x0 PUSH1 0x2 DUP3 DIV SWAP1 POP PUSH1 0x1 DUP3 AND DUP1 PUSH2 0xC92 JUMPI PUSH1 0x7F DUP3 AND SWAP2 POP JUMPDEST PUSH1 0x20 DUP3 LT DUP2 SUB PUSH2 0xCA5 JUMPI PUSH2 0xCA4 PUSH2 0xC4B JUMP JUMPDEST JUMPDEST POP SWAP2 SWAP1 POP JUMP JUMPDEST PUSH32 0x53746F636B436F696E3A2063616E6E6F74206D696E7420746F207A65726F2061 PUSH1 0x0 DUP3 ADD MSTORE PUSH32 0x6464726573730000000000000000000000000000000000000000000000000000 PUSH1 0x20 DUP3 ADD MSTORE POP JUMP JUMPDEST PUSH1 0x0 PUSH2 0xD07 PUSH1 0x26 DUP4 PUSH2 0x9FE JUMP JUMPDEST SWAP2 POP PUSH2 0xD12 DUP3 PUSH2 0xCAB JUMP JUMPDEST PUSH1 0x40 DUP3 ADD SWAP1 POP SWAP2 SWAP1 POP JUMP JUMPDEST PUSH1 0x0 PUSH1 0x20 DUP3 ADD SWAP1 POP DUP2 DUP2 SUB PUSH1 0x0 DUP4 ADD MSTORE PUSH2 0xD36 DUP2 PUSH2 0xCFA JUMP JUMPDEST SWAP1 POP SWAP2 SWAP1 POP JUMP JUMPDEST PUSH32 0x4E487B7100000000000000000000000000000000000000000000000000000000 PUSH1 0x0 MSTORE PUSH1 0x11 PUSH1 0x4 MSTORE PUSH1 0x24 PUSH1 0x0 REVERT JUMPDEST PUSH1 0x0 PUSH2 0xD77 DUP3 PUSH2 0xAAE JUMP JUMPDEST SWAP2 POP PUSH2 0xD82 DUP4 PUSH2 0xAAE JUMP JUMPDEST SWAP3 POP DUP3 PUSH32 0xFFFFFFFFFFFFFFFFFFFFFFFFFFFFFFFFFFFFFFFFFFFFFFFFFFFFFFFFFFFFFFFF SUB DUP3 GT ISZERO PUSH2 0xDB7 JUMPI PUSH2 0xDB6 PUSH2 0xD3D JUMP JUMPDEST JUMPDEST DUP3 DUP3 ADD SWAP1 POP SWAP3 SWAP2 POP POP JUMP JUMPDEST PUSH32 0x53746F636B436F696E3A2063616E6E6F74206275726E2066726F6D207A65726F PUSH1 0x0 DUP3 ADD MSTORE PUSH32 0x2061646472657373000000000000000000000000000000000000000000000000 PUSH1 0x20 DUP3 ADD MSTORE POP JUMP JUMPDEST PUSH1 0x0 PUSH2 0xE1E PUSH1 0x28 DUP4 PUSH2 0x9FE JUMP JUMPDEST SWAP2 POP PUSH2 0xE29 DUP3 PUSH2 0xDC2 JUMP JUMPDEST PUSH1 0x40 DUP3 ADD SWAP1 POP SWAP2 SWAP1 POP JUMP JUMPDEST PUSH1 0x0 PUSH1 0x20 DUP3 ADD SWAP1 POP DUP2 DUP2 SUB PUSH1 0x0 DUP4 ADD MSTORE PUSH2 0xE4D DUP2 PUSH2 0xE11 JUMP JUMPDEST SWAP1 POP SWAP2 SWAP1 POP JUMP JUMPDEST PUSH32 0x53746F636B436F696E3A2063616E6E6F74206275726E206D6F7265207468616E PUSH1 0x0 DUP3 ADD MSTORE PUSH32 0x20746865206163636F756E74206F776E73000000000000000000000000000000 PUSH1 0x20 DUP3 ADD MSTORE POP JUMP JUMPDEST PUSH1 0x0 PUSH2 0xEB0 PUSH1 0x31 DUP4 PUSH2 0x9FE JUMP JUMPDEST SWAP2 POP PUSH2 0xEBB DUP3 PUSH2 0xE54 JUMP JUMPDEST PUSH1 0x40 DUP3 ADD SWAP1 POP SWAP2 SWAP1 POP JUMP JUMPDEST PUSH1 0x0 PUSH1 0x20 DUP3 ADD SWAP1 POP DUP2 DUP2 SUB PUSH1 0x0 DUP4 ADD MSTORE PUSH2 0xEDF DUP2 PUSH2 0xEA3 JUMP JUMPDEST SWAP1 POP SWAP2 SWAP1 POP JUMP JUMPDEST PUSH1 0x0 PUSH2 0xEF1 DUP3 PUSH2 0xAAE JUMP JUMPDEST SWAP2 POP PUSH2 0xEFC DUP4 PUSH2 0xAAE JUMP JUMPDEST SWAP3 POP DUP3 DUP3 LT ISZERO PUSH2 0xF0F JUMPI PUSH2 0xF0E PUSH2 0xD3D JUMP JUMPDEST JUMPDEST DUP3 DUP3 SUB SWAP1 POP SWAP3 SWAP2 POP POP JUMP JUMPDEST PUSH32 0x53746F636B436F696E3A207472616E736665722066726F6D207A65726F206164 PUSH1 0x0 DUP3 ADD MSTORE PUSH32 0x6472657373000000000000000000000000000000000000000000000000000000 PUSH1 0x20 DUP3 ADD MSTORE POP JUMP JUMPDEST PUSH1 0x0 PUSH2 0xF76 PUSH1 0x25 DUP4 PUSH2 0x9FE JUMP JUMPDEST SWAP2 POP PUSH2 0xF81 DUP3 PUSH2 0xF1A JUMP JUMPDEST PUSH1 0x40 DUP3 ADD SWAP1 POP SWAP2 SWAP1 POP JUMP JUMPDEST PUSH1 0x0 PUSH1 0x20 DUP3 ADD SWAP1 POP DUP2 DUP2 SUB PUSH1 0x0 DUP4 ADD MSTORE PUSH2 0xFA5 DUP2 PUSH2 0xF69 JUMP JUMPDEST SWAP1 POP SWAP2 SWAP1 POP JUMP JUMPDEST PUSH32 0x53746F636B436F696E3A2063616E74207472616E73666572206D6F7265207468 PUSH1 0x0 DUP3 ADD MSTORE PUSH32 0x616E20796F7572206163636F756E7420686F6C64730000000000000000000000 PUSH1 0x20 DUP3 ADD MSTORE POP JUMP JUMPDEST PUSH1 0x0 PUSH2 0x1008 PUSH1 0x35 DUP4 PUSH2 0x9FE JUMP JUMPDEST SWAP2 POP PUSH2 0x1013 DUP3 PUSH2 0xFAC JUMP JUMPDEST PUSH1 0x40 DUP3 ADD SWAP1 POP SWAP2 SWAP1 POP JUMP JUMPDEST PUSH1 0x0 PUSH1 0x20 DUP3 ADD SWAP1 POP DUP2 DUP2 SUB PUSH1 0x0 DUP4 ADD MSTORE PUSH2 0x1037 DUP2 PUSH2 0xFFB JUMP JUMPDEST SWAP1 POP SWAP2 SWAP1 POP JUMP INVALID LOG2 PUSH5 0x6970667358 0x22 SLT KECCAK256 PUSH14 0x7CEE7A0D360633E27DB337C5578 0x2A 0x2A GAS LOG3 LOG0 JUMP JUMPI 0x5C PUSH18 0x541739DC4E1A170164736F6C634300080D00 CALLER "
				},
				"gasEstimates": {
					"creation": {
						"codeDepositCost": "842400",
						"executionCost": "infinite",
						"totalCost": "infinite"
					},
					"external": {
						"balanceOf(address)": "2841",
						"burn(address,uint256)": "infinite",
						"decimals()": "2524",
						"mint(address,uint256)": "infinite",
						"name()": "infinite",
						"symbol()": "infinite",
						"totalSupply()": "2460",
						"transfer(address,uint256)": "infinite"
					},
					"internal": {
						"_burn(address,uint256)": "infinite",
						"_mint(address,uint256)": "infinite",
						"_transfer(address,address,uint256)": "infinite"
					}
				},
				"methodIdentifiers": {
					"balanceOf(address)": "70a08231",
					"burn(address,uint256)": "9dc29fac",
					"decimals()": "313ce567",
					"mint(address,uint256)": "40c10f19",
					"name()": "06fdde03",
					"symbol()": "95d89b41",
					"totalSupply()": "18160ddd",
					"transfer(address,uint256)": "a9059cbb"
				}
			},
			"userdoc": {
				"events": {
					"Transfer(address,address,uint256)": {
						"notice": "Events are created below. Transfer event is a event that notify the blockchain that a transfer of assets has taken place"
					}
				},
				"kind": "user",
				"methods": {
					"balanceOf(address)": {
						"notice": "balanceOf will return the account balance for the given account"
					},
					"burn(address,uint256)": {
						"notice": "burn is used to destroy tokens on an address  See {_burn} Requires   - msg.sender must be the token owner"
					},
					"constructor": {
						"notice": "constructor will be triggered when we create the Smart contract _name = name of the token _short_symbol = Short Symbol name for the token token_decimals = The decimal precision of the Token, defaults 18 _totalSupply is how much Tokens there are totally "
					},
					"decimals()": {
						"notice": "decimals will return the number of decimal precision the Token is deployed with"
					},
					"mint(address,uint256)": {
						"notice": "mint is used to create tokens and assign them to msg.sender  See {_mint} Requires   - msg.sender must be the token owner"
					},
					"name()": {
						"notice": "name will return the Token's symbol "
					},
					"symbol()": {
						"notice": "symbol will return the Token's symbol "
					},
					"totalSupply()": {
						"notice": "totalSupply will return the tokens total supply of tokens"
					},
					"transfer(address,uint256)": {
						"notice": "transfer is used to transfer funds from the sender to the recipient This function is only callable from outside the contract. For internal usage see  _transfer Requires - Caller cannot be zero - Caller must have a balance = or bigger than amount"
					}
				},
				"version": 1
			}
		}
	}
}