{
	"contracts/client.sol": {
		"Client": {
			"abi": [
				{
					"inputs": [
						{
							"internalType": "address",
							"name": "_clientCryptoWallet",
							"type": "address"
						},
						{
							"internalType": "address",
							"name": "_clientStockWallet",
							"type": "address"
						}
					],
					"name": "addClient",
					"outputs": [],
					"stateMutability": "nonpayable",
					"type": "function"
				},
				{
					"inputs": [
						{
							"internalType": "string",
							"name": "_cryLabel",
							"type": "string"
						},
						{
							"internalType": "uint256",
							"name": "_cryAmount",
							"type": "uint256"
						},
						{
							"internalType": "uint256",
							"name": "_cryValue",
							"type": "uint256"
						}
					],
					"name": "addCryWallet",
					"outputs": [],
					"stateMutability": "nonpayable",
					"type": "function"
				},
				{
					"inputs": [
						{
							"internalType": "string",
							"name": "_stoLabel",
							"type": "string"
						},
						{
							"internalType": "uint256",
							"name": "_stoAmount",
							"type": "uint256"
						},
						{
							"internalType": "uint256",
							"name": "_stoValue",
							"type": "uint256"
						}
					],
					"name": "addStoWallet",
					"outputs": [],
					"stateMutability": "nonpayable",
					"type": "function"
				},
				{
					"inputs": [],
					"name": "clientAddr",
					"outputs": [
						{
							"internalType": "address",
							"name": "",
							"type": "address"
						}
					],
					"stateMutability": "view",
					"type": "function"
				},
				{
					"inputs": [],
					"name": "clientAddress",
					"outputs": [],
					"stateMutability": "nonpayable",
					"type": "function"
				},
				{
					"inputs": [
						{
							"internalType": "address",
							"name": "",
							"type": "address"
						}
					],
					"name": "clients",
					"outputs": [
						{
							"internalType": "address",
							"name": "clientCryptoWallet",
							"type": "address"
						},
						{
							"internalType": "address",
							"name": "clientStockWallet",
							"type": "address"
						}
					],
					"stateMutability": "view",
					"type": "function"
				},
				{
					"inputs": [
						{
							"internalType": "address",
							"name": "",
							"type": "address"
						},
						{
							"internalType": "address",
							"name": "",
							"type": "address"
						}
					],
					"name": "cryWallets",
					"outputs": [
						{
							"internalType": "string",
							"name": "cryLabel",
							"type": "string"
						},
						{
							"internalType": "uint256",
							"name": "cryAmount",
							"type": "uint256"
						},
						{
							"internalType": "uint256",
							"name": "cryValue",
							"type": "uint256"
						}
					],
					"stateMutability": "view",
					"type": "function"
				},
				{
					"inputs": [],
					"name": "cryptoAddr",
					"outputs": [
						{
							"internalType": "address",
							"name": "",
							"type": "address"
						}
					],
					"stateMutability": "view",
					"type": "function"
				},
				{
					"inputs": [
						{
							"internalType": "address",
							"name": "",
							"type": "address"
						},
						{
							"internalType": "address",
							"name": "",
							"type": "address"
						}
					],
					"name": "stoWallets",
					"outputs": [
						{
							"internalType": "string",
							"name": "stoLabel",
							"type": "string"
						},
						{
							"internalType": "uint256",
							"name": "stoAmount",
							"type": "uint256"
						},
						{
							"internalType": "uint256",
							"name": "stoValue",
							"type": "uint256"
						}
					],
					"stateMutability": "view",
					"type": "function"
				},
				{
					"inputs": [],
					"name": "stockAddr",
					"outputs": [
						{
							"internalType": "address",
							"name": "",
							"type": "address"
						}
					],
					"stateMutability": "view",
					"type": "function"
				}
			],
			"devdoc": {
				"kind": "dev",
				"methods": {},
				"version": 1
			},
			"evm": {
				"assembly": "    /* \"contracts/client.sol\":43:1424  contract Client {... */\n  mstore(0x40, 0x80)\n  callvalue\n  dup1\n  iszero\n  tag_1\n  jumpi\n  0x00\n  dup1\n  revert\ntag_1:\n  pop\n  dataSize(sub_0)\n  dup1\n  dataOffset(sub_0)\n  0x00\n  codecopy\n  0x00\n  return\nstop\n\nsub_0: assembly {\n        /* \"contracts/client.sol\":43:1424  contract Client {... */\n      mstore(0x40, 0x80)\n      callvalue\n      dup1\n      iszero\n      tag_1\n      jumpi\n      0x00\n      dup1\n      revert\n    tag_1:\n      pop\n      jumpi(tag_2, lt(calldatasize, 0x04))\n      shr(0xe0, calldataload(0x00))\n      dup1\n      0x3dbab7e6\n      gt\n      tag_13\n      jumpi\n      dup1\n      0x3dbab7e6\n      eq\n      tag_8\n      jumpi\n      dup1\n      0x5349b95f\n      eq\n      tag_9\n      jumpi\n      dup1\n      0x61eed2a9\n      eq\n      tag_10\n      jumpi\n      dup1\n      0x898f27f2\n      eq\n      tag_11\n      jumpi\n      dup1\n      0x8dea3fd8\n      eq\n      tag_12\n      jumpi\n      jump(tag_2)\n    tag_13:\n      dup1\n      0x09e04aad\n      eq\n      tag_3\n      jumpi\n      dup1\n      0x16691869\n      eq\n      tag_4\n      jumpi\n      dup1\n      0x27a5906b\n      eq\n      tag_5\n      jumpi\n      dup1\n      0x2c2ab5ea\n      eq\n      tag_6\n      jumpi\n      dup1\n      0x3b811c1c\n      eq\n      tag_7\n      jumpi\n    tag_2:\n      0x00\n      dup1\n      revert\n        /* \"contracts/client.sol\":68:93  address public clientAddr */\n    tag_3:\n      tag_14\n      tag_15\n      jump\t// in\n    tag_14:\n      mload(0x40)\n      tag_16\n      swap2\n      swap1\n      tag_17\n      jump\t// in\n    tag_16:\n      mload(0x40)\n      dup1\n      swap2\n      sub\n      swap1\n      return\n        /* \"contracts/client.sol\":791:1028  function addClient(address _clientCryptoWallet, address _clientStockWallet) public {... */\n    tag_4:\n      tag_18\n      0x04\n      dup1\n      calldatasize\n      sub\n      dup2\n      add\n      swap1\n      tag_19\n      swap2\n      swap1\n      tag_20\n      jump\t// in\n    tag_19:\n      tag_21\n      jump\t// in\n    tag_18:\n      stop\n        /* \"contracts/client.sol\":132:156  address public stockAddr */\n    tag_5:\n      tag_22\n      tag_23\n      jump\t// in\n    tag_22:\n      mload(0x40)\n      tag_24\n      swap2\n      swap1\n      tag_17\n      jump\t// in\n    tag_24:\n      mload(0x40)\n      dup1\n      swap2\n      sub\n      swap1\n      return\n        /* \"contracts/client.sol\":705:779  function clientAddress() public {... */\n    tag_6:\n      tag_25\n      tag_26\n      jump\t// in\n    tag_25:\n      stop\n        /* \"contracts/client.sol\":1233:1421  function addStoWallet(string memory _stoLabel, uint _stoAmount, uint _stoValue) public {... */\n    tag_7:\n      tag_27\n      0x04\n      dup1\n      calldatasize\n      sub\n      dup2\n      add\n      swap1\n      tag_28\n      swap2\n      swap1\n      tag_29\n      jump\t// in\n    tag_28:\n      tag_30\n      jump\t// in\n    tag_27:\n      stop\n        /* \"contracts/client.sol\":1036:1225  function addCryWallet(string memory _cryLabel, uint _cryAmount, uint _cryValue) public {... */\n    tag_8:\n      tag_31\n      0x04\n      dup1\n      calldatasize\n      sub\n      dup2\n      add\n      swap1\n      tag_32\n      swap2\n      swap1\n      tag_29\n      jump\t// in\n    tag_32:\n      tag_33\n      jump\t// in\n    tag_31:\n      stop\n        /* \"contracts/client.sol\":100:125  address public cryptoAddr */\n    tag_9:\n      tag_34\n      tag_35\n      jump\t// in\n    tag_34:\n      mload(0x40)\n      tag_36\n      swap2\n      swap1\n      tag_17\n      jump\t// in\n    tag_36:\n      mload(0x40)\n      dup1\n      swap2\n      sub\n      swap1\n      return\n        /* \"contracts/client.sol\":494:536  mapping (address => client) public clients */\n    tag_10:\n      tag_37\n      0x04\n      dup1\n      calldatasize\n      sub\n      dup2\n      add\n      swap1\n      tag_38\n      swap2\n      swap1\n      tag_39\n      jump\t// in\n    tag_38:\n      tag_40\n      jump\t// in\n    tag_37:\n      mload(0x40)\n      tag_41\n      swap3\n      swap2\n      swap1\n      tag_42\n      jump\t// in\n    tag_41:\n      mload(0x40)\n      dup1\n      swap2\n      sub\n      swap1\n      return\n        /* \"contracts/client.sol\":545:616  mapping (address => mapping(address => cryptoWallet)) public cryWallets */\n    tag_11:\n      tag_43\n      0x04\n      dup1\n      calldatasize\n      sub\n      dup2\n      add\n      swap1\n      tag_44\n      swap2\n      swap1\n      tag_20\n      jump\t// in\n    tag_44:\n      tag_45\n      jump\t// in\n    tag_43:\n      mload(0x40)\n      tag_46\n      swap4\n      swap3\n      swap2\n      swap1\n      tag_47\n      jump\t// in\n    tag_46:\n      mload(0x40)\n      dup1\n      swap2\n      sub\n      swap1\n      return\n        /* \"contracts/client.sol\":625:696  mapping (address => mapping(address => stocksWallet)) public stoWallets */\n    tag_12:\n      tag_48\n      0x04\n      dup1\n      calldatasize\n      sub\n      dup2\n      add\n      swap1\n      tag_49\n      swap2\n      swap1\n      tag_20\n      jump\t// in\n    tag_49:\n      tag_50\n      jump\t// in\n    tag_48:\n      mload(0x40)\n      tag_51\n      swap4\n      swap3\n      swap2\n      swap1\n      tag_47\n      jump\t// in\n    tag_51:\n      mload(0x40)\n      dup1\n      swap2\n      sub\n      swap1\n      return\n        /* \"contracts/client.sol\":68:93  address public clientAddr */\n    tag_15:\n      0x00\n      dup1\n      sload\n      swap1\n      0x0100\n      exp\n      swap1\n      div\n      0xffffffffffffffffffffffffffffffffffffffff\n      and\n      dup2\n      jump\t// out\n        /* \"contracts/client.sol\":791:1028  function addClient(address _clientCryptoWallet, address _clientStockWallet) public {... */\n    tag_21:\n        /* \"contracts/client.sol\":898:917  _clientCryptoWallet */\n      dup2\n        /* \"contracts/client.sol\":885:895  cryptoAddr */\n      0x01\n      0x00\n        /* \"contracts/client.sol\":885:917  cryptoAddr = _clientCryptoWallet */\n      0x0100\n      exp\n      dup2\n      sload\n      dup2\n      0xffffffffffffffffffffffffffffffffffffffff\n      mul\n      not\n      and\n      swap1\n      dup4\n      0xffffffffffffffffffffffffffffffffffffffff\n      and\n      mul\n      or\n      swap1\n      sstore\n      pop\n        /* \"contracts/client.sol\":940:958  _clientStockWallet */\n      dup1\n        /* \"contracts/client.sol\":928:937  stockAddr */\n      0x02\n      0x00\n        /* \"contracts/client.sol\":928:958  stockAddr = _clientStockWallet */\n      0x0100\n      exp\n      dup2\n      sload\n      dup2\n      0xffffffffffffffffffffffffffffffffffffffff\n      mul\n      not\n      and\n      swap1\n      dup4\n      0xffffffffffffffffffffffffffffffffffffffff\n      and\n      mul\n      or\n      swap1\n      sstore\n      pop\n        /* \"contracts/client.sol\":991:1020  client(cryptoAddr, stockAddr) */\n      mload(0x40)\n      dup1\n      0x40\n      add\n      0x40\n      mstore\n      dup1\n        /* \"contracts/client.sol\":998:1008  cryptoAddr */\n      0x01\n      0x00\n      swap1\n      sload\n      swap1\n      0x0100\n      exp\n      swap1\n      div\n      0xffffffffffffffffffffffffffffffffffffffff\n      and\n        /* \"contracts/client.sol\":991:1020  client(cryptoAddr, stockAddr) */\n      0xffffffffffffffffffffffffffffffffffffffff\n      and\n      dup2\n      mstore\n      0x20\n      add\n        /* \"contracts/client.sol\":1010:1019  stockAddr */\n      0x02\n      0x00\n      swap1\n      sload\n      swap1\n      0x0100\n      exp\n      swap1\n      div\n      0xffffffffffffffffffffffffffffffffffffffff\n      and\n        /* \"contracts/client.sol\":991:1020  client(cryptoAddr, stockAddr) */\n      0xffffffffffffffffffffffffffffffffffffffff\n      and\n      dup2\n      mstore\n      pop\n        /* \"contracts/client.sol\":969:976  clients */\n      0x03\n        /* \"contracts/client.sol\":969:988  clients[clientAddr] */\n      0x00\n        /* \"contracts/client.sol\":977:987  clientAddr */\n      dup1\n      0x00\n      swap1\n      sload\n      swap1\n      0x0100\n      exp\n      swap1\n      div\n      0xffffffffffffffffffffffffffffffffffffffff\n      and\n        /* \"contracts/client.sol\":969:988  clients[clientAddr] */\n      0xffffffffffffffffffffffffffffffffffffffff\n      and\n      0xffffffffffffffffffffffffffffffffffffffff\n      and\n      dup2\n      mstore\n      0x20\n      add\n      swap1\n      dup2\n      mstore\n      0x20\n      add\n      0x00\n      keccak256\n        /* \"contracts/client.sol\":969:1020  clients[clientAddr] = client(cryptoAddr, stockAddr) */\n      0x00\n      dup3\n      add\n      mload\n      dup2\n      0x00\n      add\n      exp(0x0100, 0x00)\n      dup2\n      sload\n      dup2\n      0xffffffffffffffffffffffffffffffffffffffff\n      mul\n      not\n      and\n      swap1\n      dup4\n      0xffffffffffffffffffffffffffffffffffffffff\n      and\n      mul\n      or\n      swap1\n      sstore\n      pop\n      0x20\n      dup3\n      add\n      mload\n      dup2\n      0x01\n      add\n      exp(0x0100, 0x00)\n      dup2\n      sload\n      dup2\n      0xffffffffffffffffffffffffffffffffffffffff\n      mul\n      not\n      and\n      swap1\n      dup4\n      0xffffffffffffffffffffffffffffffffffffffff\n      and\n      mul\n      or\n      swap1\n      sstore\n      pop\n      swap1\n      pop\n      pop\n        /* \"contracts/client.sol\":791:1028  function addClient(address _clientCryptoWallet, address _clientStockWallet) public {... */\n      pop\n      pop\n      jump\t// out\n        /* \"contracts/client.sol\":132:156  address public stockAddr */\n    tag_23:\n      0x02\n      0x00\n      swap1\n      sload\n      swap1\n      0x0100\n      exp\n      swap1\n      div\n      0xffffffffffffffffffffffffffffffffffffffff\n      and\n      dup2\n      jump\t// out\n        /* \"contracts/client.sol\":705:779  function clientAddress() public {... */\n    tag_26:\n        /* \"contracts/client.sol\":761:771  msg.sender */\n      caller\n        /* \"contracts/client.sol\":748:758  clientAddr */\n      0x00\n      dup1\n        /* \"contracts/client.sol\":748:771  clientAddr = msg.sender */\n      0x0100\n      exp\n      dup2\n      sload\n      dup2\n      0xffffffffffffffffffffffffffffffffffffffff\n      mul\n      not\n      and\n      swap1\n      dup4\n      0xffffffffffffffffffffffffffffffffffffffff\n      and\n      mul\n      or\n      swap1\n      sstore\n      pop\n        /* \"contracts/client.sol\":705:779  function clientAddress() public {... */\n      jump\t// out\n        /* \"contracts/client.sol\":1233:1421  function addStoWallet(string memory _stoLabel, uint _stoAmount, uint _stoValue) public {... */\n    tag_30:\n        /* \"contracts/client.sol\":1367:1413  stocksWallet(_stoLabel, _stoAmount, _stoValue) */\n      mload(0x40)\n      dup1\n      0x60\n      add\n      0x40\n      mstore\n      dup1\n        /* \"contracts/client.sol\":1380:1389  _stoLabel */\n      dup5\n        /* \"contracts/client.sol\":1367:1413  stocksWallet(_stoLabel, _stoAmount, _stoValue) */\n      dup2\n      mstore\n      0x20\n      add\n        /* \"contracts/client.sol\":1391:1401  _stoAmount */\n      dup4\n        /* \"contracts/client.sol\":1367:1413  stocksWallet(_stoLabel, _stoAmount, _stoValue) */\n      dup2\n      mstore\n      0x20\n      add\n        /* \"contracts/client.sol\":1403:1412  _stoValue */\n      dup3\n        /* \"contracts/client.sol\":1367:1413  stocksWallet(_stoLabel, _stoAmount, _stoValue) */\n      dup2\n      mstore\n      pop\n        /* \"contracts/client.sol\":1331:1341  stoWallets */\n      0x05\n        /* \"contracts/client.sol\":1331:1353  stoWallets[clientAddr] */\n      0x00\n        /* \"contracts/client.sol\":1342:1352  clientAddr */\n      dup1\n      0x00\n      swap1\n      sload\n      swap1\n      0x0100\n      exp\n      swap1\n      div\n      0xffffffffffffffffffffffffffffffffffffffff\n      and\n        /* \"contracts/client.sol\":1331:1353  stoWallets[clientAddr] */\n      0xffffffffffffffffffffffffffffffffffffffff\n      and\n      0xffffffffffffffffffffffffffffffffffffffff\n      and\n      dup2\n      mstore\n      0x20\n      add\n      swap1\n      dup2\n      mstore\n      0x20\n      add\n      0x00\n      keccak256\n        /* \"contracts/client.sol\":1331:1364  stoWallets[clientAddr][stockAddr] */\n      0x00\n        /* \"contracts/client.sol\":1354:1363  stockAddr */\n      0x02\n      0x00\n      swap1\n      sload\n      swap1\n      0x0100\n      exp\n      swap1\n      div\n      0xffffffffffffffffffffffffffffffffffffffff\n      and\n        /* \"contracts/client.sol\":1331:1364  stoWallets[clientAddr][stockAddr] */\n      0xffffffffffffffffffffffffffffffffffffffff\n      and\n      0xffffffffffffffffffffffffffffffffffffffff\n      and\n      dup2\n      mstore\n      0x20\n      add\n      swap1\n      dup2\n      mstore\n      0x20\n      add\n      0x00\n      keccak256\n        /* \"contracts/client.sol\":1331:1413  stoWallets[clientAddr][stockAddr] = stocksWallet(_stoLabel, _stoAmount, _stoValue) */\n      0x00\n      dup3\n      add\n      mload\n      dup2\n      0x00\n      add\n      swap1\n      dup1\n      mload\n      swap1\n      0x20\n      add\n      swap1\n      tag_55\n      swap3\n      swap2\n      swap1\n      tag_56\n      jump\t// in\n    tag_55:\n      pop\n      0x20\n      dup3\n      add\n      mload\n      dup2\n      0x01\n      add\n      sstore\n      0x40\n      dup3\n      add\n      mload\n      dup2\n      0x02\n      add\n      sstore\n      swap1\n      pop\n      pop\n        /* \"contracts/client.sol\":1233:1421  function addStoWallet(string memory _stoLabel, uint _stoAmount, uint _stoValue) public {... */\n      pop\n      pop\n      pop\n      jump\t// out\n        /* \"contracts/client.sol\":1036:1225  function addCryWallet(string memory _cryLabel, uint _cryAmount, uint _cryValue) public {... */\n    tag_33:\n        /* \"contracts/client.sol\":1171:1217  cryptoWallet(_cryLabel, _cryAmount, _cryValue) */\n      mload(0x40)\n      dup1\n      0x60\n      add\n      0x40\n      mstore\n      dup1\n        /* \"contracts/client.sol\":1184:1193  _cryLabel */\n      dup5\n        /* \"contracts/client.sol\":1171:1217  cryptoWallet(_cryLabel, _cryAmount, _cryValue) */\n      dup2\n      mstore\n      0x20\n      add\n        /* \"contracts/client.sol\":1195:1205  _cryAmount */\n      dup4\n        /* \"contracts/client.sol\":1171:1217  cryptoWallet(_cryLabel, _cryAmount, _cryValue) */\n      dup2\n      mstore\n      0x20\n      add\n        /* \"contracts/client.sol\":1207:1216  _cryValue */\n      dup3\n        /* \"contracts/client.sol\":1171:1217  cryptoWallet(_cryLabel, _cryAmount, _cryValue) */\n      dup2\n      mstore\n      pop\n        /* \"contracts/client.sol\":1134:1144  cryWallets */\n      0x04\n        /* \"contracts/client.sol\":1134:1156  cryWallets[clientAddr] */\n      0x00\n        /* \"contracts/client.sol\":1145:1155  clientAddr */\n      dup1\n      0x00\n      swap1\n      sload\n      swap1\n      0x0100\n      exp\n      swap1\n      div\n      0xffffffffffffffffffffffffffffffffffffffff\n      and\n        /* \"contracts/client.sol\":1134:1156  cryWallets[clientAddr] */\n      0xffffffffffffffffffffffffffffffffffffffff\n      and\n      0xffffffffffffffffffffffffffffffffffffffff\n      and\n      dup2\n      mstore\n      0x20\n      add\n      swap1\n      dup2\n      mstore\n      0x20\n      add\n      0x00\n      keccak256\n        /* \"contracts/client.sol\":1134:1168  cryWallets[clientAddr][cryptoAddr] */\n      0x00\n        /* \"contracts/client.sol\":1157:1167  cryptoAddr */\n      0x01\n      0x00\n      swap1\n      sload\n      swap1\n      0x0100\n      exp\n      swap1\n      div\n      0xffffffffffffffffffffffffffffffffffffffff\n      and\n        /* \"contracts/client.sol\":1134:1168  cryWallets[clientAddr][cryptoAddr] */\n      0xffffffffffffffffffffffffffffffffffffffff\n      and\n      0xffffffffffffffffffffffffffffffffffffffff\n      and\n      dup2\n      mstore\n      0x20\n      add\n      swap1\n      dup2\n      mstore\n      0x20\n      add\n      0x00\n      keccak256\n        /* \"contracts/client.sol\":1134:1217  cryWallets[clientAddr][cryptoAddr] = cryptoWallet(_cryLabel, _cryAmount, _cryValue) */\n      0x00\n      dup3\n      add\n      mload\n      dup2\n      0x00\n      add\n      swap1\n      dup1\n      mload\n      swap1\n      0x20\n      add\n      swap1\n      tag_58\n      swap3\n      swap2\n      swap1\n      tag_56\n      jump\t// in\n    tag_58:\n      pop\n      0x20\n      dup3\n      add\n      mload\n      dup2\n      0x01\n      add\n      sstore\n      0x40\n      dup3\n      add\n      mload\n      dup2\n      0x02\n      add\n      sstore\n      swap1\n      pop\n      pop\n        /* \"contracts/client.sol\":1036:1225  function addCryWallet(string memory _cryLabel, uint _cryAmount, uint _cryValue) public {... */\n      pop\n      pop\n      pop\n      jump\t// out\n        /* \"contracts/client.sol\":100:125  address public cryptoAddr */\n    tag_35:\n      0x01\n      0x00\n      swap1\n      sload\n      swap1\n      0x0100\n      exp\n      swap1\n      div\n      0xffffffffffffffffffffffffffffffffffffffff\n      and\n      dup2\n      jump\t// out\n        /* \"contracts/client.sol\":494:536  mapping (address => client) public clients */\n    tag_40:\n      mstore(0x20, 0x03)\n      dup1\n      0x00\n      mstore\n      keccak256(0x00, 0x40)\n      0x00\n      swap2\n      pop\n      swap1\n      pop\n      dup1\n      0x00\n      add\n      0x00\n      swap1\n      sload\n      swap1\n      0x0100\n      exp\n      swap1\n      div\n      0xffffffffffffffffffffffffffffffffffffffff\n      and\n      swap1\n      dup1\n      0x01\n      add\n      0x00\n      swap1\n      sload\n      swap1\n      0x0100\n      exp\n      swap1\n      div\n      0xffffffffffffffffffffffffffffffffffffffff\n      and\n      swap1\n      pop\n      dup3\n      jump\t// out\n        /* \"contracts/client.sol\":545:616  mapping (address => mapping(address => cryptoWallet)) public cryWallets */\n    tag_45:\n      mstore(0x20, 0x04)\n      dup2\n      0x00\n      mstore\n      mstore(0x20, keccak256(0x00, 0x40))\n      dup1\n      0x00\n      mstore\n      keccak256(0x00, 0x40)\n      0x00\n      swap2\n      pop\n      swap2\n      pop\n      pop\n      dup1\n      0x00\n      add\n      dup1\n      sload\n      tag_59\n      swap1\n      tag_60\n      jump\t// in\n    tag_59:\n      dup1\n      0x1f\n      add\n      0x20\n      dup1\n      swap2\n      div\n      mul\n      0x20\n      add\n      mload(0x40)\n      swap1\n      dup2\n      add\n      0x40\n      mstore\n      dup1\n      swap3\n      swap2\n      swap1\n      dup2\n      dup2\n      mstore\n      0x20\n      add\n      dup3\n      dup1\n      sload\n      tag_61\n      swap1\n      tag_60\n      jump\t// in\n    tag_61:\n      dup1\n      iszero\n      tag_62\n      jumpi\n      dup1\n      0x1f\n      lt\n      tag_63\n      jumpi\n      0x0100\n      dup1\n      dup4\n      sload\n      div\n      mul\n      dup4\n      mstore\n      swap2\n      0x20\n      add\n      swap2\n      jump(tag_62)\n    tag_63:\n      dup3\n      add\n      swap2\n      swap1\n      0x00\n      mstore\n      keccak256(0x00, 0x20)\n      swap1\n    tag_64:\n      dup2\n      sload\n      dup2\n      mstore\n      swap1\n      0x01\n      add\n      swap1\n      0x20\n      add\n      dup1\n      dup4\n      gt\n      tag_64\n      jumpi\n      dup3\n      swap1\n      sub\n      0x1f\n      and\n      dup3\n      add\n      swap2\n    tag_62:\n      pop\n      pop\n      pop\n      pop\n      pop\n      swap1\n      dup1\n      0x01\n      add\n      sload\n      swap1\n      dup1\n      0x02\n      add\n      sload\n      swap1\n      pop\n      dup4\n      jump\t// out\n        /* \"contracts/client.sol\":625:696  mapping (address => mapping(address => stocksWallet)) public stoWallets */\n    tag_50:\n      mstore(0x20, 0x05)\n      dup2\n      0x00\n      mstore\n      mstore(0x20, keccak256(0x00, 0x40))\n      dup1\n      0x00\n      mstore\n      keccak256(0x00, 0x40)\n      0x00\n      swap2\n      pop\n      swap2\n      pop\n      pop\n      dup1\n      0x00\n      add\n      dup1\n      sload\n      tag_65\n      swap1\n      tag_60\n      jump\t// in\n    tag_65:\n      dup1\n      0x1f\n      add\n      0x20\n      dup1\n      swap2\n      div\n      mul\n      0x20\n      add\n      mload(0x40)\n      swap1\n      dup2\n      add\n      0x40\n      mstore\n      dup1\n      swap3\n      swap2\n      swap1\n      dup2\n      dup2\n      mstore\n      0x20\n      add\n      dup3\n      dup1\n      sload\n      tag_66\n      swap1\n      tag_60\n      jump\t// in\n    tag_66:\n      dup1\n      iszero\n      tag_67\n      jumpi\n      dup1\n      0x1f\n      lt\n      tag_68\n      jumpi\n      0x0100\n      dup1\n      dup4\n      sload\n      div\n      mul\n      dup4\n      mstore\n      swap2\n      0x20\n      add\n      swap2\n      jump(tag_67)\n    tag_68:\n      dup3\n      add\n      swap2\n      swap1\n      0x00\n      mstore\n      keccak256(0x00, 0x20)\n      swap1\n    tag_69:\n      dup2\n      sload\n      dup2\n      mstore\n      swap1\n      0x01\n      add\n      swap1\n      0x20\n      add\n      dup1\n      dup4\n      gt\n      tag_69\n      jumpi\n      dup3\n      swap1\n      sub\n      0x1f\n      and\n      dup3\n      add\n      swap2\n    tag_67:\n      pop\n      pop\n      pop\n      pop\n      pop\n      swap1\n      dup1\n      0x01\n      add\n      sload\n      swap1\n      dup1\n      0x02\n      add\n      sload\n      swap1\n      pop\n      dup4\n      jump\t// out\n    tag_56:\n      dup3\n      dup1\n      sload\n      tag_70\n      swap1\n      tag_60\n      jump\t// in\n    tag_70:\n      swap1\n      0x00\n      mstore\n      keccak256(0x00, 0x20)\n      swap1\n      0x1f\n      add\n      0x20\n      swap1\n      div\n      dup2\n      add\n      swap3\n      dup3\n      tag_72\n      jumpi\n      0x00\n      dup6\n      sstore\n      jump(tag_71)\n    tag_72:\n      dup3\n      0x1f\n      lt\n      tag_73\n      jumpi\n      dup1\n      mload\n      not(0xff)\n      and\n      dup4\n      dup1\n      add\n      or\n      dup6\n      sstore\n      jump(tag_71)\n    tag_73:\n      dup3\n      dup1\n      add\n      0x01\n      add\n      dup6\n      sstore\n      dup3\n      iszero\n      tag_71\n      jumpi\n      swap2\n      dup3\n      add\n    tag_74:\n      dup3\n      dup2\n      gt\n      iszero\n      tag_75\n      jumpi\n      dup3\n      mload\n      dup3\n      sstore\n      swap2\n      0x20\n      add\n      swap2\n      swap1\n      0x01\n      add\n      swap1\n      jump(tag_74)\n    tag_75:\n    tag_71:\n      pop\n      swap1\n      pop\n      tag_76\n      swap2\n      swap1\n      tag_77\n      jump\t// in\n    tag_76:\n      pop\n      swap1\n      jump\t// out\n    tag_77:\n    tag_78:\n      dup1\n      dup3\n      gt\n      iszero\n      tag_79\n      jumpi\n      0x00\n      dup2\n      0x00\n      swap1\n      sstore\n      pop\n      0x01\n      add\n      jump(tag_78)\n    tag_79:\n      pop\n      swap1\n      jump\t// out\n        /* \"#utility.yul\":7:133   */\n    tag_80:\n        /* \"#utility.yul\":44:51   */\n      0x00\n        /* \"#utility.yul\":84:126   */\n      0xffffffffffffffffffffffffffffffffffffffff\n        /* \"#utility.yul\":77:82   */\n      dup3\n        /* \"#utility.yul\":73:127   */\n      and\n        /* \"#utility.yul\":62:127   */\n      swap1\n      pop\n        /* \"#utility.yul\":7:133   */\n      swap2\n      swap1\n      pop\n      jump\t// out\n        /* \"#utility.yul\":139:235   */\n    tag_81:\n        /* \"#utility.yul\":176:183   */\n      0x00\n        /* \"#utility.yul\":205:229   */\n      tag_110\n        /* \"#utility.yul\":223:228   */\n      dup3\n        /* \"#utility.yul\":205:229   */\n      tag_80\n      jump\t// in\n    tag_110:\n        /* \"#utility.yul\":194:229   */\n      swap1\n      pop\n        /* \"#utility.yul\":139:235   */\n      swap2\n      swap1\n      pop\n      jump\t// out\n        /* \"#utility.yul\":241:359   */\n    tag_82:\n        /* \"#utility.yul\":328:352   */\n      tag_112\n        /* \"#utility.yul\":346:351   */\n      dup2\n        /* \"#utility.yul\":328:352   */\n      tag_81\n      jump\t// in\n    tag_112:\n        /* \"#utility.yul\":323:326   */\n      dup3\n        /* \"#utility.yul\":316:353   */\n      mstore\n        /* \"#utility.yul\":241:359   */\n      pop\n      pop\n      jump\t// out\n        /* \"#utility.yul\":365:587   */\n    tag_17:\n        /* \"#utility.yul\":458:462   */\n      0x00\n        /* \"#utility.yul\":496:498   */\n      0x20\n        /* \"#utility.yul\":485:494   */\n      dup3\n        /* \"#utility.yul\":481:499   */\n      add\n        /* \"#utility.yul\":473:499   */\n      swap1\n      pop\n        /* \"#utility.yul\":509:580   */\n      tag_114\n        /* \"#utility.yul\":577:578   */\n      0x00\n        /* \"#utility.yul\":566:575   */\n      dup4\n        /* \"#utility.yul\":562:579   */\n      add\n        /* \"#utility.yul\":553:559   */\n      dup5\n        /* \"#utility.yul\":509:580   */\n      tag_82\n      jump\t// in\n    tag_114:\n        /* \"#utility.yul\":365:587   */\n      swap3\n      swap2\n      pop\n      pop\n      jump\t// out\n        /* \"#utility.yul\":593:668   */\n    tag_83:\n        /* \"#utility.yul\":626:632   */\n      0x00\n        /* \"#utility.yul\":659:661   */\n      0x40\n        /* \"#utility.yul\":653:662   */\n      mload\n        /* \"#utility.yul\":643:662   */\n      swap1\n      pop\n        /* \"#utility.yul\":593:668   */\n      swap1\n      jump\t// out\n        /* \"#utility.yul\":674:791   */\n    tag_84:\n        /* \"#utility.yul\":783:784   */\n      0x00\n        /* \"#utility.yul\":780:781   */\n      dup1\n        /* \"#utility.yul\":773:785   */\n      revert\n        /* \"#utility.yul\":797:914   */\n    tag_85:\n        /* \"#utility.yul\":906:907   */\n      0x00\n        /* \"#utility.yul\":903:904   */\n      dup1\n        /* \"#utility.yul\":896:908   */\n      revert\n        /* \"#utility.yul\":920:1042   */\n    tag_86:\n        /* \"#utility.yul\":993:1017   */\n      tag_119\n        /* \"#utility.yul\":1011:1016   */\n      dup2\n        /* \"#utility.yul\":993:1017   */\n      tag_81\n      jump\t// in\n    tag_119:\n        /* \"#utility.yul\":986:991   */\n      dup2\n        /* \"#utility.yul\":983:1018   */\n      eq\n        /* \"#utility.yul\":973:1036   */\n      tag_120\n      jumpi\n        /* \"#utility.yul\":1032:1033   */\n      0x00\n        /* \"#utility.yul\":1029:1030   */\n      dup1\n        /* \"#utility.yul\":1022:1034   */\n      revert\n        /* \"#utility.yul\":973:1036   */\n    tag_120:\n        /* \"#utility.yul\":920:1042   */\n      pop\n      jump\t// out\n        /* \"#utility.yul\":1048:1187   */\n    tag_87:\n        /* \"#utility.yul\":1094:1099   */\n      0x00\n        /* \"#utility.yul\":1132:1138   */\n      dup2\n        /* \"#utility.yul\":1119:1139   */\n      calldataload\n        /* \"#utility.yul\":1110:1139   */\n      swap1\n      pop\n        /* \"#utility.yul\":1148:1181   */\n      tag_122\n        /* \"#utility.yul\":1175:1180   */\n      dup2\n        /* \"#utility.yul\":1148:1181   */\n      tag_86\n      jump\t// in\n    tag_122:\n        /* \"#utility.yul\":1048:1187   */\n      swap3\n      swap2\n      pop\n      pop\n      jump\t// out\n        /* \"#utility.yul\":1193:1667   */\n    tag_20:\n        /* \"#utility.yul\":1261:1267   */\n      0x00\n        /* \"#utility.yul\":1269:1275   */\n      dup1\n        /* \"#utility.yul\":1318:1320   */\n      0x40\n        /* \"#utility.yul\":1306:1315   */\n      dup4\n        /* \"#utility.yul\":1297:1304   */\n      dup6\n        /* \"#utility.yul\":1293:1316   */\n      sub\n        /* \"#utility.yul\":1289:1321   */\n      slt\n        /* \"#utility.yul\":1286:1405   */\n      iszero\n      tag_124\n      jumpi\n        /* \"#utility.yul\":1324:1403   */\n      tag_125\n      tag_84\n      jump\t// in\n    tag_125:\n        /* \"#utility.yul\":1286:1405   */\n    tag_124:\n        /* \"#utility.yul\":1444:1445   */\n      0x00\n        /* \"#utility.yul\":1469:1522   */\n      tag_126\n        /* \"#utility.yul\":1514:1521   */\n      dup6\n        /* \"#utility.yul\":1505:1511   */\n      dup3\n        /* \"#utility.yul\":1494:1503   */\n      dup7\n        /* \"#utility.yul\":1490:1512   */\n      add\n        /* \"#utility.yul\":1469:1522   */\n      tag_87\n      jump\t// in\n    tag_126:\n        /* \"#utility.yul\":1459:1522   */\n      swap3\n      pop\n        /* \"#utility.yul\":1415:1532   */\n      pop\n        /* \"#utility.yul\":1571:1573   */\n      0x20\n        /* \"#utility.yul\":1597:1650   */\n      tag_127\n        /* \"#utility.yul\":1642:1649   */\n      dup6\n        /* \"#utility.yul\":1633:1639   */\n      dup3\n        /* \"#utility.yul\":1622:1631   */\n      dup7\n        /* \"#utility.yul\":1618:1640   */\n      add\n        /* \"#utility.yul\":1597:1650   */\n      tag_87\n      jump\t// in\n    tag_127:\n        /* \"#utility.yul\":1587:1650   */\n      swap2\n      pop\n        /* \"#utility.yul\":1542:1660   */\n      pop\n        /* \"#utility.yul\":1193:1667   */\n      swap3\n      pop\n      swap3\n      swap1\n      pop\n      jump\t// out\n        /* \"#utility.yul\":1673:1790   */\n    tag_88:\n        /* \"#utility.yul\":1782:1783   */\n      0x00\n        /* \"#utility.yul\":1779:1780   */\n      dup1\n        /* \"#utility.yul\":1772:1784   */\n      revert\n        /* \"#utility.yul\":1796:1913   */\n    tag_89:\n        /* \"#utility.yul\":1905:1906   */\n      0x00\n        /* \"#utility.yul\":1902:1903   */\n      dup1\n        /* \"#utility.yul\":1895:1907   */\n      revert\n        /* \"#utility.yul\":1919:2021   */\n    tag_90:\n        /* \"#utility.yul\":1960:1966   */\n      0x00\n        /* \"#utility.yul\":2011:2013   */\n      0x1f\n        /* \"#utility.yul\":2007:2014   */\n      not\n        /* \"#utility.yul\":2002:2004   */\n      0x1f\n        /* \"#utility.yul\":1995:2000   */\n      dup4\n        /* \"#utility.yul\":1991:2005   */\n      add\n        /* \"#utility.yul\":1987:2015   */\n      and\n        /* \"#utility.yul\":1977:2015   */\n      swap1\n      pop\n        /* \"#utility.yul\":1919:2021   */\n      swap2\n      swap1\n      pop\n      jump\t// out\n        /* \"#utility.yul\":2027:2207   */\n    tag_91:\n        /* \"#utility.yul\":2075:2152   */\n      0x4e487b7100000000000000000000000000000000000000000000000000000000\n        /* \"#utility.yul\":2072:2073   */\n      0x00\n        /* \"#utility.yul\":2065:2153   */\n      mstore\n        /* \"#utility.yul\":2172:2176   */\n      0x41\n        /* \"#utility.yul\":2169:2170   */\n      0x04\n        /* \"#utility.yul\":2162:2177   */\n      mstore\n        /* \"#utility.yul\":2196:2200   */\n      0x24\n        /* \"#utility.yul\":2193:2194   */\n      0x00\n        /* \"#utility.yul\":2186:2201   */\n      revert\n        /* \"#utility.yul\":2213:2494   */\n    tag_92:\n        /* \"#utility.yul\":2296:2323   */\n      tag_133\n        /* \"#utility.yul\":2318:2322   */\n      dup3\n        /* \"#utility.yul\":2296:2323   */\n      tag_90\n      jump\t// in\n    tag_133:\n        /* \"#utility.yul\":2288:2294   */\n      dup2\n        /* \"#utility.yul\":2284:2324   */\n      add\n        /* \"#utility.yul\":2426:2432   */\n      dup2\n        /* \"#utility.yul\":2414:2424   */\n      dup2\n        /* \"#utility.yul\":2411:2433   */\n      lt\n        /* \"#utility.yul\":2390:2408   */\n      0xffffffffffffffff\n        /* \"#utility.yul\":2378:2388   */\n      dup3\n        /* \"#utility.yul\":2375:2409   */\n      gt\n        /* \"#utility.yul\":2372:2434   */\n      or\n        /* \"#utility.yul\":2369:2457   */\n      iszero\n      tag_134\n      jumpi\n        /* \"#utility.yul\":2437:2455   */\n      tag_135\n      tag_91\n      jump\t// in\n    tag_135:\n        /* \"#utility.yul\":2369:2457   */\n    tag_134:\n        /* \"#utility.yul\":2477:2487   */\n      dup1\n        /* \"#utility.yul\":2473:2475   */\n      0x40\n        /* \"#utility.yul\":2466:2488   */\n      mstore\n        /* \"#utility.yul\":2256:2494   */\n      pop\n        /* \"#utility.yul\":2213:2494   */\n      pop\n      pop\n      jump\t// out\n        /* \"#utility.yul\":2500:2629   */\n    tag_93:\n        /* \"#utility.yul\":2534:2540   */\n      0x00\n        /* \"#utility.yul\":2561:2581   */\n      tag_137\n      tag_83\n      jump\t// in\n    tag_137:\n        /* \"#utility.yul\":2551:2581   */\n      swap1\n      pop\n        /* \"#utility.yul\":2590:2623   */\n      tag_138\n        /* \"#utility.yul\":2618:2622   */\n      dup3\n        /* \"#utility.yul\":2610:2616   */\n      dup3\n        /* \"#utility.yul\":2590:2623   */\n      tag_92\n      jump\t// in\n    tag_138:\n        /* \"#utility.yul\":2500:2629   */\n      swap2\n      swap1\n      pop\n      jump\t// out\n        /* \"#utility.yul\":2635:2943   */\n    tag_94:\n        /* \"#utility.yul\":2697:2701   */\n      0x00\n        /* \"#utility.yul\":2787:2805   */\n      0xffffffffffffffff\n        /* \"#utility.yul\":2779:2785   */\n      dup3\n        /* \"#utility.yul\":2776:2806   */\n      gt\n        /* \"#utility.yul\":2773:2829   */\n      iszero\n      tag_140\n      jumpi\n        /* \"#utility.yul\":2809:2827   */\n      tag_141\n      tag_91\n      jump\t// in\n    tag_141:\n        /* \"#utility.yul\":2773:2829   */\n    tag_140:\n        /* \"#utility.yul\":2847:2876   */\n      tag_142\n        /* \"#utility.yul\":2869:2875   */\n      dup3\n        /* \"#utility.yul\":2847:2876   */\n      tag_90\n      jump\t// in\n    tag_142:\n        /* \"#utility.yul\":2839:2876   */\n      swap1\n      pop\n        /* \"#utility.yul\":2931:2935   */\n      0x20\n        /* \"#utility.yul\":2925:2929   */\n      dup2\n        /* \"#utility.yul\":2921:2936   */\n      add\n        /* \"#utility.yul\":2913:2936   */\n      swap1\n      pop\n        /* \"#utility.yul\":2635:2943   */\n      swap2\n      swap1\n      pop\n      jump\t// out\n        /* \"#utility.yul\":2949:3103   */\n    tag_95:\n        /* \"#utility.yul\":3033:3039   */\n      dup3\n        /* \"#utility.yul\":3028:3031   */\n      dup2\n        /* \"#utility.yul\":3023:3026   */\n      dup4\n        /* \"#utility.yul\":3010:3040   */\n      calldatacopy\n        /* \"#utility.yul\":3095:3096   */\n      0x00\n        /* \"#utility.yul\":3086:3092   */\n      dup4\n        /* \"#utility.yul\":3081:3084   */\n      dup4\n        /* \"#utility.yul\":3077:3093   */\n      add\n        /* \"#utility.yul\":3070:3097   */\n      mstore\n        /* \"#utility.yul\":2949:3103   */\n      pop\n      pop\n      pop\n      jump\t// out\n        /* \"#utility.yul\":3109:3521   */\n    tag_96:\n        /* \"#utility.yul\":3187:3192   */\n      0x00\n        /* \"#utility.yul\":3212:3278   */\n      tag_145\n        /* \"#utility.yul\":3228:3277   */\n      tag_146\n        /* \"#utility.yul\":3270:3276   */\n      dup5\n        /* \"#utility.yul\":3228:3277   */\n      tag_94\n      jump\t// in\n    tag_146:\n        /* \"#utility.yul\":3212:3278   */\n      tag_93\n      jump\t// in\n    tag_145:\n        /* \"#utility.yul\":3203:3278   */\n      swap1\n      pop\n        /* \"#utility.yul\":3301:3307   */\n      dup3\n        /* \"#utility.yul\":3294:3299   */\n      dup2\n        /* \"#utility.yul\":3287:3308   */\n      mstore\n        /* \"#utility.yul\":3339:3343   */\n      0x20\n        /* \"#utility.yul\":3332:3337   */\n      dup2\n        /* \"#utility.yul\":3328:3344   */\n      add\n        /* \"#utility.yul\":3377:3380   */\n      dup5\n        /* \"#utility.yul\":3368:3374   */\n      dup5\n        /* \"#utility.yul\":3363:3366   */\n      dup5\n        /* \"#utility.yul\":3359:3375   */\n      add\n        /* \"#utility.yul\":3356:3381   */\n      gt\n        /* \"#utility.yul\":3353:3465   */\n      iszero\n      tag_147\n      jumpi\n        /* \"#utility.yul\":3384:3463   */\n      tag_148\n      tag_89\n      jump\t// in\n    tag_148:\n        /* \"#utility.yul\":3353:3465   */\n    tag_147:\n        /* \"#utility.yul\":3474:3515   */\n      tag_149\n        /* \"#utility.yul\":3508:3514   */\n      dup5\n        /* \"#utility.yul\":3503:3506   */\n      dup3\n        /* \"#utility.yul\":3498:3501   */\n      dup6\n        /* \"#utility.yul\":3474:3515   */\n      tag_95\n      jump\t// in\n    tag_149:\n        /* \"#utility.yul\":3193:3521   */\n      pop\n        /* \"#utility.yul\":3109:3521   */\n      swap4\n      swap3\n      pop\n      pop\n      pop\n      jump\t// out\n        /* \"#utility.yul\":3541:3881   */\n    tag_97:\n        /* \"#utility.yul\":3597:3602   */\n      0x00\n        /* \"#utility.yul\":3646:3649   */\n      dup3\n        /* \"#utility.yul\":3639:3643   */\n      0x1f\n        /* \"#utility.yul\":3631:3637   */\n      dup4\n        /* \"#utility.yul\":3627:3644   */\n      add\n        /* \"#utility.yul\":3623:3650   */\n      slt\n        /* \"#utility.yul\":3613:3735   */\n      tag_151\n      jumpi\n        /* \"#utility.yul\":3654:3733   */\n      tag_152\n      tag_88\n      jump\t// in\n    tag_152:\n        /* \"#utility.yul\":3613:3735   */\n    tag_151:\n        /* \"#utility.yul\":3771:3777   */\n      dup2\n        /* \"#utility.yul\":3758:3778   */\n      calldataload\n        /* \"#utility.yul\":3796:3875   */\n      tag_153\n        /* \"#utility.yul\":3871:3874   */\n      dup5\n        /* \"#utility.yul\":3863:3869   */\n      dup3\n        /* \"#utility.yul\":3856:3860   */\n      0x20\n        /* \"#utility.yul\":3848:3854   */\n      dup7\n        /* \"#utility.yul\":3844:3861   */\n      add\n        /* \"#utility.yul\":3796:3875   */\n      tag_96\n      jump\t// in\n    tag_153:\n        /* \"#utility.yul\":3787:3875   */\n      swap2\n      pop\n        /* \"#utility.yul\":3603:3881   */\n      pop\n        /* \"#utility.yul\":3541:3881   */\n      swap3\n      swap2\n      pop\n      pop\n      jump\t// out\n        /* \"#utility.yul\":3887:3964   */\n    tag_98:\n        /* \"#utility.yul\":3924:3931   */\n      0x00\n        /* \"#utility.yul\":3953:3958   */\n      dup2\n        /* \"#utility.yul\":3942:3958   */\n      swap1\n      pop\n        /* \"#utility.yul\":3887:3964   */\n      swap2\n      swap1\n      pop\n      jump\t// out\n        /* \"#utility.yul\":3970:4092   */\n    tag_99:\n        /* \"#utility.yul\":4043:4067   */\n      tag_156\n        /* \"#utility.yul\":4061:4066   */\n      dup2\n        /* \"#utility.yul\":4043:4067   */\n      tag_98\n      jump\t// in\n    tag_156:\n        /* \"#utility.yul\":4036:4041   */\n      dup2\n        /* \"#utility.yul\":4033:4068   */\n      eq\n        /* \"#utility.yul\":4023:4086   */\n      tag_157\n      jumpi\n        /* \"#utility.yul\":4082:4083   */\n      0x00\n        /* \"#utility.yul\":4079:4080   */\n      dup1\n        /* \"#utility.yul\":4072:4084   */\n      revert\n        /* \"#utility.yul\":4023:4086   */\n    tag_157:\n        /* \"#utility.yul\":3970:4092   */\n      pop\n      jump\t// out\n        /* \"#utility.yul\":4098:4237   */\n    tag_100:\n        /* \"#utility.yul\":4144:4149   */\n      0x00\n        /* \"#utility.yul\":4182:4188   */\n      dup2\n        /* \"#utility.yul\":4169:4189   */\n      calldataload\n        /* \"#utility.yul\":4160:4189   */\n      swap1\n      pop\n        /* \"#utility.yul\":4198:4231   */\n      tag_159\n        /* \"#utility.yul\":4225:4230   */\n      dup2\n        /* \"#utility.yul\":4198:4231   */\n      tag_99\n      jump\t// in\n    tag_159:\n        /* \"#utility.yul\":4098:4237   */\n      swap3\n      swap2\n      pop\n      pop\n      jump\t// out\n        /* \"#utility.yul\":4243:5042   */\n    tag_29:\n        /* \"#utility.yul\":4330:4336   */\n      0x00\n        /* \"#utility.yul\":4338:4344   */\n      dup1\n        /* \"#utility.yul\":4346:4352   */\n      0x00\n        /* \"#utility.yul\":4395:4397   */\n      0x60\n        /* \"#utility.yul\":4383:4392   */\n      dup5\n        /* \"#utility.yul\":4374:4381   */\n      dup7\n        /* \"#utility.yul\":4370:4393   */\n      sub\n        /* \"#utility.yul\":4366:4398   */\n      slt\n        /* \"#utility.yul\":4363:4482   */\n      iszero\n      tag_161\n      jumpi\n        /* \"#utility.yul\":4401:4480   */\n      tag_162\n      tag_84\n      jump\t// in\n    tag_162:\n        /* \"#utility.yul\":4363:4482   */\n    tag_161:\n        /* \"#utility.yul\":4549:4550   */\n      0x00\n        /* \"#utility.yul\":4538:4547   */\n      dup5\n        /* \"#utility.yul\":4534:4551   */\n      add\n        /* \"#utility.yul\":4521:4552   */\n      calldataload\n        /* \"#utility.yul\":4579:4597   */\n      0xffffffffffffffff\n        /* \"#utility.yul\":4571:4577   */\n      dup2\n        /* \"#utility.yul\":4568:4598   */\n      gt\n        /* \"#utility.yul\":4565:4682   */\n      iszero\n      tag_163\n      jumpi\n        /* \"#utility.yul\":4601:4680   */\n      tag_164\n      tag_85\n      jump\t// in\n    tag_164:\n        /* \"#utility.yul\":4565:4682   */\n    tag_163:\n        /* \"#utility.yul\":4706:4769   */\n      tag_165\n        /* \"#utility.yul\":4761:4768   */\n      dup7\n        /* \"#utility.yul\":4752:4758   */\n      dup3\n        /* \"#utility.yul\":4741:4750   */\n      dup8\n        /* \"#utility.yul\":4737:4759   */\n      add\n        /* \"#utility.yul\":4706:4769   */\n      tag_97\n      jump\t// in\n    tag_165:\n        /* \"#utility.yul\":4696:4769   */\n      swap4\n      pop\n        /* \"#utility.yul\":4492:4779   */\n      pop\n        /* \"#utility.yul\":4818:4820   */\n      0x20\n        /* \"#utility.yul\":4844:4897   */\n      tag_166\n        /* \"#utility.yul\":4889:4896   */\n      dup7\n        /* \"#utility.yul\":4880:4886   */\n      dup3\n        /* \"#utility.yul\":4869:4878   */\n      dup8\n        /* \"#utility.yul\":4865:4887   */\n      add\n        /* \"#utility.yul\":4844:4897   */\n      tag_100\n      jump\t// in\n    tag_166:\n        /* \"#utility.yul\":4834:4897   */\n      swap3\n      pop\n        /* \"#utility.yul\":4789:4907   */\n      pop\n        /* \"#utility.yul\":4946:4948   */\n      0x40\n        /* \"#utility.yul\":4972:5025   */\n      tag_167\n        /* \"#utility.yul\":5017:5024   */\n      dup7\n        /* \"#utility.yul\":5008:5014   */\n      dup3\n        /* \"#utility.yul\":4997:5006   */\n      dup8\n        /* \"#utility.yul\":4993:5015   */\n      add\n        /* \"#utility.yul\":4972:5025   */\n      tag_100\n      jump\t// in\n    tag_167:\n        /* \"#utility.yul\":4962:5025   */\n      swap2\n      pop\n        /* \"#utility.yul\":4917:5035   */\n      pop\n        /* \"#utility.yul\":4243:5042   */\n      swap3\n      pop\n      swap3\n      pop\n      swap3\n      jump\t// out\n        /* \"#utility.yul\":5048:5377   */\n    tag_39:\n        /* \"#utility.yul\":5107:5113   */\n      0x00\n        /* \"#utility.yul\":5156:5158   */\n      0x20\n        /* \"#utility.yul\":5144:5153   */\n      dup3\n        /* \"#utility.yul\":5135:5142   */\n      dup5\n        /* \"#utility.yul\":5131:5154   */\n      sub\n        /* \"#utility.yul\":5127:5159   */\n      slt\n        /* \"#utility.yul\":5124:5243   */\n      iszero\n      tag_169\n      jumpi\n        /* \"#utility.yul\":5162:5241   */\n      tag_170\n      tag_84\n      jump\t// in\n    tag_170:\n        /* \"#utility.yul\":5124:5243   */\n    tag_169:\n        /* \"#utility.yul\":5282:5283   */\n      0x00\n        /* \"#utility.yul\":5307:5360   */\n      tag_171\n        /* \"#utility.yul\":5352:5359   */\n      dup5\n        /* \"#utility.yul\":5343:5349   */\n      dup3\n        /* \"#utility.yul\":5332:5341   */\n      dup6\n        /* \"#utility.yul\":5328:5350   */\n      add\n        /* \"#utility.yul\":5307:5360   */\n      tag_87\n      jump\t// in\n    tag_171:\n        /* \"#utility.yul\":5297:5360   */\n      swap2\n      pop\n        /* \"#utility.yul\":5253:5370   */\n      pop\n        /* \"#utility.yul\":5048:5377   */\n      swap3\n      swap2\n      pop\n      pop\n      jump\t// out\n        /* \"#utility.yul\":5383:5715   */\n    tag_42:\n        /* \"#utility.yul\":5504:5508   */\n      0x00\n        /* \"#utility.yul\":5542:5544   */\n      0x40\n        /* \"#utility.yul\":5531:5540   */\n      dup3\n        /* \"#utility.yul\":5527:5545   */\n      add\n        /* \"#utility.yul\":5519:5545   */\n      swap1\n      pop\n        /* \"#utility.yul\":5555:5626   */\n      tag_173\n        /* \"#utility.yul\":5623:5624   */\n      0x00\n        /* \"#utility.yul\":5612:5621   */\n      dup4\n        /* \"#utility.yul\":5608:5625   */\n      add\n        /* \"#utility.yul\":5599:5605   */\n      dup6\n        /* \"#utility.yul\":5555:5626   */\n      tag_82\n      jump\t// in\n    tag_173:\n        /* \"#utility.yul\":5636:5708   */\n      tag_174\n        /* \"#utility.yul\":5704:5706   */\n      0x20\n        /* \"#utility.yul\":5693:5702   */\n      dup4\n        /* \"#utility.yul\":5689:5707   */\n      add\n        /* \"#utility.yul\":5680:5686   */\n      dup5\n        /* \"#utility.yul\":5636:5708   */\n      tag_82\n      jump\t// in\n    tag_174:\n        /* \"#utility.yul\":5383:5715   */\n      swap4\n      swap3\n      pop\n      pop\n      pop\n      jump\t// out\n        /* \"#utility.yul\":5721:5820   */\n    tag_101:\n        /* \"#utility.yul\":5773:5779   */\n      0x00\n        /* \"#utility.yul\":5807:5812   */\n      dup2\n        /* \"#utility.yul\":5801:5813   */\n      mload\n        /* \"#utility.yul\":5791:5813   */\n      swap1\n      pop\n        /* \"#utility.yul\":5721:5820   */\n      swap2\n      swap1\n      pop\n      jump\t// out\n        /* \"#utility.yul\":5826:5995   */\n    tag_102:\n        /* \"#utility.yul\":5910:5921   */\n      0x00\n        /* \"#utility.yul\":5944:5950   */\n      dup3\n        /* \"#utility.yul\":5939:5942   */\n      dup3\n        /* \"#utility.yul\":5932:5951   */\n      mstore\n        /* \"#utility.yul\":5984:5988   */\n      0x20\n        /* \"#utility.yul\":5979:5982   */\n      dup3\n        /* \"#utility.yul\":5975:5989   */\n      add\n        /* \"#utility.yul\":5960:5989   */\n      swap1\n      pop\n        /* \"#utility.yul\":5826:5995   */\n      swap3\n      swap2\n      pop\n      pop\n      jump\t// out\n        /* \"#utility.yul\":6001:6308   */\n    tag_103:\n        /* \"#utility.yul\":6069:6070   */\n      0x00\n        /* \"#utility.yul\":6079:6192   */\n    tag_178:\n        /* \"#utility.yul\":6093:6099   */\n      dup4\n        /* \"#utility.yul\":6090:6091   */\n      dup2\n        /* \"#utility.yul\":6087:6100   */\n      lt\n        /* \"#utility.yul\":6079:6192   */\n      iszero\n      tag_180\n      jumpi\n        /* \"#utility.yul\":6178:6179   */\n      dup1\n        /* \"#utility.yul\":6173:6176   */\n      dup3\n        /* \"#utility.yul\":6169:6180   */\n      add\n        /* \"#utility.yul\":6163:6181   */\n      mload\n        /* \"#utility.yul\":6159:6160   */\n      dup2\n        /* \"#utility.yul\":6154:6157   */\n      dup5\n        /* \"#utility.yul\":6150:6161   */\n      add\n        /* \"#utility.yul\":6143:6182   */\n      mstore\n        /* \"#utility.yul\":6115:6117   */\n      0x20\n        /* \"#utility.yul\":6112:6113   */\n      dup2\n        /* \"#utility.yul\":6108:6118   */\n      add\n        /* \"#utility.yul\":6103:6118   */\n      swap1\n      pop\n        /* \"#utility.yul\":6079:6192   */\n      jump(tag_178)\n    tag_180:\n        /* \"#utility.yul\":6210:6216   */\n      dup4\n        /* \"#utility.yul\":6207:6208   */\n      dup2\n        /* \"#utility.yul\":6204:6217   */\n      gt\n        /* \"#utility.yul\":6201:6302   */\n      iszero\n      tag_181\n      jumpi\n        /* \"#utility.yul\":6290:6291   */\n      0x00\n        /* \"#utility.yul\":6281:6287   */\n      dup5\n        /* \"#utility.yul\":6276:6279   */\n      dup5\n        /* \"#utility.yul\":6272:6288   */\n      add\n        /* \"#utility.yul\":6265:6292   */\n      mstore\n        /* \"#utility.yul\":6201:6302   */\n    tag_181:\n        /* \"#utility.yul\":6050:6308   */\n      pop\n        /* \"#utility.yul\":6001:6308   */\n      pop\n      pop\n      pop\n      jump\t// out\n        /* \"#utility.yul\":6314:6678   */\n    tag_104:\n        /* \"#utility.yul\":6402:6405   */\n      0x00\n        /* \"#utility.yul\":6430:6469   */\n      tag_183\n        /* \"#utility.yul\":6463:6468   */\n      dup3\n        /* \"#utility.yul\":6430:6469   */\n      tag_101\n      jump\t// in\n    tag_183:\n        /* \"#utility.yul\":6485:6556   */\n      tag_184\n        /* \"#utility.yul\":6549:6555   */\n      dup2\n        /* \"#utility.yul\":6544:6547   */\n      dup6\n        /* \"#utility.yul\":6485:6556   */\n      tag_102\n      jump\t// in\n    tag_184:\n        /* \"#utility.yul\":6478:6556   */\n      swap4\n      pop\n        /* \"#utility.yul\":6565:6617   */\n      tag_185\n        /* \"#utility.yul\":6610:6616   */\n      dup2\n        /* \"#utility.yul\":6605:6608   */\n      dup6\n        /* \"#utility.yul\":6598:6602   */\n      0x20\n        /* \"#utility.yul\":6591:6596   */\n      dup7\n        /* \"#utility.yul\":6587:6603   */\n      add\n        /* \"#utility.yul\":6565:6617   */\n      tag_103\n      jump\t// in\n    tag_185:\n        /* \"#utility.yul\":6642:6671   */\n      tag_186\n        /* \"#utility.yul\":6664:6670   */\n      dup2\n        /* \"#utility.yul\":6642:6671   */\n      tag_90\n      jump\t// in\n    tag_186:\n        /* \"#utility.yul\":6637:6640   */\n      dup5\n        /* \"#utility.yul\":6633:6672   */\n      add\n        /* \"#utility.yul\":6626:6672   */\n      swap2\n      pop\n        /* \"#utility.yul\":6406:6678   */\n      pop\n        /* \"#utility.yul\":6314:6678   */\n      swap3\n      swap2\n      pop\n      pop\n      jump\t// out\n        /* \"#utility.yul\":6684:6802   */\n    tag_105:\n        /* \"#utility.yul\":6771:6795   */\n      tag_188\n        /* \"#utility.yul\":6789:6794   */\n      dup2\n        /* \"#utility.yul\":6771:6795   */\n      tag_98\n      jump\t// in\n    tag_188:\n        /* \"#utility.yul\":6766:6769   */\n      dup3\n        /* \"#utility.yul\":6759:6796   */\n      mstore\n        /* \"#utility.yul\":6684:6802   */\n      pop\n      pop\n      jump\t// out\n        /* \"#utility.yul\":6808:7341   */\n    tag_47:\n        /* \"#utility.yul\":6977:6981   */\n      0x00\n        /* \"#utility.yul\":7015:7017   */\n      0x60\n        /* \"#utility.yul\":7004:7013   */\n      dup3\n        /* \"#utility.yul\":7000:7018   */\n      add\n        /* \"#utility.yul\":6992:7018   */\n      swap1\n      pop\n        /* \"#utility.yul\":7064:7073   */\n      dup2\n        /* \"#utility.yul\":7058:7062   */\n      dup2\n        /* \"#utility.yul\":7054:7074   */\n      sub\n        /* \"#utility.yul\":7050:7051   */\n      0x00\n        /* \"#utility.yul\":7039:7048   */\n      dup4\n        /* \"#utility.yul\":7035:7052   */\n      add\n        /* \"#utility.yul\":7028:7075   */\n      mstore\n        /* \"#utility.yul\":7092:7170   */\n      tag_190\n        /* \"#utility.yul\":7165:7169   */\n      dup2\n        /* \"#utility.yul\":7156:7162   */\n      dup7\n        /* \"#utility.yul\":7092:7170   */\n      tag_104\n      jump\t// in\n    tag_190:\n        /* \"#utility.yul\":7084:7170   */\n      swap1\n      pop\n        /* \"#utility.yul\":7180:7252   */\n      tag_191\n        /* \"#utility.yul\":7248:7250   */\n      0x20\n        /* \"#utility.yul\":7237:7246   */\n      dup4\n        /* \"#utility.yul\":7233:7251   */\n      add\n        /* \"#utility.yul\":7224:7230   */\n      dup6\n        /* \"#utility.yul\":7180:7252   */\n      tag_105\n      jump\t// in\n    tag_191:\n        /* \"#utility.yul\":7262:7334   */\n      tag_192\n        /* \"#utility.yul\":7330:7332   */\n      0x40\n        /* \"#utility.yul\":7319:7328   */\n      dup4\n        /* \"#utility.yul\":7315:7333   */\n      add\n        /* \"#utility.yul\":7306:7312   */\n      dup5\n        /* \"#utility.yul\":7262:7334   */\n      tag_105\n      jump\t// in\n    tag_192:\n        /* \"#utility.yul\":6808:7341   */\n      swap5\n      swap4\n      pop\n      pop\n      pop\n      pop\n      jump\t// out\n        /* \"#utility.yul\":7347:7527   */\n    tag_106:\n        /* \"#utility.yul\":7395:7472   */\n      0x4e487b7100000000000000000000000000000000000000000000000000000000\n        /* \"#utility.yul\":7392:7393   */\n      0x00\n        /* \"#utility.yul\":7385:7473   */\n      mstore\n        /* \"#utility.yul\":7492:7496   */\n      0x22\n        /* \"#utility.yul\":7489:7490   */\n      0x04\n        /* \"#utility.yul\":7482:7497   */\n      mstore\n        /* \"#utility.yul\":7516:7520   */\n      0x24\n        /* \"#utility.yul\":7513:7514   */\n      0x00\n        /* \"#utility.yul\":7506:7521   */\n      revert\n        /* \"#utility.yul\":7533:7853   */\n    tag_60:\n        /* \"#utility.yul\":7577:7583   */\n      0x00\n        /* \"#utility.yul\":7614:7615   */\n      0x02\n        /* \"#utility.yul\":7608:7612   */\n      dup3\n        /* \"#utility.yul\":7604:7616   */\n      div\n        /* \"#utility.yul\":7594:7616   */\n      swap1\n      pop\n        /* \"#utility.yul\":7661:7662   */\n      0x01\n        /* \"#utility.yul\":7655:7659   */\n      dup3\n        /* \"#utility.yul\":7651:7663   */\n      and\n        /* \"#utility.yul\":7682:7700   */\n      dup1\n        /* \"#utility.yul\":7672:7753   */\n      tag_195\n      jumpi\n        /* \"#utility.yul\":7738:7742   */\n      0x7f\n        /* \"#utility.yul\":7730:7736   */\n      dup3\n        /* \"#utility.yul\":7726:7743   */\n      and\n        /* \"#utility.yul\":7716:7743   */\n      swap2\n      pop\n        /* \"#utility.yul\":7672:7753   */\n    tag_195:\n        /* \"#utility.yul\":7800:7802   */\n      0x20\n        /* \"#utility.yul\":7792:7798   */\n      dup3\n        /* \"#utility.yul\":7789:7803   */\n      lt\n        /* \"#utility.yul\":7769:7787   */\n      dup2\n        /* \"#utility.yul\":7766:7804   */\n      eq\n        /* \"#utility.yul\":7763:7847   */\n      iszero\n      tag_196\n      jumpi\n        /* \"#utility.yul\":7819:7837   */\n      tag_197\n      tag_106\n      jump\t// in\n    tag_197:\n        /* \"#utility.yul\":7763:7847   */\n    tag_196:\n        /* \"#utility.yul\":7584:7853   */\n      pop\n        /* \"#utility.yul\":7533:7853   */\n      swap2\n      swap1\n      pop\n      jump\t// out\n\n    auxdata: 0xa264697066735822122096eb06bbfc3a9bd28fc8bedb1120983197c4be6bb5546dec8d488c51b9cc4d8e64736f6c634300080c0033\n}\n",
				"bytecode": {
					"linkReferences": {},
					"object": "608060405234801561001057600080fd5b50610dd2806100206000396000f3fe608060405234801561001057600080fd5b506004361061009e5760003560e01c80633dbab7e6116100665780633dbab7e6146101215780635349b95f1461013d57806361eed2a91461015b578063898f27f21461018c5780638dea3fd8146101be5761009e565b806309e04aad146100a357806316691869146100c157806327a5906b146100dd5780632c2ab5ea146100fb5780633b811c1c14610105575b600080fd5b6100ab6101f0565b6040516100b8919061098a565b60405180910390f35b6100db60048036038101906100d691906109e5565b610214565b005b6100e5610410565b6040516100f2919061098a565b60405180910390f35b610103610436565b005b61011f600480360381019061011a9190610ba1565b610478565b005b61013b60048036038101906101369190610ba1565b61058b565b005b61014561069e565b604051610152919061098a565b60405180910390f35b61017560048036038101906101709190610c10565b6106c4565b604051610183929190610c3d565b60405180910390f35b6101a660048036038101906101a191906109e5565b610728565b6040516101b593929190610cfd565b60405180910390f35b6101d860048036038101906101d391906109e5565b6107e7565b6040516101e793929190610cfd565b60405180910390f35b60008054906101000a900473ffffffffffffffffffffffffffffffffffffffff1681565b81600160006101000a81548173ffffffffffffffffffffffffffffffffffffffff021916908373ffffffffffffffffffffffffffffffffffffffff16021790555080600260006101000a81548173ffffffffffffffffffffffffffffffffffffffff021916908373ffffffffffffffffffffffffffffffffffffffff1602179055506040518060400160405280600160009054906101000a900473ffffffffffffffffffffffffffffffffffffffff1673ffffffffffffffffffffffffffffffffffffffff168152602001600260009054906101000a900473ffffffffffffffffffffffffffffffffffffffff1673ffffffffffffffffffffffffffffffffffffffff16815250600360008060009054906101000a900473ffffffffffffffffffffffffffffffffffffffff1673ffffffffffffffffffffffffffffffffffffffff1673ffffffffffffffffffffffffffffffffffffffff16815260200190815260200160002060008201518160000160006101000a81548173ffffffffffffffffffffffffffffffffffffffff021916908373ffffffffffffffffffffffffffffffffffffffff16021790555060208201518160010160006101000a81548173ffffffffffffffffffffffffffffffffffffffff021916908373ffffffffffffffffffffffffffffffffffffffff1602179055509050505050565b600260009054906101000a900473ffffffffffffffffffffffffffffffffffffffff1681565b336000806101000a81548173ffffffffffffffffffffffffffffffffffffffff021916908373ffffffffffffffffffffffffffffffffffffffff160217905550565b604051806060016040528084815260200183815260200182815250600560008060009054906101000a900473ffffffffffffffffffffffffffffffffffffffff1673ffffffffffffffffffffffffffffffffffffffff1673ffffffffffffffffffffffffffffffffffffffff1681526020019081526020016000206000600260009054906101000a900473ffffffffffffffffffffffffffffffffffffffff1673ffffffffffffffffffffffffffffffffffffffff1673ffffffffffffffffffffffffffffffffffffffff168152602001908152602001600020600082015181600001908051906020019061056e9291906108a6565b506020820151816001015560408201518160020155905050505050565b604051806060016040528084815260200183815260200182815250600460008060009054906101000a900473ffffffffffffffffffffffffffffffffffffffff1673ffffffffffffffffffffffffffffffffffffffff1673ffffffffffffffffffffffffffffffffffffffff1681526020019081526020016000206000600160009054906101000a900473ffffffffffffffffffffffffffffffffffffffff1673ffffffffffffffffffffffffffffffffffffffff1673ffffffffffffffffffffffffffffffffffffffff16815260200190815260200160002060008201518160000190805190602001906106819291906108a6565b506020820151816001015560408201518160020155905050505050565b600160009054906101000a900473ffffffffffffffffffffffffffffffffffffffff1681565b60036020528060005260406000206000915090508060000160009054906101000a900473ffffffffffffffffffffffffffffffffffffffff16908060010160009054906101000a900473ffffffffffffffffffffffffffffffffffffffff16905082565b60046020528160005260406000206020528060005260406000206000915091505080600001805461075890610d6a565b80601f016020809104026020016040519081016040528092919081815260200182805461078490610d6a565b80156107d15780601f106107a6576101008083540402835291602001916107d1565b820191906000526020600020905b8154815290600101906020018083116107b457829003601f168201915b5050505050908060010154908060020154905083565b60056020528160005260406000206020528060005260406000206000915091505080600001805461081790610d6a565b80601f016020809104026020016040519081016040528092919081815260200182805461084390610d6a565b80156108905780601f1061086557610100808354040283529160200191610890565b820191906000526020600020905b81548152906001019060200180831161087357829003601f168201915b5050505050908060010154908060020154905083565b8280546108b290610d6a565b90600052602060002090601f0160209004810192826108d4576000855561091b565b82601f106108ed57805160ff191683800117855561091b565b8280016001018555821561091b579182015b8281111561091a5782518255916020019190600101906108ff565b5b509050610928919061092c565b5090565b5b8082111561094557600081600090555060010161092d565b5090565b600073ffffffffffffffffffffffffffffffffffffffff82169050919050565b600061097482610949565b9050919050565b61098481610969565b82525050565b600060208201905061099f600083018461097b565b92915050565b6000604051905090565b600080fd5b600080fd5b6109c281610969565b81146109cd57600080fd5b50565b6000813590506109df816109b9565b92915050565b600080604083850312156109fc576109fb6109af565b5b6000610a0a858286016109d0565b9250506020610a1b858286016109d0565b9150509250929050565b600080fd5b600080fd5b6000601f19601f8301169050919050565b7f4e487b7100000000000000000000000000000000000000000000000000000000600052604160045260246000fd5b610a7882610a2f565b810181811067ffffffffffffffff82111715610a9757610a96610a40565b5b80604052505050565b6000610aaa6109a5565b9050610ab68282610a6f565b919050565b600067ffffffffffffffff821115610ad657610ad5610a40565b5b610adf82610a2f565b9050602081019050919050565b82818337600083830152505050565b6000610b0e610b0984610abb565b610aa0565b905082815260208101848484011115610b2a57610b29610a2a565b5b610b35848285610aec565b509392505050565b600082601f830112610b5257610b51610a25565b5b8135610b62848260208601610afb565b91505092915050565b6000819050919050565b610b7e81610b6b565b8114610b8957600080fd5b50565b600081359050610b9b81610b75565b92915050565b600080600060608486031215610bba57610bb96109af565b5b600084013567ffffffffffffffff811115610bd857610bd76109b4565b5b610be486828701610b3d565b9350506020610bf586828701610b8c565b9250506040610c0686828701610b8c565b9150509250925092565b600060208284031215610c2657610c256109af565b5b6000610c34848285016109d0565b91505092915050565b6000604082019050610c52600083018561097b565b610c5f602083018461097b565b9392505050565b600081519050919050565b600082825260208201905092915050565b60005b83811015610ca0578082015181840152602081019050610c85565b83811115610caf576000848401525b50505050565b6000610cc082610c66565b610cca8185610c71565b9350610cda818560208601610c82565b610ce381610a2f565b840191505092915050565b610cf781610b6b565b82525050565b60006060820190508181036000830152610d178186610cb5565b9050610d266020830185610cee565b610d336040830184610cee565b949350505050565b7f4e487b7100000000000000000000000000000000000000000000000000000000600052602260045260246000fd5b60006002820490506001821680610d8257607f821691505b60208210811415610d9657610d95610d3b565b5b5091905056fea264697066735822122096eb06bbfc3a9bd28fc8bedb1120983197c4be6bb5546dec8d488c51b9cc4d8e64736f6c634300080c0033",
					"opcodes": "PUSH1 0x80 PUSH1 0x40 MSTORE CALLVALUE DUP1 ISZERO PUSH2 0x10 JUMPI PUSH1 0x0 DUP1 REVERT JUMPDEST POP PUSH2 0xDD2 DUP1 PUSH2 0x20 PUSH1 0x0 CODECOPY PUSH1 0x0 RETURN INVALID PUSH1 0x80 PUSH1 0x40 MSTORE CALLVALUE DUP1 ISZERO PUSH2 0x10 JUMPI PUSH1 0x0 DUP1 REVERT JUMPDEST POP PUSH1 0x4 CALLDATASIZE LT PUSH2 0x9E JUMPI PUSH1 0x0 CALLDATALOAD PUSH1 0xE0 SHR DUP1 PUSH4 0x3DBAB7E6 GT PUSH2 0x66 JUMPI DUP1 PUSH4 0x3DBAB7E6 EQ PUSH2 0x121 JUMPI DUP1 PUSH4 0x5349B95F EQ PUSH2 0x13D JUMPI DUP1 PUSH4 0x61EED2A9 EQ PUSH2 0x15B JUMPI DUP1 PUSH4 0x898F27F2 EQ PUSH2 0x18C JUMPI DUP1 PUSH4 0x8DEA3FD8 EQ PUSH2 0x1BE JUMPI PUSH2 0x9E JUMP JUMPDEST DUP1 PUSH4 0x9E04AAD EQ PUSH2 0xA3 JUMPI DUP1 PUSH4 0x16691869 EQ PUSH2 0xC1 JUMPI DUP1 PUSH4 0x27A5906B EQ PUSH2 0xDD JUMPI DUP1 PUSH4 0x2C2AB5EA EQ PUSH2 0xFB JUMPI DUP1 PUSH4 0x3B811C1C EQ PUSH2 0x105 JUMPI JUMPDEST PUSH1 0x0 DUP1 REVERT JUMPDEST PUSH2 0xAB PUSH2 0x1F0 JUMP JUMPDEST PUSH1 0x40 MLOAD PUSH2 0xB8 SWAP2 SWAP1 PUSH2 0x98A JUMP JUMPDEST PUSH1 0x40 MLOAD DUP1 SWAP2 SUB SWAP1 RETURN JUMPDEST PUSH2 0xDB PUSH1 0x4 DUP1 CALLDATASIZE SUB DUP2 ADD SWAP1 PUSH2 0xD6 SWAP2 SWAP1 PUSH2 0x9E5 JUMP JUMPDEST PUSH2 0x214 JUMP JUMPDEST STOP JUMPDEST PUSH2 0xE5 PUSH2 0x410 JUMP JUMPDEST PUSH1 0x40 MLOAD PUSH2 0xF2 SWAP2 SWAP1 PUSH2 0x98A JUMP JUMPDEST PUSH1 0x40 MLOAD DUP1 SWAP2 SUB SWAP1 RETURN JUMPDEST PUSH2 0x103 PUSH2 0x436 JUMP JUMPDEST STOP JUMPDEST PUSH2 0x11F PUSH1 0x4 DUP1 CALLDATASIZE SUB DUP2 ADD SWAP1 PUSH2 0x11A SWAP2 SWAP1 PUSH2 0xBA1 JUMP JUMPDEST PUSH2 0x478 JUMP JUMPDEST STOP JUMPDEST PUSH2 0x13B PUSH1 0x4 DUP1 CALLDATASIZE SUB DUP2 ADD SWAP1 PUSH2 0x136 SWAP2 SWAP1 PUSH2 0xBA1 JUMP JUMPDEST PUSH2 0x58B JUMP JUMPDEST STOP JUMPDEST PUSH2 0x145 PUSH2 0x69E JUMP JUMPDEST PUSH1 0x40 MLOAD PUSH2 0x152 SWAP2 SWAP1 PUSH2 0x98A JUMP JUMPDEST PUSH1 0x40 MLOAD DUP1 SWAP2 SUB SWAP1 RETURN JUMPDEST PUSH2 0x175 PUSH1 0x4 DUP1 CALLDATASIZE SUB DUP2 ADD SWAP1 PUSH2 0x170 SWAP2 SWAP1 PUSH2 0xC10 JUMP JUMPDEST PUSH2 0x6C4 JUMP JUMPDEST PUSH1 0x40 MLOAD PUSH2 0x183 SWAP3 SWAP2 SWAP1 PUSH2 0xC3D JUMP JUMPDEST PUSH1 0x40 MLOAD DUP1 SWAP2 SUB SWAP1 RETURN JUMPDEST PUSH2 0x1A6 PUSH1 0x4 DUP1 CALLDATASIZE SUB DUP2 ADD SWAP1 PUSH2 0x1A1 SWAP2 SWAP1 PUSH2 0x9E5 JUMP JUMPDEST PUSH2 0x728 JUMP JUMPDEST PUSH1 0x40 MLOAD PUSH2 0x1B5 SWAP4 SWAP3 SWAP2 SWAP1 PUSH2 0xCFD JUMP JUMPDEST PUSH1 0x40 MLOAD DUP1 SWAP2 SUB SWAP1 RETURN JUMPDEST PUSH2 0x1D8 PUSH1 0x4 DUP1 CALLDATASIZE SUB DUP2 ADD SWAP1 PUSH2 0x1D3 SWAP2 SWAP1 PUSH2 0x9E5 JUMP JUMPDEST PUSH2 0x7E7 JUMP JUMPDEST PUSH1 0x40 MLOAD PUSH2 0x1E7 SWAP4 SWAP3 SWAP2 SWAP1 PUSH2 0xCFD JUMP JUMPDEST PUSH1 0x40 MLOAD DUP1 SWAP2 SUB SWAP1 RETURN JUMPDEST PUSH1 0x0 DUP1 SLOAD SWAP1 PUSH2 0x100 EXP SWAP1 DIV PUSH20 0xFFFFFFFFFFFFFFFFFFFFFFFFFFFFFFFFFFFFFFFF AND DUP2 JUMP JUMPDEST DUP2 PUSH1 0x1 PUSH1 0x0 PUSH2 0x100 EXP DUP2 SLOAD DUP2 PUSH20 0xFFFFFFFFFFFFFFFFFFFFFFFFFFFFFFFFFFFFFFFF MUL NOT AND SWAP1 DUP4 PUSH20 0xFFFFFFFFFFFFFFFFFFFFFFFFFFFFFFFFFFFFFFFF AND MUL OR SWAP1 SSTORE POP DUP1 PUSH1 0x2 PUSH1 0x0 PUSH2 0x100 EXP DUP2 SLOAD DUP2 PUSH20 0xFFFFFFFFFFFFFFFFFFFFFFFFFFFFFFFFFFFFFFFF MUL NOT AND SWAP1 DUP4 PUSH20 0xFFFFFFFFFFFFFFFFFFFFFFFFFFFFFFFFFFFFFFFF AND MUL OR SWAP1 SSTORE POP PUSH1 0x40 MLOAD DUP1 PUSH1 0x40 ADD PUSH1 0x40 MSTORE DUP1 PUSH1 0x1 PUSH1 0x0 SWAP1 SLOAD SWAP1 PUSH2 0x100 EXP SWAP1 DIV PUSH20 0xFFFFFFFFFFFFFFFFFFFFFFFFFFFFFFFFFFFFFFFF AND PUSH20 0xFFFFFFFFFFFFFFFFFFFFFFFFFFFFFFFFFFFFFFFF AND DUP2 MSTORE PUSH1 0x20 ADD PUSH1 0x2 PUSH1 0x0 SWAP1 SLOAD SWAP1 PUSH2 0x100 EXP SWAP1 DIV PUSH20 0xFFFFFFFFFFFFFFFFFFFFFFFFFFFFFFFFFFFFFFFF AND PUSH20 0xFFFFFFFFFFFFFFFFFFFFFFFFFFFFFFFFFFFFFFFF AND DUP2 MSTORE POP PUSH1 0x3 PUSH1 0x0 DUP1 PUSH1 0x0 SWAP1 SLOAD SWAP1 PUSH2 0x100 EXP SWAP1 DIV PUSH20 0xFFFFFFFFFFFFFFFFFFFFFFFFFFFFFFFFFFFFFFFF AND PUSH20 0xFFFFFFFFFFFFFFFFFFFFFFFFFFFFFFFFFFFFFFFF AND PUSH20 0xFFFFFFFFFFFFFFFFFFFFFFFFFFFFFFFFFFFFFFFF AND DUP2 MSTORE PUSH1 0x20 ADD SWAP1 DUP2 MSTORE PUSH1 0x20 ADD PUSH1 0x0 KECCAK256 PUSH1 0x0 DUP3 ADD MLOAD DUP2 PUSH1 0x0 ADD PUSH1 0x0 PUSH2 0x100 EXP DUP2 SLOAD DUP2 PUSH20 0xFFFFFFFFFFFFFFFFFFFFFFFFFFFFFFFFFFFFFFFF MUL NOT AND SWAP1 DUP4 PUSH20 0xFFFFFFFFFFFFFFFFFFFFFFFFFFFFFFFFFFFFFFFF AND MUL OR SWAP1 SSTORE POP PUSH1 0x20 DUP3 ADD MLOAD DUP2 PUSH1 0x1 ADD PUSH1 0x0 PUSH2 0x100 EXP DUP2 SLOAD DUP2 PUSH20 0xFFFFFFFFFFFFFFFFFFFFFFFFFFFFFFFFFFFFFFFF MUL NOT AND SWAP1 DUP4 PUSH20 0xFFFFFFFFFFFFFFFFFFFFFFFFFFFFFFFFFFFFFFFF AND MUL OR SWAP1 SSTORE POP SWAP1 POP POP POP POP JUMP JUMPDEST PUSH1 0x2 PUSH1 0x0 SWAP1 SLOAD SWAP1 PUSH2 0x100 EXP SWAP1 DIV PUSH20 0xFFFFFFFFFFFFFFFFFFFFFFFFFFFFFFFFFFFFFFFF AND DUP2 JUMP JUMPDEST CALLER PUSH1 0x0 DUP1 PUSH2 0x100 EXP DUP2 SLOAD DUP2 PUSH20 0xFFFFFFFFFFFFFFFFFFFFFFFFFFFFFFFFFFFFFFFF MUL NOT AND SWAP1 DUP4 PUSH20 0xFFFFFFFFFFFFFFFFFFFFFFFFFFFFFFFFFFFFFFFF AND MUL OR SWAP1 SSTORE POP JUMP JUMPDEST PUSH1 0x40 MLOAD DUP1 PUSH1 0x60 ADD PUSH1 0x40 MSTORE DUP1 DUP5 DUP2 MSTORE PUSH1 0x20 ADD DUP4 DUP2 MSTORE PUSH1 0x20 ADD DUP3 DUP2 MSTORE POP PUSH1 0x5 PUSH1 0x0 DUP1 PUSH1 0x0 SWAP1 SLOAD SWAP1 PUSH2 0x100 EXP SWAP1 DIV PUSH20 0xFFFFFFFFFFFFFFFFFFFFFFFFFFFFFFFFFFFFFFFF AND PUSH20 0xFFFFFFFFFFFFFFFFFFFFFFFFFFFFFFFFFFFFFFFF AND PUSH20 0xFFFFFFFFFFFFFFFFFFFFFFFFFFFFFFFFFFFFFFFF AND DUP2 MSTORE PUSH1 0x20 ADD SWAP1 DUP2 MSTORE PUSH1 0x20 ADD PUSH1 0x0 KECCAK256 PUSH1 0x0 PUSH1 0x2 PUSH1 0x0 SWAP1 SLOAD SWAP1 PUSH2 0x100 EXP SWAP1 DIV PUSH20 0xFFFFFFFFFFFFFFFFFFFFFFFFFFFFFFFFFFFFFFFF AND PUSH20 0xFFFFFFFFFFFFFFFFFFFFFFFFFFFFFFFFFFFFFFFF AND PUSH20 0xFFFFFFFFFFFFFFFFFFFFFFFFFFFFFFFFFFFFFFFF AND DUP2 MSTORE PUSH1 0x20 ADD SWAP1 DUP2 MSTORE PUSH1 0x20 ADD PUSH1 0x0 KECCAK256 PUSH1 0x0 DUP3 ADD MLOAD DUP2 PUSH1 0x0 ADD SWAP1 DUP1 MLOAD SWAP1 PUSH1 0x20 ADD SWAP1 PUSH2 0x56E SWAP3 SWAP2 SWAP1 PUSH2 0x8A6 JUMP JUMPDEST POP PUSH1 0x20 DUP3 ADD MLOAD DUP2 PUSH1 0x1 ADD SSTORE PUSH1 0x40 DUP3 ADD MLOAD DUP2 PUSH1 0x2 ADD SSTORE SWAP1 POP POP POP POP POP JUMP JUMPDEST PUSH1 0x40 MLOAD DUP1 PUSH1 0x60 ADD PUSH1 0x40 MSTORE DUP1 DUP5 DUP2 MSTORE PUSH1 0x20 ADD DUP4 DUP2 MSTORE PUSH1 0x20 ADD DUP3 DUP2 MSTORE POP PUSH1 0x4 PUSH1 0x0 DUP1 PUSH1 0x0 SWAP1 SLOAD SWAP1 PUSH2 0x100 EXP SWAP1 DIV PUSH20 0xFFFFFFFFFFFFFFFFFFFFFFFFFFFFFFFFFFFFFFFF AND PUSH20 0xFFFFFFFFFFFFFFFFFFFFFFFFFFFFFFFFFFFFFFFF AND PUSH20 0xFFFFFFFFFFFFFFFFFFFFFFFFFFFFFFFFFFFFFFFF AND DUP2 MSTORE PUSH1 0x20 ADD SWAP1 DUP2 MSTORE PUSH1 0x20 ADD PUSH1 0x0 KECCAK256 PUSH1 0x0 PUSH1 0x1 PUSH1 0x0 SWAP1 SLOAD SWAP1 PUSH2 0x100 EXP SWAP1 DIV PUSH20 0xFFFFFFFFFFFFFFFFFFFFFFFFFFFFFFFFFFFFFFFF AND PUSH20 0xFFFFFFFFFFFFFFFFFFFFFFFFFFFFFFFFFFFFFFFF AND PUSH20 0xFFFFFFFFFFFFFFFFFFFFFFFFFFFFFFFFFFFFFFFF AND DUP2 MSTORE PUSH1 0x20 ADD SWAP1 DUP2 MSTORE PUSH1 0x20 ADD PUSH1 0x0 KECCAK256 PUSH1 0x0 DUP3 ADD MLOAD DUP2 PUSH1 0x0 ADD SWAP1 DUP1 MLOAD SWAP1 PUSH1 0x20 ADD SWAP1 PUSH2 0x681 SWAP3 SWAP2 SWAP1 PUSH2 0x8A6 JUMP JUMPDEST POP PUSH1 0x20 DUP3 ADD MLOAD DUP2 PUSH1 0x1 ADD SSTORE PUSH1 0x40 DUP3 ADD MLOAD DUP2 PUSH1 0x2 ADD SSTORE SWAP1 POP POP POP POP POP JUMP JUMPDEST PUSH1 0x1 PUSH1 0x0 SWAP1 SLOAD SWAP1 PUSH2 0x100 EXP SWAP1 DIV PUSH20 0xFFFFFFFFFFFFFFFFFFFFFFFFFFFFFFFFFFFFFFFF AND DUP2 JUMP JUMPDEST PUSH1 0x3 PUSH1 0x20 MSTORE DUP1 PUSH1 0x0 MSTORE PUSH1 0x40 PUSH1 0x0 KECCAK256 PUSH1 0x0 SWAP2 POP SWAP1 POP DUP1 PUSH1 0x0 ADD PUSH1 0x0 SWAP1 SLOAD SWAP1 PUSH2 0x100 EXP SWAP1 DIV PUSH20 0xFFFFFFFFFFFFFFFFFFFFFFFFFFFFFFFFFFFFFFFF AND SWAP1 DUP1 PUSH1 0x1 ADD PUSH1 0x0 SWAP1 SLOAD SWAP1 PUSH2 0x100 EXP SWAP1 DIV PUSH20 0xFFFFFFFFFFFFFFFFFFFFFFFFFFFFFFFFFFFFFFFF AND SWAP1 POP DUP3 JUMP JUMPDEST PUSH1 0x4 PUSH1 0x20 MSTORE DUP2 PUSH1 0x0 MSTORE PUSH1 0x40 PUSH1 0x0 KECCAK256 PUSH1 0x20 MSTORE DUP1 PUSH1 0x0 MSTORE PUSH1 0x40 PUSH1 0x0 KECCAK256 PUSH1 0x0 SWAP2 POP SWAP2 POP POP DUP1 PUSH1 0x0 ADD DUP1 SLOAD PUSH2 0x758 SWAP1 PUSH2 0xD6A JUMP JUMPDEST DUP1 PUSH1 0x1F ADD PUSH1 0x20 DUP1 SWAP2 DIV MUL PUSH1 0x20 ADD PUSH1 0x40 MLOAD SWAP1 DUP2 ADD PUSH1 0x40 MSTORE DUP1 SWAP3 SWAP2 SWAP1 DUP2 DUP2 MSTORE PUSH1 0x20 ADD DUP3 DUP1 SLOAD PUSH2 0x784 SWAP1 PUSH2 0xD6A JUMP JUMPDEST DUP1 ISZERO PUSH2 0x7D1 JUMPI DUP1 PUSH1 0x1F LT PUSH2 0x7A6 JUMPI PUSH2 0x100 DUP1 DUP4 SLOAD DIV MUL DUP4 MSTORE SWAP2 PUSH1 0x20 ADD SWAP2 PUSH2 0x7D1 JUMP JUMPDEST DUP3 ADD SWAP2 SWAP1 PUSH1 0x0 MSTORE PUSH1 0x20 PUSH1 0x0 KECCAK256 SWAP1 JUMPDEST DUP2 SLOAD DUP2 MSTORE SWAP1 PUSH1 0x1 ADD SWAP1 PUSH1 0x20 ADD DUP1 DUP4 GT PUSH2 0x7B4 JUMPI DUP3 SWAP1 SUB PUSH1 0x1F AND DUP3 ADD SWAP2 JUMPDEST POP POP POP POP POP SWAP1 DUP1 PUSH1 0x1 ADD SLOAD SWAP1 DUP1 PUSH1 0x2 ADD SLOAD SWAP1 POP DUP4 JUMP JUMPDEST PUSH1 0x5 PUSH1 0x20 MSTORE DUP2 PUSH1 0x0 MSTORE PUSH1 0x40 PUSH1 0x0 KECCAK256 PUSH1 0x20 MSTORE DUP1 PUSH1 0x0 MSTORE PUSH1 0x40 PUSH1 0x0 KECCAK256 PUSH1 0x0 SWAP2 POP SWAP2 POP POP DUP1 PUSH1 0x0 ADD DUP1 SLOAD PUSH2 0x817 SWAP1 PUSH2 0xD6A JUMP JUMPDEST DUP1 PUSH1 0x1F ADD PUSH1 0x20 DUP1 SWAP2 DIV MUL PUSH1 0x20 ADD PUSH1 0x40 MLOAD SWAP1 DUP2 ADD PUSH1 0x40 MSTORE DUP1 SWAP3 SWAP2 SWAP1 DUP2 DUP2 MSTORE PUSH1 0x20 ADD DUP3 DUP1 SLOAD PUSH2 0x843 SWAP1 PUSH2 0xD6A JUMP JUMPDEST DUP1 ISZERO PUSH2 0x890 JUMPI DUP1 PUSH1 0x1F LT PUSH2 0x865 JUMPI PUSH2 0x100 DUP1 DUP4 SLOAD DIV MUL DUP4 MSTORE SWAP2 PUSH1 0x20 ADD SWAP2 PUSH2 0x890 JUMP JUMPDEST DUP3 ADD SWAP2 SWAP1 PUSH1 0x0 MSTORE PUSH1 0x20 PUSH1 0x0 KECCAK256 SWAP1 JUMPDEST DUP2 SLOAD DUP2 MSTORE SWAP1 PUSH1 0x1 ADD SWAP1 PUSH1 0x20 ADD DUP1 DUP4 GT PUSH2 0x873 JUMPI DUP3 SWAP1 SUB PUSH1 0x1F AND DUP3 ADD SWAP2 JUMPDEST POP POP POP POP POP SWAP1 DUP1 PUSH1 0x1 ADD SLOAD SWAP1 DUP1 PUSH1 0x2 ADD SLOAD SWAP1 POP DUP4 JUMP JUMPDEST DUP3 DUP1 SLOAD PUSH2 0x8B2 SWAP1 PUSH2 0xD6A JUMP JUMPDEST SWAP1 PUSH1 0x0 MSTORE PUSH1 0x20 PUSH1 0x0 KECCAK256 SWAP1 PUSH1 0x1F ADD PUSH1 0x20 SWAP1 DIV DUP2 ADD SWAP3 DUP3 PUSH2 0x8D4 JUMPI PUSH1 0x0 DUP6 SSTORE PUSH2 0x91B JUMP JUMPDEST DUP3 PUSH1 0x1F LT PUSH2 0x8ED JUMPI DUP1 MLOAD PUSH1 0xFF NOT AND DUP4 DUP1 ADD OR DUP6 SSTORE PUSH2 0x91B JUMP JUMPDEST DUP3 DUP1 ADD PUSH1 0x1 ADD DUP6 SSTORE DUP3 ISZERO PUSH2 0x91B JUMPI SWAP2 DUP3 ADD JUMPDEST DUP3 DUP2 GT ISZERO PUSH2 0x91A JUMPI DUP3 MLOAD DUP3 SSTORE SWAP2 PUSH1 0x20 ADD SWAP2 SWAP1 PUSH1 0x1 ADD SWAP1 PUSH2 0x8FF JUMP JUMPDEST JUMPDEST POP SWAP1 POP PUSH2 0x928 SWAP2 SWAP1 PUSH2 0x92C JUMP JUMPDEST POP SWAP1 JUMP JUMPDEST JUMPDEST DUP1 DUP3 GT ISZERO PUSH2 0x945 JUMPI PUSH1 0x0 DUP2 PUSH1 0x0 SWAP1 SSTORE POP PUSH1 0x1 ADD PUSH2 0x92D JUMP JUMPDEST POP SWAP1 JUMP JUMPDEST PUSH1 0x0 PUSH20 0xFFFFFFFFFFFFFFFFFFFFFFFFFFFFFFFFFFFFFFFF DUP3 AND SWAP1 POP SWAP2 SWAP1 POP JUMP JUMPDEST PUSH1 0x0 PUSH2 0x974 DUP3 PUSH2 0x949 JUMP JUMPDEST SWAP1 POP SWAP2 SWAP1 POP JUMP JUMPDEST PUSH2 0x984 DUP2 PUSH2 0x969 JUMP JUMPDEST DUP3 MSTORE POP POP JUMP JUMPDEST PUSH1 0x0 PUSH1 0x20 DUP3 ADD SWAP1 POP PUSH2 0x99F PUSH1 0x0 DUP4 ADD DUP5 PUSH2 0x97B JUMP JUMPDEST SWAP3 SWAP2 POP POP JUMP JUMPDEST PUSH1 0x0 PUSH1 0x40 MLOAD SWAP1 POP SWAP1 JUMP JUMPDEST PUSH1 0x0 DUP1 REVERT JUMPDEST PUSH1 0x0 DUP1 REVERT JUMPDEST PUSH2 0x9C2 DUP2 PUSH2 0x969 JUMP JUMPDEST DUP2 EQ PUSH2 0x9CD JUMPI PUSH1 0x0 DUP1 REVERT JUMPDEST POP JUMP JUMPDEST PUSH1 0x0 DUP2 CALLDATALOAD SWAP1 POP PUSH2 0x9DF DUP2 PUSH2 0x9B9 JUMP JUMPDEST SWAP3 SWAP2 POP POP JUMP JUMPDEST PUSH1 0x0 DUP1 PUSH1 0x40 DUP4 DUP6 SUB SLT ISZERO PUSH2 0x9FC JUMPI PUSH2 0x9FB PUSH2 0x9AF JUMP JUMPDEST JUMPDEST PUSH1 0x0 PUSH2 0xA0A DUP6 DUP3 DUP7 ADD PUSH2 0x9D0 JUMP JUMPDEST SWAP3 POP POP PUSH1 0x20 PUSH2 0xA1B DUP6 DUP3 DUP7 ADD PUSH2 0x9D0 JUMP JUMPDEST SWAP2 POP POP SWAP3 POP SWAP3 SWAP1 POP JUMP JUMPDEST PUSH1 0x0 DUP1 REVERT JUMPDEST PUSH1 0x0 DUP1 REVERT JUMPDEST PUSH1 0x0 PUSH1 0x1F NOT PUSH1 0x1F DUP4 ADD AND SWAP1 POP SWAP2 SWAP1 POP JUMP JUMPDEST PUSH32 0x4E487B7100000000000000000000000000000000000000000000000000000000 PUSH1 0x0 MSTORE PUSH1 0x41 PUSH1 0x4 MSTORE PUSH1 0x24 PUSH1 0x0 REVERT JUMPDEST PUSH2 0xA78 DUP3 PUSH2 0xA2F JUMP JUMPDEST DUP2 ADD DUP2 DUP2 LT PUSH8 0xFFFFFFFFFFFFFFFF DUP3 GT OR ISZERO PUSH2 0xA97 JUMPI PUSH2 0xA96 PUSH2 0xA40 JUMP JUMPDEST JUMPDEST DUP1 PUSH1 0x40 MSTORE POP POP POP JUMP JUMPDEST PUSH1 0x0 PUSH2 0xAAA PUSH2 0x9A5 JUMP JUMPDEST SWAP1 POP PUSH2 0xAB6 DUP3 DUP3 PUSH2 0xA6F JUMP JUMPDEST SWAP2 SWAP1 POP JUMP JUMPDEST PUSH1 0x0 PUSH8 0xFFFFFFFFFFFFFFFF DUP3 GT ISZERO PUSH2 0xAD6 JUMPI PUSH2 0xAD5 PUSH2 0xA40 JUMP JUMPDEST JUMPDEST PUSH2 0xADF DUP3 PUSH2 0xA2F JUMP JUMPDEST SWAP1 POP PUSH1 0x20 DUP2 ADD SWAP1 POP SWAP2 SWAP1 POP JUMP JUMPDEST DUP3 DUP2 DUP4 CALLDATACOPY PUSH1 0x0 DUP4 DUP4 ADD MSTORE POP POP POP JUMP JUMPDEST PUSH1 0x0 PUSH2 0xB0E PUSH2 0xB09 DUP5 PUSH2 0xABB JUMP JUMPDEST PUSH2 0xAA0 JUMP JUMPDEST SWAP1 POP DUP3 DUP2 MSTORE PUSH1 0x20 DUP2 ADD DUP5 DUP5 DUP5 ADD GT ISZERO PUSH2 0xB2A JUMPI PUSH2 0xB29 PUSH2 0xA2A JUMP JUMPDEST JUMPDEST PUSH2 0xB35 DUP5 DUP3 DUP6 PUSH2 0xAEC JUMP JUMPDEST POP SWAP4 SWAP3 POP POP POP JUMP JUMPDEST PUSH1 0x0 DUP3 PUSH1 0x1F DUP4 ADD SLT PUSH2 0xB52 JUMPI PUSH2 0xB51 PUSH2 0xA25 JUMP JUMPDEST JUMPDEST DUP2 CALLDATALOAD PUSH2 0xB62 DUP5 DUP3 PUSH1 0x20 DUP7 ADD PUSH2 0xAFB JUMP JUMPDEST SWAP2 POP POP SWAP3 SWAP2 POP POP JUMP JUMPDEST PUSH1 0x0 DUP2 SWAP1 POP SWAP2 SWAP1 POP JUMP JUMPDEST PUSH2 0xB7E DUP2 PUSH2 0xB6B JUMP JUMPDEST DUP2 EQ PUSH2 0xB89 JUMPI PUSH1 0x0 DUP1 REVERT JUMPDEST POP JUMP JUMPDEST PUSH1 0x0 DUP2 CALLDATALOAD SWAP1 POP PUSH2 0xB9B DUP2 PUSH2 0xB75 JUMP JUMPDEST SWAP3 SWAP2 POP POP JUMP JUMPDEST PUSH1 0x0 DUP1 PUSH1 0x0 PUSH1 0x60 DUP5 DUP7 SUB SLT ISZERO PUSH2 0xBBA JUMPI PUSH2 0xBB9 PUSH2 0x9AF JUMP JUMPDEST JUMPDEST PUSH1 0x0 DUP5 ADD CALLDATALOAD PUSH8 0xFFFFFFFFFFFFFFFF DUP2 GT ISZERO PUSH2 0xBD8 JUMPI PUSH2 0xBD7 PUSH2 0x9B4 JUMP JUMPDEST JUMPDEST PUSH2 0xBE4 DUP7 DUP3 DUP8 ADD PUSH2 0xB3D JUMP JUMPDEST SWAP4 POP POP PUSH1 0x20 PUSH2 0xBF5 DUP7 DUP3 DUP8 ADD PUSH2 0xB8C JUMP JUMPDEST SWAP3 POP POP PUSH1 0x40 PUSH2 0xC06 DUP7 DUP3 DUP8 ADD PUSH2 0xB8C JUMP JUMPDEST SWAP2 POP POP SWAP3 POP SWAP3 POP SWAP3 JUMP JUMPDEST PUSH1 0x0 PUSH1 0x20 DUP3 DUP5 SUB SLT ISZERO PUSH2 0xC26 JUMPI PUSH2 0xC25 PUSH2 0x9AF JUMP JUMPDEST JUMPDEST PUSH1 0x0 PUSH2 0xC34 DUP5 DUP3 DUP6 ADD PUSH2 0x9D0 JUMP JUMPDEST SWAP2 POP POP SWAP3 SWAP2 POP POP JUMP JUMPDEST PUSH1 0x0 PUSH1 0x40 DUP3 ADD SWAP1 POP PUSH2 0xC52 PUSH1 0x0 DUP4 ADD DUP6 PUSH2 0x97B JUMP JUMPDEST PUSH2 0xC5F PUSH1 0x20 DUP4 ADD DUP5 PUSH2 0x97B JUMP JUMPDEST SWAP4 SWAP3 POP POP POP JUMP JUMPDEST PUSH1 0x0 DUP2 MLOAD SWAP1 POP SWAP2 SWAP1 POP JUMP JUMPDEST PUSH1 0x0 DUP3 DUP3 MSTORE PUSH1 0x20 DUP3 ADD SWAP1 POP SWAP3 SWAP2 POP POP JUMP JUMPDEST PUSH1 0x0 JUMPDEST DUP4 DUP2 LT ISZERO PUSH2 0xCA0 JUMPI DUP1 DUP3 ADD MLOAD DUP2 DUP5 ADD MSTORE PUSH1 0x20 DUP2 ADD SWAP1 POP PUSH2 0xC85 JUMP JUMPDEST DUP4 DUP2 GT ISZERO PUSH2 0xCAF JUMPI PUSH1 0x0 DUP5 DUP5 ADD MSTORE JUMPDEST POP POP POP POP JUMP JUMPDEST PUSH1 0x0 PUSH2 0xCC0 DUP3 PUSH2 0xC66 JUMP JUMPDEST PUSH2 0xCCA DUP2 DUP6 PUSH2 0xC71 JUMP JUMPDEST SWAP4 POP PUSH2 0xCDA DUP2 DUP6 PUSH1 0x20 DUP7 ADD PUSH2 0xC82 JUMP JUMPDEST PUSH2 0xCE3 DUP2 PUSH2 0xA2F JUMP JUMPDEST DUP5 ADD SWAP2 POP POP SWAP3 SWAP2 POP POP JUMP JUMPDEST PUSH2 0xCF7 DUP2 PUSH2 0xB6B JUMP JUMPDEST DUP3 MSTORE POP POP JUMP JUMPDEST PUSH1 0x0 PUSH1 0x60 DUP3 ADD SWAP1 POP DUP2 DUP2 SUB PUSH1 0x0 DUP4 ADD MSTORE PUSH2 0xD17 DUP2 DUP7 PUSH2 0xCB5 JUMP JUMPDEST SWAP1 POP PUSH2 0xD26 PUSH1 0x20 DUP4 ADD DUP6 PUSH2 0xCEE JUMP JUMPDEST PUSH2 0xD33 PUSH1 0x40 DUP4 ADD DUP5 PUSH2 0xCEE JUMP JUMPDEST SWAP5 SWAP4 POP POP POP POP JUMP JUMPDEST PUSH32 0x4E487B7100000000000000000000000000000000000000000000000000000000 PUSH1 0x0 MSTORE PUSH1 0x22 PUSH1 0x4 MSTORE PUSH1 0x24 PUSH1 0x0 REVERT JUMPDEST PUSH1 0x0 PUSH1 0x2 DUP3 DIV SWAP1 POP PUSH1 0x1 DUP3 AND DUP1 PUSH2 0xD82 JUMPI PUSH1 0x7F DUP3 AND SWAP2 POP JUMPDEST PUSH1 0x20 DUP3 LT DUP2 EQ ISZERO PUSH2 0xD96 JUMPI PUSH2 0xD95 PUSH2 0xD3B JUMP JUMPDEST JUMPDEST POP SWAP2 SWAP1 POP JUMP INVALID LOG2 PUSH5 0x6970667358 0x22 SLT KECCAK256 SWAP7 0xEB MOD 0xBB 0xFC GASPRICE SWAP12 0xD2 DUP16 0xC8 0xBE 0xDB GT KECCAK256 SWAP9 BALANCE SWAP8 0xC4 0xBE PUSH12 0xB5546DEC8D488C51B9CC4D8E PUSH5 0x736F6C6343 STOP ADDMOD 0xC STOP CALLER "
				},
				"gasEstimates": {
					"creation": {
						"codeDepositCost": "707600",
						"executionCost": "741",
						"totalCost": "708341"
					},
					"external": {
						"addClient(address,address)": "infinite",
						"addCryWallet(string,uint256,uint256)": "infinite",
						"addStoWallet(string,uint256,uint256)": "infinite",
						"clientAddr()": "2512",
						"clientAddress()": "24477",
						"clients(address)": "infinite",
						"cryWallets(address,address)": "infinite",
						"cryptoAddr()": "2536",
						"stoWallets(address,address)": "infinite",
						"stockAddr()": "2559"
					}
				},
				"methodIdentifiers": {
					"addClient(address,address)": "16691869",
					"addCryWallet(string,uint256,uint256)": "3dbab7e6",
					"addStoWallet(string,uint256,uint256)": "3b811c1c",
					"clientAddr()": "09e04aad",
					"clientAddress()": "2c2ab5ea",
					"clients(address)": "61eed2a9",
					"cryWallets(address,address)": "898f27f2",
					"cryptoAddr()": "5349b95f",
					"stoWallets(address,address)": "8dea3fd8",
					"stockAddr()": "27a5906b"
				}
			},
			"userdoc": {
				"kind": "user",
				"methods": {},
				"version": 1
			}
		}
	}
}