{
  "contractName": "Client",
  "abi": [
    {
      "inputs": [],
      "name": "clientAddr",
      "outputs": [
        {
          "internalType": "address",
          "name": "",
          "type": "address"
        }
      ],
      "stateMutability": "view",
      "type": "function"
    },
    {
      "inputs": [
        {
          "internalType": "address",
          "name": "",
          "type": "address"
        }
      ],
      "name": "clients",
      "outputs": [
        {
          "internalType": "address",
          "name": "clientCryptoWallet",
          "type": "address"
        },
        {
          "internalType": "address",
          "name": "clientStockWallet",
          "type": "address"
        }
      ],
      "stateMutability": "view",
      "type": "function"
    },
    {
      "inputs": [
        {
          "internalType": "address",
          "name": "",
          "type": "address"
        },
        {
          "internalType": "address",
          "name": "",
          "type": "address"
        }
      ],
      "name": "cryWallets",
      "outputs": [
        {
          "internalType": "string",
          "name": "cryLabel",
          "type": "string"
        },
        {
          "internalType": "uint256",
          "name": "cryAmount",
          "type": "uint256"
        },
        {
          "internalType": "uint256",
          "name": "cryValue",
          "type": "uint256"
        }
      ],
      "stateMutability": "view",
      "type": "function"
    },
    {
      "inputs": [],
      "name": "cryptoAddr",
      "outputs": [
        {
          "internalType": "address",
          "name": "",
          "type": "address"
        }
      ],
      "stateMutability": "view",
      "type": "function"
    },
    {
      "inputs": [
        {
          "internalType": "address",
          "name": "",
          "type": "address"
        },
        {
          "internalType": "address",
          "name": "",
          "type": "address"
        }
      ],
      "name": "stoWallets",
      "outputs": [
        {
          "internalType": "string",
          "name": "stoLabel",
          "type": "string"
        },
        {
          "internalType": "uint256",
          "name": "stoAmount",
          "type": "uint256"
        },
        {
          "internalType": "uint256",
          "name": "stoValue",
          "type": "uint256"
        }
      ],
      "stateMutability": "view",
      "type": "function"
    },
    {
      "inputs": [],
      "name": "stockAddr",
      "outputs": [
        {
          "internalType": "address",
          "name": "",
          "type": "address"
        }
      ],
      "stateMutability": "view",
      "type": "function"
    },
    {
      "inputs": [],
      "name": "clientAddress",
      "outputs": [],
      "stateMutability": "nonpayable",
      "type": "function"
    },
    {
      "inputs": [
        {
          "internalType": "address",
          "name": "_clientCryptoWallet",
          "type": "address"
        },
        {
          "internalType": "address",
          "name": "_clientStockWallet",
          "type": "address"
        }
      ],
      "name": "addClient",
      "outputs": [],
      "stateMutability": "nonpayable",
      "type": "function"
    },
    {
      "inputs": [
        {
          "internalType": "string",
          "name": "_cryLabel",
          "type": "string"
        },
        {
          "internalType": "uint256",
          "name": "_cryAmount",
          "type": "uint256"
        },
        {
          "internalType": "uint256",
          "name": "_cryValue",
          "type": "uint256"
        }
      ],
      "name": "addCryWallet",
      "outputs": [],
      "stateMutability": "nonpayable",
      "type": "function"
    },
    {
      "inputs": [
        {
          "internalType": "string",
          "name": "_stoLabel",
          "type": "string"
        },
        {
          "internalType": "uint256",
          "name": "_stoAmount",
          "type": "uint256"
        },
        {
          "internalType": "uint256",
          "name": "_stoValue",
          "type": "uint256"
        }
      ],
      "name": "addStoWallet",
      "outputs": [],
      "stateMutability": "nonpayable",
      "type": "function"
    }
  ],
  "bytecode": "0x608060405234801561001057600080fd5b50610dd2806100206000396000f3fe608060405234801561001057600080fd5b506004361061009e5760003560e01c80633dbab7e6116100665780633dbab7e6146101215780635349b95f1461013d57806361eed2a91461015b578063898f27f21461018c5780638dea3fd8146101be5761009e565b806309e04aad146100a357806316691869146100c157806327a5906b146100dd5780632c2ab5ea146100fb5780633b811c1c14610105575b600080fd5b6100ab6101f0565b6040516100b8919061098a565b60405180910390f35b6100db60048036038101906100d691906109e5565b610214565b005b6100e5610410565b6040516100f2919061098a565b60405180910390f35b610103610436565b005b61011f600480360381019061011a9190610ba1565b610478565b005b61013b60048036038101906101369190610ba1565b61058b565b005b61014561069e565b604051610152919061098a565b60405180910390f35b61017560048036038101906101709190610c10565b6106c4565b604051610183929190610c3d565b60405180910390f35b6101a660048036038101906101a191906109e5565b610728565b6040516101b593929190610cfd565b60405180910390f35b6101d860048036038101906101d391906109e5565b6107e7565b6040516101e793929190610cfd565b60405180910390f35b60008054906101000a900473ffffffffffffffffffffffffffffffffffffffff1681565b81600160006101000a81548173ffffffffffffffffffffffffffffffffffffffff021916908373ffffffffffffffffffffffffffffffffffffffff16021790555080600260006101000a81548173ffffffffffffffffffffffffffffffffffffffff021916908373ffffffffffffffffffffffffffffffffffffffff1602179055506040518060400160405280600160009054906101000a900473ffffffffffffffffffffffffffffffffffffffff1673ffffffffffffffffffffffffffffffffffffffff168152602001600260009054906101000a900473ffffffffffffffffffffffffffffffffffffffff1673ffffffffffffffffffffffffffffffffffffffff16815250600360008060009054906101000a900473ffffffffffffffffffffffffffffffffffffffff1673ffffffffffffffffffffffffffffffffffffffff1673ffffffffffffffffffffffffffffffffffffffff16815260200190815260200160002060008201518160000160006101000a81548173ffffffffffffffffffffffffffffffffffffffff021916908373ffffffffffffffffffffffffffffffffffffffff16021790555060208201518160010160006101000a81548173ffffffffffffffffffffffffffffffffffffffff021916908373ffffffffffffffffffffffffffffffffffffffff1602179055509050505050565b600260009054906101000a900473ffffffffffffffffffffffffffffffffffffffff1681565b336000806101000a81548173ffffffffffffffffffffffffffffffffffffffff021916908373ffffffffffffffffffffffffffffffffffffffff160217905550565b604051806060016040528084815260200183815260200182815250600560008060009054906101000a900473ffffffffffffffffffffffffffffffffffffffff1673ffffffffffffffffffffffffffffffffffffffff1673ffffffffffffffffffffffffffffffffffffffff1681526020019081526020016000206000600260009054906101000a900473ffffffffffffffffffffffffffffffffffffffff1673ffffffffffffffffffffffffffffffffffffffff1673ffffffffffffffffffffffffffffffffffffffff168152602001908152602001600020600082015181600001908051906020019061056e9291906108a6565b506020820151816001015560408201518160020155905050505050565b604051806060016040528084815260200183815260200182815250600460008060009054906101000a900473ffffffffffffffffffffffffffffffffffffffff1673ffffffffffffffffffffffffffffffffffffffff1673ffffffffffffffffffffffffffffffffffffffff1681526020019081526020016000206000600160009054906101000a900473ffffffffffffffffffffffffffffffffffffffff1673ffffffffffffffffffffffffffffffffffffffff1673ffffffffffffffffffffffffffffffffffffffff16815260200190815260200160002060008201518160000190805190602001906106819291906108a6565b506020820151816001015560408201518160020155905050505050565b600160009054906101000a900473ffffffffffffffffffffffffffffffffffffffff1681565b60036020528060005260406000206000915090508060000160009054906101000a900473ffffffffffffffffffffffffffffffffffffffff16908060010160009054906101000a900473ffffffffffffffffffffffffffffffffffffffff16905082565b60046020528160005260406000206020528060005260406000206000915091505080600001805461075890610d6a565b80601f016020809104026020016040519081016040528092919081815260200182805461078490610d6a565b80156107d15780601f106107a6576101008083540402835291602001916107d1565b820191906000526020600020905b8154815290600101906020018083116107b457829003601f168201915b5050505050908060010154908060020154905083565b60056020528160005260406000206020528060005260406000206000915091505080600001805461081790610d6a565b80601f016020809104026020016040519081016040528092919081815260200182805461084390610d6a565b80156108905780601f1061086557610100808354040283529160200191610890565b820191906000526020600020905b81548152906001019060200180831161087357829003601f168201915b5050505050908060010154908060020154905083565b8280546108b290610d6a565b90600052602060002090601f0160209004810192826108d4576000855561091b565b82601f106108ed57805160ff191683800117855561091b565b8280016001018555821561091b579182015b8281111561091a5782518255916020019190600101906108ff565b5b509050610928919061092c565b5090565b5b8082111561094557600081600090555060010161092d565b5090565b600073ffffffffffffffffffffffffffffffffffffffff82169050919050565b600061097482610949565b9050919050565b61098481610969565b82525050565b600060208201905061099f600083018461097b565b92915050565b6000604051905090565b600080fd5b600080fd5b6109c281610969565b81146109cd57600080fd5b50565b6000813590506109df816109b9565b92915050565b600080604083850312156109fc576109fb6109af565b5b6000610a0a858286016109d0565b9250506020610a1b858286016109d0565b9150509250929050565b600080fd5b600080fd5b6000601f19601f8301169050919050565b7f4e487b7100000000000000000000000000000000000000000000000000000000600052604160045260246000fd5b610a7882610a2f565b810181811067ffffffffffffffff82111715610a9757610a96610a40565b5b80604052505050565b6000610aaa6109a5565b9050610ab68282610a6f565b919050565b600067ffffffffffffffff821115610ad657610ad5610a40565b5b610adf82610a2f565b9050602081019050919050565b82818337600083830152505050565b6000610b0e610b0984610abb565b610aa0565b905082815260208101848484011115610b2a57610b29610a2a565b5b610b35848285610aec565b509392505050565b600082601f830112610b5257610b51610a25565b5b8135610b62848260208601610afb565b91505092915050565b6000819050919050565b610b7e81610b6b565b8114610b8957600080fd5b50565b600081359050610b9b81610b75565b92915050565b600080600060608486031215610bba57610bb96109af565b5b600084013567ffffffffffffffff811115610bd857610bd76109b4565b5b610be486828701610b3d565b9350506020610bf586828701610b8c565b9250506040610c0686828701610b8c565b9150509250925092565b600060208284031215610c2657610c256109af565b5b6000610c34848285016109d0565b91505092915050565b6000604082019050610c52600083018561097b565b610c5f602083018461097b565b9392505050565b600081519050919050565b600082825260208201905092915050565b60005b83811015610ca0578082015181840152602081019050610c85565b83811115610caf576000848401525b50505050565b6000610cc082610c66565b610cca8185610c71565b9350610cda818560208601610c82565b610ce381610a2f565b840191505092915050565b610cf781610b6b565b82525050565b60006060820190508181036000830152610d178186610cb5565b9050610d266020830185610cee565b610d336040830184610cee565b949350505050565b7f4e487b7100000000000000000000000000000000000000000000000000000000600052602260045260246000fd5b60006002820490506001821680610d8257607f821691505b60208210811415610d9657610d95610d3b565b5b5091905056fea264697066735822122087808b073ca4a1f37c70cffb55880ed9c9bba9bf9011864a894cb555a763b06364736f6c634300080c0033",
  "immutableReferences": {},
  "source": "//SPDX-License-Identifier: UNLICENSED\r\npragma solidity ^0.8.7;\r\n\r\ncontract Client {\r\n\r\n    address public clientAddr;\r\n    address public cryptoAddr;\r\n    address public stockAddr;\r\n    \r\n    struct client {\r\n        address clientCryptoWallet;\r\n        address clientStockWallet;\r\n    }\r\n\r\n    struct cryptoWallet {\r\n        string cryLabel;\r\n        uint cryAmount;\r\n        uint cryValue;\r\n    }\r\n\r\n    struct stocksWallet {\r\n        string stoLabel;\r\n        uint stoAmount;\r\n        uint stoValue;\r\n    }\r\n\r\n    mapping (address => client) public clients;\r\n\r\n    mapping (address => mapping(address => cryptoWallet)) public cryWallets;\r\n\r\n    mapping (address => mapping(address => stocksWallet)) public stoWallets;\r\n\r\n    function clientAddress() public {\r\n        clientAddr = msg.sender;\r\n    }\r\n    \r\n    function addClient(address _clientCryptoWallet, address _clientStockWallet) public {\r\n        cryptoAddr = _clientCryptoWallet;\r\n        stockAddr = _clientStockWallet;\r\n        clients[clientAddr] = client(cryptoAddr, stockAddr);\r\n    }\r\n\r\n    function addCryWallet(string memory _cryLabel, uint _cryAmount, uint _cryValue) public {\r\n        cryWallets[clientAddr][cryptoAddr] = cryptoWallet(_cryLabel, _cryAmount, _cryValue);\r\n    }\r\n\r\n    function addStoWallet(string memory _stoLabel, uint _stoAmount, uint _stoValue) public {\r\n        stoWallets[clientAddr][stockAddr] = stocksWallet(_stoLabel, _stoAmount, _stoValue);\r\n    }\r\n}",
  "sourcePath": "C:\\Users\\hitan\\Desktop\\Hitanshu\\College\\Cloud Computing\\Blockchain\\CryptoStocks\\CryptoStocks\\contracts\\client.sol",
  "compiler": {
    "name": "solc",
    "version": "0.8.12+commit.f00d7308.Emscripten.clang"
  },
  "schemaVersion": "3.4.6",
  "updatedAt": "2022-03-24T10:06:27.050Z",
  "devdoc": {
    "kind": "dev",
    "methods": {},
    "version": 1
  },
  "userdoc": {
    "kind": "user",
    "methods": {},
    "version": 1
  }
}