{
  "contractName": "Company",
  "abi": [
    {
      "inputs": [
        {
          "internalType": "uint256",
          "name": "",
          "type": "uint256"
        }
      ],
      "name": "companyFiatWallet",
      "outputs": [
        {
          "internalType": "address",
          "name": "",
          "type": "address"
        }
      ],
      "stateMutability": "view",
      "type": "function"
    }
  ],
  "bytecode": "0x608060405234801561001057600080fd5b50610199806100206000396000f3fe608060405234801561001057600080fd5b506004361061002b5760003560e01c8063ab787c5414610030575b600080fd5b61004a600480360381019061004591906100da565b610060565b6040516100579190610148565b60405180910390f35b6003818154811061007057600080fd5b906000526020600020016000915054906101000a900473ffffffffffffffffffffffffffffffffffffffff1681565b600080fd5b6000819050919050565b6100b7816100a4565b81146100c257600080fd5b50565b6000813590506100d4816100ae565b92915050565b6000602082840312156100f0576100ef61009f565b5b60006100fe848285016100c5565b91505092915050565b600073ffffffffffffffffffffffffffffffffffffffff82169050919050565b600061013282610107565b9050919050565b61014281610127565b82525050565b600060208201905061015d6000830184610139565b9291505056fea2646970667358221220dfdc0c54a2e08aa5f0edff6fcf85f164ba71b731721c76840704379ebf2739ee64736f6c634300080c0033",
  "immutableReferences": {},
  "source": "//SPDX-License-Identifier: UNLICENSED\r\npragma solidity ^0.8.7;\r\n\r\ncontract Company {\r\n    uint companyId;\r\n    uint noOfStocks;\r\n    uint stockPrice;\r\n    address[] public companyFiatWallet;\r\n}",
  "sourcePath": "C:\\Users\\hitan\\Desktop\\Hitanshu\\College\\Cloud Computing\\Blockchain\\CryptoStocks\\CryptoStocks\\contracts\\company.sol",
  "compiler": {
    "name": "solc",
    "version": "0.8.12+commit.f00d7308.Emscripten.clang"
  },
  "schemaVersion": "3.4.6",
  "updatedAt": "2022-03-24T10:06:27.056Z",
  "devdoc": {
    "kind": "dev",
    "methods": {},
    "version": 1
  },
  "userdoc": {
    "kind": "user",
    "methods": {},
    "version": 1
  }
}