{
  "contractName": "Facilitator",
  "abi": [
    {
      "inputs": [
        {
          "internalType": "uint256",
          "name": "",
          "type": "uint256"
        }
      ],
      "name": "facilitatorCryptoWallet",
      "outputs": [
        {
          "internalType": "address",
          "name": "",
          "type": "address"
        }
      ],
      "stateMutability": "view",
      "type": "function"
    },
    {
      "inputs": [
        {
          "internalType": "uint256",
          "name": "",
          "type": "uint256"
        }
      ],
      "name": "facilitatorFiatWallet",
      "outputs": [
        {
          "internalType": "address",
          "name": "",
          "type": "address"
        }
      ],
      "stateMutability": "view",
      "type": "function"
    },
    {
      "inputs": [
        {
          "internalType": "uint256",
          "name": "",
          "type": "uint256"
        }
      ],
      "name": "facilitatorStockWallet",
      "outputs": [
        {
          "internalType": "address",
          "name": "",
          "type": "address"
        }
      ],
      "stateMutability": "view",
      "type": "function"
    }
  ],
  "bytecode": "0x608060405234801561001057600080fd5b5061028d806100206000396000f3fe608060405234801561001057600080fd5b50600436106100415760003560e01c806362d280bf146100465780638525787914610076578063b2cb7c60146100a6575b600080fd5b610060600480360381019061005b91906101ce565b6100d6565b60405161006d919061023c565b60405180910390f35b610090600480360381019061008b91906101ce565b610115565b60405161009d919061023c565b60405180910390f35b6100c060048036038101906100bb91906101ce565b610154565b6040516100cd919061023c565b60405180910390f35b600181815481106100e657600080fd5b906000526020600020016000915054906101000a900473ffffffffffffffffffffffffffffffffffffffff1681565b6000818154811061012557600080fd5b906000526020600020016000915054906101000a900473ffffffffffffffffffffffffffffffffffffffff1681565b6002818154811061016457600080fd5b906000526020600020016000915054906101000a900473ffffffffffffffffffffffffffffffffffffffff1681565b600080fd5b6000819050919050565b6101ab81610198565b81146101b657600080fd5b50565b6000813590506101c8816101a2565b92915050565b6000602082840312156101e4576101e3610193565b5b60006101f2848285016101b9565b91505092915050565b600073ffffffffffffffffffffffffffffffffffffffff82169050919050565b6000610226826101fb565b9050919050565b6102368161021b565b82525050565b6000602082019050610251600083018461022d565b9291505056fea2646970667358221220a91c3adf39891a4171452e82111d806b5c09e23dd23b9dc54b006541c08fcd4464736f6c634300080c0033",
  "immutableReferences": {},
  "source": "//SPDX-License-Identifier: UNLICENSED\npragma solidity ^0.8.7;\n\ncontract Facilitator {\n    address[] public facilitatorCryptoWallet;\n    address[] public facilitatorFiatWallet;\n    address[] public facilitatorStockWallet;\n\n    struct facilitator {\n        address facilitatorCryptoWallet;\n        address facilitatorStockWallet;\n        address facilitatorFiatWallet;\n    }\n\n    struct cryptoWallet {\n        string cryLabel;\n        uint cryAmount;\n        uint cryValue;\n    }\n\n    struct stocksWallet {\n        string stoLabel;\n        uint stoAmount;\n        uint stoValue;\n    }\n}",
  "sourcePath": "/home/thoubemanjaro/Desktop/Hitanshu/CryptoStocks/contracts/facilitator.sol",
  "compiler": {
    "name": "solc",
    "version": "0.8.12+commit.f00d7308.Emscripten.clang"
  },
  "schemaVersion": "3.4.6",
  "updatedAt": "2022-03-27T07:41:52.165Z",
  "devdoc": {
    "kind": "dev",
    "methods": {},
    "version": 1
  },
  "userdoc": {
    "kind": "user",
    "methods": {},
    "version": 1
  }
}