{
  "contractName": "Stakeable",
  "abi": [
    {
      "inputs": [],
      "stateMutability": "nonpayable",
      "type": "constructor"
    },
    {
      "anonymous": false,
      "inputs": [
        {
          "indexed": true,
          "internalType": "address",
          "name": "user",
          "type": "address"
        },
        {
          "indexed": false,
          "internalType": "uint256",
          "name": "amount",
          "type": "uint256"
        },
        {
          "indexed": false,
          "internalType": "uint256",
          "name": "index",
          "type": "uint256"
        },
        {
          "indexed": false,
          "internalType": "uint256",
          "name": "timestamp",
          "type": "uint256"
        }
      ],
      "name": "Staked",
      "type": "event"
    },
    {
      "inputs": [
        {
          "internalType": "address",
          "name": "_staker",
          "type": "address"
        }
      ],
      "name": "hasStake",
      "outputs": [
        {
          "components": [
            {
              "internalType": "uint256",
              "name": "total_amount",
              "type": "uint256"
            },
            {
              "components": [
                {
                  "internalType": "address",
                  "name": "user",
                  "type": "address"
                },
                {
                  "internalType": "uint256",
                  "name": "amount",
                  "type": "uint256"
                },
                {
                  "internalType": "uint256",
                  "name": "since",
                  "type": "uint256"
                },
                {
                  "internalType": "uint256",
                  "name": "claimable",
                  "type": "uint256"
                }
              ],
              "internalType": "struct Stakeable.Stake[]",
              "name": "stakes",
              "type": "tuple[]"
            }
          ],
          "internalType": "struct Stakeable.StakingSummary",
          "name": "",
          "type": "tuple"
        }
      ],
      "stateMutability": "view",
      "type": "function"
    }
  ],
  "bytecode": "0x60806040526103e860005534801561001657600080fd5b5060018081600181540180825580915050039060005260206000209050506106bb806100436000396000f3fe608060405234801561001057600080fd5b506004361061002b5760003560e01c8063e73e14bf14610030575b600080fd5b61004a6004803603810190610045919061032b565b610060565b60405161005791906104c1565b60405180910390f35b6100686102ae565b6000806040518060400160405280600081526020016001600260008873ffffffffffffffffffffffffffffffffffffffff1673ffffffffffffffffffffffffffffffffffffffff16815260200190815260200160002054815481106100d0576100cf6104e3565b5b9060005260206000209060020201600101805480602002602001604051908101604052809291908181526020016000905b828210156101a757838290600052602060002090600402016040518060800160405290816000820160009054906101000a900473ffffffffffffffffffffffffffffffffffffffff1673ffffffffffffffffffffffffffffffffffffffff1673ffffffffffffffffffffffffffffffffffffffff168152602001600182015481526020016002820154815260200160038201548152505081526020019060010190610101565b50505050815250905060005b8160200151518110156102585760006101e9836020015183815181106101dc576101db6104e3565b5b602002602001015161026d565b90508083602001518381518110610203576102026104e3565b5b602002602001015160600181815250508260200151828151811061022a576102296104e3565b5b602002602001015160200151846102419190610541565b9350506001816102519190610541565b90506101b3565b50818160000181815250508092505050919050565b600080548260200151610e108460400151426102899190610597565b61029391906105fa565b61029d919061062b565b6102a791906105fa565b9050919050565b604051806040016040528060008152602001606081525090565b600080fd5b600073ffffffffffffffffffffffffffffffffffffffff82169050919050565b60006102f8826102cd565b9050919050565b610308816102ed565b811461031357600080fd5b50565b600081359050610325816102ff565b92915050565b600060208284031215610341576103406102c8565b5b600061034f84828501610316565b91505092915050565b6000819050919050565b61036b81610358565b82525050565b600081519050919050565b600082825260208201905092915050565b6000819050602082019050919050565b6103a6816102ed565b82525050565b6080820160008201516103c2600085018261039d565b5060208201516103d56020850182610362565b5060408201516103e86040850182610362565b5060608201516103fb6060850182610362565b50505050565b600061040d83836103ac565b60808301905092915050565b6000602082019050919050565b600061043182610371565b61043b818561037c565b93506104468361038d565b8060005b8381101561047757815161045e8882610401565b975061046983610419565b92505060018101905061044a565b5085935050505092915050565b600060408301600083015161049c6000860182610362565b50602083015184820360208601526104b48282610426565b9150508091505092915050565b600060208201905081810360008301526104db8184610484565b905092915050565b7f4e487b7100000000000000000000000000000000000000000000000000000000600052603260045260246000fd5b7f4e487b7100000000000000000000000000000000000000000000000000000000600052601160045260246000fd5b600061054c82610358565b915061055783610358565b9250827fffffffffffffffffffffffffffffffffffffffffffffffffffffffffffffffff0382111561058c5761058b610512565b5b828201905092915050565b60006105a282610358565b91506105ad83610358565b9250828210156105c0576105bf610512565b5b828203905092915050565b7f4e487b7100000000000000000000000000000000000000000000000000000000600052601260045260246000fd5b600061060582610358565b915061061083610358565b9250826106205761061f6105cb565b5b828204905092915050565b600061063682610358565b915061064183610358565b9250817fffffffffffffffffffffffffffffffffffffffffffffffffffffffffffffffff048311821515161561067a57610679610512565b5b82820290509291505056fea26469706673582212209121c4ab54f1fd13d78cb355e618499fb59f345022ba9bf2bc64313f7d2d4fc464736f6c634300080c0033",
  "immutableReferences": {},
  "source": "// SPDX-License-Identifier: MIT\npragma solidity ^0.8.9;\n\ncontract Stakeable {\n\n    /**\n     * @notice\n      rewardPerHour is 1000 because it is used to represent 0.001, since we only use integer numbers\n      This will give users 0.1% reward for each staked token / H\n    */\n\n    uint256 internal rewardPerHour = 1000;\n    \n    /**\n    * @notice Constructor since this contract is not ment to be used without inheritance\n    * push once to stakeholders for it to work proplerly\n    */\n\n    constructor() {\n        // This push is needed so we avoid index 0 causing bug of index-1\n        stakeholders.push();    \n    }\n\n    /**\n    * @notice\n    * A stake struct is used to represent the way we store stakes, \n    * A Stake will contain the users address, the amount staked and a timestamp, \n    * Since which is when the stake was made\n    */\n\n    struct Stake {\n        address user;\n        uint256 amount;\n        uint256 since;\n        // This claimable field is new and used to tell how big of a reward is currently available\n        uint256 claimable;\n    }\n\n    /**\n    * @notice Stakeholder is a staker that has active stakes\n    */\n\n    struct Stakeholder {\n        address user;\n        Stake[] address_stakes;\n    }\n\n    /**\n    * @notice \n    *   This is a array where we store all Stakes that are performed on the Contract\n    *   The stakes for each address are stored at a certain index, the index can be found using the stakes mapping\n    */\n\n    Stakeholder[] internal stakeholders;\n\n    /**\n    * @notice \n    * stakes is used to keep track of the INDEX for the stakers in the stakes array\n    */\n\n    mapping (address => uint256) internal stakes;\n\n    /**\n    * @notice Staked event is triggered whenever a user stakes tokens, address is indexed to make it filterable\n    */\n\n    event Staked (address indexed user, uint256 amount, uint256 index, uint256 timestamp);\n\n    /**\n    * @notice _addStakeholder takes care of adding a stakeholder to the stakeholders array\n    */\n\n    function _addStakeholder (address staker) internal returns (uint256) {\n\n        // Push an empty item to the Array to make space for our new stakeholder\n        stakeholders.push();\n\n        // Calculate index of last item in array by len-1\n        uint256 userIndex = stakeholders.length - 1;\n\n        // Assign the address to the new index\n        stakeholders[userIndex].user = staker;\n\n        // Add index to the stakeHolders\n        stakes[staker] = userIndex;\n\n        return userIndex;\n    }\n\n    /**\n    * @notice\n    * _Stake is used to make a stake for an sender. It will remove the amount staked from the stakers account and place those tokens inside a stake container\n    * StakeID \n    */\n\n    function _stake (uint256 _amount) internal {\n\n        // Simple check so that user doesn not stake 0\n        require (_amount > 0, \"Cannot stake nothing\");\n\n        // Mappings in solidity creates all values, but empty, so we can just check the address\n        uint256 index = stakes[msg.sender];\n\n        // block.timestamp = timestamp of the current block in seconds since the epoch\n        uint256 timestamp = block.timestamp;\n\n        // See if the staker already has a staked index or if its the first time\n        if (index == 0) {\n            \n            // This stakeholder stakes for the first time\n            // We need to add him to the stakeHolders and also map it into the index of the stakes\n            // The index returned will be the index of the stakeholder in the stakeholders array\n            index = _addStakeholder(msg.sender);\n        }\n\n        // User the index to push a new Stake\n        // push a newly created Stake with the current block timestamp\n        stakeholders[index].address_stakes.push(Stake(msg.sender, _amount, timestamp, 0));\n\n        // Emit an event that the stake has occured\n        emit Staked (msg.sender, _amount, index, timestamp);\n\n    }\n\n    /**\n      * @notice\n      * calculateStakeReward is used to calculate how much a user should be rewarded for their stakes\n      * and the duration the stake has been active\n    */\n\n    function calculateStakeReward (Stake memory _current_stake) internal view returns (uint256) {\n\n        // First calculate how long the stake has been active\n        // User current seconds since epoch - the seconds since epoch the stake was made\n        // The output will be duration in SECONDS\n        // We will reward the user 0.1% per Hour so thats 0.1% per 3600 seconds\n        // the algorithm is seconds = block.timestamp - stake seconds (block.timestamp - _stake.since)\n        // hours = Seconds / 3600 (seconds / 3600) 3600 is a variable in Solidity named hours\n        // we then multiply each token by the hours staked, then divide by the rewardPerHour rate\n        \n        return (((block.timestamp - _current_stake.since) / 1 hours) * _current_stake.amount) / rewardPerHour;\n\n    }\n\n    /**\n     * @notice\n     * withdrawStake takes in an amount and a index of the stake and will remove tokens from that stake\n     * Notice index of the stake is the users stake counter, starting at 0 for the first stake\n     * Will return the amount to MINT onto the acount\n     * Will also calculateStakeReward and reset timer\n    */\n\n    function _withdrawStake (uint256 amount, uint256 index) internal returns (uint256) {\n        \n        // Grab user_index which is the index to use to grab the Stake[]\n        uint256 user_index = stakes[msg.sender];\n        Stake memory current_stake = stakeholders[user_index].address_stakes[index];\n        require(current_stake.amount >= amount, \"Staking: Cannot withdraw more than you have staked\");\n\n        // Calculate available Reward first before we start modifying data\n        uint256 reward = calculateStakeReward(current_stake);\n\n        // Remove by subtracting the money unstaked\n        current_stake.amount = current_stake.amount - amount;\n\n        // If stake is empty, 0, then remove it from the array of stakes\n        if (current_stake.amount == 0) {\n            delete stakeholders[user_index].address_stakes[index];\n        }\n\n        else {\n            \n            // If not empty then replace the value of it\n            stakeholders[user_index].address_stakes[index].amount = current_stake.amount;\n\n            // Reset timer of stake\n            stakeholders[user_index].address_stakes[index].since = block.timestamp;\n\n        }\n\n        return amount + reward;\n\n    }\n\n    /**\n     * @notice\n     * StakingSummary is a struct that is used to contain all stakes performed by a certain account\n    */\n\n    struct StakingSummary {\n        uint256 total_amount;\n        Stake[] stakes;\n    }\n\n    /**\n     * @notice\n     * hasStake is used to check if a account has stakes and the total amount along with all the seperate stakes\n    */\n\n    function hasStake (address _staker) public view returns (StakingSummary memory) {\n\n        // totalStakeAmount is used to count total staked amount of the address\n        uint256 totalStakeAmount;\n\n        // Keep a summary in memory since we need to calculate this\n        StakingSummary memory summary = StakingSummary(0, stakeholders[stakes[_staker]].address_stakes);\n\n        //Iterate all stakes and grab amount of stakes\n        for (uint256 s = 0; s < summary.stakes.length; s += 1) {\n            uint256 availableReward = calculateStakeReward(summary.stakes[s]);\n            summary.stakes[s].claimable = availableReward;\n            totalStakeAmount = totalStakeAmount + summary.stakes[s].amount;\n        }\n\n        // Assign calculate amount to summary\n        summary.total_amount = totalStakeAmount;\n\n        return summary;\n\n    }\n\n}",
  "sourcePath": "/home/thoubemanjaro/Desktop/Hitanshu/CryptoStocks/contracts/Stakable.sol",
  "compiler": {
    "name": "solc",
    "version": "0.8.12+commit.f00d7308.Emscripten.clang"
  },
  "schemaVersion": "3.4.6",
  "updatedAt": "2022-04-09T06:55:22.565Z",
  "devdoc": {
    "kind": "dev",
    "methods": {},
    "version": 1
  },
  "userdoc": {
    "events": {
      "Staked(address,uint256,uint256,uint256)": {
        "notice": "Staked event is triggered whenever a user stakes tokens, address is indexed to make it filterable"
      }
    },
    "kind": "user",
    "methods": {
      "constructor": {
        "notice": "Constructor since this contract is not ment to be used without inheritance push once to stakeholders for it to work proplerly"
      },
      "hasStake(address)": {
        "notice": "hasStake is used to check if a account has stakes and the total amount along with all the seperate stakes"
      }
    },
    "version": 1
  }
}