{
  "contractName": "StockCoin",
  "abi": [
    {
      "inputs": [
        {
          "internalType": "string",
          "name": "token_name",
          "type": "string"
        },
        {
          "internalType": "string",
          "name": "short_symbol",
          "type": "string"
        },
        {
          "internalType": "uint8",
          "name": "token_decimals",
          "type": "uint8"
        },
        {
          "internalType": "uint256",
          "name": "token_totalSupply",
          "type": "uint256"
        }
      ],
      "stateMutability": "nonpayable",
      "type": "constructor"
    },
    {
      "anonymous": false,
      "inputs": [
        {
          "indexed": true,
          "internalType": "address",
          "name": "owner",
          "type": "address"
        },
        {
          "indexed": true,
          "internalType": "address",
          "name": "spender",
          "type": "address"
        },
        {
          "indexed": false,
          "internalType": "uint256",
          "name": "value",
          "type": "uint256"
        }
      ],
      "name": "Approval",
      "type": "event"
    },
    {
      "anonymous": false,
      "inputs": [
        {
          "indexed": true,
          "internalType": "address",
          "name": "previousOwner",
          "type": "address"
        },
        {
          "indexed": true,
          "internalType": "address",
          "name": "newOwner",
          "type": "address"
        }
      ],
      "name": "OwnershipTransferred",
      "type": "event"
    },
    {
      "anonymous": false,
      "inputs": [
        {
          "indexed": true,
          "internalType": "address",
          "name": "from",
          "type": "address"
        },
        {
          "indexed": true,
          "internalType": "address",
          "name": "to",
          "type": "address"
        },
        {
          "indexed": false,
          "internalType": "uint256",
          "name": "value",
          "type": "uint256"
        }
      ],
      "name": "Transfer",
      "type": "event"
    },
    {
      "inputs": [],
      "name": "owner",
      "outputs": [
        {
          "internalType": "address",
          "name": "",
          "type": "address"
        }
      ],
      "stateMutability": "view",
      "type": "function"
    },
    {
      "inputs": [],
      "name": "renounceOwnership",
      "outputs": [],
      "stateMutability": "nonpayable",
      "type": "function"
    },
    {
      "inputs": [
        {
          "internalType": "address",
          "name": "newOwner",
          "type": "address"
        }
      ],
      "name": "transferOwnership",
      "outputs": [],
      "stateMutability": "nonpayable",
      "type": "function"
    },
    {
      "inputs": [],
      "name": "decimals",
      "outputs": [
        {
          "internalType": "uint8",
          "name": "",
          "type": "uint8"
        }
      ],
      "stateMutability": "view",
      "type": "function"
    },
    {
      "inputs": [],
      "name": "symbol",
      "outputs": [
        {
          "internalType": "string",
          "name": "",
          "type": "string"
        }
      ],
      "stateMutability": "view",
      "type": "function"
    },
    {
      "inputs": [],
      "name": "name",
      "outputs": [
        {
          "internalType": "string",
          "name": "",
          "type": "string"
        }
      ],
      "stateMutability": "view",
      "type": "function"
    },
    {
      "inputs": [],
      "name": "totalSupply",
      "outputs": [
        {
          "internalType": "uint256",
          "name": "",
          "type": "uint256"
        }
      ],
      "stateMutability": "view",
      "type": "function"
    },
    {
      "inputs": [
        {
          "internalType": "address",
          "name": "account",
          "type": "address"
        }
      ],
      "name": "balanceOf",
      "outputs": [
        {
          "internalType": "uint256",
          "name": "",
          "type": "uint256"
        }
      ],
      "stateMutability": "view",
      "type": "function"
    },
    {
      "inputs": [
        {
          "internalType": "address",
          "name": "account",
          "type": "address"
        },
        {
          "internalType": "uint256",
          "name": "amount",
          "type": "uint256"
        }
      ],
      "name": "burn",
      "outputs": [
        {
          "internalType": "bool",
          "name": "",
          "type": "bool"
        }
      ],
      "stateMutability": "nonpayable",
      "type": "function"
    },
    {
      "inputs": [
        {
          "internalType": "address",
          "name": "account",
          "type": "address"
        },
        {
          "internalType": "uint256",
          "name": "amount",
          "type": "uint256"
        }
      ],
      "name": "mint",
      "outputs": [
        {
          "internalType": "bool",
          "name": "",
          "type": "bool"
        }
      ],
      "stateMutability": "nonpayable",
      "type": "function"
    },
    {
      "inputs": [
        {
          "internalType": "address",
          "name": "recipient",
          "type": "address"
        },
        {
          "internalType": "uint256",
          "name": "amount",
          "type": "uint256"
        }
      ],
      "name": "transfer",
      "outputs": [
        {
          "internalType": "bool",
          "name": "",
          "type": "bool"
        }
      ],
      "stateMutability": "nonpayable",
      "type": "function"
    },
    {
      "inputs": [],
      "name": "getOwner",
      "outputs": [
        {
          "internalType": "address",
          "name": "",
          "type": "address"
        }
      ],
      "stateMutability": "view",
      "type": "function"
    },
    {
      "inputs": [
        {
          "internalType": "address",
          "name": "owner",
          "type": "address"
        },
        {
          "internalType": "address",
          "name": "spender",
          "type": "address"
        }
      ],
      "name": "allowance",
      "outputs": [
        {
          "internalType": "uint256",
          "name": "",
          "type": "uint256"
        }
      ],
      "stateMutability": "view",
      "type": "function"
    },
    {
      "inputs": [
        {
          "internalType": "address",
          "name": "spender",
          "type": "address"
        },
        {
          "internalType": "uint256",
          "name": "amount",
          "type": "uint256"
        }
      ],
      "name": "approve",
      "outputs": [
        {
          "internalType": "bool",
          "name": "",
          "type": "bool"
        }
      ],
      "stateMutability": "nonpayable",
      "type": "function"
    },
    {
      "inputs": [
        {
          "internalType": "address",
          "name": "spender",
          "type": "address"
        },
        {
          "internalType": "address",
          "name": "recipient",
          "type": "address"
        },
        {
          "internalType": "uint256",
          "name": "amount",
          "type": "uint256"
        }
      ],
      "name": "transferFrom",
      "outputs": [
        {
          "internalType": "bool",
          "name": "",
          "type": "bool"
        }
      ],
      "stateMutability": "nonpayable",
      "type": "function"
    },
    {
      "inputs": [
        {
          "internalType": "address",
          "name": "spender",
          "type": "address"
        },
        {
          "internalType": "uint256",
          "name": "amount",
          "type": "uint256"
        }
      ],
      "name": "increaseAllowance",
      "outputs": [
        {
          "internalType": "bool",
          "name": "",
          "type": "bool"
        }
      ],
      "stateMutability": "nonpayable",
      "type": "function"
    },
    {
      "inputs": [
        {
          "internalType": "address",
          "name": "spender",
          "type": "address"
        },
        {
          "internalType": "uint256",
          "name": "amount",
          "type": "uint256"
        }
      ],
      "name": "decreaseAllowance",
      "outputs": [
        {
          "internalType": "bool",
          "name": "",
          "type": "bool"
        }
      ],
      "stateMutability": "nonpayable",
      "type": "function"
    }
  ],
  "bytecode": "0x60806040523480156200001157600080fd5b5060405162002574380380620025748339818101604052810190620000379190620004c6565b336000806101000a81548173ffffffffffffffffffffffffffffffffffffffff021916908373ffffffffffffffffffffffffffffffffffffffff16021790555060008054906101000a900473ffffffffffffffffffffffffffffffffffffffff1673ffffffffffffffffffffffffffffffffffffffff16600073ffffffffffffffffffffffffffffffffffffffff167f8be0079c531659141344cd1fd0a4f28419497f9722a3daafe3b4186f6b6457e060405160405180910390a383600490805190602001906200010a92919062000200565b5082600390805190602001906200012392919062000200565b5081600260006101000a81548160ff021916908360ff16021790555080600181905550600154600560003373ffffffffffffffffffffffffffffffffffffffff1673ffffffffffffffffffffffffffffffffffffffff168152602001908152602001600020819055503373ffffffffffffffffffffffffffffffffffffffff16600073ffffffffffffffffffffffffffffffffffffffff167fddf252ad1be2c89b69c2b068fc378daa952ba7f163c4a11628f55a4df523b3ef600154604051620001ee919062000587565b60405180910390a35050505062000609565b8280546200020e90620005d3565b90600052602060002090601f0160209004810192826200023257600085556200027e565b82601f106200024d57805160ff19168380011785556200027e565b828001600101855582156200027e579182015b828111156200027d57825182559160200191906001019062000260565b5b5090506200028d919062000291565b5090565b5b80821115620002ac57600081600090555060010162000292565b5090565b6000604051905090565b600080fd5b600080fd5b600080fd5b600080fd5b6000601f19601f8301169050919050565b7f4e487b7100000000000000000000000000000000000000000000000000000000600052604160045260246000fd5b6200031982620002ce565b810181811067ffffffffffffffff821117156200033b576200033a620002df565b5b80604052505050565b600062000350620002b0565b90506200035e82826200030e565b919050565b600067ffffffffffffffff821115620003815762000380620002df565b5b6200038c82620002ce565b9050602081019050919050565b60005b83811015620003b95780820151818401526020810190506200039c565b83811115620003c9576000848401525b50505050565b6000620003e6620003e08462000363565b62000344565b905082815260208101848484011115620004055762000404620002c9565b5b6200041284828562000399565b509392505050565b600082601f830112620004325762000431620002c4565b5b815162000444848260208601620003cf565b91505092915050565b600060ff82169050919050565b62000465816200044d565b81146200047157600080fd5b50565b60008151905062000485816200045a565b92915050565b6000819050919050565b620004a0816200048b565b8114620004ac57600080fd5b50565b600081519050620004c08162000495565b92915050565b60008060008060808587031215620004e357620004e2620002ba565b5b600085015167ffffffffffffffff811115620005045762000503620002bf565b5b62000512878288016200041a565b945050602085015167ffffffffffffffff811115620005365762000535620002bf565b5b62000544878288016200041a565b9350506040620005578782880162000474565b92505060606200056a87828801620004af565b91505092959194509250565b62000581816200048b565b82525050565b60006020820190506200059e600083018462000576565b92915050565b7f4e487b7100000000000000000000000000000000000000000000000000000000600052602260045260246000fd5b60006002820490506001821680620005ec57607f821691505b60208210811415620006035762000602620005a4565b5b50919050565b611f5b80620006196000396000f3fe608060405234801561001057600080fd5b506004361061010b5760003560e01c8063715018a6116100a25780639dc29fac116100715780639dc29fac146102be578063a457c2d7146102ee578063a9059cbb1461031e578063dd62ed3e1461034e578063f2fde38b1461037e5761010b565b8063715018a61461025a578063893d20e8146102645780638da5cb5b1461028257806395d89b41146102a05761010b565b8063313ce567116100de578063313ce567146101ac57806339509351146101ca57806340c10f19146101fa57806370a082311461022a5761010b565b806306fdde0314610110578063095ea7b31461012e57806318160ddd1461015e57806323b872dd1461017c575b600080fd5b61011861039a565b60405161012591906115db565b60405180910390f35b61014860048036038101906101439190611696565b61042c565b60405161015591906116f1565b60405180910390f35b610166610443565b604051610173919061171b565b60405180910390f35b61019660048036038101906101919190611736565b61044d565b6040516101a391906116f1565b60405180910390f35b6101b46105b6565b6040516101c191906117a5565b60405180910390f35b6101e460048036038101906101df9190611696565b6105cd565b6040516101f191906116f1565b60405180910390f35b610214600480360381019061020f9190611696565b61066b565b60405161022191906116f1565b60405180910390f35b610244600480360381019061023f91906117c0565b61070f565b604051610251919061171b565b60405180910390f35b610262610758565b005b61026c6108a4565b60405161027991906117fc565b60405180910390f35b61028a6108b3565b60405161029791906117fc565b60405180910390f35b6102a86108dc565b6040516102b591906115db565b60405180910390f35b6102d860048036038101906102d39190611696565b61096e565b6040516102e591906116f1565b60405180910390f35b61030860048036038101906103039190611696565b610a12565b60405161031591906116f1565b60405180910390f35b61033860048036038101906103339190611696565b610ab0565b60405161034591906116f1565b60405180910390f35b61036860048036038101906103639190611817565b610ac7565b604051610375919061171b565b60405180910390f35b610398600480360381019061039391906117c0565b610b4e565b005b6060600480546103a990611886565b80601f01602080910402602001604051908101604052809291908181526020018280546103d590611886565b80156104225780601f106103f757610100808354040283529160200191610422565b820191906000526020600020905b81548152906001019060200180831161040557829003601f168201915b5050505050905090565b6000610439338484610be8565b6001905092915050565b6000600154905090565b600081600660008673ffffffffffffffffffffffffffffffffffffffff1673ffffffffffffffffffffffffffffffffffffffff16815260200190815260200160002060003373ffffffffffffffffffffffffffffffffffffffff1673ffffffffffffffffffffffffffffffffffffffff16815260200190815260200160002054101561050e576040517f08c379a00000000000000000000000000000000000000000000000000000000081526004016105059061192a565b60405180910390fd5b610519848484610db3565b6105ab843384600660008973ffffffffffffffffffffffffffffffffffffffff1673ffffffffffffffffffffffffffffffffffffffff16815260200190815260200160002060003373ffffffffffffffffffffffffffffffffffffffff1673ffffffffffffffffffffffffffffffffffffffff168152602001908152602001600020546105a69190611979565b610be8565b600190509392505050565b6000600260009054906101000a900460ff16905090565b6000610661338484600660003373ffffffffffffffffffffffffffffffffffffffff1673ffffffffffffffffffffffffffffffffffffffff16815260200190815260200160002060008873ffffffffffffffffffffffffffffffffffffffff1673ffffffffffffffffffffffffffffffffffffffff1681526020019081526020016000205461065c91906119ad565b610be8565b6001905092915050565b60003373ffffffffffffffffffffffffffffffffffffffff1660008054906101000a900473ffffffffffffffffffffffffffffffffffffffff1673ffffffffffffffffffffffffffffffffffffffff16146106fb576040517f08c379a00000000000000000000000000000000000000000000000000000000081526004016106f290611a75565b60405180910390fd5b610705838361109b565b6001905092915050565b6000600560008373ffffffffffffffffffffffffffffffffffffffff1673ffffffffffffffffffffffffffffffffffffffff168152602001908152602001600020549050919050565b3373ffffffffffffffffffffffffffffffffffffffff1660008054906101000a900473ffffffffffffffffffffffffffffffffffffffff1673ffffffffffffffffffffffffffffffffffffffff16146107e6576040517f08c379a00000000000000000000000000000000000000000000000000000000081526004016107dd90611a75565b60405180910390fd5b600073ffffffffffffffffffffffffffffffffffffffff1660008054906101000a900473ffffffffffffffffffffffffffffffffffffffff1673ffffffffffffffffffffffffffffffffffffffff167f8be0079c531659141344cd1fd0a4f28419497f9722a3daafe3b4186f6b6457e060405160405180910390a360008060006101000a81548173ffffffffffffffffffffffffffffffffffffffff021916908373ffffffffffffffffffffffffffffffffffffffff160217905550565b60006108ae6108b3565b905090565b60008060009054906101000a900473ffffffffffffffffffffffffffffffffffffffff16905090565b6060600380546108eb90611886565b80601f016020809104026020016040519081016040528092919081815260200182805461091790611886565b80156109645780601f1061093957610100808354040283529160200191610964565b820191906000526020600020905b81548152906001019060200180831161094757829003601f168201915b5050505050905090565b60003373ffffffffffffffffffffffffffffffffffffffff1660008054906101000a900473ffffffffffffffffffffffffffffffffffffffff1673ffffffffffffffffffffffffffffffffffffffff16146109fe576040517f08c379a00000000000000000000000000000000000000000000000000000000081526004016109f590611a75565b60405180910390fd5b610a088383611217565b6001905092915050565b6000610aa6338484600660003373ffffffffffffffffffffffffffffffffffffffff1673ffffffffffffffffffffffffffffffffffffffff16815260200190815260200160002060008873ffffffffffffffffffffffffffffffffffffffff1673ffffffffffffffffffffffffffffffffffffffff16815260200190815260200160002054610aa19190611979565b610be8565b6001905092915050565b6000610abd338484610db3565b6001905092915050565b6000600660008473ffffffffffffffffffffffffffffffffffffffff1673ffffffffffffffffffffffffffffffffffffffff16815260200190815260200160002060008373ffffffffffffffffffffffffffffffffffffffff1673ffffffffffffffffffffffffffffffffffffffff16815260200190815260200160002054905092915050565b3373ffffffffffffffffffffffffffffffffffffffff1660008054906101000a900473ffffffffffffffffffffffffffffffffffffffff1673ffffffffffffffffffffffffffffffffffffffff1614610bdc576040517f08c379a0000000000000000000000000000000000000000000000000000000008152600401610bd390611a75565b60405180910390fd5b610be581611415565b50565b600073ffffffffffffffffffffffffffffffffffffffff168373ffffffffffffffffffffffffffffffffffffffff161415610c58576040517f08c379a0000000000000000000000000000000000000000000000000000000008152600401610c4f90611b07565b60405180910390fd5b600073ffffffffffffffffffffffffffffffffffffffff168273ffffffffffffffffffffffffffffffffffffffff161415610cc8576040517f08c379a0000000000000000000000000000000000000000000000000000000008152600401610cbf90611b99565b60405180910390fd5b80600660008573ffffffffffffffffffffffffffffffffffffffff1673ffffffffffffffffffffffffffffffffffffffff16815260200190815260200160002060008473ffffffffffffffffffffffffffffffffffffffff1673ffffffffffffffffffffffffffffffffffffffff168152602001908152602001600020819055508173ffffffffffffffffffffffffffffffffffffffff168373ffffffffffffffffffffffffffffffffffffffff167f8c5be1e5ebec7d5bd14f71427d1e84f3dd0314c0f7b2291e5b200ac8c7c3b92583604051610da6919061171b565b60405180910390a3505050565b600073ffffffffffffffffffffffffffffffffffffffff168373ffffffffffffffffffffffffffffffffffffffff161415610e23576040517f08c379a0000000000000000000000000000000000000000000000000000000008152600401610e1a90611c2b565b60405180910390fd5b600073ffffffffffffffffffffffffffffffffffffffff168273ffffffffffffffffffffffffffffffffffffffff161415610e93576040517f08c379a0000000000000000000000000000000000000000000000000000000008152600401610e8a90611c2b565b60405180910390fd5b80600560008573ffffffffffffffffffffffffffffffffffffffff1673ffffffffffffffffffffffffffffffffffffffff168152602001908152602001600020541015610f15576040517f08c379a0000000000000000000000000000000000000000000000000000000008152600401610f0c90611cbd565b60405180910390fd5b80600560008573ffffffffffffffffffffffffffffffffffffffff1673ffffffffffffffffffffffffffffffffffffffff16815260200190815260200160002054610f609190611979565b600560008573ffffffffffffffffffffffffffffffffffffffff1673ffffffffffffffffffffffffffffffffffffffff1681526020019081526020016000208190555080600560008473ffffffffffffffffffffffffffffffffffffffff1673ffffffffffffffffffffffffffffffffffffffff16815260200190815260200160002054610fee91906119ad565b600560008473ffffffffffffffffffffffffffffffffffffffff1673ffffffffffffffffffffffffffffffffffffffff168152602001908152602001600020819055508173ffffffffffffffffffffffffffffffffffffffff168373ffffffffffffffffffffffffffffffffffffffff167fddf252ad1be2c89b69c2b068fc378daa952ba7f163c4a11628f55a4df523b3ef8360405161108e919061171b565b60405180910390a3505050565b600073ffffffffffffffffffffffffffffffffffffffff168273ffffffffffffffffffffffffffffffffffffffff16141561110b576040517f08c379a000000000000000000000000000000000000000000000000000000000815260040161110290611d4f565b60405180910390fd5b8060015461111991906119ad565b60018190555080600560008473ffffffffffffffffffffffffffffffffffffffff1673ffffffffffffffffffffffffffffffffffffffff1681526020019081526020016000205461116a91906119ad565b600560008473ffffffffffffffffffffffffffffffffffffffff1673ffffffffffffffffffffffffffffffffffffffff168152602001908152602001600020819055508173ffffffffffffffffffffffffffffffffffffffff16600073ffffffffffffffffffffffffffffffffffffffff167fddf252ad1be2c89b69c2b068fc378daa952ba7f163c4a11628f55a4df523b3ef8360405161120b919061171b565b60405180910390a35050565b600073ffffffffffffffffffffffffffffffffffffffff168273ffffffffffffffffffffffffffffffffffffffff161415611287576040517f08c379a000000000000000000000000000000000000000000000000000000000815260040161127e90611de1565b60405180910390fd5b80600560008473ffffffffffffffffffffffffffffffffffffffff1673ffffffffffffffffffffffffffffffffffffffff168152602001908152602001600020541015611309576040517f08c379a000000000000000000000000000000000000000000000000000000000815260040161130090611e73565b60405180910390fd5b80600560008473ffffffffffffffffffffffffffffffffffffffff1673ffffffffffffffffffffffffffffffffffffffff168152602001908152602001600020546113549190611979565b600560008473ffffffffffffffffffffffffffffffffffffffff1673ffffffffffffffffffffffffffffffffffffffff16815260200190815260200160002081905550806001546113a59190611979565b600181905550600073ffffffffffffffffffffffffffffffffffffffff168273ffffffffffffffffffffffffffffffffffffffff167fddf252ad1be2c89b69c2b068fc378daa952ba7f163c4a11628f55a4df523b3ef83604051611409919061171b565b60405180910390a35050565b600073ffffffffffffffffffffffffffffffffffffffff168173ffffffffffffffffffffffffffffffffffffffff161415611485576040517f08c379a000000000000000000000000000000000000000000000000000000000815260040161147c90611f05565b60405180910390fd5b8073ffffffffffffffffffffffffffffffffffffffff1660008054906101000a900473ffffffffffffffffffffffffffffffffffffffff1673ffffffffffffffffffffffffffffffffffffffff167f8be0079c531659141344cd1fd0a4f28419497f9722a3daafe3b4186f6b6457e060405160405180910390a3806000806101000a81548173ffffffffffffffffffffffffffffffffffffffff021916908373ffffffffffffffffffffffffffffffffffffffff16021790555050565b600081519050919050565b600082825260208201905092915050565b60005b8381101561157c578082015181840152602081019050611561565b8381111561158b576000848401525b50505050565b6000601f19601f8301169050919050565b60006115ad82611542565b6115b7818561154d565b93506115c781856020860161155e565b6115d081611591565b840191505092915050565b600060208201905081810360008301526115f581846115a2565b905092915050565b600080fd5b600073ffffffffffffffffffffffffffffffffffffffff82169050919050565b600061162d82611602565b9050919050565b61163d81611622565b811461164857600080fd5b50565b60008135905061165a81611634565b92915050565b6000819050919050565b61167381611660565b811461167e57600080fd5b50565b6000813590506116908161166a565b92915050565b600080604083850312156116ad576116ac6115fd565b5b60006116bb8582860161164b565b92505060206116cc85828601611681565b9150509250929050565b60008115159050919050565b6116eb816116d6565b82525050565b600060208201905061170660008301846116e2565b92915050565b61171581611660565b82525050565b6000602082019050611730600083018461170c565b92915050565b60008060006060848603121561174f5761174e6115fd565b5b600061175d8682870161164b565b935050602061176e8682870161164b565b925050604061177f86828701611681565b9150509250925092565b600060ff82169050919050565b61179f81611789565b82525050565b60006020820190506117ba6000830184611796565b92915050565b6000602082840312156117d6576117d56115fd565b5b60006117e48482850161164b565b91505092915050565b6117f681611622565b82525050565b600060208201905061181160008301846117ed565b92915050565b6000806040838503121561182e5761182d6115fd565b5b600061183c8582860161164b565b925050602061184d8582860161164b565b9150509250929050565b7f4e487b7100000000000000000000000000000000000000000000000000000000600052602260045260246000fd5b6000600282049050600182168061189e57607f821691505b602082108114156118b2576118b1611857565b5b50919050565b7f53746f636b436f696e3a20596f752063616e6e6f74207370656e64207468617460008201527f206d756368206f6e2074686973206163636f756e740000000000000000000000602082015250565b600061191460358361154d565b915061191f826118b8565b604082019050919050565b6000602082019050818103600083015261194381611907565b9050919050565b7f4e487b7100000000000000000000000000000000000000000000000000000000600052601160045260246000fd5b600061198482611660565b915061198f83611660565b9250828210156119a2576119a161194a565b5b828203905092915050565b60006119b882611660565b91506119c383611660565b9250827fffffffffffffffffffffffffffffffffffffffffffffffffffffffffffffffff038211156119f8576119f761194a565b5b828201905092915050565b7f4f776e61626c653a206f6e6c79206f776e65722063616e2063616c6c2074686960008201527f732066756e6374696f6e00000000000000000000000000000000000000000000602082015250565b6000611a5f602a8361154d565b9150611a6a82611a03565b604082019050919050565b60006020820190508181036000830152611a8e81611a52565b9050919050565b7f53746f636b436f696e3a20617070726f76652063616e6e6f7420626520646f6e60008201527f652066726f6d207a65726f206164647265737300000000000000000000000000602082015250565b6000611af160338361154d565b9150611afc82611a95565b604082019050919050565b60006020820190508181036000830152611b2081611ae4565b9050919050565b7f53746f636b436f696e3a20617070726f76652063616e6e6f7420626520746f2060008201527f7a65726f20616464726573730000000000000000000000000000000000000000602082015250565b6000611b83602c8361154d565b9150611b8e82611b27565b604082019050919050565b60006020820190508181036000830152611bb281611b76565b9050919050565b7f53746f636b436f696e3a207472616e736665722066726f6d207a65726f20616460008201527f6472657373000000000000000000000000000000000000000000000000000000602082015250565b6000611c1560258361154d565b9150611c2082611bb9565b604082019050919050565b60006020820190508181036000830152611c4481611c08565b9050919050565b7f53746f636b436f696e3a2063616e74207472616e73666572206d6f726520746860008201527f616e20796f7572206163636f756e7420686f6c64730000000000000000000000602082015250565b6000611ca760358361154d565b9150611cb282611c4b565b604082019050919050565b60006020820190508181036000830152611cd681611c9a565b9050919050565b7f53746f636b436f696e3a2063616e6e6f74206d696e7420746f207a65726f206160008201527f6464726573730000000000000000000000000000000000000000000000000000602082015250565b6000611d3960268361154d565b9150611d4482611cdd565b604082019050919050565b60006020820190508181036000830152611d6881611d2c565b9050919050565b7f53746f636b436f696e3a2063616e6e6f74206275726e2066726f6d207a65726f60008201527f2061646472657373000000000000000000000000000000000000000000000000602082015250565b6000611dcb60288361154d565b9150611dd682611d6f565b604082019050919050565b60006020820190508181036000830152611dfa81611dbe565b9050919050565b7f53746f636b436f696e3a2063616e6e6f74206275726e206d6f7265207468616e60008201527f20746865206163636f756e74206f776e73000000000000000000000000000000602082015250565b6000611e5d60318361154d565b9150611e6882611e01565b604082019050919050565b60006020820190508181036000830152611e8c81611e50565b9050919050565b7f4f776e61626c653a206e6577206f776e6572206973207a65726f20616464726560008201527f7373000000000000000000000000000000000000000000000000000000000000602082015250565b6000611eef60228361154d565b9150611efa82611e93565b604082019050919050565b60006020820190508181036000830152611f1e81611ee2565b905091905056fea26469706673582212208a99db69ea553345db673f43b606d6bd221bd80e9c47e2e0f87716b66118cb7164736f6c634300080c0033",
  "immutableReferences": {},
  "source": "// SPDX-License-Identifier: MIT\npragma solidity ^0.8.12;\n\nimport \"./Ownable.sol\";\n\ncontract StockCoin is Ownable {\n    \n    /**\n    * @notice Our Tokens required variables that are needed to operate everything\n    */\n    uint private _totalSupply;\n    uint8 private _decimals;\n    string private _symbol;\n    string private _name;\n\n    /**\n    * @notice _balances is a mapping that contains a address as KEY \n    * and the balance of the address as the value\n    */\n    mapping (address => uint256) private _balances;\n\n    /**\n    * @notice Events are created below.\n    * Transfer event is a event that notify the blockchain that a transfer of assets has taken place\n    *\n    */\n    event Transfer (address indexed from, address indexed to, uint256 value);\n\n    /**\n    * @notice constructor will be triggered when we create the Smart contract\n    * _name = name of the token\n    * _short_symbol = Short Symbol name for the token\n    * token_decimals = The decimal precision of the Token, defaults 18\n    * _totalSupply is how much Tokens there are totally \n    */\n    constructor (string memory token_name, string memory short_symbol, uint8 token_decimals, uint256 token_totalSupply) {\n\n        _name = token_name;\n        _symbol = short_symbol;\n        _decimals = token_decimals;\n        _totalSupply = token_totalSupply;\n\n        // Add all the tokens created to the creator of the token\n        _balances[msg.sender] = _totalSupply;\n\n        // Emit an Transfer event to notify the blockchain that a Transfer has occured\n        emit Transfer(address(0), msg.sender, _totalSupply);\n\n    }\n\n    /**\n    * @notice decimals will return the number of decimal precision the Token is deployed with\n    */\n    function decimals () external view returns (uint8) {\n        return _decimals;\n    }\n\n    /**\n    * @notice symbol will return the Token's symbol \n    */\n    function symbol() external view returns (string memory){\n        return _symbol;\n    }\n\n    /**\n    * @notice name will return the Token's symbol \n    */\n    function name() external view returns (string memory){\n        return _name;\n    }\n\n    /**\n    * @notice totalSupply will return the tokens total supply of tokens\n    */\n    function totalSupply() external view returns (uint256){\n        return _totalSupply;\n    }\n\n    /**\n    * @notice balanceOf will return the account balance for the given account\n    */\n    function balanceOf(address account) external view returns (uint256) {\n\n        return _balances[account];\n\n    }\n\n    /**\n    * @notice _mint will create tokens on the address inputted and then increase the total supply\n    *\n    * It will also emit an Transfer event, with sender set to zero address (adress(0))\n    * \n    * Requires that the address that is recieveing the tokens is not zero address\n    */\n    function _mint (address account, uint256 amount) internal {\n\n        require(account != address(0), \"StockCoin: cannot mint to zero address\");\n\n        // Increase total supply\n        _totalSupply = _totalSupply + amount;\n\n        // Add amount to the account balance using the balance mapping\n        _balances[account] = _balances[account] + amount;\n\n        // Emit our event to log the action\n        emit Transfer(address(0), account, amount);\n\n    }\n\n    /**\n    * @notice _burn will destroy tokens from an address inputted and then decrease total supply\n    * An Transfer event will emit with receiever set to zero address\n    * \n    * Requires \n    * - Account cannot be zero\n    * - Account balance has to be bigger or equal to amount\n    */\n    function _burn (address account, uint256 amount) internal {\n\n        require (account != address(0), \"StockCoin: cannot burn from zero address\");\n        require (_balances[account] >= amount, \"StockCoin: cannot burn more than the account owns\");\n\n        // Remove the amount from the account balance\n        _balances[account] = _balances[account] - amount;\n\n        //Decerease totalSupply\n        _totalSupply = _totalSupply - amount;\n\n        // Emit event, user zero address as receiver\n        emit Transfer (account, address(0), amount);\n\n    }\n\n    /**\n    * @notice burn is used to destroy tokens on an address\n    * \n    * See {_burn}\n    * Requires\n    *   - msg.sender must be the token owner\n    *\n    */\n\n    function burn (address account, uint256 amount) public onlyOwner returns(bool) {\n\n        _burn(account, amount);\n        return true;\n\n    }\n\n    /**\n    * @notice mint is used to create tokens and assign them to msg.sender\n    * \n    * See {_mint}\n    * Requires\n    *   - msg.sender must be the token owner\n    *\n    */\n    function mint (address account, uint256 amount) public onlyOwner returns (bool) {\n\n        _mint(account, amount);\n        return true;\n\n    }\n\n    /**\n    * @notice transfer is used to transfer funds from the sender to the recipient\n    * This function is only callable from outside the contract. For internal usage see \n    * _transfer\n    *\n    * Requires\n    * - Caller cannot be zero\n    * - Caller must have a balance = or bigger than amount\n    *\n    */\n    function transfer(address recipient, uint256 amount) external returns (bool) {\n\n        _transfer (msg.sender, recipient, amount);\n        return true;\n\n    }\n\n    /**\n    * @notice _transfer is used for internal transfers\n    * \n    * Events\n    * - Transfer\n    * \n    * Requires\n    *  - Sender cannot be zero\n    *  - recipient cannot be zero \n    *  - sender balance most be = or bigger than amount\n    */\n    function _transfer(address sender, address recipient, uint256 amount) internal {\n\n        require(sender != address(0), \"StockCoin: transfer from zero address\");\n        require(recipient != address(0), \"StockCoin: transfer from zero address\");\n        require(_balances[sender] >= amount, \"StockCoin: cant transfer more than your account holds\");\n\n        _balances[sender] = _balances[sender] - amount;\n        _balances[recipient] = _balances[recipient] + amount;\n\n        emit Transfer(sender, recipient, amount);\n\n    }\n\n    /**\n    * @notice _allowances is used to manage and control allownace\n    * An allowance is the right to use another accounts balance, or part of it\n    */\n    mapping (address => mapping (address => uint256)) private _allowances;\n\n    /**\n    * @notice Approval is emitted when a new Spender is approved to spend Tokens on\n    * the Owners account\n    */\n    event Approval (address indexed owner, address indexed spender, uint256 value);\n\n    /**\n    * @notice getOwner just calls Ownables owner function. \n    * returns owner of the token\n    * \n    */\n    function getOwner() external view returns (address) {\n\n        return owner();\n\n    }\n\n    /**\n    * @notice allowance is used view how much allowance an spender has\n    */\n    function allowance (address owner, address spender) external view returns (uint256) {\n\n        return _allowances[owner][spender];\n\n    }\n\n    /**\n    * @notice approve will use the senders address and allow the spender to use X amount of tokens on his behalf\n    */\n    function approve (address spender, uint256 amount) external returns (bool) {\n\n        _approve(msg.sender, spender, amount);\n        return true;\n\n    }\n\n    /**\n   * @notice _approve is used to add a new Spender to a Owners account\n   * \n   * Events\n   *   - {Approval}\n   * \n   * Requires\n   *   - owner and spender cannot be zero address\n    */\n    function _approve(address owner, address spender, uint256 amount) internal {\n\n        require(owner != address(0), \"StockCoin: approve cannot be done from zero address\");\n        require(spender != address(0), \"StockCoin: approve cannot be to zero address\");\n\n        // Set the allowance of the spender address at the Owner mapping over accounts to the amount\n        _allowances[owner][spender] = amount;\n\n        emit Approval(owner, spender, amount);\n\n    }\n\n    /**\n    * @notice transferFrom is uesd to transfer Tokens from a Accounts allowance\n    * Spender address should be the token holder\n    *\n    * Requires\n    *   - The caller must have a allowance = or bigger than the amount spending\n    */\n    function transferFrom (address spender, address recipient, uint256 amount) external returns (bool) {\n\n        // Make sure spender is allowed the amount\n        require(_allowances[spender][msg.sender] >= amount, \"StockCoin: You cannot spend that much on this account\");\n\n        // Transfer first\n        _transfer(spender, recipient, amount);\n\n        // Reduce current allowance so a user cannot respend\n        _approve(spender, msg.sender, _allowances[spender][msg.sender] - amount);\n        \n        return true;\n\n    }\n\n    /**\n    * @notice increaseAllowance\n    * Adds allowance to a account from the function caller address\n    */\n    function increaseAllowance(address spender, uint256 amount) public returns (bool) {\n\n        _approve(msg.sender, spender, _allowances[msg.sender][spender] + amount);\n\n        return true;\n\n    }\n\n    /**\n    * @notice decreaseAllowance\n    * Decrease the allowance on the account inputted from the caller address\n    */\n    function decreaseAllowance(address spender, uint256 amount) public returns (bool) {\n\n        _approve(msg.sender, spender, _allowances[msg.sender][spender] - amount);\n\n        return true;\n\n    }\n\n}",
  "sourcePath": "/home/thoubemanjaro/Desktop/Hitanshu/CryptoStocks/contracts/StockCoin.sol",
  "compiler": {
    "name": "solc",
    "version": "0.8.12+commit.f00d7308.Emscripten.clang"
  },
  "schemaVersion": "3.4.6",
  "updatedAt": "2022-04-07T09:30:32.329Z",
  "devdoc": {
    "kind": "dev",
    "methods": {},
    "version": 1
  },
  "userdoc": {
    "events": {
      "Approval(address,address,uint256)": {
        "notice": "Approval is emitted when a new Spender is approved to spend Tokens on the Owners account"
      },
      "OwnershipTransferred(address,address)": {
        "notice": "Event OwnershipTransferred is used to log that a ownership change of the token has occured"
      },
      "Transfer(address,address,uint256)": {
        "notice": "Events are created below. Transfer event is a event that notify the blockchain that a transfer of assets has taken place"
      }
    },
    "kind": "user",
    "methods": {
      "allowance(address,address)": {
        "notice": "allowance is used view how much allowance an spender has"
      },
      "approve(address,uint256)": {
        "notice": "approve will use the senders address and allow the spender to use X amount of tokens on his behalf"
      },
      "balanceOf(address)": {
        "notice": "balanceOf will return the account balance for the given account"
      },
      "burn(address,uint256)": {
        "notice": "burn is used to destroy tokens on an address  See {_burn} Requires   - msg.sender must be the token owner"
      },
      "constructor": {
        "notice": "constructor will be triggered when we create the Smart contract _name = name of the token _short_symbol = Short Symbol name for the token token_decimals = The decimal precision of the Token, defaults 18 _totalSupply is how much Tokens there are totally "
      },
      "decimals()": {
        "notice": "decimals will return the number of decimal precision the Token is deployed with"
      },
      "decreaseAllowance(address,uint256)": {
        "notice": "decreaseAllowance Decrease the allowance on the account inputted from the caller address"
      },
      "getOwner()": {
        "notice": "getOwner just calls Ownables owner function.  returns owner of the token "
      },
      "increaseAllowance(address,uint256)": {
        "notice": "increaseAllowance Adds allowance to a account from the function caller address"
      },
      "mint(address,uint256)": {
        "notice": "mint is used to create tokens and assign them to msg.sender  See {_mint} Requires   - msg.sender must be the token owner"
      },
      "name()": {
        "notice": "name will return the Token's symbol "
      },
      "owner()": {
        "notice": "owner() returns the currently assigned owner of the Token "
      },
      "renounceOwnership()": {
        "notice": "renounceOwnership will set the owner to zero address This will make the contract owner less, It will make ALL functions with onlyOwner no longer callable. There is no way of restoring the owner"
      },
      "symbol()": {
        "notice": "symbol will return the Token's symbol "
      },
      "totalSupply()": {
        "notice": "totalSupply will return the tokens total supply of tokens"
      },
      "transfer(address,uint256)": {
        "notice": "transfer is used to transfer funds from the sender to the recipient This function is only callable from outside the contract. For internal usage see  _transfer Requires - Caller cannot be zero - Caller must have a balance = or bigger than amount"
      },
      "transferFrom(address,address,uint256)": {
        "notice": "transferFrom is uesd to transfer Tokens from a Accounts allowance Spender address should be the token holder Requires   - The caller must have a allowance = or bigger than the amount spending"
      },
      "transferOwnership(address)": {
        "notice": "transferOwnership will assign the {newOwner} as owner"
      }
    },
    "version": 1
  }
}